:020000040800F2
:10000000400B0020A1010008FF290008012700087B
:10001000FD2900086D0E0008C9310008000000002D
:10002000000000000000000000000000032A00089B
:10003000390F000800000000012A0008052A000806
:10004000BB010008BB010008BB010008BB010008A0
:10005000BB010008BB0100083B0F00084D0F000862
:100060005F0F0008710F0008BB010008BB0100080A
:10007000710E0008BB010008BB010008BB010008AD
:100080007D0E0008BB010008BB010008BB01000891
:10009000BB010008BB010008BB010008BB01000850
:1000A000BB010008AD2A0008BB010008BB01000825
:1000B000BB010008BB010008BB010008BB01000830
:1000C000BB010008BB010008BB010008BB01000820
:1000D000BB010008313000083D30000849300008FD
:1000E000BB010008BB010008BB010008BB01000800
:1000F000BB010008BB010008BB010008BB010008F0
:10010000BB010008BB010008BB010008BB010008DF
:10011000BB010008BB010008BB010008BB010008CF
:10012000BB010008BB010008890E0008BB010008E4
:10013000BB010008BB010008BB010008BB010008AF
:10014000BB010008BB010008BB010008BB0100089F
:10015000BB010008BB010008BB010008BB0100088F
:10016000BB010008BB010008BB010008BB0100087F
:10017000BB010008BB010008BB0100080000000033
:10018000BB010008BB010008DFF810D000F0A6FB9F
:100190000048004799410008AFF30080400B002061
:1001A0000648804706480047FEE7FEE7FEE7FEE711
:1001B000FEE7FEE7FEE7FEE7FEE7FEE79D2A000812
:1001C000890100082DE9F05F0546002092469B4614
:1001D00088460646814640241BE02846414647465D
:1001E000224600F0A5F853465A46C01A914110D352
:1001F00011461846224600F08CF82D1A67EB0108CC
:100200004F4622460120002100F083F817EB000939
:100210004E41201EA4F10104DFDC484631462A4647
:100220004346BDE8F09F40EA01039B0703D009E085
:1002300008C9121F08C0042AFAD203E011F8013BD2
:1002400000F8013B521EF9D27047D2B201E000F82B
:10025000012B491EFBD270470022F6E710B513466A
:100260000A4604461946FFF7F0FF204610BD70B558
:10027000064602F0CBFF046805460A2200213046FC
:1002800000F0B4F82C6070BD00F0004230F0004087
:100290000AD0C10D01F56071C0F3160042EA0151A8
:1002A000C20840071143704700200146704701F023
:1002B000004330B421F0004150EA010206D00A0D9B
:1002C000A2F56072C1F31301002A02DC30BC0020E9
:1002D0007047440F44EAC104C100E01830BC00EB91
:1002E000C25000F0BBB830B50B46014600202022BA
:1002F000012409E021FA02F59D4205D303FA02F533
:10030000491B04FA02F52844151EA2F10102F1DC92
:1003100030BD202A04DB203A00FA02F100207047A9
:100320009140C2F1200320FA03F319439040704733
:10033000202A04DB203A21FA02F00021704721FA3A
:1003400002F3D040C2F120029140084319467047A1
:100350000FB4002300B589B00CA900910B996FF080
:100360000042CB601E4B06931E4B07930423CDE93E
:1003700001321D4A089202466B46002000F074FBD1
:1003800009B05DF814FB70B586B006464FF0FF303B
:100390000091CDE90101002015460C46049032463B
:1003A000694604A8FFF7D4FF02460498211825B136
:1003B00008B1084600E020462860049800280DD0C7
:1003C000002A02DD0098884208D0081B0094CDE97D
:1003D00001043246694604A8FFF7BAFF06B070BDB3
:1003E000A10C0008BF0C00082D0900082DE9F047FA
:1003F00091460F4680460446002614F8015B2DB155
:1004000000F090FA0068405DC007F6D12B2D02D0B5
:100410002D2D18D0641E4A463946204600F060FC57
:1004200027B13968A14201D1C7F8008071054FF0AA
:1004300002040BD54042002803DD02F0E7FE046011
:10044000A007BDE8F08746F48066E4E70028F8DA04
:1004500002F0DCFE04606FF00040F2E70029A8BF64
:100460007047401C490008BF20F00100704710B4DD
:10047000B0FA80FC00FA0CF050EA010404BF10BC92
:10048000704749B1CCF1200421FA04F411FA0CF1BF
:1004900018BF012121430843A3EB0C01CB1D4FEAF8
:1004A00000614FEA102042BF002010BC704700EBF3
:1004B000C35010440029A4BF10BC7047401C490021
:1004C00008BF20F0010010BC70472DE9FE4F8046A8
:1004D00081EA0300C00F0C46009021F0004123F098
:1004E0000045B8EB0200A94105D24046214690469E
:1004F0001C460B46024623F00040104347D0270D10
:10050000C7F30A00C3F30A510290401A0190402831
:100510006BDAC3F3130040F4801B0098924620B1BD
:100520000023D2EB030A63EB0B0B01985946C0F191
:1005300040025046FFF7EDFE06460D46504659462E
:10054000019A00F0DDF910EB08006141002487EA10
:10055000115284EAE7731A4340D0009A62B3019AB9
:10056000012A4FEA075215DC001B61EB02014FF034
:10057000004202EA0752CDE90042001C41F5801119
:1005800032462B4600F00AFC03B0BDE8F08F40462F
:100590002146F9E7001B61EB0201001C41F58013C5
:1005A00000185B412018A2F5001747EB030140EA51
:1005B000D570B6196D4111E06D084FEA360645EA6F
:1005C000C0754FEA0752001B61EB0201001C41F5A8
:1005D000801149084FEA30000019514132462B463C
:1005E00003B0BDE8F04F00F0CABB00980122400004
:1005F0000023D0EB020263EBE073009821464FEA40
:10060000E074B8EB000061EB0401E9E783F000431C
:100610005BE781F0004158E72DE9FE4F81EA0304D2
:1006200004F0004421F0004100944FF0000B23F04F
:10063000004350EA01045ED052EA03045BD0C3F3E6
:100640000A54C1F30A552C44A4F2F3340194A0FBDC
:100650000254C1F3130141F48011C3F3130343F4B3
:10066000801301FB024400FB034E840A970A44EA0C
:10067000815447EA8357A4FB076802958D0A05FB5E
:1006800007854FEA932C04FB0C542705029D4FEA83
:10069000065847EA1637B5EB08056EEB070C870ED0
:1006A000920E47EA811742EA8312A7FB0201B6EBDA
:1006B0000B0164EB00042B0D43EA0C335E1844EB92
:1006C0001C50DA465146E7FB0201C5F313044FEA1A
:1006D0000B3343EA14534FEA0432019C43EA060306
:1006E000A4F10C040294009CCDE900B400F056FB88
:1006F00003B0BDE8F08F00200146F9E72DE9F04D89
:1007000081EA030404F0004B21F0004514464FF049
:10071000000A23F0004150EA050220D054EA010209
:100720001DD0C5F30A570246C5F31303C1F31300E6
:10073000C1F30A5640F4801543F48013A7EB060872
:10074000101BD64608F2FD3873EB050002D308F102
:10075000010801E092185B41B8F1000F03DA0020B4
:100760000146BDE8F08D00204FF480110646844616
:100770000EE0171B73EB050705D3121B63EB050394
:1007800006434CEA010C49084FEA300092185B41DD
:1007900050EA0107EDD152EA030012D082EA0400C8
:1007A00083EA0501084305D0101BAB4106D20122A4
:1007B000002306E000224FF0004302E06FF0010248
:1007C00053101AEB06004CEB085110EB0A0041EBFA
:1007D0000B01BDE8F04D00F0D2BA2DE9F04D002339
:1007E0001A461B1A8A4103DB00200146BDE8F08D42
:1007F000C1F30A52C1F3130141F480154FF0000B0D
:10080000D10702D100186D41521E0027044640F264
:10081000FF11384601EB620A3E4680460246002040
:100820004FF48011FFF784FDC2197141BB1846EBEC
:100830000100B4EB030C75EB000C04D3E41A65EB78
:10084000000517460E46241908F101006D41804647
:100850003428E3DDF91946EB0600091BA84103D251
:100860004FF0FF32134601E0002213461BEB070056
:1008700046EB0A51BDE8F04D00F081BAC1F30A52CF
:10088000C1F3130140F2FF3341F480119A4202DABE
:1008900000200146704740F233439A42A2F23342AD
:1008A00002DC5242FFF744BDFFF733BD30B5041EF2
:1008B00071F1000404DB4FF00044404264EB01019D
:1008C000141E73F1000405DB1C464FF00043524236
:1008D00063EB0403994208BF904230BD064C074DBC
:1008E00006E0E06840F0010394E807009847103400
:1008F000AC42F6D3FFF74CFC88450008A845000839
:10090000202A06DBCB17203A41FA02F043EAE073D3
:1009100006E041FA02F3D040C2F1200291400843C0
:1009200019467047004870477445000810B50446E2
:10093000FFF7F8FF0068005D00F0010010BD000047
:100940002DE9FF4F087883B09946FF2805D0491C50
:100950002D2804D00024002008E000200BE0012412
:10096000F9E700EB800003EB4000491C0B78FF2BFC
:10097000F7D104B1404200230293147819461D4672
:100980002D2C01D02B2C04D1521C2D2C13D0002443
:100990000294AA461478FF2C0FD00A25A3FB0578F1
:1009A00001FB05814FF0000C03FB0C11521CE319F5
:1009B0004AEB0101EEE70124EAE7814453EA010032
:1009C00002D019F5C87F06DA03980021C0E90011AA
:1009D00007B0BDE8F08F0025AE4E2F46DFF8B88295
:1009E000184600F037FACDE90001B9F1000002DA4B
:1009F000C9F1000400E004460023A74A1AEB030BE8
:100A000042EB045A12E0E00707D02A463346384644
:100A10004146FFF701FE074688462A463346104600
:100A20001946FFF7F9FD05460E466410002CEAD181
:100A3000DDE90001B9F1000F5A46534606DAFFF727
:100A40005DFE3A464346FFF759FE05E0FFF7E4FD39
:100A50003A464346FFF7E0FD029A0AB181F00041B1
:100A6000039AC2E90001B3E72DE9FF4F1F468DB09D
:100A7000D7E901464FF0FF382E2045464FF00009D8
:100A80000B90B9696D1C0E988847396A8246884771
:100A90000028F6D1BAF1FF3F0AD024F4D064002E2A
:100AA00011DDBAF12B0F08D0BAF12D0F0BD102E0F6
:100AB000404611B08DE744F48064B9696D1C0E980E
:100AC00088478246761E6946600501D52D2000E0E4
:100AD0002B208DF8000001F1010B0DF1200809E039
:100AE000B9696D1C0E98884782460F9844F40074CB
:100AF000761E0560002E02DDBAF1300FF0D00B99A2
:100B00008A453ED144F0800406E00F99681CA9F1A3
:100B1000010944F400740860B9696D1C761E0E98D2
:100B2000884782463028F0D02BE00B998A4505D1C2
:100B3000200603D444F08004761E18E0504602F0EC
:100B4000A3FC08B30DF11301761E44F400748B4529
:100B500008D2AAF130000BF8010B200607D5A9F145
:100B6000010003E0200602D409F101008146A0053E
:100B700002D50F99681C0860B9696D1C0E988847EA
:100B80008246002ED1DC53E0002E51DDBAF1650F14
:100B900002D0BAF1450F4BD1A00549D5B9696D1CFA
:100BA00024F44074761E0E9888478246002E0CDD91
:100BB0002B2804D0BAF12D0F07D144F48074B96901
:100BC0006D1C0E9888478246761EE00501D52D21C2
:100BD00000E02B2108F8011BCDF82C8021E00DF15D
:100BE0002901761E44F4007488450CD2AAF1300025
:100BF00010F0FF0088F8000002D10B99884509D950
:100C000008F1010806E0E00501D5244801E042F2C0
:100C10000F708146B9696D1C0E98884782460F98FF
:100C20000560002E04DD504602F02EFC0028D6D1CF
:100C3000F9690E988847FF208BF8000088F80000BB
:100C40000020069007904B466A4608A906A8FFF7C1
:100C500077FEA00502D46FF001002AE714F0240FFC
:100C60000AD0E00714D1DDE906123868031D3B60A5
:100C70000068C0E900120BE0DDE90601FFF717FB91
:100C80000146E00704D13868021D3A60006801603F
:100C900028460EE7000014400000F03FF1D8FFFFA7
:100CA000426842B1016811F8013B23B1521EC0E90C
:100CB0000012184670470121C160881E70474268C3
:100CC0005AB1C368016843B983688B4205D0491E95
:100CD000521CC0E90012002070474FF0FF307047EF
:100CE0002DE9F05F82460078002715468B460AF111
:100CF0000104B946302801D09DB113E014F8010B6E
:100D00000127782803D0582801D045B10AE00DB159
:100D1000102D07D10027102514F8010B02E008253B
:100D200000E00A250026B0460EE005FB080005FBA2
:100D300006F1012701EB10461FFA80F8B6F5803F57
:100D400000D3B94614F8010B294600F075F80028C5
:100D5000EBDABBF1000F05D00FB1641E00E0544682
:100D6000CBF80040B9F1000F06D002F04FFA022193
:100D70000160C81EBDE8F09F48EA0640FAE710B5DA
:100D8000141E73F1000408DA401C41F100019218AE
:100D90005B411A4301D120F0010010BD2DE9F04D57
:100DA00092469B4611B1B1FA81F202E0B0FA80F2AC
:100DB00020329046FFF7ADFA04460F4640EA0A009B
:100DC00041EA0B0153465A46084313D0114653EAF1
:100DD000010019D0C8F140025046FFF7A9FA0546B4
:100DE0000E46504659464246FFF793FA084305D04F
:100DF000012004E020463946BDE8F08D002005437F
:100E000046EAE0762C4337430A986305E40AA0EBF0
:100E100008000022FD0A44EA47540A3002D50020A7
:100E20000146E9E7010510196941DDE908450019A6
:100E30006941BDE8F04DA2E73A2800D2303820F0F1
:100E40002002412A01D3A2F13700884201D34FF09A
:100E5000FF3070470EB540F2334202920022CDE9D6
:100E600000221346FFF79AFF03B000BDFEE7000023
:100E7000014800F0E3B80000BC040020014800F085
:100E8000DDB800005C040020014800F0D7B8000085
:100E9000FC03002001681823CAB2103AB2FBF3F237
:100EA000054B6FF30901032A9B5CC36500D9091D3B
:100EB0008165084670470000D044000810B501461F
:100EC00000208B698A6A4FF0C07453B1B3F5005F9C
:100ED00015D072B1012A0CD0022A0AD0032A09D1F6
:100EE00004E01AB1012A06D0022A03D1C96AC90155
:100EF00000D5012010BDC96AA142FAD010BD002A58
:100F0000F7D0012AF2D0022AF3D0032AF3D010BD81
:100F100030B50468256825F4802525600468636081
:100F20008368402B036803D099600068C26030BDBD
:100F30009A600068C16030BD704710B5002003F0B2
:100F40008BFABDE81040012000F0EAB910B501208D
:100F500003F082FABDE81040022000F0E1B910B5BC
:100F6000022003F079FABDE81040042000F0D8B95F
:100F700010B5032003F070FABDE81040082000F01F
:100F8000CFB972B6FEE72DE9F0410446876D00F057
:100F9000CBFA064694F835000025022806D08020BA
:100FA000606584F834500120BDE8F0812068016854
:100FB00021F0160101602068416921F08001416142
:100FC000206C08B9A06C20B12068016821F00801EC
:100FD00001602068016821F0010101600CE000F06F
:100FE000A3FA801B052807D920206065032084F818
:100FF000350084F83450D7E720680068C007EED188
:1010000094F85C103F208840B860012084F83500D7
:1010100084F834500020C7E790F83510022903D037
:101020008021416501207047052180F83510006856
:10103000016821F001010160002070472DE9F843AB
:1010400004464FF00009CDF8009063484FF4165164
:10105000A56D0068B0FBF1F72E6894F85C100820CD
:1010600000FA01F131420FD021680A6852070BD50E
:101070000A6822F004020A6094F85C108840A860B4
:10108000606D40F00100606594F85C104FF001085D
:1010900008FA01F0304208D021684969090604D5F0
:1010A000A860606D40F00200606594F85C10042058
:1010B0008840304208D021680968890704D5A860B3
:1010C000606D40F00400606594F85C10102088406A
:1010D000304218D021680968090714D5A860206833
:1010E0000168490304D50068000308D5A16C07E036
:1010F0000168C90503D4016821F008010160216C71
:1011000009B12046884794F85C102020884030427E
:1011100031D021680968C9062DD5A86094F835003A
:1011200005282068016806D0490347D500680003F8
:101130001DD4616C1CE021F016010160206841693A
:1011400021F080014161206C08B9A06C20B12068B9
:10115000016821F00801016094F85C103F2088408C
:10116000A86084F8358084F83490216D1FE0E16B2D
:1011700009B120468847606D00282BD0606DC007FC
:1011800014D0052084F835002068016821F00101A1
:1011900001600098401C0090B84203D820680068A5
:1011A000C007F6D184F8358084F83490E16C0029CA
:1011B00010D001B02046BDE8F04308470168C905DA
:1011C000D5D4016821F01001016084F8358084F8DD
:1011D0003490CCE7BDE8F883440000202DE9F041CD
:1011E000044600F0A1F906465CB1022084F83500FF
:1011F000002584F834502068016821F00101016065
:101200000DE00120BDE8F08100F08EF9801B05287B
:1012100005D920206065032084F83500F2E72068B6
:101220000068C007F0D12268116820480140D4E965
:1012300001031843D4E90336334318436369184361
:10124000A3691843E3691843236A18430843616A92
:10125000042903D1D4E90B13194308431060206813
:101260004069666A20F0070130460E4301270428D2
:101270000CD1A06A0643E06A40B12046FFF71EFE8B
:1012800020B14020606584F83570BAE72068466177
:101290002046FFF7FFFD94F85C203F2191408160DC
:1012A000656584F835700020ACE700003F8010F0E1
:1012B0002DE9F0410446866D90F8340000250128A0
:1012C0000DD0012084F8340094F835700020012FEF
:1012D00007D084F8340002252846BDE8F0810220BA
:1012E000FBE7022784F8357060652046FFF710FEA3
:1012F00094F85C103F208840B0602068016841F09D
:1013000016010160206C20B12068016841F00801DD
:1013100001602068016841F001010160DCE770476D
:10132000044910B50A68024202D00860FFF7F7FFCF
:1013300010BD0000143C01402DE9F84FDFF8BCA1BE
:10134000002201250AF1040B03264FF00F090BF1CF
:10135000040E00BF0B6805FA02F42340A34270D1CB
:101360000F7907F00307012F01D0022F16D18768EC
:101370004FEA420806FA08FC27EA0C07D1F80CC02D
:101380000CFA08FC4CEA070CC0F808C04768A743F1
:101390000C79C4F3001494403C4344600C79E4435A
:1013A000A4070AD0C4684FEA420C06FA0CF7BC4303
:1013B0008F6807FA0CF72743C7600C7904F0030421
:1013C000022C12D1D40800EB840CDCF82040570723
:1013D000FF0E09FA07F824EA0804D1F8108008FA89
:1013E00007F848EA0408CCF8208004684FEA420C69
:1013F00006FA0CF7BC430F7907F0030707FA0CF75E
:10140000274307604C6814F4403F70D03C4C276879
:1014100047F480472760246822F0030704F48044DF
:101420000094384C07EB040CDCF8084897074FEAA7
:10143000177809FA08F7BC43334FB84202D10027A6
:1014400024E054E0314FB84201D101271EE0304F73
:10145000B84201D1022719E02E4FB84201D103272B
:1014600014E02D4FB84201D104270FE02B4FB842B2
:1014700001D105270AE02A4FB84201D1062705E02D
:10148000284FB84201D1072700E0082707FA08F7DC
:101490002743CCF80878DAF800405746D1F804C062
:1014A0009C435FEACC3C00D51C433C60DBF8004029
:1014B0005F46D1F804C09C435FEA8C3C00D51C43D6
:1014C0003C60DEF800407746D1F804C09C435FEAF8
:1014D000CC2C00D51C433C60084F0C373C68D1F83D
:1014E00004C09C435FEA8C2C00D51C433C60521C1A
:1014F000102AFFF42FAFBDE8F88F0000003C014038
:101500004438024000300140000002400004024024
:1015100000080240000C024000100240001402408B
:1015200000180240001C024001488068704700001B
:1015300038000020024881680278114481607047B9
:10154000380000200B4810B5016841F400710160BB
:10155000016841F480610160016841F480710160BB
:10156000032000F06FF8002000F006F800F024F8E7
:10157000002010BD003C024070B50D4D04464FF4F4
:101580007A712878B1FBF0F00A490968B1FBF0F0F4
:1015900000F00AFB48B9102C07D200222146501E49
:1015A00000F030F800206C6070BD012070BD0000BC
:1015B00038000020440000200A4808B5016841F4C2
:1015C00080410160006800F4804000900548001FE1
:1015D000016841F080510160006800F08050009087
:1015E00008BD000044380240002809DB00F01F025B
:1015F000012191404009800000F1E020C0F8001175
:1016000070470000F0B40E4B1B680C46C3F3022376
:10161000C3F10705042D00D90425191D072901D29E
:10162000002300E0DB1E012606FA05F1491E2140D9
:1016300099409E40761E16403143F0BC01F0D6BD65
:101640000CED00E0064900F0070208684FF6FF03C2
:10165000184040EA0220034A104308607047000027
:101660000CED00E00000FA052DE9F0470E460500FC
:1016700065D0DFF81481D8F80000F7B200F0070059
:10168000B04207D288F80070D8F8000000F00700D8
:10169000B04254D128683D4C810712D5400703D58C
:1016A000206840F4E05020602878000703D52068C7
:1016B00040F4604020602068A96820F0F0000843F2
:1016C00020602878C0072DD0304968680839012883
:1016D00012D0022813D0032811D0096889070029E5
:1016E0002DDA216821F0030101432160FFF71CFF7F
:1016F000814641F2883A0EE009688903EFE70968FC
:101700008901ECE7FFF710FFA0EB0901514502D971
:101710000320BDE8F0872068696800F00C00B0EB9A
:10172000810FEFD1D8F80010404601F00701B14217
:1017300007D90770006800F00700B04201D001200F
:10174000E7E72878400705D52068E96820F4E050ED
:10175000084320602878000706D52068296920F40E
:10176000604040EAC100206000F038F82168084A73
:10177000C1F30311515CC84006490860064800687F
:10178000FFF7FAFE0020C4E7003C024008380240A0
:10179000D8440008440000203C00002004480549CB
:1017A00000680968044AC1F38221515CC84070474F
:1017B0004400002008380240E84400080448054975
:1017C00000680968044AC1F34231515CC84070475F
:1017D0004400002008380240E8440008154810B5CD
:1017E000006810F00C02144813D04110042A0FD0E6
:1017F000082A0ED10F4C241F2268236802F03F02F2
:101800005B0207D52068C0F38810A0FB010106E049
:10181000084610BD2168C1F38811A1FB0001002317
:10182000FEF7D0FC2168C1F30141491C4900B0FB1F
:10183000F1F010BD083802400024F4002DE9F84F03
:1018400004006ED02078DFF84C93C007A9F104059E
:101850004AD009F104000168C1F38101012908D0CF
:101860000068C0F3810002280AD1D9F800004002C4
:1018700006D52868800337D560680028E1D033E0BA
:101880006068B0F5803F10D0B0F5A02F286810D068
:1018900020F480302860286820F480202860606868
:1018A000A8B1FFF741FE06460DE0286840F48030FD
:1018B000F4E740F480202860F7E700BFFFF734FE2C
:1018C000801B642873D828688003F7D50CE0FFF7E5
:1018D0002BFE064605E000BFFFF726FE801B6428AE
:1018E000F0D828688003F7D42078DFF8AC8280072E
:1018F0004FF0000A3ED5A748001D016811F00C0FFB
:1019000008D00068C0F3810002280BD1D9F800008C
:10191000400207D42868800716D5E068012800D166
:1019200012E033E1E068B8B10120C8F80000FFF729
:10193000FBFD064605E000BFFFF7F6FD801B022811
:10194000C0D828688007F7D52868216920F0F800FA
:1019500040EAC10028600DE0C8F800A0FFF7E4FDF0
:10196000064604E0FFF7E0FD801B02281FD8286828
:101970008007F7D42078000722D5864F8748616911
:10198000703771B101210160FFF7CEFD064604E01A
:10199000FFF7CAFD801B022809D838688007F7D5F1
:1019A0000EE0C0F800A0FFF7BFFD064605E082E0AC
:1019B000FFF7BAFD801B02287DD838688007F7D46E
:1019C0002078400768D5DFF8CCB100270BF13C0B3D
:1019D000DBF80000C0000BD4DBF8001041F08051B0
:1019E000CBF80010DBF80000012700F080500090D9
:1019F0006B4E3068C00510D4306840F480703060A1
:101A0000FFF792FD009005E0FFF78EFD0099401A68
:101A1000022850D83068C005F6D55E4EA0686C36F6
:101A200001280FD00528306810D020F00100306068
:101A3000306820F004003060A068B8B1FFF774FD92
:101A400000900FE0306840F00100F4E740F004003F
:101A50003060F7E7FFF768FD0099411A41F28830DE
:101A6000814266D830688007F4D50EE0FFF75CFD50
:101A7000009007E0FFF758FD0099411A41F28830C5
:101A8000814256D830688007F4D42FB1DBF80010BB
:101A900021F08051CBF80010A069C8B33D49091D61
:101AA0000968C1F3810102294AD00228504607D0B3
:101AB000C8F8600000E03CE0FFF736FD04463BE07C
:101AC0004746C8F86000FFF72FFD064605E000BF57
:101AD000FFF72AFD801B02282BD828688001F7D445
:101AE000D4E907010843A16A2E4A490802EB0141E3
:101AF000626A41EA8211084394F82C1040EA0161BD
:101B0000C9F8001001203866FFF70EFD044606E014
:101B10003EE000BFFFF708FD001B022809D8286837
:101B20008001F7D534E000BFFFF7FEFC001B022860
:101B300002D90320BDE8F88F28688001F4D427E09B
:101B40000128F7D0D9F80000E26900F48001914241
:101B50001CD1226A00F03F01914217D147F6C071B3
:101B6000626A0140B1EB821F10D1A26A4FF0FF33CD
:101B700000F4403103EB5202B1EB024F06D194F86E
:101B80002C1000F07060B0EB016F01D00120D1E7A4
:101B90000020CFE70438024000004742800E474251
:101BA000007000400000FFFF10B5401EB0F1807FC4
:101BB00001D3012010BD4FF0E02460610F216017B8
:101BC00001F014FB0020A06107202061002010BD5F
:101BD0007047704770B590F83C20012A32D001243C
:101BE00080F83C40022280F83D2003685A689D68D6
:101BF00022F070060A6832435A60134B02689A4218
:101C000014D0B2F1804F11D0104B9A420ED0104B2D
:101C10009A420BD00F4B9A4208D00F4B9A4205D0F4
:101C20000E4B9A4202D00E4B9A4204D1496825F0DD
:101C300080031943916080F83D40002180F83C10FA
:101C4000084670BD022070BD000001400004004045
:101C500000080040000C004000040140004001402A
:101C60000018004010B5040003D094F83D0010B1F6
:101C700007E0012010BD002084F83C00204600F061
:101C80001FF8022084F83D00211D206800F01CFF91
:101C9000012084F8460084F83E0084F83F0084F870
:101CA000400084F8410084F8420084F8430084F83E
:101CB000440084F8450084F83D00002010BD000079
:101CC00008B5184A01681848914207D1016841F0E7
:101CD00001010160006800F001000CE0B1F1804FEB
:101CE00014D0124A91421BD1016841F400310160C5
:101CF000006800F400300022009011461920FFF720
:101D000081FCBDE808401920FFF76EBC0648001FA3
:101D1000016841F001010160006800F001000090DD
:101D200008BD00000000014044380240004401406A
:101D300090F83D10012901D001207047022180F860
:101D40003D1000681149884214D0B0F1804F11D085
:101D50000F4988420ED00F4988420BD00E49884265
:101D600008D00E49884205D00D49884202D00D495D
:101D7000884204D1816801F00701062903D0016877
:101D800041F00101016000207047000000000140A7
:101D90000004004000080040000C00400004014026
:101DA000004001400018004090F83D10012901D08A
:101DB00001207047022180F83D100168CA6842F096
:101DC0000102CA6000681149884214D0B0F1804F06
:101DD00011D00F4988420ED00E4988420BD00E49CF
:101DE000884208D00D49884205D00D49884202D06A
:101DF0000C49884204D1816801F00701062903D00B
:101E0000016841F0010101600020704700000140BD
:101E10000004004000080040000C004000040140A5
:101E2000004001400018004070B5044690F83C00A6
:101E30000025012817D0012684F83C60022084F890
:101E40003D002068826822F0770222F47F4282609F
:101E50000868502838D00DDC20284FD005DC90B31E
:101E6000102811D14AE0022070BD302846D0402809
:101E70000AD13BE060282FD070280DD0B0F5805FEC
:101E800003D0B0F5005F12D0012584F83D6000203A
:101E900084F83C00284670BDCB68D1E90121206858
:101EA00000F076FE2068816841F0770109E0CB6898
:101EB000D1E90121206800F06BFE2068816841F4BF
:101EC00080418160E1E719E0CA684968206800F054
:101ED00071FE5021206806E0CA684968206800F059
:101EE0007AFE6021206800F05DFECEE7CA6849688E
:101EF000206800F05FFE40212068F4E72268014678
:101F00001046F0E7704770B50446006801694FF06D
:101F10000005C943890715D4C168C943890711D48D
:101F2000E91E016101202077206880698007204632
:101F300002D0FFF7E7FF04E000F098F8204600F039
:101F400096F8257720680169C943490717D4C16805
:101F5000C943490713D46FF00401016102202077BF
:101F60002068806910F4407F204602D0FFF7CAFF46
:101F700004E000F07BF8204600F079F8257720682F
:101F80000169C943090716D4C168C943090712D4B6
:101F90006FF008010161042020772068C069800784
:101FA000204602D0FFF7AEFF04E000F05FF82046C5
:101FB00000F05DF8257720680169C943C90617D488
:101FC000C168C943C90613D46FF01001016108202C
:101FD00020772068C06910F4407F204602D0FFF7C8
:101FE00091FF04E000F042F8204600F040F8257729
:101FF00020680169C943C90708D1C168C943C90735
:1020000004D1891E0161204600F032F82068016980
:10201000C943090609D4C168C943090605D46FF04C
:10202000800101612046FFF7D3FD20680169C943A3
:10203000490609D4C168C943490605D46FF0400177
:102040000161204600F03CF820680169C943890617
:102050000BD4C168C943890607D46FF02001016120
:102060002046BDE87040FFF7B4BD70BD70477047B3
:1020700070B500680F4988421BD18003426A002076
:102080000D4D0E4944F6206301240E5C2EB955F81F
:102090002060961B9E4200DD0C54401CC0B20428F8
:1020A000F3D30648401E8168511A994201DD002190
:1020B000017070BD000001401C05002029000020B7
:1020C0007047704710B504460068406994F83D10A9
:1020D000C0F3C010212911D180B12068143050E81C
:1020E000001F21F0800140E80012002AF5D1606B4A
:1020F00008B1FEF748FF204600F021FE2068406945
:1021000094F83E10C0F38010222911D180B12068CC
:10211000143050E8001F21F0400140E80012002A6E
:10212000F5D1A06B08B1FEF72EFF204600F0E0FDD0
:10213000002010BD70470000F8B50168044608682B
:10214000CA684B6910F00F0F4FF0000559D003F02B
:10215000010602F49077374365D0C10705D0D10559
:1021600003D5216C41F001012164410705D5D90750
:1021700003D0216C41F002012164810705D5D90704
:1021800003D0216C41F004012164010707D502F05E
:102190002001314303D0216C41F008012164216CFE
:1021A00000293AD0800604D5900602D5204600F0DA
:1021B000D4FD20684069216CC0F38010090700D469
:1021C00060B3204600F094FD20684069400621D5A8
:1021D0002068143050E8001F21F0400140E8001250
:1021E000002AF5D1A06BA8B16C490165A06BFEF780
:1021F00013FF002811D0A06B016D01B0BDE8F040C5
:10220000084783060FD593060DD52046BDE8F84054
:1022100000F0A3BD2046FFF78DFFF8BD2046FFF775
:1022200089FF2564F8BD266B2023012E79D1C606CF
:1022300077D5D60675D50868486800904869400685
:1022400040D5A16B086840680004000CEAD0A28D5C
:102250008242E7D9E085C869B0F5807F2DD020683B
:102260000C3050E8001F21F4807140E80012002A71
:10227000F5D12068143050E8001F21F0010140E83A
:102280000012002AF5D12068143050E8001F21F018
:10229000400140E80012002AF5D184F83E30256361
:1022A00020680C3050E8001F21F0100140E80012B7
:1022B000002AF5D1A06BFEF766FEA08DE18D401AD5
:1022C00081B229E0A08DE18D401A81B2E08D002815
:1022D000A8D00029A6D020680C3050E8002F22F4A6
:1022E000907240E80026002EF5D12068143050E8A6
:1022F000002F22F0010240E80026002EF5D184F8DC
:102300003E30256320680C3050E8002F22F0100288
:1023100040E80023002BF5D12046FFF7D2FEF8BDA0
:10232000FFE705062BD5150629D594F83D00212891
:10233000F5D1A068B0F5805F01D12069B0B1206A05
:10234000411C2162216800784860E08C401E000436
:10235000000CE084E3D12068C16821F08001C160F5
:102360002068C16841F04001C160D8E7206A008858
:10237000C0F308004860206A801C2062E5E7400640
:10238000CDD55006CBD5CA68204622F04002CA609F
:1023900084F83D3000F0B3F9C1E70000FB2B0008E2
:1023A00070B5040004D094F83D00002510B106E09B
:1023B000012070BD84F83C50204600F023F8242012
:1023C00084F83D002068C16821F40051C1602046B6
:1023D00000F024FD2068016921F49041016120682A
:1023E000416921F02A0141612068C16841F400512E
:1023F000C1602564202084F83D0084F83E00002060
:1024000070BD00002DE9F04786B0054614216846EE
:10241000FDF722FF7948DFF8E0810221D5F800C0FE
:10242000002403220723DFF8D8A18E060715C44530
:1024300046D1DFF8C8C10CF1140CDCF8008048F07C
:102440001008CCF80080DCF800C00CF0100CCDF8BF
:1024500014C0D0F800C04CF0010CC0F800C00068F7
:1024600000F00100059050028DE8130069465046C7
:10247000CDE90323FEF760FFDFF88C816149404618
:10248000C8F80010C0E90164C0E90347C8F8144067
:10249000C8F81840C8F81C40C8F82040C8F82440C4
:1024A000FEF79CFE08B1FEF76CFDC5F838800022EF
:1024B00002212520C8F83850FFF7A4F825204BE06A
:1024C000DFF84881DFF83491C44509F1100948D19B
:1024D000D9F8008048F40038C9F80080D9F800C065
:1024E0000CF4003CCDF814C0D0F800C04CF0010C46
:1024F000C0F800C0006800F0010005900C208DE8D5
:10250000130069465046CDE90323FEF715FFDFF8B7
:10251000F8803F4908F160084046C8F80010C0E95B
:102520000164C0E90347C8F81440C8F81840C8F867
:102530001C40C8F82040C8F82440FEF74FFE08B100
:10254000FEF71FFDC5F83880002202212620C8F8BA
:102550003850FFF757F82620FFF746F806B0BDE8D9
:10256000F087DFF8B080C445F8D1D9F8008048F48E
:102570008028C9F80080D9F800C00CF4802CCDF870
:1025800014C0D0F800C04CF0020CC0F800C00068C5
:1025900000F0020005904FF440608DE8130069469A
:1025A0001D48CDE90323FEF7C7FEDFF85C8018491C
:1025B00008F1C00860394046C8F80010C0E901645D
:1025C000C0E90347C8F81440C8F81840C8F81C40D0
:1025D000C8F82040C8F82440FEF700FE08B1FEF716
:1025E000D0FCC5F83880002202212720C8F83850D6
:1025F000FFF708F82720AFE700100140303802400D
:102600000000024040640240FC03002000440040FF
:1026100088600240004800400004024090F83E30CC
:10262000202B0ED159B152B190F83C30012B08D07B
:10263000012380F83C300023036300F075BC0120C7
:102640007047022070477047704700002DE9F8433B
:10265000044690F83D001F4616460D4620284CD1F2
:10266000C5B1BEB194F83C00012846D0012084F8E1
:102670003C004FF00008C4F84080212084F83D0061
:10268000FEF752FFA6848146E684A068B0F5805F1D
:1026900003D004E00120BDE8F883206928B12E466C
:1026A0005FF0000584F83C800EE00026FAE7802108
:1026B000204600F081FCA0B9AEB116F8010B2168EC
:1026C0004860E08C401EE084E08C4B464FF00002F6
:1026D00000970028EBD14FF04001204600F06CFC41
:1026E00030B10320D7E735F8020BC0F30800E6E766
:1026F000202084F83D000020CDE70220CBE7704782
:10270000FEE70000154808B5016841F400110160BA
:10271000016801F400110091016841F48001016039
:102720000068002200F48000009001210C20FEF7D8
:1027300069FF0C20FEF758FF002201211020FEF750
:1027400061FF1020FEF750FF002201213A20FEF722
:1027500059FFBDE808403A20FEF746BF3038024036
:1027600030B587B014216846FDF776FD2F48002468
:10277000016841F004010160016801F00401059164
:10278000016841F080010160016801F0800105915C
:10279000016841F001010160016801F0010105914A
:1027A000016841F002010160016801F00201059138
:1027B000016841F00801016000681D4D00F008004B
:1027C00005900F2000904FF48810CDE90104694670
:1027D0002846FEF7B1FDF020CDE900046946284601
:1027E0000294FEF7A9FD002211460620FEF70AFF1B
:1027F0000620FEF7F9FE002211460720FEF702FF31
:102800000720FEF7F1FE002211460820FEF7FAFE2F
:102810000820FEF7E9FE002211460920FEF7F2FE2D
:102820000920FEF7E1FE07B030BD0000303802405D
:10283000000C02400C4810B50A4901605321416068
:1028400000214FF6FF72C0E902120161802181610F
:10285000FFF708FA002803D0BDE81040FEF791BB4F
:1028600010BD0000004401406801002010B586B092
:10287000002417480094019402940394049413498B
:10288000059401605321C0E901144FF4FA71C0E9C5
:10289000031444618461FFF7E5F908B1FEF771FBA9
:1028A0004FF48050009069460948FFF7BDFA08B11F
:1028B000FEF767FB049404A905480594FFF78AF91D
:1028C000002801D0FEF75DFB06B010BD00000140FE
:1028D000D800002010B586B0002417480094019459
:1028E0000294039404944FF08041059401602921DF
:1028F000C0E901146FF00041C0E903148021816137
:10290000FFF7B0F908B1FEF73CFB4FF480500090A0
:1029100069460948FFF788FA08B1FEF732FB0494CC
:1029200004A905480594FFF755F9002801D0FEF7E2
:1029300028FB06B010BD0000200100200C4810B597
:102940000A4901604FF4E1314160002181600C22AD
:10295000C160C0E904128161C161FFF721FD002857
:1029600003D0BDE81040FEF70CBB10BD00100140C5
:10297000300300200C4810B50A4901604FF4E131E2
:102980004160002181600C22C160C0E904128161B4
:10299000C161FFF705FD002803D0BDE81040FEF738
:1029A000F0BA10BD004400407403002010B5114C73
:1029B0000F480C2120604FF4E13060600020A060DF
:1029C000E060C4E90401A061E0612046FFF7E8FC93
:1029D00008B1FEF7D6FA2068C16841F01001C16065
:1029E000BDE81040802204490248FFF717BE0000EE
:1029F00000480040B8030020B0020020FEE7FEE7D8
:102A000070477047FEF796BD30B593B030216846E9
:102A1000FDF722FC14210CA8FDF71EFC1D48002523
:102A2000016841F080510160006800F08050119011
:102A30001948016841F4804101600068022400F4F3
:102A40008040119001200090000401908001CDE9A8
:102A5000064008AA0420A82182E813000B906846CB
:102A6000FEF7ECFE08B172B6FEE70CA90F2081E874
:102A700031004FF4A0500F904FF48050109005217A
:102A80000CA8FEF7F1FD002801D072B6FEE713B0E6
:102A900030BD00004038024000700040024801682C
:102AA00041F470010160704788ED00E010B5044802
:102AB000FFF729FABDE810400248FFF724BA0000EA
:102AC000D800002068010020F0B50268254C264D92
:102AD000264E274F274B4FF0804CA04209D060452F
:102AE00007D0A84205D0B04203D0B84201D09842E6
:102AF00004D122F0700E4A6842EA0E02A0421BD0B6
:102B0000604519D0A84217D0B04215D0B84213D0B2
:102B1000984211D0184DA8420ED0184DA8420BD0A3
:102B2000174DA84208D0174DA84205D0164DA8420F
:102B300002D0164DA84203D122F44075CA682A4338
:102B40004D6922F080022A4302608A68C2620A68E4
:102B50008262A04201D0984201D10969016301213A
:102B60004161F0BD00000140000400400008004049
:102B7000000C0040000401400040014000440140BE
:102B80000048014000180040001C004000200040A8
:102B900010B5846842EA032224F47F440A432243A6
:102BA000826010BD826822F070020A4342F0070181
:102BB0008160704710B5036A046A24F0010404625E
:102BC000846924F0F00444EA021423F00A020A4360
:102BD0008461026210BD10B5036A23F01003036222
:102BE0008369046A23F4704343EA023224F0A003A9
:102BF00043EA01118261016210BD10B5806B0021B2
:102C0000C185C184FFF796FA10BD70B5846B20684A
:102C1000406994F83D10C0F3C0100025212904D16B
:102C200018B1E584204600F08AF82068406994F8DD
:102C30003E10C0F38010222904D118B1E58520464A
:102C400000F056F8206C40F0100020642046FFF79A
:102C500071FA70BD10B50146806B09680968C90535
:102C60002FD40021C18501680C3151E8002F22F4D6
:102C7000807241E80023002BF5D10168143151E83E
:102C8000002F22F0010241E80023002BF5D101685A
:102C9000143151E8002F22F0400241E80023002BBC
:102CA000F5D1202180F83E10016B012909D101687E
:102CB0000C3151E8002F22F0100241E80023002BD4
:102CC000F5D1016B012902D0FFF7BDFC10BD818D4C
:102CD000FFF7F7F910BD10B5806B016B012902D029
:102CE000FFF7B2FC10BD818D4908FFF7EAF910BD6E
:102CF00001680C3151E8002F22F4907241E8002362
:102D0000002BF5D10168143151E8002F22F00102A7
:102D100041E80023002BF5D1016B012909D101689D
:102D20000C3151E8002F22F0100241E80023002B63
:102D3000F5D1202180F83E10002101637047016821
:102D40000C3151E8002F22F0C00241E80023002B93
:102D5000F5D1202180F83D10704708B590F83E105D
:102D6000222901D0022008BD82684FF480539A4284
:102D700001D1016921B1816A9A421BD04AB10AE0AE
:102D80000268816A5268C2F308020A80816A891C5B
:102D900008E0026972B10268526802F07F020A70AC
:102DA000816A491C8162C18D491E0904090CC185D3
:102DB00003D019E002685268F1E70168CA6822F09E
:102DC0002002CA600168CA6822F48072CA60016881
:102DD0004A6922F001024A61202180F83E10016B0D
:102DE000012903D0FFF72FFC002008BD002101635B
:102DF00001680C3151E8002F22F0100241E8002355
:102E0000002BF5D101680A68D20602D50A68496824
:102E10000091818DFFF755F9E6E7000070B5044693
:102E200000680169E26821F44051114301612169A0
:102E3000A068E26908436169114308432168CA68D0
:102E400049F20C639A430243CA6020684169A2694F
:102E500021F440711143416131492068884202D018
:102E60003049884202D1FEF7A9FC01E0FEF796FC4A
:102E7000E2690023192164253226B2F5004F626809
:102E800028D0A0FB0101930F9200FDF79BF90146AA
:102E9000B0FBF5F06FF01802504301EB800006EB39
:102EA0000010B0FBF5F000F0F002B1FBF5F002EB22
:102EB0000012B1FBF5F06FF01803584301EB8000EE
:102EC00006EB0010B0FBF5F000F00F002168104495
:102ED000886070BDA0FB010192185B41FDF772F99B
:102EE0000146B0FBF5F00201B1FBF5F06FF01803FD
:102EF000584301EB800006EBC000B0FBF5F000F09A
:102F0000F80002EB4002B1FBF5F0584301EB800002
:102F100006EBC000B0FBF5F000F00700D6E70000BC
:102F2000001001400014014038B5816282850025FF
:102F3000134604460564222084F83E00A26B1B4819
:102F4000D063A26B1A481064A26B1A48D064A06BBD
:102F50000A4605652168A06B091DFEF7A9F92068DE
:102F600001684068009084F83C5020680C3050E8BC
:102F7000001F41F4807140E80012002AF5D120685A
:102F8000143050E8001F41F0010140E80012002A0F
:102F9000F5D12068143050E8001F41F0400140E8AE
:102FA0000012002AF5D1002038BD0000552C000881
:102FB000D72C00080B2C00082DE9F0419846174645
:102FC0000E460446069D27E0681C25D02DB1FEF76D
:102FD000ABFAA0EB0800A8421ED920680C3050E8DC
:102FE000001F21F4D07140E80012002AF5D12068BA
:102FF000143050E8001F21F0010140E80012002ABF
:10300000F5D1202084F83D0084F83E00002084F8AB
:103010003C000320BDE8F0812068006836EA00002B
:1030200004D00020B842CFD00020F3E70120F9E718
:103030000148FFF781B80000300300200148FFF786
:103040007BB8000074030020074810B500680068D2
:10305000C043C00602D4044800F008F8BDE81040A0
:103060000148FFF769B80000B80300202DE9F84FC8
:103070008346FFF727F8282001F000F940498046F1
:103080000026DBF800000968B146344688420BD1BF
:103090003B48E830006840683A4DC0F1800429465A
:1030A00039A000F093F823E035494431096888429B
:1030B0000CD13A48006840683249C0F18004803140
:1030C00037A000F083F82F4D803511E02C494439AA
:1030D000096888420CD12A4888300068406829492C
:1030E000C0F18004803933A000F070F8254D803D98
:1030F00020202855641C612028550027641C1DE0F1
:10310000E85D202802D0601E874216D1A7EB090A8D
:103110000AF1010001F0B2F848F82600524605EB2A
:103120000901FDF780F858F826200021761C02F8E6
:103130000A1007F101090A2E02DA7F1CA742DFDB21
:103140004146304600F02CFD21462846FDF784F824
:10315000002404E058F8240000F004FF641CB4428A
:10316000F8DB404600F0FEFE802229465846FFF775
:1031700055FADBF80000016840680090BDE8F88F60
:1031800074030020300200207573617274325F6234
:1031900075666665723A25730A000000BC0400205B
:1031A0007573617274335F6275666665723A257312
:1031B0000A0000007573617274315F62756666653E
:1031C000723A25730A000000FEE700000FB4054BB9
:1031D00010B503A9044A029800F05EF910BC5DF82E
:1031E00014FB00004D3F0008480000200907090EAD
:1031F000002804DB00F1E02080F80014704700F0A4
:103200000F0000F1E02080F8141D7047004870475F
:10321000540000200000000030B583B0044600F0E8
:1032200055F89FED090B05468DED000B0022214658
:103230006846FDF7A8F8284600F05EF89DED000B03
:1032400003B030BD000000000000000000000000DE
:1032500000B52DED048BB0EE409AF0EE609A83B08D
:1032600051EC190BFDF7B9FA41EC180B18EE100AE6
:1032700018EE901A8DED008B002818BF012008432E
:1032800020F00040C0F17F6000F1E040C00F14D09A
:1032900019EE101A19EE900A8DED009B002918BF47
:1032A0000121084320F00040C0F17F6000F1E040C0
:1032B000C00F04BF012000F01FF8B0EE480A03B0B1
:1032C000F0EE680ABDEC048B00BD00000148006808
:1032D000704700005400002002E008C8121F08C117
:1032E000002AFAD170477047002001E001C1121F87
:1032F000002AFBD1704700000149086070470000B8
:10330000540000202DE9FF5F82B00021DDE9043088
:10331000020DDDF840B0034318D044F61050A2F27D
:10332000FF3242431514119801281FD0A5EB0B0062
:10333000401C5FEA000A4FF000064E4FDFF838915C
:10334000B046504615D5CAF1000413E01198012487
:103350004AA3012801D16FEA0B010298119AC0E932
:103360000031C0E9024206B0BDE8F09FCBF1000099
:10337000DFE704460021404A491842EB0450CDE9FA
:10338000001012E0E00707D032463B46404649466F
:10339000FDF742F98046894632463B4610461946BB
:1033A000FDF73AF906460F466410002CEAD1DDE934
:1033B0000401DDE90023BAF1000F06DAFDF72CF96C
:1033C00042464B46FDF728F905E0FDF797F94246DE
:1033D0004B46FDF793F904460E460022284BFDF7B5
:1033E00065FA03D84FF0FF30014607E00022254B75
:1033F00020463146FDF769F8FDF740FA102409E050
:10340000002C0ADB0A220023FCF7DCFE039B30328F
:103410001A55641E50EA0102F2D1641C039AC4F1E9
:1034200011031444119A012A03D0012208430DD13B
:103430000AE0084304D000204FF0110B119072E70E
:10344000A3EB0B056D1E0DE05B4504DD4FF00002A4
:1034500005F1010504E003DA4FF00002A5F10105D2
:10346000002AECD002981199C0E90231C0E9004568
:1034700079E70000000014400000F03F3000000039
:103480000000F0430000E03F30380A2801D201205C
:1034900070470020704700002DE9FF4F95B09A4615
:1034A000884606460025EEE1252877D100242746E8
:1034B000F94A0121039400E0044316F8013F203B40
:1034C00001FA03F01042F7D130782A2811D06FF0BA
:1034D0002F033078A0F13002092A16D8039A44F05D
:1034E000020402EB820203EB42021044761C0390BA
:1034F000EFE758F8042B0392002A03DA504244F411
:103500000054039044F00204761C30782E2816D123
:1035100016F8010F44F004042A280DD06FF02F0292
:103520003078A0F13003092B09D807EB870302EBB1
:103530004303C718761CF3E758F8047B761C3078F1
:103540006C280FD006DC4C2817D068280DD06A28CC
:1035500014D104E0742810D07A280FD10DE044F47F
:1035600000140AE044F4801401E044F4401472783A
:10357000824202D104F58014761C761C30786628CD
:103580000BD013DC582877D009DC002875D04528EB
:10359000F6D04628F4D047281AD193E118E06328E2
:1035A00035D0642879D0652812D18BE1702873D08A
:1035B00008DC6728F1D069286FD06E280DD06F28FD
:1035C00006D1ACE073282CD0752874D0782853D05D
:1035D0005246179990476D1C54E1C4F302500228DB
:1035E00009D003280DD0D8F8001004280DD00D60A4
:1035F00008F1040846E1D8F80010EA17C1E90052C2
:10360000F6E7D8F800100D80F2E70D70F0E718F833
:10361000041B8DF8001000208DF80100EB460120FE
:1036200003E058F804BB4FF0FF3061074FF0000192
:1036300002D40DE009F101018946B9420FDA814552
:10364000F8DB1BF809100029F4D108E009F10101A9
:1036500089468142FADB1BF809100029F6D103984C
:103660005346A0EB090721463846179A00F080FA26
:10367000284400EB090507E044E008E10DE01BF8F1
:10368000010B524617999047B9F10109F7D25346F9
:1036900021463846179AF2E039E00A21C4F3025273
:1036A0004FF0000B0091022A06D058F8040BC11706
:1036B000032A09D00AE023E008F1070020F00702FE
:1036C000F2E80201904605E000B2C117042A01D1D8
:1036D00040B2C117002906DA0A460021404261EBD8
:1036E00002012D2202E0220504D52B228DF80420B0
:1036F000012203E0E20701D02022F7E7914657E0DC
:103700000A2100E010214FF0000B00910BE0102186
:103710004FF0000B44F004040827009103E0082058
:103720004FF0000B0090C4F30252022A05D058F863
:10373000040B0021032A08D008E008F1070020F05C
:103740000702F2E80201904603E080B2042A00D1A9
:10375000C0B24FF0000922072AD53278702A07D06C
:10376000DDF800C08CF0100C5CEA0B0C05D00EE00C
:1037700040228DF80420012208E050EA010306D01F
:1037800030238DF804308DF8052002229146009BED
:1037900083F0080353EA0B030AD150EA010201D176
:1037A000620705D530228DF804204FF001097F1EF5
:1037B0003278582A04D039A20C920CAA02920BE05B
:1037C0003BA2F9E75B46009AFCF7FCFC0C9B9B5C78
:1037D000029A521E0292137050EA0102F2D102982C
:1037E00004A9081A00F1200B600702D524F48034E4
:1037F00000E001275F4502DDA7EB0B0000E00020A1
:1038000000EB0B01009003984944401A0390E00339
:1038100006D453462146179A039800F0A9F90544A7
:10382000002706E001A85246C05D179990476D1C1D
:103830007F1C4F45F6DBE0030CD553462146179A13
:10384000039800F095F9054404E03020524617999A
:1038500090476D1C0099481E00900029F5DC08E097
:103860000298029952460078491C02911799904794
:103870006D1CBBF10001ABF1010BF1DC5BE100F071
:1038800065F90544761C307800287FF40DAE19B038
:103890002846BDE8F08F000009280100303132339E
:1038A000343536373839616263646566000000007C
:1038B0003031323334353637383941424344454666
:1038C00000000000600700D4062708F1070020F080
:1038D0000700F0E80223804603F0004C5FEA0C008A
:1038E00001D097A009E0200501D596A005E0E007EA
:1038F00001D095A001E0AFF24C001390307823F096
:10390000004365280CD006DC452809D046281DD088
:1039100047287FD13BE0662818D067287AD136E067
:103920000021112F01DB112000E0781CCDE90001FE
:1039300004A90CA8FFF7E6FCDDE90D010C9A4FF095
:10394000000B07F10109109200914EE04FF000408A
:103950000097CDE9011004A90CA8FFF7D3FCDDE91D
:103960000D020C9B0F994FF0000B914610930092A3
:1039700011B9791C00EB0109B7EB090003D4C0F1C0
:10398000FF3B07F10109A9EB0700019042E0012F7D
:1039900000DA01270021112F01DD112000E0384657
:1039A000CDE9000104A90CA8FFF7ACFCDDE90D018D
:1039B0000C9A00914FF0000BB946109221070FD4DA
:1039C000009A4A4503DA914601E0A9F10109B9F1EB
:1039D000010F05DD109AA9F10101515C3029F4D0E5
:1039E000B84202DA10F1040F03DA0121CDE9011027
:1039F00010E0002803DC8344A9EB000102E0411C35
:103A0000494500DD8946A0EB0B00401C01904FF0BA
:103A100000400290200705D40198484502DB4FF092
:103A2000FF30019000208DF84B0002980DF14B07FC
:103A3000B0F1004F25D002200C902B200D90029861
:103A400000280CDA404202902D200D9007E00A2158
:103A50000298FCF748FC3031029007F8011D0C99E0
:103A6000481E0C900029F2DC02980028EFD1791E44
:103A70000D980870307800F0200040F0450007F8FD
:103A8000020D11A8C01BC01D02901398007800B150
:103A9000012000EB0901019801EBE071029801445B
:103AA0000398401A401E0390E00306D45346214673
:103AB000179A039800F05CF805441398007818B141
:103AC0005246179990476D1CE00323D55346214673
:103AD000179A039800F04CF805441BE0BBF1000F67
:103AE00007DB0098584504DD1098179910F80B0073
:103AF00001E0179930205246904701980BF1010BD5
:103B0000401E05F10105019004D12E20524617995F
:103B100090476D1CB9F10001A9F10109DEDC05E057
:103B200017F8010B5246179990476D1C0299481ED1
:103B300002900029F4DC53462146179A03989EE62A
:103B40002D0000002B000000200000002DE9F041B6
:103B5000044600251E461746880404D405E039466D
:103B60002020B0476D1C641EF9D52846BDE8F081C1
:103B70002DE9F041044600251E469046C80301D5B4
:103B8000302700E02027880404D505E04146384668
:103B9000B0476D1C641EF9D52846BDE8F0810000D1
:103BA0002DE9F0410D46074600243E4EDFF8F8802F
:103BB00074E000BF55F8242008213CA000F0B8FABA
:103BC00088B1641C55F82400FFF726FB51EC100B5C
:103BD000FCF76DFBB060FCF757FB41EC100B36A017
:103BE00053EC102B17E055F824200A2139A000F0DF
:103BF0009FFA98B1641C55F82400FFF70DFB51ECB7
:103C0000100BFCF754FB7060FCF73EFB41EC100B13
:103C100033A053EC102BFFF7D9FA3EE055F82420DF
:103C2000082135A000F084FA38B1641C55F824004E
:103C3000FCF71DFBC8F800002BE055F824200821F4
:103C400030A000F075FA38B1641C55F82400FCF778
:103C50000EFBC8F804001CE055F8242008212CA015
:103C600000F066FA38B1641C55F82400FCF7FFFA3E
:103C7000C8F808000DE055F82420082127A000F01E
:103C800057FA50B1641C55F82400FCF7F0FAC8F854
:103C90000C00014624A0FFF799FA641CBC4289DBA2
:103CA000BDE8F08100000020A80000207469636B6B
:103CB00072617465000000007365742054494D45BD
:103CC0005F5449434B5F52415445203A252E396693
:103CD00000000000736F756E6473706565640000AA
:103CE00073657420534F554E445F535045454420EF
:103CF0003A253566000000006164643062696173D2
:103D000000000000616464316269617300000000BA
:103D1000616464326269617300000000616464334D
:103D2000626961730000000073657420306269612C
:103D3000733A25640A00000070B5204C204D60786D
:103D400055F82010207855F8200000F0DFF905F133
:103D5000280686ED000AA07855F82010207855F83E
:103D6000200000F0D3F986ED010A607855F82010A4
:103D7000207855F8200000F0C9F986ED020AE078B5
:103D800055F82010207855F8200000F0BFF986ED96
:103D9000030AA07855F82010207855F8200000F08C
:103DA000B5F986ED040AE07855F82010207855F82A
:103DB000200000F0ABF986ED050A70BD0C00002074
:103DC000680000207FB50020114B05464FEA0D0228
:103DD0005FF0000142F8205053F8204053F8216072
:103DE000A64204DA52F82060761C42F82060491C92
:103DF0000429F3DB401C0428EADB0649002000BF4D
:103E000052F82030C854401C0428F9DB7FBD000064
:103E1000680000200C0000202DE9F043474C464E7E
:103E200087B0A07806F1280505EBC002607805EBA5
:103E3000C001207805EBC00096EC023A92EC022A11
:103E400091EC021A90EC020A00F07EF88DEC020A66
:103E5000E078217805EBC002607805EBC10105EB45
:103E6000C00092EC022AD6ED033A96ED023A90ECAD
:103E7000021A91EC020A00F067F88DED020ACDED0E
:103E8000030AE078227805EBC001A07805EBC202B6
:103E900005EBC00091EC022AD6ED053A96ED043A06
:103EA00090EC021A92EC020A00F04EF800248DED1C
:103EB000040A2746CDED050AB84626464FEA0D0905
:103EC00009EBC60595EC020A00F042F960B195ECE9
:103ED000021A00EE908A00EE107A641C00F0EEFAEE
:103EE00010EE107A10EE908A761C032EE8DB134D4C
:103EF0000C3D8CB100EE104AF7EE000AB8EEC00A95
:103F000080EE801A00EE908A00EE107A00F0DBFA64
:103F100085ED080AC5ED090A09A0FFF757F9D5EDA7
:103F2000090A95ED080A00F055FA95ED080AD5ED55
:103F3000090A07B0BDE8F083900000200C000020C3
:103F4000737320706F733A0000F034B813B54FF6F6
:103F5000FF73012269460248FEF778FB00981CBDFA
:103F6000B803002010B5002821D0114B0022001FFB
:103F7000196803E0814203D80A4649680029F9D14B
:103F800052B11368841A9C4204D10068184410602E
:103F9000104602E0506000E0186039B102680B1A68
:103FA000934203D10B681A4402604968416010BD16
:103FB0004C00002021EE015A62EE025A20EE004A27
:103FC00063EEA36A01EEA15A71EEE01A42EEA25A24
:103FD00000EEA04A72EEE02A61EEA64A23EE037AD2
:103FE00031EE401A32EE402A35EE446A42EEC74ABC
:103FF00035EEC45A21EE224A10B542EE864A02EE50
:10400000614A2DED0A8BF0EE00AAF8EE00CA41EEEF
:10401000C54A64EE2A5AC4EEA58A61EEA34A62EE4E
:10402000211A42EEC34A41EE621A61EEAA2A84EED8
:1040300084AA21EE264A02EE474A02EE064A01EE23
:10404000454A21EE231A02EE431A84EE228AC1EE7B
:10405000219A2AEE0A1AF7EE001A09EEA91A31EE91
:1040600061BA30EE681A30EEC80A21EE0ACA61EE73
:10407000010A00EE29CA40EE000AB1EE000A2BEE5A
:10408000000A6CEE2CBA2BEEAB9A00EE609A19EE99
:10409000100AFCF7F9F841EC100BFFF7D9F851ECD6
:1040A000100BFCF704F900EE100A2BEE2ABA19EEF9
:1040B000100A30EE6B0AC0EE0BAAFCF7E5F841ECF3
:1040C000100BFFF7C5F851EC100BFCF7F0F86CEE95
:1040D0006C0A00EE100AF5EEC0AA30EEC00A80EEBF
:1040E0000B1AF1EE10FAB0EE680A08DDF0EE480A9D
:1040F0000AEE2A0A49EEAA0ABDEC0A8B10BDF0EEC0
:10410000480A0AEE010A49EE810AF5E7401A00EE74
:10411000100A0648B8EEC00AD0ED020A20EE200AC6
:10412000D0ED010A20EE200A7047000000000020B8
:1041300030B529B1002306E0C45CD55CAC4201D0A7
:10414000002030BD5B1C8B42F6DB012030BD00003F
:10415000104890ED011AB4EEC10AF1EE10FA17D230
:1041600090ED001AB4EEC10AF1EE10FA10DD08303D
:1041700090ED010AF4EEC00AF1EE10FA08D290EDCB
:10418000000AF4EEC00AF1EE10FA01DD01207047DA
:104190000020704710000020FDF7D4F9FEF734FC32
:1041A000FEF7DEFAFEF7AEFAFEF7C8FBFEF7E2FB1B
:1041B000FEF7FCFBFEF75AFBFEF78CFBFEF73AFB23
:1041C00000F028F900F090F822A0FEF7FFFFDFF8DA
:1041D0009080DFF89090214C08F11005A9F10C07B0
:1041E00020780028FCD160780028F9D1A078002838
:1041F000F6D1E0780028F3D138780028F0D0184ABA
:10420000012600205032414652F820C051F820309B
:104210008D42634441F8203000D1002645F820301B
:10422000401C0428F0DBFFF7CDFD99F800000028C2
:10423000D6D00228D4D0002ED2D000F091F80AA017
:10424000FEF7C4FFFFF778FDFFF7E6FD00203870AA
:10425000C6E70000496E69740A00000029000020CA
:10426000580000200C000020626567696E206361C1
:104270006C63756C6174650A00000000F0B50B306A
:10428000154D20F007010024144A0FE003688B420B
:104290000BD38B4205D95E1A43184768C3E9006700
:1042A00000E04368136002C004E0021D10680028AB
:1042B000ECD12046002802D1286808B10020F0BDCA
:1042C000064A07481060074A121A22F00702C0E99E
:1042D000002401202860D7E7500000204C00002077
:1042E000440500204007002015489FED140ADFED2B
:1042F000150A80ED020A9FED141AC0ED030A80ED45
:10430000061AC0ED070A80ED000A80ED010A80ED73
:10431000041A80ED050A0E489FED0C0A80ED000A94
:104320009FED0C0A80ED010A9FED0B0A083080ED2D
:10433000000A9FED0A0A80ED010A70470000FAC3E7
:10434000B8000020000000000000FA430080BBC459
:10435000100000200080BB4400409CC500409C45EC
:1043600070B50FA0FEF732FF104D002410A0295D9C
:10437000FEF72CFF641C042CF8DB0EA0FEF726FFD2
:104380000D4D0024214655F824200CA0FEF71EFFF9
:10439000641C042CF6DBBDE8704006A0FEF716BFD7
:1043A0006D705F6F726465723A0000000C0000204F
:1043B000256400000A000000680000206D705F7432
:1043C000696D657374616D705B25645D203D2025AA
:1043D000640A000030B52DED028B83B0B0EE408A48
:1043E00010EE900AFBF750FF04460D4618EE100A37
:1043F000FBF74AFF41EC100B054853EC102BCDE9BD
:104400000045FEF7E3FE03B0BDEC028B30BD0000BB
:104410007845000810B50D48FDF7C6FC0C48FDF7BF
:1044200087FC0C48FDF784FC0A49002009684862B3
:104430000620FDF7D9F80720FDF7D6F80820FDF78C
:10444000D3F8BDE810400920FDF7CEB8D800002011
:10445000680100202001002030B5144900230B54CE
:10446000134901F1100251F8204042F820404FF06A
:104470008042526A41F820200C49141B491E44F620
:1044800020658A60AC420FDD0A4C44F820200A788F
:1044900001F10C04A054521CD0B20870042803D3BC
:1044A000054A012010700B7030BD0000290000206B
:1044B0001C050020580000200000002030EE010AFA
:1044C00070EEA10A704720EE010A60EE810A704783
:1044D0000006101600061016000000000000000084
:1044E000010203040607080900000000010203049A
:1044F00000404040404040404040414141414140F7
:1045000040404040404040404040404040404040AB
:10451000400502020202020202020202020202023A
:10452000022020202020202020202002020202023F
:104530000202909090909090101010101010101097
:1045400010101010101010101010101002020202A3
:1045500002028888888888880808080808080808E7
:1045600008080808080808080808080802020202E3
:1045700040000000F1440008762E783D25662C7638
:104580002E793D25660A0000A8450008000000209D
:1045900058000000D83200080046000858000020EB
:1045A000E80A0000E8320008000000000000AD4307
:1045B0006F12033A0000000000000000000000003D
:1045C00000000000000000000000000000000000EB
:1045D00000010000000000000000000000000000DA
:1045E0000100000010000000000000000024F400A2
:1045F00000000000000000000000000000000000BB
:040000050800018965
:00000001FF
