:020000040800F2
:10000000300A0020A1010008D31E0008211C0008AE
:10001000D11E0008FD020008812600080000000033
:10002000000000000000000000000000D71E0008D3
:10003000C903000800000000D51E0008D91E0008F2
:10004000BB010008BB010008BB010008BB010008A0
:10005000BB010008BB010008CD030008F503000840
:100060001D04000845040008BB010008BB0100088E
:1000700001030008BB010008BB010008BB01000828
:100080000D030008BB010008BB010008BB0100080C
:10009000BB010008BB010008BB010008BB01000850
:1000A000BB010008811F0008BB010008BB0100085C
:1000B000BB010008BB010008BB010008BB01000830
:1000C000BB010008BB010008BB010008BB01000820
:1000D000BB010008F5240008012500080D250008D3
:1000E000BB010008BB010008BB010008BB01000800
:1000F000BB010008BB010008BB010008BB010008F0
:10010000BB010008BB010008BB010008BB010008DF
:10011000BB010008BB010008BB010008BB010008CF
:10012000BB010008BB01000819030008BB0100085F
:10013000BB010008BB010008BB010008BB010008AF
:10014000BB010008BB010008BB010008BB0100089F
:10015000BB010008BB010008BB010008BB0100088F
:10016000BB010008BB010008BB010008BB0100087F
:10017000BB010008BB010008BB0100080000000033
:10018000BB010008BB010008DFF810D000F0A4F8A4
:100190000048004709290008AFF30080300A00201A
:1001A0000648804706480047FEE7FEE7FEE7FEE711
:1001B000FEE7FEE7FEE7FEE7FEE7FEE7711F000849
:1001C000890100082DE9F05F0546002092469B4614
:1001D00088460646814640241BE02846414647465D
:1001E000224600F069F853465A46C01A914110D38E
:1001F00011461846224600F050F82D1A67EB010808
:100200004F4622460120002100F047F817EB000975
:100210004E41201EA4F10104DFDC484631462A4647
:100220004346BDE8F09F40EA01039B0703D009E085
:1002300008C9121F08C0042AFAD203E011F8013BD2
:1002400000F8013B521EF9D27047D2B201E000F82B
:10025000012B491EFBD270470022F6E710B513466A
:100260000A4604461946FFF7F0FF204610BD30B598
:100270000B46014600202022012409E021FA02F564
:100280009D4205D303FA02F5491B04FA02F52844FE
:10029000151EA2F10102F1DC30BD202A04DB203A58
:1002A00000FA02F1002070479140C2F1200320FAC9
:1002B00003F3194390407047202A04DB203A21FAC7
:1002C00002F00021704721FA02F3D040C2F120026F
:1002D0009140084319467047064C074D06E0E06818
:1002E00040F0010394E8070098471034AC42F6D37D
:1002F000FFF74EFF042A0008242A0008FEE700004A
:10030000014800F011B90000CC030020014800F0C2
:100310000BB900006C030020014800F005B9000093
:100320000C03002001681823CAB2103AB2FBF3F2A2
:10033000054B6FF30901032A9B5CC36500D9091DB6
:100340008165084670470000E429000810B50146A1
:1003500000208B698A6A4FF0C07453B1B3F5005F17
:1003600015D072B1012A0CD0022A0AD0032A09D171
:1003700004E01AB1012A06D0022A03D1C96AC901D0
:1003800000D5012010BDC96AA142FAD010BD002AD3
:10039000F7D0012AF2D0022AF3D0032AF3D010BDFD
:1003A00030B50468256825F48025256004686360FD
:1003B0008368402B036803D099600068C26030BD39
:1003C0009A600068C16030BD70470000074810B5F2
:1003D0000068406A0649086002F0E8FA062000F06A
:1003E00079FBBDE81040012000F010BA7800002031
:1003F00020000020074810B50068406A06494860A0
:1004000002F0D4FA072000F065FBBDE8104002209E
:1004100000F0FCB97800002020000020074810B54B
:100420000068406A0649886002F0C0FA082000F0BF
:1004300051FBBDE81040042000F0E8B9780000202E
:1004400020000020074810B50068406A0649C860CF
:1004500002F0ACFA092000F03DFBBDE81040082096
:1004600000F0D4B9780000202000002072B6FEE72A
:100470002DE9F0410446876D00F0CCFA064694F869
:1004800035000025022806D08020606584F83450AD
:100490000120BDE8F0812068016821F016010160AB
:1004A0002068416921F080014161206C08B9A06C8D
:1004B00020B12068016821F008010160206801680E
:1004C00021F0010101600CE000F0A4FA801B052876
:1004D00007D920206065032084F8350084F8345063
:1004E000D7E720680068C007EED194F85C103F2081
:1004F0008840B860012084F8350084F8345000202A
:10050000C7E790F83510022903D08021416501200A
:100510007047052180F835100068016821F001015D
:1005200001600020704700002DE9F84304464FF0B9
:100530000009CDF8009063484FF41651A56D00688E
:10054000B0FBF1F72E6894F85C10082000FA01F176
:1005500031420FD021680A6852070BD50A6822F091
:1005600004020A6094F85C108840A860606D40F056
:100570000100606594F85C104FF0010808FA01F082
:10058000304208D021684969090604D5A860606D29
:1005900040F00200606594F85C100420884030420E
:1005A00008D021680968890704D5A860606D40F00B
:1005B0000400606594F85C1010208840304218D028
:1005C00021680968090714D5A860206801684903F3
:1005D00004D50068000308D5A16C07E00168C905CF
:1005E00003D4016821F008010160216C09B12046A3
:1005F000884794F85C1020208840304231D0216830
:100600000968C9062DD5A86094F83500052820682A
:10061000016806D0490347D5006800031DD4616C0A
:100620001CE021F0160101602068416921F0800181
:100630004161206C08B9A06C20B12068016821F0EC
:100640000801016094F85C103F208840A86084F89D
:10065000358084F83490216D1FE0E16B09B12046AC
:100660008847606D00282BD0606DC00714D005202E
:1006700084F835002068016821F0010101600098CC
:10068000401C0090B84203D820680068C007F6D12B
:1006900084F8358084F83490E16C002910D001B0E2
:1006A0002046BDE8F04308470168C905D5D4016874
:1006B00021F01001016084F8358084F83490CCE793
:1006C000BDE8F883100000202DE9F041044600F059
:1006D000A1F906465CB1022084F83500002584F8B3
:1006E00034502068016821F0010101600DE0012013
:1006F000BDE8F08100F08EF9801B052805D9202087
:100700006065032084F83500F2E720680068C007C0
:10071000F0D12268116820480140D4E90103184350
:10072000D4E903363343184363691843A369184374
:10073000E3691843236A18430843616A042903D113
:10074000D4E90B1319430843106020684069666AB6
:1007500020F0070130460E43012704280CD1A06A7F
:100760000643E06A40B12046FFF7F0FD20B140208B
:10077000606584F83570BAE7206846612046FFF767
:10078000D1FD94F85C203F2191408160656584F83B
:1007900035700020ACE700003F8010F02DE9F041FB
:1007A0000446866D90F83400002501280DD0012004
:1007B00084F8340094F835700020012F07D084F8B5
:1007C000340002252846BDE8F0810220FBE702271D
:1007D00084F8357060652046FFF7E2FD94F85C1000
:1007E0003F208840B0602068016841F01601016038
:1007F000206C20B12068016841F008010160206888
:10080000016841F001010160DCE77047044910B55F
:100810000A68024202D00860FFF7F7FF10BD00002F
:10082000143C01402DE9F84FDFF8BCA1002201255E
:100830000AF1040B03264FF00F090BF1040E00BF61
:100840000B6805FA02F42340A34270D10F7907F038
:100850000307012F01D0022F16D187684FEA420803
:1008600006FA08FC27EA0C07D1F80CC00CFA08FCC1
:100870004CEA070CC0F808C04768A7430C79C4F3DA
:10088000001494403C4344600C79E443A4070AD02C
:10089000C4684FEA420C06FA0CF7BC438F6807FAAB
:1008A0000CF72743C7600C7904F00304022C12D123
:1008B000D40800EB840CDCF820405707FF0E09FA3F
:1008C00007F824EA0804D1F8108008FA07F848EA83
:1008D0000408CCF8208004684FEA420C06FA0CF7B2
:1008E000BC430F7907F0030707FA0CF727430760AB
:1008F0004C6814F4403F70D03C4C276847F4804764
:100900002760246822F0030704F480440094384CE4
:1009100007EB040CDCF8084897074FEA177809FA48
:1009200008F7BC43334FB84202D1002724E054E01B
:10093000314FB84201D101271EE0304FB84201D1FA
:10094000022719E02E4FB84201D1032714E02D4FA2
:10095000B84201D104270FE02B4FB84201D105273F
:100960000AE02A4FB84201D1062705E0284FB842D5
:1009700001D1072700E0082707FA08F72743CCF83A
:100980000878DAF800405746D1F804C09C435FEA83
:10099000CC3C00D51C433C60DBF800405F46D1F8FE
:1009A00004C09C435FEA8C3C00D51C433C60DEF8ED
:1009B00000407746D1F804C09C435FEACC2C00D5B8
:1009C0001C433C60084F0C373C68D1F804C09C4382
:1009D0005FEA8C2C00D51C433C60521C102AFFF4AB
:1009E0002FAFBDE8F88F0000003C014044380240C2
:1009F00000300140000002400004024000080240B4
:100A0000000C024000100240001402400018024096
:100A1000001C02400148806870470000040000206C
:100A20000248816802781144816070470400002008
:100A30000B4810B5016841F400710160016841F490
:100A400080610160016841F480710160032000F061
:100A50007FF8002000F006F800F024F8002010BD18
:100A6000003C024070B50D4D04464FF47A71287871
:100A7000B1FBF0F00A490968B1FBF0F000F01CFB93
:100A800048B9102C07D200222146501E00F040F831
:100A900000206C6070BD012070BD000004000020CB
:100AA000100000200A4808B5016841F48041016047
:100AB000006800F4804000900548001F016841F084
:100AC00080510160006800F08050009008BD000077
:100AD0004438024000280DDB00F01F020121914044
:100AE0004009800000F1E020C0F88011BFF34F8F73
:100AF000BFF36F8F7047002809DB00F01F02012150
:100B000091404009800000F1E020C0F800117047DA
:100B1000F0B40E4B1B680C46C3F30223C3F1070568
:100B2000042D00D90425191D072901D2002300E056
:100B3000DB1E012606FA05F1491E214099409E4020
:100B4000761E16403143F0BC01F0ACBD0CED00E068
:100B5000064900F0070208684FF6FF03184040EA14
:100B60000220034A10430860704700000CED00E0CB
:100B70000000FA052DE9F0470E46050065D0DFF8C4
:100B80001481D8F80000F7B200F00700B04207D295
:100B900088F80070D8F8000000F00700B04254D187
:100BA00028683D4C810712D5400703D5206840F4E2
:100BB000E05020602878000703D5206840F46040AA
:100BC00020602068A96820F0F000084320602878A1
:100BD000C0072DD0304968680839012812D0022892
:100BE00013D0032811D00968890700292DDA21685C
:100BF00021F0030101432160FFF70CFF814641F220
:100C0000883A0EE009688903EFE709688901ECE793
:100C1000FFF700FFA0EB0901514502D90320BDE811
:100C2000F0872068696800F00C00B0EB810FEFD10D
:100C3000D8F80010404601F00701B14207D907700B
:100C4000006800F00700B04201D00120E7E72878F3
:100C5000400705D52068E96820F4E050084320608B
:100C60002878000706D52068296920F4604040EA0A
:100C7000C100206000F038F82168084AC1F3031170
:100C8000515CC8400649086006480068FFF7EAFE64
:100C90000020C4E7003C024008380240EC2900086C
:100CA0001000002008000020044805490068096879
:100CB000044AC1F38221515CC840704710000020F3
:100CC00008380240FC290008044805490068096802
:100CD000044AC1F34231515CC84070471000002003
:100CE00008380240FC290008154810B5006810F0CB
:100CF0000C02144813D01449042A0FD0082A0ED12C
:100D00000F4C241F2268236802F03F025B0207D5C4
:100D10002068C0F38810A0FB010106E0084610BD62
:100D20002168C1F38811A1FB00010023FFF74AFAF3
:100D30002168C1F30141491C4900B0FBF1F010BD2D
:100D4000083802400024F40040787D012DE9F84F76
:100D500004006ED02078DFF84C93C007A9F1040599
:100D60004AD009F104000168C1F38101012908D0CA
:100D70000068C0F3810002280AD1D9F800004002BF
:100D800006D52868800337D560680028E1D033E0B5
:100D90006068B0F5803F10D0B0F5A02F286810D063
:100DA00020F480302860286820F480202860606863
:100DB000A8B1FFF72FFE06460DE0286840F480300A
:100DC000F4E740F480202860F7E700BFFFF722FE39
:100DD000801B642873D828688003F7D50CE0FFF7E0
:100DE00019FE064605E000BFFFF714FE801B6428CD
:100DF000F0D828688003F7D42078DFF8AC82800729
:100E00004FF0000A3ED5A748001D016811F00C0FF5
:100E100008D00068C0F3810002280BD1D9F8000087
:100E2000400207D42868800716D5E068012800D161
:100E300012E033E1E068B8B10120C8F80000FFF724
:100E4000E9FD064605E000BFFFF7E4FD801B022830
:100E5000C0D828688007F7D52868216920F0F800F5
:100E600040EAC10028600DE0C8F800A0FFF7D2FDFD
:100E7000064604E0FFF7CEFD801B02281FD8286835
:100E80008007F7D42078000722D5864F874861690C
:100E9000703771B101210160FFF7BCFD064604E027
:100EA000FFF7B8FD801B022809D838688007F7D5FE
:100EB0000EE0C0F800A0FFF7ADFD064605E082E0B9
:100EC000FFF7A8FD801B02287DD838688007F7D47B
:100ED0002078400768D5DFF8CCB100270BF13C0B38
:100EE000DBF80000C0000BD4DBF8001041F08051AB
:100EF000CBF80010DBF80000012700F080500090D4
:100F00006B4E3068C00510D4306840F4807030609B
:100F1000FFF780FD009005E0FFF77CFD0099401A87
:100F2000022850D83068C005F6D55E4EA0686C36F1
:100F300001280FD00528306810D020F00100306063
:100F4000306820F004003060A068B8B1FFF762FD9F
:100F500000900FE0306840F00100F4E740F004003A
:100F60003060F7E7FFF756FD0099411A41F28830EB
:100F7000814266D830688007F4D50EE0FFF74AFD5D
:100F8000009007E0FFF746FD0099411A41F28830D2
:100F9000814256D830688007F4D42FB1DBF80010B6
:100FA00021F08051CBF80010A069C8B33D49091D5C
:100FB0000968C1F3810102294AD00228504607D0AE
:100FC000C8F8600000E03CE0FFF724FD04463BE089
:100FD0004746C8F86000FFF71DFD064605E000BF64
:100FE000FFF718FD801B02282BD828688001F7D452
:100FF000D4E907010843A16A2E4A490802EB0141DE
:10100000626A41EA8211084394F82C1040EA0161B7
:10101000C9F8001001203866FFF7FCFC044606E022
:101020003EE000BFFFF7F6FC001B022809D8286845
:101030008001F7D534E000BFFFF7ECFC001B02286D
:1010400002D90320BDE8F88F28688001F4D427E096
:101050000128F7D0D9F80000E26900F4800191423C
:101060001CD1226A00F03F01914217D147F6C071AE
:10107000626A0140B1EB821F10D1A26A4FF0FF33C8
:1010800000F4403103EB5202B1EB024F06D194F869
:101090002C1000F07060B0EB016F01D00120D1E79F
:1010A0000020CFE70438024000004742800E47424C
:1010B000007000400000FFFF10B5401EB0F1807FBF
:1010C00001D3012010BD4FF0E02460610F216017B3
:1010D00001F0E8FA0020A06107202061002010BD87
:1010E0007047704770B590F83C20012A32D0012437
:1010F00080F83C40022280F83D2003685A689D68D1
:1011000022F070060A6832435A60134B02689A4212
:1011100014D0B2F1804F11D0104B9A420ED0104B28
:101120009A420BD00F4B9A4208D00F4B9A4205D0EF
:101130000E4B9A4202D00E4B9A4204D1496825F0D8
:1011400080031943916080F83D40002180F83C10F5
:10115000084670BD022070BD000001400004004040
:1011600000080040000C0040000401400040014025
:101170000018004010B5040003D094F83D0010B1F1
:1011800007E0012010BD002084F83C00204600F05C
:101190001FF8022084F83D00211D206800F0F6FEB3
:1011A000012084F8460084F83E0084F83F0084F86B
:1011B000400084F8410084F8420084F8430084F839
:1011C000440084F8450084F83D00002010BD000074
:1011D00008B500681149884212D11148016841F0F0
:1011E000010101600068002200F00100009011463A
:1011F0001920FFF78DFCBDE808401920FFF77BBCE4
:10120000B0F1804F09D10648001F016841F001018B
:101210000160006800F00100009008BD000001407E
:101220004438024090F83D10012901D00120704758
:10123000022180F83D1000681149884214D0B0F1B5
:10124000804F11D00F4988420ED00F4988420BD0F1
:101250000E49884208D00E49884205D00D4988427F
:1012600002D00D49884204D1816801F007010629A6
:1012700003D0016841F001010160002070470000C7
:10128000000001400004004000080040000C004045
:1012900000040140004001400018004090F83D105B
:1012A000012901D001207047022180F83D1001681A
:1012B000CA6842F00102CA6000681149884214D02D
:1012C000B0F1804F11D00F4988420ED00E498842AC
:1012D0000BD00E49884208D00D49884205D00D49EF
:1012E000884202D00C49884204D1816801F007018C
:1012F000062903D0016841F0010101600020704718
:10130000000001400004004000080040000C0040C4
:1013100000040140004001400018004070B5044640
:1013200090F83C000025012817D0012684F83C6085
:10133000022084F83D002068826822F0770222F4BF
:101340007F4282600868502838D00DDC20284FD0BA
:1013500005DC90B3102811D14AE0022070BD30287E
:1013600046D040280AD13BE060282FD070280DD00D
:10137000B0F5805F03D0B0F5005F12D0012584F88E
:101380003D60002084F83C00284670BDCB68D1E960
:101390000121206800F05EFE2068816841F077013D
:1013A00009E0CB68D1E90121206800F053FE2068F4
:1013B000816841F480418160E1E719E0CA684968C9
:1013C000206800F059FE5021206806E0CA6849688C
:1013D000206800F062FE6021206800F045FECEE744
:1013E000CA684968206800F047FE40212068F4E799
:1013F000226801461046F0E7704770B50446006861
:1014000001694FF00005C943890715D4C168C94374
:10141000890711D4E91E01610120207720688069C5
:101420008007204602D0FFF7E7FF04E000F098F8BD
:10143000204600F096F8257720680169C9434907DE
:1014400017D4C168C943490713D46FF0040101617F
:10145000022020772068806910F4407F204602D067
:10146000FFF7CAFF04E000F07BF8204600F079F8AF
:10147000257720680169C943090716D4C168C943A3
:10148000090712D46FF00801016104202077206859
:10149000C0698007204602D0FFF7AEFF04E000F0ED
:1014A0005FF8204600F05DF8257720680169C943A0
:1014B000C90617D4C168C943C90613D46FF0100117
:1014C0000161082020772068C06910F4407F204621
:1014D00002D0FFF791FF04E000F042F8204600F050
:1014E00040F8257720680169C943C90708D1C16858
:1014F000C943C90704D1891E0161204600F032F8B2
:1015000020680169C943090609D4C168C9430906AD
:1015100005D46FF0800101612046FFF7E1FD2068EE
:101520000169C943490609D4C168C943490605D4BC
:101530006FF040010161204600F052F82068016917
:10154000C94389060BD4C168C943890607D46FF023
:10155000200101612046BDE87040FFF7C2BD70BDAB
:10156000704770472DE9F0410068124988421FD149
:10157000114F387800281BD00024104D264600BF9C
:1015800055F8242021460EA001F07CF845F824608F
:10159000641C042CF4DB0620FFF7ADFA0720FFF7EC
:1015A000AAFA0820FFF7A7FA0920FFF7A4FA3E706D
:1015B000BDE8F08100000140000000202000002074
:1015C0004D6F63726F70686F6E653A2564202054AA
:1015D000696D657374616D703A25750A00000000CD
:1015E0007047704710B504460068406994F83D1094
:1015F000C0F3C010212911D180B12068143050E807
:10160000001F21F0800140E80012002AF5D1606B34
:1016100008B1FEF72DFF204600F0F3FD2068406979
:1016200094F83E10C0F38010222911D180B12068B7
:10163000143050E8001F21F0400140E80012002A59
:10164000F5D1A06B08B1FEF713FF204600F0B2FD04
:10165000002010BD70470000F8B501680446086816
:10166000CA684B6910F00F0F4FF0000559D003F016
:10167000010602F49077374365D0C10705D0D10544
:1016800003D5216C41F001012164410705D5D9073B
:1016900003D0216C41F002012164810705D5D907EF
:1016A00003D0216C41F004012164010707D502F049
:1016B0002001314303D0216C41F008012164216CE9
:1016C00000293AD0800604D5900602D5204600F0C5
:1016D000A6FD20684069216CC0F38010090700D482
:1016E00060B3204600F066FD20684069400621D5C1
:1016F0002068143050E8001F21F0400140E800123B
:10170000002AF5D1A06BA8B16C490165A06BFEF76A
:10171000F8FE002811D0A06B016D01B0BDE8F040CB
:10172000084783060FD593060DD52046BDE8F8403F
:1017300000F075BD2046FFF78DFFF8BD2046FFF78E
:1017400089FF2564F8BD266B2023012E79D1C606BA
:1017500077D5D60675D50868486800904869400670
:1017600040D5A16B086840680004000CEAD0A28D47
:101770008242E7D9E085C869B0F5807F2DD0206826
:101780000C3050E8001F21F4807140E80012002A5C
:10179000F5D12068143050E8001F21F0010140E825
:1017A0000012002AF5D12068143050E8001F21F003
:1017B000400140E80012002AF5D184F83E3025634C
:1017C00020680C3050E8001F21F0100140E80012A2
:1017D000002AF5D1A06BFEF74BFEA08DE18D401ADB
:1017E00081B229E0A08DE18D401A81B2E08D002800
:1017F000A8D00029A6D020680C3050E8002F22F491
:10180000907240E80026002EF5D12068143050E890
:10181000002F22F0010240E80026002EF5D184F8C6
:101820003E30256320680C3050E8002F22F0100273
:1018300040E80023002BF5D12046FFF7D2FEF8BD8B
:10184000FFE705062BD5150629D594F83D0021287C
:10185000F5D1A068B0F5805F01D12069B0B1206AF0
:10186000411C2162216800784860E08C401E000421
:10187000000CE084E3D12068C16821F08001C160E0
:101880002068C16841F04001C160D8E7206A008843
:10189000C0F308004860206A801C2062E5E740062B
:1018A000CDD55006CBD5CA68204622F04002CA608A
:1018B00084F83D3000F0B3F9C1E70000BF20000814
:1018C00070B5040004D094F83D00002510B106E086
:1018D000012070BD84F83C50204600F023F82420FD
:1018E00084F83D002068C16821F40051C1602046A1
:1018F00000F0F6FC2068016921F490410161206844
:10190000416921F02A0141612068C16841F4005118
:10191000C1602564202084F83D0084F83E0000204A
:1019200070BD00002DE9F04786B0054614216846D9
:10193000FEF792FC7948DFF8E0810221D5F800C07B
:10194000002403220723DFF8D8A18E060715C4451B
:1019500046D1DFF8C8C10CF1140CDCF8008048F067
:101960001008CCF80080DCF800C00CF0100CCDF8AA
:1019700014C0D0F800C04CF0010CC0F800C00068E2
:1019800000F00100059050028DE8130069465046B2
:10199000CDE90323FEF746FFDFF88C81614940461D
:1019A000C8F80010C0E90164C0E90347C8F8144052
:1019B000C8F81840C8F81C40C8F82040C8F82440AF
:1019C000FEF782FE08B1FEF751FDC5F8388000220F
:1019D00011462520C8F83850FFF79AF825204BE02B
:1019E000DFF84881DFF83491C44509F1100948D186
:1019F000D9F8008048F40038C9F80080D9F800C050
:101A00000CF4003CCDF814C0D0F800C04CF0010C30
:101A1000C0F800C0006800F0010005900C208DE8BF
:101A2000130069465046CDE90323FEF7FBFEDFF8BD
:101A3000F8803F4908F160084046C8F80010C0E946
:101A40000164C0E90347C8F81440C8F81840C8F852
:101A50001C40C8F82040C8F82440FEF735FE08B105
:101A6000FEF704FDC5F83880002211462620C8F88C
:101A70003850FFF74DF82620FFF73DF806B0BDE8D7
:101A8000F087DFF8B080C445F8D1D9F8008048F479
:101A90008028C9F80080D9F800C00CF4802CCDF85B
:101AA00014C0D0F800C04CF0020CC0F800C00068B0
:101AB00000F0020005904FF440608DE81300694685
:101AC0001D48CDE90323FEF7ADFEDFF85C80184921
:101AD00008F1C00860394046C8F80010C0E9016448
:101AE000C0E90347C8F81440C8F81840C8F81C40BB
:101AF000C8F82040C8F82440FEF7E6FD08B1FEF71C
:101B0000B5FCC5F83880002211462720C8F83850A7
:101B1000FEF7FEFF2720AFE70010014030380240FB
:101B200000000240406402400C03002000440040DA
:101B300088600240004800400004024090F83E30B7
:101B4000202B0ED159B152B190F83C30012B08D066
:101B5000012380F83C300023036300F047BC0120E0
:101B60007047022070477047704700002DE9F84326
:101B7000044690F83D001F4616460D4620284CD1DD
:101B8000C5B1BEB194F83C00012846D0012084F8CC
:101B90003C004FF00008C4F84080212084F83D004C
:101BA000FEF738FFA6848146E684A068B0F5805F22
:101BB00003D004E00120BDE8F883206928B12E4657
:101BC0005FF0000584F83C800EE00026FAE78021F3
:101BD000204600F053FCA0B9AEB116F8010B216805
:101BE0004860E08C401EE084E08C4B464FF00002E1
:101BF00000970028EBD14FF04001204600F03EFC5A
:101C000030B10320D7E735F8020BC0F30800E6E750
:101C1000202084F83D000020CDE70220CBE770476C
:101C2000FEE70000154808B5016841F400110160A5
:101C3000016801F400110091016841F48001016024
:101C40000068002200F48000009011460C20FEF78E
:101C50005FFF0C20FEF74FFF002211461020FEF719
:101C600057FF1020FEF747FF002211463A20FEF7EB
:101C70004FFFBDE808403A20FEF73DBF3038024034
:101C800000B587B014216846FEF7E6FA2A4800211D
:101C9000026842F004020260026802F00402059247
:101CA000026842F080020260026802F0800205923F
:101CB000026842F001020260026802F0010205922D
:101CC000026842F002020260026802F0020205921B
:101CD000026842F008020260006800F00800059007
:101CE0000F2000904FF48810CDE901016946134898
:101CF000FEF798FD002211460620FEF709FF062098
:101D0000FEF7F9FE002211460720FEF701FF07202B
:101D1000FEF7F1FE002211460820FEF7F9FE08202A
:101D2000FEF7E9FE002211460920FEF7F1FE092028
:101D3000FEF7E1FE07B000BD30380240000C024063
:101D400010B586B0002418480094019402940394BE
:101D5000049414490594016041F2AF31C0E90114C3
:101D600047F23051C0E9031444618461FFF702FA7D
:101D700008B1FEF77BFB4FF48050009069460A489B
:101D8000FFF7CCFA08B1FEF771FB049404A90648EA
:101D90000594FFF7A7F9002801D0FEF767FB06B00E
:101DA00010BD0000000001403000002010B586B0DA
:101DB00000241648009401940294039404944FF074
:101DC00080410594C0E90014611EC0E902418021F0
:101DD00004618161FFF7CEF908B1FEF747FB4FF4CC
:101DE0008050009069460948FFF798FA08B1FEF75D
:101DF0003DFB049404A905480594FFF773F90028F6
:101E000001D0FEF733FB06B010BD000078000020C3
:101E10000C4810B50A4901604FF4E13141600021DE
:101E200081600C22C160C0E904128161C161FFF7C9
:101E300047FD002803D0BDE81040FEF717BB10BDDA
:101E400000100140400200200C4810B50A49016012
:101E50004FF4E1314160002181600C22C160C0E992
:101E600004128161C161FFF72BFD002803D0BDE89A
:101E70001040FEF7FBBA10BD004400408402002071
:101E800010B5114C0F480C2120604FF4E130606018
:101E90000020A060E060C4E90401A061E061204688
:101EA000FFF70EFD08B1FEF7E1FA2068C16841F0C6
:101EB0001001C160BDE81040802204490248FFF7CC
:101EC0003DBE000000480040C8020020C0010020C4
:101ED000FEE7FEE770477047FEF7A2BD30B593B04E
:101EE00030216846FEF7B8F914210CA8FEF7B4F9C2
:101EF0001D480025016841F080510160006800F034
:101F0000805011901948016841F4804101600068D7
:101F1000022400F4804011900120039010200490CE
:101F2000009406940820CDE90750A820CDE90904C3
:101F300004200B906846FEF709FF08B172B6FEE771
:101F40000CA90F2081E831004FF4A0500F904FF4FE
:101F50008050109005210CA8FEF70CFE002801D03F
:101F600072B6FEE713B030BD40380240007000404A
:101F70000248016841F470010160704788ED00E09B
:101F80000148FFF73ABA000030000020F0B50268BF
:101F9000254C264D264E274F274B4FF0804CA04214
:101FA00009D0604507D0A84205D0B04203D0B8425E
:101FB00001D0984204D122F0700E4A6842EA0E0223
:101FC000A0421BD0604519D0A84217D0B04215D00E
:101FD000B84213D0984211D0184DA8420ED0184DD7
:101FE000A8420BD0174DA84208D0174DA84205D0E3
:101FF000164DA84202D0164DA84203D122F44075D6
:10200000CA682A434D6922F080022A4302608A6826
:10201000C2620A688262A04201D0984201D1096975
:10202000016301214161F0BD000001400004004056
:1020300000080040000C0040000401400040014046
:10204000004401400048014000180040001C0040CE
:102050000020004010B5846842EA032224F47F4443
:102060000A432243826010BD826822F070020A4354
:1020700042F007018160704710B5036A046A24F0DA
:1020800001040462846924F0F00444EA021423F099
:102090000A020A438461026210BD10B5036A23F08C
:1020A000100303628369046A23F4704343EA023233
:1020B00024F0A00343EA01118261016210BD10B552
:1020C000806B0021C185C184FFF7C4FA10BD70B5D3
:1020D000846B2068406994F83D10C0F3C01000255F
:1020E000212904D118B1E584204600F08AF820683F
:1020F000406994F83E10C0F38010222904D118B131
:10210000E585204600F056F8206C40F01000206471
:102110002046FFF79FFA70BD10B50146806B096835
:102120000968C9052FD40021C18501680C3151E827
:10213000002F22F4807241E80023002BF5D10168C2
:10214000143151E8002F22F0010241E80023002B56
:10215000F5D10168143151E8002F22F0400241E826
:102160000023002BF5D1202180F83E10016B0129BE
:1021700009D101680C3151E8002F22F0100241E82A
:102180000023002BF5D1016B012902D0FFF7EBFCF6
:1021900010BD818DFFF725FA10BD10B5806B016B66
:1021A000012902D0FFF7E0FC10BD818D4908FFF73F
:1021B00018FA10BD01680C3151E8002F22F490721A
:1021C00041E80023002BF5D10168143151E8002FBC
:1021D00022F0010241E80023002BF5D1016B012917
:1021E00009D101680C3151E8002F22F0100241E8BA
:1021F0000023002BF5D1202180F83E10002101633F
:10220000704701680C3151E8002F22F0C00241E80C
:102210000023002BF5D1202180F83D10704708B530
:1022200090F83E10222901D0022008BD82684FF4A8
:1022300080539A4201D1016921B1816A9A421BD02F
:102240004AB10AE00268816A5268C2F308020A8051
:10225000816A891C08E0026972B10268526802F062
:102260007F020A70816A491C8162C18D491E09047E
:10227000090CC18503D019E002685268F1E70168D2
:10228000CA6822F02002CA600168CA6822F480721B
:10229000CA6001684A6922F001024A61202180F87F
:1022A0003E10016B012903D0FFF75DFC002008BD43
:1022B0000021016301680C3151E8002F22F0100267
:1022C00041E80023002BF5D101680A68D20602D547
:1022D0000A6849680091818DFFF783F9E6E70000FD
:1022E00070B5044600680169E26821F44051114369
:1022F00001612169A068E2690843616911430843EB
:102300002168CA6849F20C639A430243CA60206894
:102310004169A26921F4407111434161314920684A
:10232000884202D03049884202D1FEF7CDFC01E05C
:10233000FEF7BAFCE2690023192164253226B2F5C2
:10234000004F626828D0A0FB0101930F9200FDF7B7
:1023500039FF0146B0FBF5F06FF01802504301EB76
:10236000800006EB0010B0FBF5F000F0F002B1FBCE
:10237000F5F002EB0012B1FBF5F06FF018035843D3
:1023800001EB800006EB0010B0FBF5F000F00F0051
:1023900021681044886070BDA0FB010192185B4168
:1023A000FDF710FF0146B0FBF5F00201B1FBF5F0BF
:1023B0006FF01803584301EB800006EBC000B0FB40
:1023C000F5F000F0F80002EB4002B1FBF5F05843E5
:1023D00001EB800006EBC000B0FBF5F000F0070059
:1023E000D6E70000001001400014014038B58162BA
:1023F00082850025134604460564222084F83E00A9
:10240000A26B1B48D063A26B1A481064A26B1A48D7
:10241000D064A06B0A4605652168A06B091DFEF714
:10242000BDF9206801684068009084F83C5020683D
:102430000C3050E8001F41F4807140E80012002A7F
:10244000F5D12068143050E8001F41F0010140E848
:102450000012002AF5D12068143050E8001F41F026
:10246000400140E80012002AF5D1002038BD0000EC
:10247000192100089B210008CF2000082DE9F04118
:10248000984617460E460446069D27E0681C25D050
:102490002DB1FEF7BFFAA0EB0800A8421ED92068B4
:1024A0000C3050E8001F21F4D07140E80012002ADF
:1024B000F5D12068143050E8001F21F0010140E8F8
:1024C0000012002AF5D1202084F83D0084F83E0057
:1024D000002084F83C000320BDE8F08120680068FB
:1024E00036EA000004D00020B842CFD00020F3E745
:1024F0000120F9E70148FFF7AFB8000040020020D3
:102500000148FFF7A9B8000084020020074810B571
:1025100000680068C043C00602D4044800F008F810
:10252000BDE810400148FFF797B80000C80200203E
:102530002DE9F84F8346FFF755F8282000F000FA00
:102540003D4980460025DBF800000968A94688421D
:102550000BD13948E83000684068384FC0F1800638
:10256000394637A000F08EF823E03349443109683A
:1025700088420CD13748006840683049C0F1800675
:10258000803135A000F07EF82C4F803711E02A49C9
:102590004439096888420CD127488830006840686F
:1025A0002649C0F18006803930A000F06BF8234F37
:1025B000803F00241DE0385D202802D0701E844238
:1025C00016D1A4EB090A0AF1010000F0B9F948F8A4
:1025D0002500524607EB0901FDF725FE58F8252096
:1025E00000216D1C02F80A1004F101090A2D02DA1B
:1025F000641CB442DFDB4146284600F04FF9314607
:102600003846FDF729FE002405E000BF58F82400F5
:1026100000F052F9641CAC42F8DB404600F04CF983
:10262000802239465846FFF789FADBF80000016836
:1026300040680090BDE8F88F84020020400100202F
:102640007573617274325F6275666665723A25737E
:102650000A000000CC0300207573617274335F625E
:1026600075666665723A25730A00000075736172BB
:1026700074315F6275666665723A25730A00000000
:10268000FEE700000FB4054B10B503A9044A0298F9
:1026900000F028F810BC5DF814FB0000A128000829
:1026A000140000200907090E002804DB00F1E020D7
:1026B00080F80014704700F00F0000F1E02080F86F
:1026C000141D704702E008C8121F08C1002AFAD181
:1026D00070477047002001E001C1121F002AFBD1A2
:1026E000704700002DE9FF4F8BB09A460F46054614
:1026F000002606E025280BD052460D9990476D1C08
:10270000761C28780028F5D10FB03046BDE8F08F50
:102710000024A0460122604900E0044315F8013F6F
:10272000203B02FA03F00842F7D128782E2817D16F
:1027300015F8010F44F004042A280ED06FF02F0280
:102740002878A0F1300109290AD808EB880102EBAA
:10275000410100EB01086D1CF2E757F8048B6D1C7A
:10276000287869283ED006DC0028CDD063280BD01D
:10277000642804D136E0732810D075284BD0524617
:102780000D999047761C85E017F8040B8DF8000032
:1027900000208DF80100E946012003E057F8049B72
:1027A0004FF0FF3061074FF0000401D40AE0641CD1
:1027B00044450DDA8442FADB19F804100029F6D1F9
:1027C00006E0641C8442FCDB19F804100029F8D1EF
:1027D000264404E019F8010B52460D999047641EF7
:1027E000F8D257E001CF4FF00A0B002802DA40423E
:1027F0002D2102E0210504D52B218DF82410012183
:1028000003E0E10705D02021F7E70DF12009089149
:102810000CE00021F9E701CF4FF00A0BF9E7594628
:10282000FDF725FD01F1300209F8012D0028F6D150
:10283000ADEB090000F1200B600701D44FF0010857
:10284000D84502DDA8EB0B0000E000208046002404
:1028500006E009A85246005D0D999047641C761C5D
:1028600008988442F5DB04E0302052460D999047E9
:10287000761CB8F10001A8F10108F5DC05E019F8B3
:10288000010B52460D999047761CBBF10001ABF14C
:10289000010BF4DC6D1C34E70928010070470000CF
:1028A00013B54FF6FF73012269460248FFF75EF940
:1028B00000981CBDC802002010B5002821D0114B83
:1028C0000022001F196803E0814203D80A464968C4
:1028D0000029F9D152B11368841A9C4204D10068CE
:1028E00018441060104602E0506000E0186039B1F2
:1028F00002680B1A934203D10B681A4402604968BC
:10290000416010BD18000020FEF792F8FFF7E6FACC
:10291000FFF7B6F9FFF786F9FFF77AFAFFF794FAAF
:10292000FFF7AEFAFFF70CFAFFF740FA00F04CF8A9
:1029300001A0FFF7A7FEFEE7496E69740A000000D8
:10294000F0B50B30154D20F007010024144A0FE0BC
:1029500003688B420BD38B4205D95E1A4318476834
:10296000C3E9006700E04368136002C004E0021D91
:1029700010680028ECD12046002802D1286808B150
:102980000020F0BD064A07481060074A121A22F0DC
:102990000702C0E9002401202860D7E71C000020BE
:1029A000180000203404002030060020044801787C
:1029B000002904D1034A1268516201210170704755
:1029C000000000203000002010B50448FEF766FC2F
:1029D000BDE810400248FEF725BC00003000002092
:1029E00078000020000610160006101600000000F7
:1029F00000000000010203040607080900000000AF
:102A000001020304242A0008000000202000000026
:102A1000C4260008442A000820000020100A0000F4
:102A2000D426000800000000010000001000000093
:102A3000000000000024F40000000000000000007E
:042A40000000000092
:040000050800018965
:00000001FF
