:020000040800F2
:10000000B00A0020A1010008AF230008C9200008A1
:10001000AD2300084B0700086D2B0008000000000E
:10002000000000000000000000000000B3230008F2
:100030001508000800000000B1230008B5230008DF
:10004000BB010008BB010008BB010008BB010008A0
:10005000BB010008BB01000819080008410800089E
:100060006908000891080008BB010008BB010008EE
:100070004D070008BB010008BB010008BB010008D8
:1000800059070008BB010008BB010008BB010008BC
:10009000BB010008BB010008BB010008BB01000850
:1000A000BB0100085D240008BB010008BB0100087B
:1000B000BB010008BB010008BB010008BB01000830
:1000C000BB010008BB010008BB010008BB01000820
:1000D000BB010008E1290008ED290008F929000802
:1000E000BB010008BB010008BB010008BB01000800
:1000F000BB010008BB010008BB010008BB010008F0
:10010000BB010008BB010008BB010008BB010008DF
:10011000BB010008BB010008BB010008BB010008CF
:10012000BB010008BB01000865070008BB0100080F
:10013000BB010008BB010008BB010008BB010008AF
:10014000BB010008BB010008BB010008BB0100089F
:10015000BB010008BB010008BB010008BB0100088F
:10016000BB010008BB010008BB010008BB0100087F
:10017000BB010008BB010008BB0100080000000033
:10018000BB010008BB010008DFF810D000F05CFAEA
:1001900000480047C5340008AFF30080B00A0020D3
:1001A0000648804706480047FEE7FEE7FEE7FEE711
:1001B000FEE7FEE7FEE7FEE7FEE7FEE74D24000868
:1001C000890100082DE9F05F0546002092469B4614
:1001D00088460646814640241BE02846414647465D
:1001E000224600F069F853465A46C01A914110D38E
:1001F00011461846224600F050F82D1A67EB010808
:100200004F4622460120002100F047F817EB000975
:100210004E41201EA4F10104DFDC484631462A4647
:100220004346BDE8F09F40EA01039B0703D009E085
:1002300008C9121F08C0042AFAD203E011F8013BD2
:1002400000F8013B521EF9D27047D2B201E000F82B
:10025000012B491EFBD270470022F6E710B513466A
:100260000A4604461946FFF7F0FF204610BD30B598
:100270000B46014600202022012409E021FA02F564
:100280009D4205D303FA02F5491B04FA02F52844FE
:10029000151EA2F10102F1DC30BD202A04DB203A58
:1002A00000FA02F1002070479140C2F1200320FAC9
:1002B00003F3194390407047202A04DB203A21FAC7
:1002C00002F00021704721FA02F3D040C2F120026F
:1002D00091400843194670472DE9FE4F804681EA58
:1002E0000300C00F0C46009021F0004123F00045B0
:1002F000B8EB0200A94105D24046214690461C4673
:100300000B46024623F00040104347D0270DC7F3A9
:100310000A00C3F30A510290401A019040286BDA98
:10032000C3F3130040F4801B0098924620B10023D1
:10033000D2EB030A63EB0B0B01985946C0F1400264
:100340005046FFF7AAFF06460D4650465946019A09
:1003500000F08CF910EB08006141002487EA11528B
:1003600084EAE7731A4340D0009A62B3019A012AE3
:100370004FEA075215DC001B61EB02014FF000420F
:1003800002EA0752CDE90042001C41F580113246D5
:100390002B4600F08CF903B0BDE8F08F40462146B3
:1003A000F9E7001B61EB0201001C41F58013001806
:1003B0005B412018A2F5001747EB030140EAD57016
:1003C000B6196D4111E06D084FEA360645EAC07571
:1003D0004FEA0752001B61EB0201001C41F580113E
:1003E00049084FEA30000019514132462B4603B00C
:1003F000BDE8F04F00F04CB9009801224000002306
:10040000D0EB020263EBE073009821464FEAE07400
:10041000B8EB000061EB0401E9E783F000435BE720
:1004200081F0004158E72DE9FE4F81EA030404F012
:10043000004421F0004100944FF0000B23F00043F2
:1004400050EA01045ED052EA03045BD0C3F30A54BD
:10045000C1F30A552C44A4F2F3340194A0FB0254D6
:10046000C1F3130141F48011C3F3130343F4801368
:1004700001FB024400FB034E840A970A44EA8154BC
:1004800047EA8357A4FB076802958D0A05FB078599
:100490004FEA932C04FB0C542705029D4FEA0658A3
:1004A00047EA1637B5EB08056EEB070C870E920E80
:1004B00047EA811742EA8312A7FB0201B6EB0B0160
:1004C00064EB00042B0D43EA0C335E1844EB1C5024
:1004D000DA465146E7FB0201C5F313044FEA0B333A
:1004E00043EA14534FEA0432019C43EA0603A4F1A1
:1004F0000C040294009CCDE900B400F0D8F803B0DD
:10050000BDE8F08F00200146F9E72DE9F04D81EAC2
:10051000030404F0004B21F0004514464FF0000A9C
:1005200023F0004150EA050220D054EA01021DD018
:10053000C5F30A570246C5F31303C1F31300C1F311
:100540000A5640F4801543F48013A7EB0608101BED
:10055000D64608F2FD3873EB050002D308F1010816
:1005600001E092185B41B8F1000F03DA0020014668
:10057000BDE8F08D00204FF48011064684460EE061
:10058000171B73EB050705D3121B63EB050306432B
:100590004CEA010C49084FEA300092185B4150EADE
:1005A0000107EDD152EA030012D082EA040083EA87
:1005B0000501084305D0101BAB4106D201220023E0
:1005C00006E000224FF0004302E06FF001025310FA
:1005D0001AEB06004CEB085110EB0A0041EB0B0143
:1005E000BDE8F04D00F054B8C1F30A52C1F3130155
:1005F00040F2FF3341F480119A4202DA00200146B2
:10060000704740F233439A42A2F2334202DC524234
:10061000FFF752BEFFF741BE30B5041E71F1000472
:1006200004DB4FF00044404264EB0101141E73F1FF
:10063000000405DB1C464FF00043524263EB040309
:10064000994208BF904230BD064C074D06E0E06875
:1006500040F0010394E8070098471034AC42F6D309
:10066000FFF796FD0436000824360008202A06DB32
:10067000CB17203A41FA02F043EAE07306E041FA70
:1006800002F3D040C2F1200291400843194670475E
:1006900010B5141E73F1000408DA401C41F100018A
:1006A00092185B411A4301D120F0010010BD2DE9E1
:1006B000F04D92469B4611B1B1FA81F202E0B0FAD8
:1006C00080F220329046FFF7E8FD04460F4640EAEC
:1006D0000A0041EA0B0153465A46084313D011461B
:1006E00053EA010019D0C8F140025046FFF7E4FD7B
:1006F00005460E46504659464246FFF7CEFD084392
:1007000005D0012004E020463946BDE8F08D0020E8
:10071000054346EAE0762C4337430A986305E40A2A
:10072000A0EB08000022FD0A44EA47540A3002D533
:1007300000200146E9E7010510196941DDE9084596
:1007400000196941BDE8F04DA2E7FEE7014800F05D
:1007500011B900004C040020014800F00BB9000062
:10076000EC030020014800F005B900008C030020D4
:1007700001681823CAB2103AB2FBF3F2054B6FF3CB
:100780000901032A9B5CC36500D9091D81650846E0
:1007900070470000E435000810B5014600208B6961
:1007A0008A6A4FF0C07453B1B3F5005F15D072B1CF
:1007B000012A0CD0022A0AD0032A09D104E01AB176
:1007C000012A06D0022A03D1C96AC90100D5012035
:1007D00010BDC96AA142FAD010BD002AF7D0012A83
:1007E000F2D0022AF3D0032AF3D010BD30B504684A
:1007F000256825F480252560046863608368402BA4
:10080000036803D099600068C26030BD9A600068D8
:10081000C16030BD70470000074810B50068406AED
:100820000649086002F0C2FE062000F09BFBBDE80E
:100830001040012000F010BAF80000202000002035
:10084000074810B50068406A0649486002F0AEFEED
:10085000072000F087FBBDE81040022000F0FCB943
:10086000F800002020000020074810B50068406A0A
:100870000649886002F09AFE082000F073FBBDE88C
:100880001040042000F0E8B9F8000020200000200B
:10089000074810B50068406A0649C86002F086FE45
:1008A000092000F05FFBBDE81040082000F0D4B93B
:1008B000F80000202000002072B6FEE72DE9F0418C
:1008C0000446876D00F0CCFA064694F83500002502
:1008D000022806D08020606584F834500120BDE8ED
:1008E000F0812068016821F01601016020684169EB
:1008F00021F080014161206C08B9A06C20B1206812
:10090000016821F0080101602068016821F00101FF
:1009100001600CE000F0A4FA801B052807D9202014
:100920006065032084F8350084F83450D7E72068E8
:100930000068C007EED194F85C103F208840B86092
:10094000012084F8350084F834500020C7E790F87F
:100950003510022903D0802141650120704705210F
:1009600080F835100068016821F001010160002065
:10097000704700002DE9F84304464FF00009CDF818
:10098000009063484FF41651A56D0068B0FBF1F775
:100990002E6894F85C10082000FA01F131420FD063
:1009A00021680A6852070BD50A6822F004020A601F
:1009B00094F85C108840A860606D40F001006065AC
:1009C00094F85C104FF0010808FA01F0304208D0AA
:1009D00021684969090604D5A860606D40F00200ED
:1009E000606594F85C1004208840304208D021688B
:1009F0000968890704D5A860606D40F0040060654F
:100A000094F85C1010208840304218D021680968A2
:100A1000090714D5A86020680168490304D5006857
:100A2000000308D5A16C07E00168C90503D401687B
:100A300021F008010160216C09B12046884794F833
:100A40005C1020208840304231D021680968C906F6
:100A50002DD5A86094F8350005282068016806D0D7
:100A6000490347D5006800031DD4616C1CE021F0E8
:100A7000160101602068416921F080014161206C0C
:100A800008B9A06C20B12068016821F0080101605C
:100A900094F85C103F208840A86084F8358084F882
:100AA0003490216D1FE0E16B09B120468847606DED
:100AB00000282BD0606DC00714D0052084F83500C5
:100AC0002068016821F0010101600098401C00903D
:100AD000B84203D820680068C007F6D184F8358092
:100AE00084F83490E16C002910D001B02046BDE8B4
:100AF000F04308470168C905D5D4016821F0100109
:100B0000016084F8358084F83490CCE7BDE8F88340
:100B1000100000202DE9F041044600F0A1F906463E
:100B20005CB1022084F83500002584F83450206838
:100B3000016821F0010101600DE00120BDE8F081B4
:100B400000F08EF9801B052805D920206065032060
:100B500084F83500F2E720680068C007F0D1226809
:100B6000116820480140D4E901031843D4E9033651
:100B70003343184363691843A3691843E36918436F
:100B8000236A18430843616A042903D1D4E90B138B
:100B900019430843106020684069666A20F0070125
:100BA00030460E43012704280CD1A06A0643E06AB0
:100BB00040B12046FFF7F0FD20B14020606584F889
:100BC0003570BAE7206846612046FFF7D1FD94F8FA
:100BD0005C203F2191408160656584F8357000207C
:100BE000ACE700003F8010F02DE9F0410446866D2F
:100BF00090F83400002501280DD0012084F834003D
:100C000094F835700020012F07D084F834000225B5
:100C10002846BDE8F0810220FBE7022784F8357002
:100C200060652046FFF7E2FD94F85C103F208840A5
:100C3000B0602068016841F016010160206C20B1AD
:100C40002068016841F0080101602068016841F0F6
:100C500001010160DCE77047044910B50A680242EF
:100C600002D00860FFF7F7FF10BD0000143C014000
:100C70002DE9F84FDFF8BCA1002201250AF1040B91
:100C800003264FF00F090BF1040E00BF0B6805FAA5
:100C900002F42340A34270D10F7907F00307012F1C
:100CA00001D0022F16D187684FEA420806FA08FCE5
:100CB00027EA0C07D1F80CC00CFA08FC4CEA070C28
:100CC000C0F808C04768A7430C79C4F300149440E7
:100CD0003C4344600C79E443A4070AD0C4684FEA5B
:100CE000420C06FA0CF7BC438F6807FA0CF727434F
:100CF000C7600C7904F00304022C12D1D40800EB75
:100D0000840CDCF820405707FF0E09FA07F824EAA4
:100D10000804D1F8108008FA07F848EA0408CCF86B
:100D2000208004684FEA420C06FA0CF7BC430F79A6
:100D300007F0030707FA0CF7274307604C6814F421
:100D4000403F70D03C4C276847F4804727602468B8
:100D500022F0030704F480440094384C07EB040CA1
:100D6000DCF8084897074FEA177809FA08F7BC43F8
:100D7000334FB84202D1002724E054E0314FB8424B
:100D800001D101271EE0304FB84201D1022719E0FE
:100D90002E4FB84201D1032714E02D4FB84201D1A4
:100DA00004270FE02B4FB84201D105270AE02A4F54
:100DB000B84201D1062705E0284FB84201D10727E4
:100DC00000E0082707FA08F72743CCF80878DAF894
:100DD00000405746D1F804C09C435FEACC3C00D5A4
:100DE0001C433C60DBF800405F46D1F804C09C43E4
:100DF0005FEA8C3C00D51C433C60DEF8004077463F
:100E0000D1F804C09C435FEACC2C00D51C433C6065
:100E1000084F0C373C68D1F804C09C435FEA8C2C27
:100E200000D51C433C60521C102AFFF42FAFBDE8D4
:100E3000F88F0000003C014044380240003001407F
:100E4000000002400004024000080240000C024082
:100E5000001002400014024000180240001C024032
:100E60000148806870470000040000200248816843
:100E70000278114481607047040000200B4810B5CF
:100E8000016841F400710160016841F48061016012
:100E9000016841F480710160032000F0A1F8012095
:100EA00000F006F800F024F8002010BD003C0240DD
:100EB00070B50D4D04464FF47A712878B1FBF0F00F
:100EC0000A490968B1FBF0F000F03CFB48B9102C6E
:100ED00007D200222146501E00F062F800206C600C
:100EE00070BD012070BD0000040000201000002033
:100EF0001B4808B5016841F480410160006800F4B6
:100F0000804000901648001F016841F08051016048
:100F10000068002200F08050009001216FF00B006B
:100F200000F03EF8002201216FF00A0000F038F8CE
:100F3000002201216FF0090000F032F801210022A7
:100F4000881F00F02DF801210022481F00F028F82A
:100F500000220121BDE80840C81E00F021B80000B1
:100F60004438024000280DDB00F01F0201219140AF
:100F70004009800000F1E020C0F88011BFF34F8FDE
:100F8000BFF36F8F7047002809DB00F01F020121BB
:100F900091404009800000F1E020C0F80011704746
:100FA000F0B40E4B1B680C46C3F30223C3F10705D4
:100FB000042D00D90425191D072901D2002300E0C2
:100FC000DB1E012606FA05F1491E214099409E408C
:100FD000761E16403143F0BC01F0DABD0CED00E0A6
:100FE000064900F0070208684FF6FF03184040EA80
:100FF0000220034A10430860704700000CED00E037
:101000000000FA052DE9F0470E46050065D0DFF82F
:101010001481D8F80000F7B200F00700B04207D200
:1010200088F80070D8F8000000F00700B04254D1F2
:1010300028683D4C810712D5400703D5206840F44D
:10104000E05020602878000703D5206840F4604015
:1010500020602068A96820F0F0000843206028780C
:10106000C0072DD0304968680839012812D00228FD
:1010700013D0032811D00968890700292DDA2168C7
:1010800021F0030101432160FFF7EAFE814641F2AE
:10109000883A0EE009688903EFE709688901ECE7FF
:1010A000FFF7DEFEA0EB0901514502D90320BDE8A0
:1010B000F0872068696800F00C00B0EB810FEFD179
:1010C000D8F80010404601F00701B14207D9077077
:1010D000006800F00700B04201D00120E7E728785F
:1010E000400705D52068E96820F4E05008432060F7
:1010F0002878000706D52068296920F4604040EA76
:10110000C100206000F038F82168084AC1F30311DB
:10111000515CC8400649086006480068FFF7C8FEF1
:101120000020C4E7003C024008380240EC350008CB
:1011300010000020080000200448054900680968E4
:10114000044AC1F38221515CC8407047100000205E
:1011500008380240FC350008044805490068096861
:10116000044AC1F34231515CC8407047100000206E
:1011700008380240FC350008154810B5006810F02A
:101180000C02144813D04110042A0FD0082A0ED1A3
:101190000F4C241F2268236802F03F025B0207D530
:1011A0002068C0F38810A0FB010106E0084610BDCE
:1011B0002168C1F38811A1FB00010023FFF702F8A9
:1011C0002168C1F30141491C4900B0FBF1F010BD99
:1011D000083802400024F4002DE9F84F04006ED0D6
:1011E0002078DFF84C93C007A9F104054AD009F133
:1011F00004000168C1F38101012908D00068C0F32F
:10120000810002280AD1D9F80000400206D52868DA
:10121000800337D560680028E1D033E06068B0F51E
:10122000803F10D0B0F5A02F286810D020F4803077
:101230002860286820F4802028606068A8B1FFF743
:101240000FFE06460DE0286840F48030F4E740F4D5
:1012500080202860F7E700BFFFF702FE801B6428AC
:1012600073D828688003F7D50CE0FFF7F9FD064630
:1012700005E000BFFFF7F4FD801B6428F0D8286864
:101280008003F7D42078DFF8AC8280074FF0000AA3
:101290003ED5A748001D016811F00C0F08D000686A
:1012A000C0F3810002280BD1D9F80000400207D416
:1012B0002868800716D5E068012800D112E033E1E4
:1012C000E068B8B10120C8F80000FFF7C9FD064684
:1012D00005E000BFFFF7C4FD801B0228C0D82868C6
:1012E0008007F7D52868216920F0F80040EAC1009E
:1012F00028600DE0C8F800A0FFF7B2FD064604E044
:10130000FFF7AEFD801B02281FD828688007F7D49E
:101310002078000722D5864F87486169703771B100
:1013200001210160FFF79CFD064604E0FFF798FDF0
:10133000801B022809D838688007F7D50EE0C0F86E
:1013400000A0FFF78DFD064605E082E0FFF788FD6F
:10135000801B02287DD838688007F7D420784007A2
:1013600068D5DFF8CCB100270BF13C0BDBF80000AF
:10137000C0000BD4DBF8001041F08051CBF8001016
:10138000DBF80000012700F0805000906B4E3068C1
:10139000C00510D4306840F480703060FFF760FD05
:1013A000009005E0FFF75CFD0099401A022850D834
:1013B0003068C005F6D55E4EA0686C3601280FD0A7
:1013C0000528306810D020F001003060306820F02F
:1013D00004003060A068B8B1FFF742FD00900FE054
:1013E000306840F00100F4E740F004003060F7E7B7
:1013F000FFF736FD0099411A41F28830814266D8E4
:1014000030688007F4D50EE0FFF72AFD009007E072
:10141000FFF726FD0099411A41F28830814256D8E3
:1014200030688007F4D42FB1DBF8001021F0805130
:10143000CBF80010A069C8B33D49091D0968C1F384
:10144000810102294AD00228504607D0C8F860001E
:1014500000E03CE0FFF704FD04463BE04746C8F8E7
:101460006000FFF7FDFC064605E000BFFFF7F8FC53
:10147000801B02282BD828688001F7D4D4E9070103
:101480000843A16A2E4A490802EB0141626A41EA17
:101490008211084394F82C1040EA0161C9F8001049
:1014A00001203866FFF7DCFC044606E03EE000BFA2
:1014B000FFF7D6FC001B022809D828688001F7D561
:1014C00034E000BFFFF7CCFC001B022802D9032048
:1014D000BDE8F88F28688001F4D427E00128F7D010
:1014E000D9F80000E26900F4800191421CD1226A1F
:1014F00000F03F01914217D147F6C071626A014086
:10150000B1EB821F10D1A26A4FF0FF3300F44031DB
:1015100003EB5202B1EB024F06D194F82C1000F00D
:101520007060B0EB016F01D00120D1E70020CFE760
:101530000438024000004742800E474200700040DD
:101540000000FFFF10B5401EB0F1807F01D30120E5
:1015500010BD4FF0E02460610F21601701F018FB0F
:101560000020A06107202061002010BD7047704757
:1015700070B590F83C20012A32D0012480F83C401C
:10158000022280F83D2003685A689D6822F07006A8
:101590000A6832435A60134B02689A4214D0B2F17F
:1015A000804F11D0104B9A420ED0104B9A420BD064
:1015B0000F4B9A4208D00F4B9A4205D00E4B9A42DD
:1015C00002D00E4B9A4204D1496825F0800319439A
:1015D000916080F83D40002180F83C10084670BDC5
:1015E000022070BD000001400004004000080040DF
:1015F000000C004000040140004001400018004081
:1016000010B5040003D094F83D0010B107E00120AC
:1016100010BD002084F83C00204600F01FF8022096
:1016200084F83D00211D206800F026FF012084F889
:10163000460084F83E0084F83F0084F8400084F8B7
:10164000410084F8420084F8430084F8440084F8A0
:10165000450084F83D00002010BD000008B5184A80
:1016600001681848914207D1016841F00101016009
:10167000006800F001000CE0B1F1804F14D0124A74
:1016800091421BD1016841F400310160006800F40F
:1016900000300090002201211920FFF781FCBDE8F5
:1016A00008401920FFF76FBC0648001F016841F091
:1016B00001010160006800F00100009008BD000019
:1016C00000000140443802400044014090F83D10C1
:1016D000012901D001207047022180F83D100068E7
:1016E0001149884214D0B0F1804F11D00F4988427F
:1016F0000ED00F4988420BD00E49884208D00E49BF
:10170000884205D00D49884202D00D49884204D153
:10171000816801F00701062903D0016841F0010149
:1017200001600020704700000000014000040040FC
:1017300000080040000C004000040140004001404F
:101740000018004090F83D10012901D00120704799
:10175000022180F83D100168CA6842F00102CA60A7
:1017600000681149884214D0B0F1804F11D00F4960
:1017700088420ED00E4988420BD00E49884208D0CC
:101780000D49884205D00D49884202D00C49884253
:1017900004D1816801F00701062903D0016841F0F6
:1017A000010101600020704700000140000400407A
:1017B00000080040000C00400004014000400140CF
:1017C0000018004070B5044690F83C000025012840
:1017D00017D0012684F83C60022084F83D00206880
:1017E000826822F0770222F47F42826008685028E3
:1017F00038D00DDC20284FD005DC90B3102811D153
:101800004AE0022070BD302846D040280AD13BE093
:1018100060282FD070280DD0B0F5805F03D0B0F5D0
:10182000005F12D0012584F83D60002084F83C0060
:10183000284670BDCB68D1E90121206800F080FE08
:101840002068816841F0770109E0CB68D1E9012186
:10185000206800F075FE2068816841F48041816055
:10186000E1E719E0CA684968206800F07BFE502172
:10187000206806E0CA684968206800F084FE60219C
:10188000206800F067FECEE7CA684968206800F06B
:1018900069FE40212068F4E7226801461046F0E71F
:1018A000704770B50446006801694FF00005C943F0
:1018B000890715D4C168C943890711D4E91E01619C
:1018C00001202077206880698007204602D0FFF73A
:1018D000E7FF04E000F098F8204600F096F825773E
:1018E00020680169C943490717D4C168C94349073A
:1018F00013D46FF004010161022020772068806911
:1019000010F4407F204602D0FFF7CAFF04E000F049
:101910007BF8204600F079F8257720680169C943F3
:10192000090716D4C168C943090712D46FF008012A
:101930000161042020772068C0698007204602D01A
:10194000FFF7AEFF04E000F05FF8204600F05DF81E
:10195000257720680169C943C90617D4C168C943FE
:10196000C90613D46FF010010161082020772068A8
:10197000C06910F4407F204602D0FFF791FF04E0D9
:1019800000F042F8204600F040F825772068016911
:10199000C943C90708D1C168C943C90704D1891E11
:1019A0000161204600F032F820680169C943090648
:1019B00009D4C168C943090605D46FF080010161EB
:1019C0002046FFF7D3FD20680169C943490609D4C1
:1019D000C168C943490605D46FF040010161204642
:1019E00000F052F820680169C94389060BD4C16828
:1019F000C943890607D46FF0200101612046BDE884
:101A00007040FFF7B4BD70BD7047704770B5006897
:101A10001249884221D1124C207800281DD011A0F3
:101A200001F0A6F80620FFF7AEFA0720FFF7ABFAA1
:101A30000820FFF7A8FA0920FFF7A5FA002525706E
:101A40000B4E2C46214656F824200AA001F090F8AF
:101A500046F82450641C042CF4DB70BD00000140E7
:101A600000000020696E746F2074696D650A0000C3
:101A7000200000206D703A25642C74696D657374C4
:101A8000616D703A25750A007047704710B50446BD
:101A90000068406994F83D10C0F3C010212911D1AD
:101AA00080B12068143050E8001F21F0800140E828
:101AB0000012002AF5D1606B08B1FEF7FFFE204648
:101AC00000F015FE2068406994F83E10C0F38010C5
:101AD000222911D180B12068143050E8001F21F074
:101AE000400140E80012002AF5D1A06B08B1FEF7D2
:101AF000E5FE204600F0D4FD002010BD7047000038
:101B0000F8B5016804460868CA684B6910F00F0F01
:101B10004FF0000559D003F0010602F490773743E7
:101B200065D0C10705D0D10503D5216C41F0010175
:101B30002164410705D5D90703D0216C41F002018A
:101B40002164810705D5D90703D0216C41F0040138
:101B50002164010707D502F02001314303D0216C35
:101B600041F008012164216C00293AD0800604D597
:101B7000900602D5204600F0C8FD20684069216C1F
:101B8000C0F38010090700D460B3204600F088FD40
:101B900020684069400621D52068143050E8001FB5
:101BA00021F0400140E80012002AF5D1A06BA8B155
:101BB0006C490165A06BFEF7CAFE002811D0A06B2E
:101BC000016D01B0BDE8F040084783060FD59306CC
:101BD0000DD52046BDE8F84000F097BD2046FFF740
:101BE0008DFFF8BD2046FFF789FF2564F8BD266B01
:101BF0002023012E79D1C60677D5D60675D508687B
:101C0000486800904869400640D5A16B0868406864
:101C10000004000CEAD0A28D8242E7D9E085C869B1
:101C2000B0F5807F2DD020680C3050E8001F21F4E3
:101C3000807140E80012002AF5D12068143050E885
:101C4000001F21F0010140E80012002AF5D12068B0
:101C5000143050E8001F21F0400140E80012002A33
:101C6000F5D184F83E30256320680C3050E8001F21
:101C700021F0100140E80012002AF5D1A06BFEF718
:101C80001DFEA08DE18D401A81B229E0A08DE18D6D
:101C9000401A81B2E08D0028A8D00029A6D0206883
:101CA0000C3050E8002F22F4907240E80026002EFD
:101CB000F5D12068143050E8002F22F0010240E8EE
:101CC0000026002EF5D184F83E30256320680C30C4
:101CD00050E8002F22F0100240E80023002BF5D13D
:101CE0002046FFF7D2FEF8BDFFE705062BD5150607
:101CF00029D594F83D002128F5D1A068B0F5805F82
:101D000001D12069B0B1206A411C216221680078AC
:101D10004860E08C401E0004000CE084E3D12068A1
:101D2000C16821F08001C1602068C16841F04001B4
:101D3000C160D8E7206A0088C0F308004860206AC4
:101D4000801C2062E5E74006CDD55006CBD5CA6899
:101D5000204622F04002CA6084F83D3000F0B3F91A
:101D6000C1E70000AB25000870B5040004D094F86A
:101D70003D00002510B106E0012070BD84F83C5004
:101D8000204600F023F8242084F83D002068C16834
:101D900021F40051C160204600F018FD206801695F
:101DA00021F4904101612068416921F02A014161DB
:101DB0002068C16841F40051C1602564202084F886
:101DC0003D0084F83E00002070BD00002DE9F04782
:101DD00086B0054614216846FEF73EFA7948DFF8DA
:101DE000E0810221D5F800C0002403220723DFF898
:101DF000D8A18E060715C44546D1DFF8C8C10CF13D
:101E0000140CDCF8008048F01008CCF80080DCF8F6
:101E100000C00CF0100CCDF814C0D0F800C04CF08D
:101E2000010CC0F800C0006800F0010005905002ED
:101E30008DE8130069465046CDE90323FEF718FFED
:101E4000DFF88C8161494046C8F80010C0E90164A0
:101E5000C0E90347C8F81440C8F81840C8F81C4047
:101E6000C8F82040C8F82440FEF754FE08B1FEF739
:101E700023FDC5F83880002202212520C8F83850FB
:101E8000FFF78EF825204BE0DFF84881DFF834912A
:101E9000C44509F1100948D1D9F8008048F4003848
:101EA000C9F80080D9F800C00CF4003CCDF814C08B
:101EB000D0F800C04CF0010CC0F800C0006800F081
:101EC000010005900C208DE8130069465046CDE9CD
:101ED0000323FEF7CDFEDFF8F8803F4908F16008E4
:101EE0004046C8F80010C0E90164C0E90347C8F8DB
:101EF0001440C8F81840C8F81C40C8F82040C8F87A
:101F00002440FEF707FE08B1FEF7D6FCC5F838807E
:101F1000002202212620C8F83850FFF741F8262079
:101F2000FFF731F806B0BDE8F087DFF8B080C445B0
:101F3000F8D1D9F8008048F48028C9F80080D9F891
:101F400000C00CF4802CCDF814C0D0F800C04CF0C8
:101F5000020CC0F800C0006800F0020005904FF4C9
:101F600040608DE8130069461D48CDE90323FEF764
:101F70007FFEDFF85C80184908F1C00860394046F0
:101F8000C8F80010C0E90164C0E90347C8F814406C
:101F9000C8F81840C8F81C40C8F82040C8F82440C9
:101FA000FEF7B8FD08B1FEF787FCC5F838800022BF
:101FB00002212720C8F83850FEF7F2FF2720AFE7AC
:101FC00000100140303802400000024040640240EE
:101FD0008C0300200044004088600240004800401C
:101FE0000004024090F83E30202B0ED159B152B17E
:101FF00090F83C30012B08D0012380F83C300023BE
:10200000036300F069BC01207047022070477047ED
:10201000704700002DE9F843044690F83D001F4644
:1020200016460D4620284CD1C5B1BEB194F83C00EF
:10203000012846D0012084F83C004FF00008C4F885
:102040004080212084F83D00FEF70AFFA6848146E7
:10205000E684A068B0F5805F03D004E00120BDE80D
:10206000F883206928B12E465FF0000584F83C8093
:102070000EE00026FAE78021204600F075FCA0B9AA
:10208000AEB116F8010B21684860E08C401EE08478
:10209000E08C4B464FF0000200970028EBD14FF048
:1020A0004001204600F060FC30B10320D7E735F84E
:1020B000020BC0F30800E6E7202084F83D00002072
:1020C000CDE70220CBE77047FEE70000154808B5D2
:1020D000016841F400110160016801F400110091F0
:1020E000016841F4800101600068002200F4800072
:1020F000009001210C20FEF753FF0C20FEF743FF58
:10210000002201211020FEF74BFF1020FEF73BFFBD
:10211000002201213A20FEF743FFBDE808403A20A3
:10212000FEF731BF3038024000B587B01421684651
:10213000FEF792F82A480021026842F00402026089
:10214000026802F004020592026842F08002026016
:10215000026802F080020592026842F00102026009
:10216000026802F001020592026842F00202026077
:10217000026802F002020592026842F00802026060
:10218000006800F0080005900F2000904FF48810C0
:10219000CDE9010169461348FEF76AFD00221146A8
:1021A0000620FEF7FDFE0620FEF7EDFE002211469A
:1021B0000720FEF7F5FE0720FEF7E5FE0022114698
:1021C0000820FEF7EDFE0820FEF7DDFE0022114696
:1021D0000920FEF7E5FE0920FEF7D5FE07B000BD99
:1021E00030380240000C02400B4810B5094901602C
:1021F00000214FF6FF724160C0E9021201618021A7
:102200008161FFF7FDF9002803D0BDE81040FEF71B
:1022100053BB10BD00440140F800002010B586B04B
:1022200000241848009401940294039404941449DF
:1022300005940160A721C0E9011442F21071C0E9C0
:1022400003148021C0E90541FFF7DAF908B1FEF770
:1022500033FB4FF48050009069460A48FFF7B2FA0A
:1022600008B1FEF729FB049404A906480594FFF77A
:102270007FF9002801D0FEF71FFB06B010BD00005B
:10228000000001406800002010B586B00024164808
:10229000009401940294039404944FF080410594B7
:1022A000C0E90014611EC0E902418021046181611E
:1022B000FFF7A6F908B1FEF7FFFA4FF4805000903F
:1022C00069460948FFF77EFA08B1FEF7F5FA04946B
:1022D00004A905480594FFF74BF9002801D0FEF743
:1022E000EBFA06B010BD0000B00000200C4810B59D
:1022F0000A4901604FF4E1314160002181600C2204
:10230000C160C0E904128161C161FFF72DFD0028A1
:1023100003D0BDE81040FEF7CFBA10BD0010014059
:10232000C00200200C4810B50A4901604FF4E131A9
:102330004160002181600C22C160C0E9041281610A
:10234000C161FFF711FD002803D0BDE81040FEF782
:10235000B3BA10BD004400400403002010B5114C76
:102360000F480C2120604FF4E13060600020A06035
:10237000E060C4E90401A061E0612046FFF7F4FCDD
:1023800008B1FEF799FA2068C16841F01001C160F8
:10239000BDE81040802204490248FFF723BE000038
:1023A000004800404803002040020020FEE7FEE70E
:1023B00070477047FEF75ABD30B593B0302168467C
:1023C000FDF74AFF14210CA8FDF746FF1D48002524
:1023D000016841F080510160006800F08050119068
:1023E0001948016841F4804101600068022400F44A
:1023F0008040119001200090000401908001CDE9FF
:10240000064008AA0420A82182E813000B90684621
:10241000FEF7E2FE08B172B6FEE70CA90F2081E8D4
:1024200031004FF4A0500F904FF4805010900521D0
:102430000CA8FEF7E7FD002801D072B6FEE713B046
:1024400030BD000040380240007000400248016882
:1024500041F470010160704788ED00E010B5044858
:10246000FFF71FFABDE810400248FFF71ABA000054
:1024700068000020F8000020F0B50268254C264DC9
:10248000264E274F274B4FF0804CA04209D0604585
:1024900007D0A84205D0B04203D0B84201D098423C
:1024A00004D122F0700E4A6842EA0E02A0421BD00C
:1024B000604519D0A84217D0B04215D0B84213D009
:1024C000984211D0184DA8420ED0184DA8420BD0FA
:1024D000174DA84208D0174DA84205D0164DA84266
:1024E00002D0164DA84203D122F44075CA682A438F
:1024F0004D6922F080022A4302608A68C2620A683B
:102500008262A04201D0984201D109690163012190
:102510004161F0BD0000014000040040000800409F
:10252000000C004000040140004001400044014014
:102530000048014000180040001C004000200040FE
:1025400010B5846842EA032224F47F440A432243FC
:10255000826010BD826822F070020A4342F00701D7
:102560008160704710B5036A046A24F001040462B4
:10257000846924F0F00444EA021423F00A020A43B6
:102580008461026210BD10B5036A23F01003036278
:102590008369046A23F4704343EA023224F0A003FF
:1025A00043EA01118261016210BD10B5806B002108
:1025B000C185C184FFF7A2FA10BD70B5846B206895
:1025C000406994F83D10C0F3C0100025212904D1C2
:1025D00018B1E584204600F08AF82068406994F834
:1025E0003E10C0F38010222904D118B1E5852046A1
:1025F00000F056F8206C40F0100020642046FFF7F1
:102600007DFA70BD10B50146806B09680968C9057F
:102610002FD40021C18501680C3151E8002F22F42C
:10262000807241E80023002BF5D10168143151E894
:10263000002F22F0010241E80023002BF5D10168B0
:10264000143151E8002F22F0400241E80023002B12
:10265000F5D1202180F83E10016B012909D10168D4
:102660000C3151E8002F22F0100241E80023002B2A
:10267000F5D1016B012902D0FFF7C9FC10BD818D96
:10268000FFF703FA10BD10B5806B016B012902D072
:10269000FFF7BEFC10BD818D4908FFF7F6F910BDAC
:1026A00001680C3151E8002F22F4907241E80023B8
:1026B000002BF5D10168143151E8002F22F00102FE
:1026C00041E80023002BF5D1016B012909D10168F4
:1026D0000C3151E8002F22F0100241E80023002BBA
:1026E000F5D1202180F83E10002101637047016878
:1026F0000C3151E8002F22F0C00241E80023002BEA
:10270000F5D1202180F83D10704708B590F83E10B3
:10271000222901D0022008BD82684FF480539A42DA
:1027200001D1016921B1816A9A421BD04AB10AE004
:102730000268816A5268C2F308020A80816A891CB1
:1027400008E0026972B10268526802F07F020A7002
:10275000816A491C8162C18D491E0904090CC18529
:1027600003D019E002685268F1E70168CA6822F0F4
:102770002002CA600168CA6822F48072CA600168D7
:102780004A6922F001024A61202180F83E10016B63
:10279000012903D0FFF73BFC002008BD00210163A5
:1027A00001680C3151E8002F22F0100241E80023AB
:1027B000002BF5D101680A68D20602D50A6849687B
:1027C0000091818DFFF761F9E6E7000070B50446DE
:1027D00000680169E26821F44051114301612169F7
:1027E000A068E26908436169114308432168CA6827
:1027F00049F20C639A430243CA6020684169A269A6
:1028000021F440711143416131492068884202D06E
:102810003049884202D1FEF79FFC01E0FEF78CFCB4
:10282000E2690023192164253226B2F5004F62685F
:1028300028D0A0FB0101930F9200FDF7C3FC0146D5
:10284000B0FBF5F06FF01802504301EB800006EB8F
:102850000010B0FBF5F000F0F002B1FBF5F002EB78
:102860000012B1FBF5F06FF01803584301EB800044
:1028700006EB0010B0FBF5F000F00F0021681044EB
:10288000886070BDA0FB010192185B41FDF79AFCC6
:102890000146B0FBF5F00201B1FBF5F06FF0180353
:1028A000584301EB800006EBC000B0FBF5F000F0F0
:1028B000F80002EB4002B1FBF5F0584301EB800059
:1028C00006EBC000B0FBF5F000F00700D6E7000013
:1028D000001001400014014038B581628285002556
:1028E000134604460564222084F83E00A26B1B4870
:1028F000D063A26B1A481064A26B1A48D064A06B14
:102900000A4605652168A06B091DFEF76DF9206870
:1029100001684068009084F83C5020680C3050E812
:10292000001F41F4807140E80012002AF5D12068B0
:10293000143050E8001F41F0010140E80012002A65
:10294000F5D12068143050E8001F41F0400140E804
:102950000012002AF5D1002038BD0000052600082D
:1029600087260008BB2500082DE9F0419846174648
:102970000E460446069D27E0681C25D02DB1FEF7C3
:102980006FFAA0EB0800A8421ED920680C3050E86E
:10299000001F21F4D07140E80012002AF5D1206810
:1029A000143050E8001F21F0010140E80012002A15
:1029B000F5D1202084F83D0084F83E00002084F802
:1029C0003C000320BDE8F0812068006836EA000082
:1029D00004D00020B842CFD00020F3E70120F9E76F
:1029E0000148FFF78DB80000C00200200148FFF742
:1029F00087B8000004030020074810B5006800688D
:102A0000C043C00602D4044800F008F8BDE81040F6
:102A10000148FFF775B80000480300202DE9F84F82
:102A20008346FFF733F8282000F06CFD3D498046CF
:102A30000025DBF800000968A94688420BD1394817
:102A4000E83000684068384FC0F18006394637A04A
:102A500000F08EF823E033494431096888420CD1F4
:102A60003748006840683049C0F18006803135A0A1
:102A700000F07EF82C4F803711E02A49443909686C
:102A800088420CD127488830006840682649C0F148
:102A90008006803930A000F06BF8234F803F00247F
:102AA0001DE0385D202802D0701E844216D1A4EBB0
:102AB000090A0AF1010000F025FD48F825005246F8
:102AC00007EB0901FDF7AFFB58F8252000216D1C2D
:102AD00002F80A1004F101090A2D02DA641CB4425A
:102AE000DFDB4146284600F0B8FC31463846FDF7AA
:102AF000B3FB002405E000BF58F8240000F0BAFC46
:102B0000641CAC42F8DB404600F0B4FC802239463D
:102B10005846FFF767FADBF800000168406800904C
:102B2000BDE8F88F04030020C001002075736172B6
:102B300074325F6275666665723A25730A0000003A
:102B40004C0400207573617274335F62756666654C
:102B5000723A25730A0000007573617274315F6206
:102B600075666665723A25730A000000FEE700008C
:102B70000FB4054B10B503A9044A029800F0EAF817
:102B800010BC5DF814FB00005D3400081400002048
:102B90000907090E002804DB00F1E02080F800148A
:102BA000704700F00F0000F1E02080F8141D70471E
:102BB00002E008C8121F08C1002AFAD17047704706
:102BC000002001E001C1121F002AFBD17047000064
:102BD0002DE9FF5F82B00021DDE90430020DDDF850
:102BE00040B0034318D044F61050A2F2FF324243E3
:102BF0001514119801281FD0A5EB0B00401C5FEAAB
:102C0000000A4FF000064E4FDFF83891B0465046AC
:102C100015D5CAF1000413E0119801244AA3012834
:102C200001D16FEA0B010298119AC0E90031C0E9A5
:102C3000024206B0BDE8F09FCBF10000DFE704469A
:102C40000021404A491842EB0450CDE9001012E03F
:102C5000E00707D032463B4640464946FDF7E3FBD6
:102C60008046894632463B4610461946FDF7DBFB57
:102C700006460F466410002CEAD1DDE90401DDE9C7
:102C80000023BAF1000F06DAFDF7CDFB42464B46B2
:102C9000FDF7C9FB05E0FDF738FC42464B46FDF762
:102CA00034FC04460E460022284BFDF7B5FC03D841
:102CB0004FF0FF30014607E00022254B2046314609
:102CC000FDF70AFBFDF790FC102409E0002C0ADB5D
:102CD0000A220023FDF776FA039B30321A55641E50
:102CE00050EA0102F2D1641C039AC4F111031444A6
:102CF000119A012A03D0012208430DD10AE00843AA
:102D000004D000204FF0110B119072E7A3EB0B05DC
:102D10006D1E0DE05B4504DD4FF0000205F101057D
:102D200004E003DA4FF00002A5F10105002AECD01F
:102D300002981199C0E90231C0E9004579E7000025
:102D4000000014400000F03F300000000000F0439D
:102D50000000E03F2DE9FF4F95B09A4688460646B1
:102D60000025EEE1252877D100242746F94A0121E4
:102D7000039400E0044316F8013F203B01FA03F0FE
:102D80001042F7D130782A2811D06FF02F03307815
:102D9000A0F13002092A16D8039A44F0020402EB8B
:102DA000820203EB42021044761C0390EFE758F8CE
:102DB000042B0392002A03DA504244F40054039097
:102DC00044F00204761C30782E2816D116F8010F34
:102DD00044F004042A280DD06FF02F023078A0F1BF
:102DE0003003092B09D807EB870302EB4303C7180D
:102DF000761CF3E758F8047B761C30786C280FD0EB
:102E000006DC4C2817D068280DD06A2814D104E0BD
:102E1000742810D07A280FD10DE044F400140AE091
:102E200044F4801401E044F440147278824202D1E8
:102E300004F58014761C761C307866280BD013DCE1
:102E4000582877D009DC002875D04528F6D04628C8
:102E5000F4D047281AD193E118E0632835D06428CC
:102E600079D0652812D18BE1702873D008DC6728EF
:102E7000F1D069286FD06E280DD06F2806D1ACE054
:102E800073282CD0752874D0782853D052461799BF
:102E900090476D1C54E1C4F30250022809D0032866
:102EA0000DD0D8F8001004280DD00D6008F10408EA
:102EB00046E1D8F80010EA17C1E90052F6E7D8F861
:102EC00000100D80F2E70D70F0E718F8041B8DF884
:102ED000001000208DF80100EB46012003E058F8B7
:102EE00004BB4FF0FF3061074FF0000102D40DE04A
:102EF00009F101018946B9420FDA8145F8DB1BF877
:102F000009100029F4D108E009F101018946814244
:102F1000FADB1BF809100029F6D103985346A0EB01
:102F2000090721463846179A00F080FA284400EB3A
:102F3000090507E044E008E10DE01BF8010B5246EB
:102F400017999047B9F10109F7D2534621463846FF
:102F5000179AF2E039E00A21C4F302524FF0000B55
:102F60000091022A06D058F8040BC117032A09D091
:102F70000AE023E008F1070020F00702F2E802016E
:102F8000904605E000B2C117042A01D140B2C11732
:102F9000002906DA0A460021404261EB02012D2297
:102FA00002E0220504D52B228DF80420012203E043
:102FB000E20701D02022F7E7914657E00A2100E01E
:102FC00010214FF0000B00910BE010214FF0000B8F
:102FD00044F004040827009103E008204FF0000BA0
:102FE0000090C4F30252022A05D058F8040B0021C5
:102FF000032A08D008E008F1070020F00702F2E8F1
:103000000201904603E080B2042A00D1C0B24FF022
:10301000000922072AD53278702A07D0DDF800C0CF
:103020008CF0100C5CEA0B0C05D00EE040228DF801
:103030000420012208E050EA010306D030238DF875
:1030400004308DF8052002229146009B83F008038E
:1030500053EA0B030AD150EA010201D1620705D5F8
:1030600030228DF804204FF001097F1E3278582A53
:1030700004D039A20C920CAA02920BE03BA2F9E711
:103080005B46009AFDF79EF80C9B9B5C029A521ED1
:103090000292137050EA0102F2D1029804A9081AB0
:1030A00000F1200B600702D524F4803400E00127F2
:1030B0005F4502DDA7EB0B0000E0002000EB0B01F9
:1030C000009003984944401A0390E00306D4534605
:1030D0002146179A039800F0A9F90544002706E055
:1030E00001A85246C05D179990476D1C7F1C4F4543
:1030F000F6DBE0030CD553462146179A039800F0FF
:1031000095F9054404E030205246179990476D1C0C
:103110000099481E00900029F5DC08E00298029909
:1031200052460078491C0291179990476D1CBBF1DB
:103130000001ABF1010BF1DC5BE100F065F9054446
:10314000761C307800287FF40DAE19B02846BDE813
:10315000F08F000009280100303132333435363722
:1031600038396162636465660000000030313233D3
:103170003435363738394142434445460000000073
:10318000600700D4062708F1070020F00700F0E8E8
:103190000223804603F0004C5FEA0C0001D097A0A8
:1031A00009E0200501D596A005E0E00701D095A033
:1031B00001E0AFF24C001390307823F00043652813
:1031C0000CD006DC452809D046281DD047287FD1E1
:1031D0003BE0662818D067287AD136E00021112F0D
:1031E00001DB112000E0781CCDE9000104A90CA846
:1031F000FFF7EEFCDDE90D010C9A4FF0000B07F133
:103200000109109200914EE04FF000400097CDE987
:10321000011004A90CA8FFF7DBFCDDE90D020C9BF3
:103220000F994FF0000B91461093009211B9791C41
:1032300000EB0109B7EB090003D4C0F1FF3B07F134
:103240000109A9EB0700019042E0012F00DA0127F4
:103250000021112F01DD112000E03846CDE90001E9
:1032600004A90CA8FFF7B4FCDDE90D010C9A00914C
:103270004FF0000BB946109221070FD4009A4A452F
:1032800003DA914601E0A9F10109B9F1010F05DD69
:10329000109AA9F10101515C3029F4D0B84202DA48
:1032A00010F1040F03DA0121CDE9011010E000282C
:1032B00003DC8344A9EB000102E0411C494500DD29
:1032C0008946A0EB0B00401C01904FF0004002909B
:1032D000200705D40198484502DB4FF0FF300190EC
:1032E00000208DF84B0002980DF14B07B0F1004F14
:1032F00025D002200C902B200D90029800280CDA8B
:10330000404202902D200D9007E00A210298FCF720
:10331000AEFF3031029007F8011D0C99481E0C9049
:103320000029F2DC02980028EFD1791E0D98087070
:10333000307800F0200040F0450007F8020D11A899
:10334000C01BC01D02901398007800B1012000EB53
:103350000901019801EBE071029801440398401AB9
:10336000401E0390E00306D453462146179A039863
:1033700000F05CF805441398007818B1524617998C
:1033800090476D1CE00323D553462146179A0398B6
:1033900000F04CF805441BE0BBF1000F07DB009880
:1033A000584504DD1098179910F80B0001E01799A3
:1033B00030205246904701980BF1010B401E05F159
:1033C0000105019004D12E205246179990476D1C9B
:1033D000B9F10001A9F10109DEDC05E017F8010BE4
:1033E0005246179990476D1C0299481E0290002979
:1033F000F4DC53462146179A03989EE62D00000000
:103400002B000000200000002DE9F04104460025BB
:103410001E461746880404D405E039462020B047EC
:103420006D1C641EF9D52846BDE8F0812DE9F041F8
:10343000044600251E469046C80301D5302700E00B
:103440002027880404D505E041463846B0476D1C66
:10345000641EF9D52846BDE8F081704713B54FF6D4
:10346000FF73012269460248FEF7D4FD00981CBD97
:103470004803002010B5002821D0114B0022001F66
:10348000196803E0814203D80A4649680029F9D146
:1034900052B11368841A9C4204D100681844106029
:1034A000104602E0506000E0186039B102680B1A63
:1034B000934203D10B681A4402604968416010BD11
:1034C00018000020FDF7DAFCFEF776FFFEF72CFE71
:1034D000FEF7FCFDFEF70AFFFEF724FFFEF73EFFB6
:1034E000FEF79CFEFEF7D0FEFEF77EFE00F06CF8C5
:1034F00000F03EF801A0FFF73BFBFEE7496E697460
:103500000A000000F0B50B30154D20F00701002433
:10351000144A0FE003688B420BD38B4205D95E1A25
:1035200043184768C3E9006700E04368136002C0BE
:1035300004E0021D10680028ECD12046002802D1CA
:10354000286808B10020F0BD064A07481060074A05
:10355000121A22F00702C0E9002401202860D7E7F0
:103560001C00002018000020B4040020B006002039
:103570000C48BBEE090A9FED0C1A80ED000A80EDA5
:10358000011AF3EE090AC0ED020A80ED031A80ED7C
:10359000040ABAEE0F0A80ED050AC0ED060A80EDB6
:1035A000070A704748000020000000000448017826
:1035B000002904D1034A1268516201210170704749
:1035C000000000206800002010B50448FEF7BAF89B
:1035D000BDE810400248FEF779B8000068000020FE
:1035E000F80000200006101600061016000000006B
:1035F00000000000010203040607080900000000A3
:10360000010203042436000800000020200000000E
:10361000B02B00084436000820000020900A00006B
:10362000C02B000800000000010000001000000096
:10363000000000000024F400000000000000000072
:043640000000000086
:040000050800018965
:00000001FF
