:020000040800F2
:10000000B80900200D020008833D00086B3B000882
:10001000813D0008812100085D45000800000000C6
:10002000000000000000000000000000873D000804
:100030009121000800000000853D0008893D00086E
:1000400027020008270200082702000827020008EC
:1000500027020008270200082702000827020008DC
:1000600027020008270200082702000827020008CC
:10007000270200082702000827020008852100083F
:1000800027020008270200082702000827020008AC
:10009000270200082702000827020008270200089C
:1000A000ED3D00082702000827020008270200088B
:1000B000270200082702000827020008270200087C
:1000C000270200082702000827020008270200086C
:1000D00027020008D9420008E5420008270200086C
:1000E000270200082702000827020008270200084C
:1000F000270200082702000827020008270200083C
:10010000270200082702000827020008270200082B
:10011000270200082702000827020008270200081B
:10012000270200082702000827020008270200080B
:1001300000F002F800F05BF80AA090E8000C82449E
:100140008344AAF10107DA4501D100F050F8AFF27B
:10015000090EBAE80F0013F0010F18BFFB1A43F0A5
:1001600001031847045A0000245A0000103A24BF23
:1001700078C878C1FAD8520724BF30C830C144BF0C
:1001800004680C607047000000230024002500264E
:10019000103A28BF78C1FBD8520728BF30C148BFEA
:1001A0000B607047662905F0BA83642900F0B880B7
:1001B000732900F06484002070471FB59DE8030098
:1001C00001F0ECF900F0B6FC04000020002104F07E
:1001D00013FD401C60600020002104F0F7FCE0608B
:1001E00000F086FF1FBD10B500F0EBFF10BD01F061
:1001F00053F81146FFF7E1FF04F054FB01F060F9FA
:1002000003B4FFF7F0FF03BC01F05AFB0948804735
:1002100009480047FEE7FEE7FEE7FEE7FEE7FEE7E8
:10022000FEE7FEE7FEE7FEE704480549054A064B00
:1002300070470000E93D000831010008B8030020C4
:10024000B8090020B8050020B80500200FB4044903
:1002500010B503AA029800F017FC10BC5DF814FB5F
:10026000B00200202DE9F0410E4604460020206235
:100270002046E168884730B3252805D0D4E901211C
:100280009047206A401CF2E7E16820460027884733
:10029000050018D0A5F14100192802D820354FF4E7
:1002A00000673246294620462760FFF77BFF40B1B2
:1002B000012804D0F61D26F007060836D8E7361DBB
:1002C000D6E72846DAE7206ABDE8F08170B50C462B
:1002D0000546012A05D02878800600D5EA69002362
:1002E00002E0012305E05B1C934202D2E05C00289F
:1002F000F9D1A869E618C01AA861286A18442862CA
:100300002846AFF3008004E0D5E9012114F8010B81
:100310009047B442F8D32846AFF3008070BD000088
:100320002DE9F0410646002410687529314616A5CE
:1003300010D0AFF30080002802DA404213A507E096
:1003400031688A0701D512A502E0490704D511A535
:10035000012401E0AFF3008000210A2206F1240706
:1003600009E0B0FBF2FCB0FBF2F302FB1C00303002
:1003700078541846491C0028F3D123462A463046B3
:10038000BDE8F04100F001B9000000002D000000C0
:100390002B000000200000000FB400B58DB010A9A4
:1003A000099000910B904FF0FF300A9000200C90C4
:1003B000064878440690064878446A4607900F99A4
:1003C00009A800F087FB0DB05DF814FB3F070000A3
:1003D000570700002DE9FF5F1D464FF0FF3B914698
:1003E0004FF000085F46D5E90146A96901987F1CD6
:1003F0008847296A824688470028F6D1BAF1FF3F2C
:100400000CD0002E24F4C06419DD600614D5BAF1B6
:100410002B0F09D0BAF12D0F0ED103E0584604B0CE
:10042000BDE8F09F44F48064A96901987F1C884767
:10043000761E8246002E02DDBAF1300F03D0B9F1EC
:10044000000F26D032E0A969761E01987F1C44F483
:1004500000748847002E824605DDBAF1780F06D079
:10046000BAF1580F03D0B9F1000F10D01EE0B9F166
:10047000000F02D0B9F1100F18D1A969761E0198AA
:100480007F1C24F4007488478246102002E0082074
:1004900000E00A20814609E0A96908FB0908761EE8
:1004A00001987F1C44F4007488478246002E05DDC5
:1004B0004946504600F0FAFA0028EDDAE969019859
:1004C0008847A00502D46FF00100A8E7E00725D116
:1004D000600613D5600502D5C8F1000000E0404673
:1004E00029680A1D2A600968220501D5087015E0EF
:1004F000220701D5088011E008600FE02868011D7F
:1005000029600068210502D580F8008006E02107F7
:1005100002D5A0F8008001E0C0F8008038467EE7F0
:100520004FF0000200B5134694469646203922BF8C
:10053000A0E80C50A0E80C50B1F12001BFF4F7AFD7
:10054000090728BFA0E80C5048BF0CC05DF804EBB9
:10055000890028BF40F8042B08BF704748BF20F827
:10056000022B11F0804F18BF00F8012B7047704725
:100570007047704710B500F0E1FA006810BD10B583
:10058000044600F0DBFA046010BD2DE9F0470D468B
:1005900099469246044600F124080168880604D56D
:1005A000E06921F01001216000E00120A84201DD96
:1005B000471B00E00027A1697A1902EB0900081A1D
:1005C000A0612078C00602D42046AFF30080002648
:1005D00008E0D4E901211AF806009047206A401C7F
:1005E000761C20624E45F4DB2078C0060AD52046F2
:1005F000AFF3008006E0D4E9012130209047206A63
:10060000401C2062381EA7F10107F4DC07E0D4E9A2
:10061000012118F805009047206A401C2062281E1E
:10062000A5F10105F3DC2046AFF300802078000639
:1006300002D50220BDE8F0870120FBE770472DE9D5
:10064000FF4F0C461E464FF0FF378BB0D2E900013A
:10065000DDF860800A908A46C1F30A5505B93D4627
:10066000002108464FF00000BAF1000F00F44000EE
:1006700005DA00EB80004FF4400101EA50004FEA38
:100680009059B9F1010F00DDB9460A9850EA4A00C5
:100690000ED044F61050A5F2FF3545432F14B8F1A3
:1006A000000F1ED07542291E1EDDC9F100021CE09C
:1006B000B8F1010F4FF0000001D0302103E0F24308
:1006C00005E02154401CB042FBDB304600220021F3
:1006D00021540B99C1F80880C1E900200FB0BDE892
:1006E000F08FBD1B6D1CDEE74A4600DA694206A8A2
:1006F00000F088FC06AB93E8070003AB83E8070033
:1007000050460A9901F074F98DE80700A0F50050F1
:100710001F3800900398002D0ADD42F21F014A465F
:100720000844002303A90390684601F0DDFB09E0BB
:10073000A0F500504A461F38002303A903906846DD
:1007400001F0E7FB8DE807000004000C03D04FF038
:10075000FF30410800E01046B8F1000F03D000223E
:10076000009215461EE0751E05D400F0EBF93032FC
:1007700062556D1EF9D5B3460122084302D000220E
:100780007F1C04E02078302801D100227F1E002A3F
:10079000099784D01DE0112D07DA00F0D3F930322B
:1007A00062556D1C50EA0102F5D1084302D0009851
:1007B000C8B10EE00021681E05E0235C625C635452
:1007C0002254401E491C8142F7DBAB46A81B401E49
:1007D0000990002004F80B000B98099AC0F80880D3
:1007E000C0E9002B7AE711264FF0000857E72DE902
:1007F000F04F88460446D21D22F0070191B0D1E99E
:100800000001CDE90A0103F0AAFE02460B98C00FD1
:1008100001D02D2007E02068810701D52B2002E0C0
:10082000202101EAC000032A099001D0072A05DB34
:1008300003464146204600F0EBF90BE120788006A4
:1008400001D5E06900E00620B8F1650F814606D0C9
:10085000B8F1660F18D0B8F1670F70D131E0002001
:10086000B9F1110F009001DB112301E009F101033F
:100870000AAA01A90CA8FFF7E2FEDDE90C70002628
:1008800009F10105834647E001204B4600904FF0F7
:1008900000470AAA01A90CA8FFF7D1FEDDE90DB0B7
:1008A0000C995D46002610B909F101000D18B9EB4D
:1008B000050003D4C0F1FF3609F10105A5EB0900DD
:1008C0002BE0B9F1010F01DA4FF001090020B9F175
:1008D000110F0090484601DD112300E003460AAAEB
:1008E00001A90CA8FFF7ABFEDDE90C704D46002610
:1008F0008346207800070AD4AB4500DA5D4601A89C
:10090000012D04DD411911F8011C302907D04F4594
:1009100002DA17F1040F04DA012082460FE06D1E9F
:10092000EEE7002F02DCED1B3E4403E0781CA842FA
:1009300000DD7D1CB81B00F1010A4FF00047207854
:10094000000703D4AA4501DB4FF0FF3A0021B7F1BD
:10095000004F0DF143088DF8431024D002202B23C3
:10096000002F01DA7F422D230A21021EA0F101008F
:1009700000DC5FB197FBF1FC97FBF1F201FB1C7C03
:1009800017460CF1300C08F801CDEEE7A8F1010094
:1009900003702188090501D5452100E06521A0F1FA
:1009A000010800F8011C09980FA9A1EB0807FF1D19
:1009B00000B10120411901EBEA70A1693844081A1D
:1009C000401EA0612078C00602D42046AFF300800C
:1009D000099828B1D4E901219047206A401C20627F
:1009E0002078C00622D52046AFF300801EE0002EFE
:1009F00004DBB34502DD01A8805D00E03020D4E9CE
:100A000001219047206A401C2062761CAAF1010057
:100A10005FEA000A0AD100F08DF8C0680168405C06
:100A2000D4E901219047206A401C2062281EA5F1CC
:100A30000105DCDC07E0D4E9012118F8010B90473F
:100A4000206A401C2062381EA7F10107F3DC204613
:100A5000AFF30080032011B041E610B5436913B134
:100A6000AFF3008001E0FFF731FC012010BD1278E8
:100A700000F124010A7000224A700122EDE711689A
:100A80004FF0FF32E9E70000074B70B50D467B449D
:100A900000F0ABF80446284600F026FB10B14FF0FA
:100AA000FF3070BD204670BDF73D00003A2800D2EF
:100AB000303820F02002412A01D3A2F137008842C9
:100AC00001D34FF0FF307047026811441378016082
:100AD00018467047D1600549794451610449794409
:100AE000116200211161114600F0D2B8EDFFFFFF45
:100AF000ED000000426842B1016811F8013B23B1EA
:100B0000521EC0E90012184670470121C160881EBC
:100B1000704742685AB1C368016843B983688B4221
:100B200005D0491E521CC0E90012002070474FF04A
:100B3000FF30704700487047780300200048704736
:100B40005803002030B5B0F10A024FEA900E71F15F
:100B500000034EEA817EB0EB0E0061EB91014FEA9B
:100B6000101E4EEA017E10EB0E0041EB11114FEA10
:100B7000102E4EEA016E10EB0E0041EB11214FEAF0
:100B8000104E4EEA014E10EB0E0041EB11414018A1
:100B900041F100014FEAD00040EA41704FEAD10133
:100BA00010EB80054FEA810444EA907444EB0104A1
:100BB0006D1944EB0404521BA3414FF0000348BFDE
:100BC0000A3200D530BD401C41F1000130BD10B5E6
:100BD000044600F087FB0068005D00F0010010BDD6
:100BE00001694A1C02610878704700B58FB0CDE9F1
:100BF00001310021059105497944CDE903101146E1
:100C00006846FFF72FFB0FB000BD0000E5FFFFFFB8
:100C10002DE9F0411F46044603260168072A01F426
:100C2000006004DB08B116A505E016A503E008B1D5
:100C300015A500E015A521F010002060A069C01ED8
:100C4000A0610FB1401EA0612046AFF300804FB1FC
:100C5000D4E9012138469047206A401C2062C01C1C
:100C6000206206E0206AFAE7D4E9012115F8010BB9
:100C70009047761EF8D22046AFF30080BDE8F081A1
:100C80004E414E006E616E00494E4600696E660030
:100C90002DE9F34F4FF0000A0C4656468DB0012067
:100CA0000C9001F10C000B9062690B9801219047A8
:100CB000051E2DD0252D2CD0216A8847C0B1626930
:100CC0000B9801219047216A88470028F7D1626973
:100CD000411E0B98904700E0761CA1690D9888474B
:100CE000216A88470028F7D1E1690D988847DBE73A
:100CF000A1690D988847A842074601D1761CD3E721
:100D0000E1690D9888477F1C02D1BAF1000F6FD0BE
:100D10006BE162690B9800273D46394690472A28C7
:100D200004D162690B98012190470125DFF8D08238
:100D300062690B9801219047A0F130010A290AD27B
:100D40004745E5DC07EB870100EB4107303FDFD487
:100D500045F01005ECE7E90601D46FF000476C2878
:100D60000AD04C2814D0682815D06A280DD07428D1
:100D70001CD07A281AD01DE062690B980121904797
:100D80006C2802D045F0040514E045F002050DE0A2
:100D900045F020050AE062690B9801219047682818
:100DA00002D045F0080505E045F4006562690B983E
:100DB00001219047C4E9015765283DD019DC582826
:100DC0007AD00CDC452837D004DC252826D04128F1
:100DD0009ED131E046282FD0472899D12CE05B28BE
:100DE00077D0612828D063287CD0642823D15AE0AA
:100DF000F6E06F2848D008DC66281DD067281BD095
:100E0000692821D06E2816D127E0702845D0732894
:100E100068D0752847D078280DD14DE0A1690D988C
:100E20008847252805463FF469AFE1690D98884752
:100E30006D1C3FF46AAFD8E00D9923466A466FF007
:100E40000100AFF30080C5E045F0400023464FF0BD
:100E500000026060A80736D43EE0E8077FF447AFA1
:100E60002068011D21600068290501D506701BE777
:100E7000290701D5068017E7A90703D5F117C0E9AF
:100E8000006111E706600FE745F0400023464FF090
:100E900008026060A80716D41EE040F60E0125EA9D
:100EA0000100606016E045F0400023464FF00A0262
:100EB0006060A80707D40FE045F040006060A80715
:100EC00008D5234610220D996FF00100AFF3008082
:100ED00080E007E0102223460D996FF00100FFF734
:100EE00079FA77E04FF0000963284F46C8464B4631
:100EF000CB4602D05B2806D038E0E80601D40120BA
:100F0000A060012732E06269D4F80CB00B9801218F
:100F100090475E2807D14FF0010949466269D4F82D
:100F20000CB00B989047216939B900210A4603ABF0
:100F300043F82120491C0829FADBD8B3216949B3B9
:100F400008F1010862690B98012190475D28F4D1EE
:100F5000B9F1000F09D0002003A951F82020D24395
:100F600041F82020401C0828F7DB03AB206900284B
:100F700020794FEA40701ED05B462246CDF80080B3
:100F8000CDE901970D9900286FF0010020DAAFF349
:100F900000801FE0C11703AA00EBD1614B1121F0C3
:100FA0001F0102EB8302411A1368012088400343AA
:100FB0001360C7E719E00D99224600286FF0010081
:100FC000009702DAAFF3008004E0AFF3008001E0A5
:100FD000AFF3008000280ADA401C06D10C9820B13B
:100FE0004FF0FF300FB0BDE8F08F5046FAE7E90749
:100FF00001D10AF1010A064400200C9054E60000D9
:10100000CCCCCC0C2DE9F047814616468AB0354849
:1010100078440DC88DE80D0032487844801C03AC3C
:101020000DC884E80D0041F69B300844372190FB41
:10103000F1F290FBF1F5A5F1800501FB12041B3CD8
:1010400002D56442012000E00020DFF898A080462D
:101050000027FA44AAF1BE0A0EE0E0070AD03246A1
:10106000684607EB470101230AEB810100F051FFBD
:101070008DE8070064107F1C002CEED1194F7F44CF
:10108000AE3F19E0E80715D007EB04100DF1180A80
:1010900090E80E008AE80E00C068F04201D198196D
:1010A00008903246012306A903A800F032FF03ABE3
:1010B00083E807006D10641C002DE3D14FF001039D
:1010C00032466946B8F1000F03A802D000F00CFFC9
:1010D00001E000F01EFFC9E90001C9F808200AB0CC
:1010E000BDE8F087304B0000007B00F080007047C7
:1010F00010B542485421FFF713FA41485421FFF735
:101100000FFA40485421FFF70BFA3F493B483C4A4D
:101110003F4B08603D490A603A491960531C03651A
:10112000481C1065012008653B48344A39A17844C1
:1011300000F02AF920B9384878440A3800F0C9F993
:1011400037482F4A35A1784400F01EF920B93448B9
:1011500078440A3800F0BDF932482A4A2FA1784471
:1011600000F012F920B92F4878440A3800F0B1F99C
:1011700040232248DC000021224600F0E2F820B1A2
:1011800025487844543800F0A4F91D4822464023ED
:10119000002100F0D6F820B121487844543800F0FE
:1011A00098F9184822461023002100F0CAF80028B8
:1011B00006D01C487844BDE81040563800F089B984
:1011C00010BD104870B5006D20F001040B4800F010
:1011D00051F90B4800F04EF90A4800F04BF909E0CC
:1011E000206D20F00105204600F044F9204600F073
:1011F00081F82C46002CF3D170BD00005C02002069
:10120000B002002004030020280000202C00002051
:1012100030000020720000002A4A00007700000021
:10122000164A0000024A00000EB5CDE9000100F0A8
:1012300027FB029069460120ABBE0EBD08B569468A
:1012400000900220ABBE08BD1FB58DE807006946BF
:101250000520ABBE04B010BD1FB58DE80F00694678
:101260000620ABBEF6E708B5694600900920ABBE84
:1012700008BD1CB5CDE9000169460A20ABBE1CBD06
:10128000704708B5694600900C20ABBE08BD000051
:1012900000487047580300207546FFF7F9FFAE4637
:1012A00005006946534620F00700854618B020B572
:1012B000FEF7BAFFBDE820404FF000064FF00007F0
:1012C0004FF000084FF0000B21F00701AC46ACE8EE
:1012D000C009ACE8C009ACE8C009ACE8C0098D465B
:1012E0007047000010B5FFF725FC001D10BD00BFC2
:1012F0000939000070B50446051F00F033F9006895
:10130000002C14BF446870BD002C18BFAC423CBF19
:1013100020466468F8D301680A18AA4218BF4560DD
:1013200003D12A6805461144016028684119A14289
:101330001CBF6C6070BD61686960216808442860EA
:1013400070BD70B5C468A50713D0650211D4B2F59D
:10135000807F09D0B2F5007F06D0B2F5806F08D14A
:10136000012300F1240106E05D1E6FF07F46B542C7
:1013700001D3012070BD0161C361416024F470613B
:101380001143C160002070BD2DE9F0410C460746B5
:101390001646104600F06EF82078611C61280AD0CD
:1013A000722802D077283CD102E00125002405E014
:1013B0000225042402E0082448F2020511F8010B7A
:1013C0002B2806D0622809D011F8010C74280AD005
:1013D0000BE045F0030544F00204EFE745F0040597
:1013E00044F00104EAE744F0100438462146FFF7D0
:1013F0001BFF411C15D00021316171604FF4007159
:10140000F560F1617061200704D5304602220021A9
:1014100000F022F9306D40F0010030653046BDE843
:10142000F0810020FBE72DE9F0410D460646104C07
:10143000206DC10704D0410804D020F00104F7E773
:1014400022460EE0542000F0D8F807000ED0206DA0
:1014500047F001010843542120653846FFF760F842
:101460003A4629463046BDE8F0418DE70020D6E7F0
:101470005C0200202DE9F04704464FF000094FF0D0
:10148000FF37C568D4E90486A80707D0204600F0D6
:1014900093F93046FFF7D2FE002802DA3846BDE85D
:1014A000F087280502D54046FFF724FF4C2120464F
:1014B000FFF736F8206D20F0010020654846EEE782
:1014C00010B50446AFF300802046BDE81040FEF79B
:1014D00097BE10B500F0BAF9BDE8104000F0B0B901
:1014E0004FF0013C50F8042B51F8043B9A4221D1B3
:1014F000A2EB0C03934313EACC1317D150F8042B3F
:1015000051F8043B9A4215D1A2EB0C03934313EA22
:10151000CC130BD150F8042B51F8043B9A4209D15B
:10152000A2EB0C03934313EACC13DBD04FF0000083
:10153000704700BFD01A01BAB1FA81F101F0180169
:1015400022FA01F0CB40C1F12001DBB2C0B2C01AD7
:101550002CFA01F3D11A914311EAC311E6D1704775
:1015600070470000004870476003002070477047D4
:101570007047704738B504460A4600206946AFF305
:101580000080002808BF38BD02460099204600F0C0
:10159000A4F9012038BD012000F0F3B9F8B5AFF38C
:1015A0000080054600200C46102000BF0646A81902
:1015B000A0420DD9324669460020AFF300800700F3
:1015C00008BF00F0DEF90098A04218BF0546C41914
:1015D000FFF7C8FF05600746F01D20F00700461919
:1015E000284600F073F9B44208BFF8BDA21B31468B
:1015F0003868BDE8F84000F070B970B50646FFF7EE
:10160000B1FF056806F10B0020F00704B4429CBF4F
:10161000002070BD2B466A68BAB11068A04210D392
:1016200004F1080188423CBF5068586007D35168F4
:10163000101941601168091B016058601460101D89
:1016400070BD13465268002AE7D121462846FFF7AD
:1016500091FF0028DED170BD2DE9F0410446164609
:101660000D464769007B80072ED03846FFF7FBFD0B
:1016700050BB3EB3012E02D0022E25D104E02046FD
:1016800000F045F905441DE03846FFF7FAFDE16832
:10169000002841F01001E16005DA204600F058F81A
:1016A0000120BDE8F081C9030BD56268E16A91426F
:1016B00000D81146A26911442269891A814200DDCD
:1016C00008460544002D01DA0220EAE7E16A606875
:1016D000E268814206D29103E06203D522F4003130
:1016E00041F01002A6690027AE4213DCE16A814294
:1016F00001D90B4600E0034603EB060C2369ACEB73
:10170000030CAC4506DD814201D98C4600E08446DD
:101710009C4505D1A760276042F02000A5620DE03E
:10172000AD1BE669AE1B8142A66000D90846C01A0F
:10173000281A20605819606022F0200003490840F0
:10174000E060002084F84870ABE70000BFCFD7FF0F
:10175000C16821F4001141F08001C1600021816065
:10176000016070472DE9F047814614460E464FF060
:10177000FF383248D5685769054209D03846A16913
:10178000FFF777FD002811DB2C48C0430540E560DA
:101790002B46324649463846FFF756FDA16920F0F0
:1017A0000042B21A11440028A16103D02046FFF77D
:1017B000CFFF4046BDE8F08770B504460569C06AB2
:1017C0006168884200D80846E16821F42011E16090
:1017D000C90312D5A84208D02246411B2846FFF76C
:1017E000C1FF10B14FF0FF3070BD0020E562C4E9C9
:1017F0000150E06820F48030E060002070BD10B53A
:101800000446C06820F02000E060A16AA069884218
:101810000DD02046FFF7D0FFE06820F4405040F0A4
:101820001000E060A06AA0612069E062606044F29C
:101830004001E0688843E06010BD00001000020035
:10184000002801D000F03CB87047000010B50146F8
:1018500002A000F07DF8012010BD0000534947525E
:10186000545245443A2052656469726563743A2063
:1018700063616E2774206F70656E3A20000000006F
:1018800010B5431C02E010F8011B71B18107FAD1B9
:101890004FF0013202C88C1A8C4314EAC211F9D0FD
:1018A000C01A0A0603D0C01E10BDC01A10BD0A041B
:1018B00001D0801E10BD0902FCD0401E10BD0000EA
:1018C00001491820ABBEFEE726000200002101609E
:1018D000C0E90110704710207047034640688C46ED
:1018E000002818BF88423CBF03464068F8D31868F8
:1018F0001844884207D00CF1030020F00700001DB7
:10190000411A521A0146081D0A60FFF7F3BC10B5D0
:101910000146C268900703D0900607D5886A0AE09E
:10192000FFF70CF901210160881E10BD8B69486822
:1019300018440B69C01A91F848301BB191F849104E
:10194000401A10BD1103FCD50028FADD401E10BD61
:1019500070B505460C460A2000E06D1C00F018F832
:1019600035B128780028F8D102E0641C00F010F8A6
:1019700014B120780028F8D1BDE870400A2000F0AA
:1019800007B810B500F00CF8BDE81040FFF758BFDD
:1019900008B569468DF800000320ABBE08BD000005
:1019A00010B5012805D0002103A0FFF7D1FF0120C9
:1019B00010BD09A1F8E7000053494752544D454D69
:1019C0003A204F7574206F662068656170206D65E0
:1019D0006D6F7279000000003A2048656170206DDB
:1019E000656D6F727920636F7272757074656400D3
:1019F0005FEA400C08BF91F0000F4FEA8C234FEADA
:101A0000C12243EA51514FEA1C5018BF00F5F04083
:101A10004FEA300018BF41F000415FEA6C5C00F013
:101A20002980BCF1FF3F08BF40F080407047130C95
:101A300006BF12044FF0100C4FF0000C130E04BF41
:101A400012020CF1080C130F04BF12010CF1040C6C
:101A5000930F04BF92000CF1020CD30F04BF52008D
:101A60000CF1010C11464FF00002A0F11F00A0EB99
:101A70000C00704711F0004F08BF704731F0004173
:101A80003FF4D5AF0B0C06BF09044FF0100C4FF01C
:101A9000000C0B0E04BF09020CF1080C0B0F04BF65
:101AA00009010CF1040C8B0F04BF89000CF1020C2E
:101AB000CB0F04BF49000CF1010CCCF12003A0EBCB
:101AC0000C0022FA03F302FA0CF241EA030100F1DE
:101AD0000100704720F07F4C80EA030023F07F472D
:101AE000ACEB070303F57C5300F0004003F1FF0368
:101AF0002DE980494FEA154B09B44FEA144325EA12
:101B00000B4E24EA03480FF2042606EB132749087C
:101B10003E785FEA320203FB0667C7F5000707FB62
:101B200006F64FEA54374FEAD64606F1020607FB9F
:101B3000066CCCF1005C4FEA1C472CEA074C07FB13
:101B400006F40CFB06F504EB15464FEA961634BF77
:101B500000204FF000404FEAD13706FB07FC4FEA68
:101B60001C4C0CFB0BF7D21B03FB0CF761EB0701C2
:101B70000CFB0EF7B0EB074072EB17420CFB08F7BB
:101B800034BFA2EB0742B2EB074261EB17414FEAC9
:101B90000C444FEA910706FB07FC4FEA1C4C0CFB78
:101BA0000BF7B0EBC74072EB573203FB0CF734BFB7
:101BB000A2EBC742B2EBC74261EB57310CFB0EF709
:101BC000B0EBC70072EB57720CFB08F734BFA2EB07
:101BD000C702B2EBC70261EB5771039F4FEA816105
:101BE00041EA921104EBCC044FEAD1374FEA82620A
:101BF00006FB07FC42EA90124FEA80604FEA1C4C59
:101C00000CFB0BF7D21B03FB0CF761EB07010CFB82
:101C10000EF7B0EB074072EB17420CFB08F734BF2E
:101C2000A2EB0742B2EB074261EB17414FEA8C553A
:101C30004FEA910704EB9C2406FB07FC4FEA1C4C7F
:101C40000CFB0BF7B0EBC74072EB573203FB0CF702
:101C500034BFA2EBC742B2EBC74261EB57310CFB7A
:101C60000EF7B0EBC70072EB57720CFB08F734BFEE
:101C7000A2EBC702B2EBC70261EB577115EB4C2523
:101C80004FEA816141EA92114FEA82624FEAD1370D
:101C900042EA901206FB07FC44F100044FEA806020
:101CA0004FEA1C4C0CFB0BF7D21B03FB0CF761EB50
:101CB00007010CFB0EF7B0EB074072EB17420CFB71
:101CC00008F734BFA2EB0742B2EB074261EB1741C2
:101CD00015EB1C154FEA813141EA92414FEA8232FD
:101CE00042EA90424FEA80304FEA0C7644F1000419
:101CF00048EA03434EEA0B484FF0000EB2EB080CE3
:101D000071EB030724BF624639464EEB0E0E4FF0CF
:101D1000000B0018524149414BEB0B0BB2EB080C86
:101D200071EB03077BF1000B24BF624639464EEB93
:101D30000E0E4FF0000B0018524149414BEB0B0BBC
:101D4000B2EB080C71EB03077BF1000B24BF62467A
:101D500039464EEB0E0E51EA020718BF46F0010657
:101D600016EB0E7655F1000254F1000103D5BDE8E3
:101D70008901BDE80088BDE88901BDE80048B619C1
:101D8000524141EB0101A3F10103704780807F7E46
:101D90007D7C7B7A797877767675747372717170E1
:101DA0006F6E6E6D6C6C6B6A6A6968686766666593
:101DB0006464636362616160605F5F5E5E5D5D5C21
:101DC0005C5B5B5A5A595958585757565655555592
:101DD0005454535352525251515050504F4F4F4EF2
:101DE0004E4D4D4D4C4C4C4B4B4B4A4A4A49494940
:101DF0004848484747474746464645454544444482
:101E0000444343434342424242414141002B9C46AA
:101E100030D477002BD01CB54FEA370703B44FF00E
:101E200010004FF01001BAF1000F06D0BCF1000F06
:101E3000DCBF40F0080040F008014FF000000FBC8C
:101E4000BDE810400BF1010BBBF1010F08BF5FEAC9
:101E5000170722BF12F1010211F101014FF00041F9
:101E600043F1000300F0004043EA00007047F9D35B
:101E70005708D0E746EA064613F1400F4FEA1646E8
:101E80001FDD13F1200FDFBF16430A460021203368
:101E90005B42BED0C3F1200746EA064602FA07F7C6
:101EA0004FEA164646EA0706C3F1200722FA03F274
:101EB00001FA07F721FA03F14FF0000342EA0702A3
:101EC000A7E746EA020646EA06464FEA164646EA0B
:101ED0000106BCBF46EA0646360C4FF000034FF041
:101EE00000024FF0000194E72DE9804C9A4693469A
:101EF00070B491E8380007C831EA400C48BF34EAB2
:101F0000430C03D5FFF7E6FDFFF780FFF0BCBDE80B
:101F1000008C2DE9804C9A46934670B491E83800C5
:101F200007C810F0804F08BF13F0804F03D100F0B6
:101F300005F8FFF76BFFF0BCBDE8008C20F07F4791
:101F400080EA030023F07F4C07EB0C03A3F57C53DE
:101F500000F00040A3F1FE0392F0000F00F0B38008
:101F600095F0000F00F077802DE901494FEA11400C
:101F70004FEA144621EA004800FB06FC24EA064723
:101F800008FB06F607FB08F800FB07F718EB064806
:101F90004CEB164C4FEA124B18EB07484FEA15462C
:101FA0004CEB174022EA0B4E0BFB06FC25EA0647DA
:101FB0000EFB06F607FB0EFE0BFB07F71EEB064EAD
:101FC0004CEB164C4FF000061EEB074E4CEB174B3C
:101FD00018EB0B0840F1000018EB0E0B58EB000853
:101FE00040F100008F1A4FF000013CBFC943661B4F
:101FF00014BFB5EB040C00213CBFC943F61B4FEAEC
:1020000017444EEA8E0E27EA04454FEA1C4704FBAC
:1020100007622CEA074C05FB07F70CFB05F604FBEF
:102020000CFC16EB074642EB174216EB0C4642EB54
:102030001C421BEB060658EB0202414146EA9E0693
:1020400001D5BDE80189B619524141EB0101A3F167
:102050000103BDE801894FEA14454FEA114724EA1C
:10206000054621EA074C05FB07F406FB07F70CFBC6
:1020700006F105FB0CFC11EB074144EB17444FEA5A
:10208000124711EB0C4144EB1C4422EA074C05FBC0
:1020900007F206FB07F70CFB06F605FB0CFC16EB3C
:1020A000074642EB174216EB0C4642EB1C456A18FA
:1020B00054F1000148BF7047B619524141EB01018C
:1020C000A3F10103704795F0000F37D04FEA11429A
:1020D0004FEA144721EA024624EA074C02FB07F1C3
:1020E00006FB07F70CFB06F402FB0CFC14EB0744A1
:1020F00041EB17414FEA154714EB0C4441EB1C41EF
:1021000025EA074C02FB07F506FB07F70CFB06F672
:1021100002FB0CFC16EB074645EB174516EB0C468D
:1021200045EB1C42121951F1000148BF7047B61926
:10213000524141EB0101A3F1010370474FEA1445FD
:102140004FEA114724EA054621EA074C05FB07F14F
:1021500006FB07F70CFB06F24FF0000605FB0CFC34
:1021600012EB074241EB174112EB0C4251EB1C41C1
:1021700048BF7047921841EB0101A3F1010370477A
:10218000FEE70000014800F0C1B80000180200207E
:10219000704772B6FEE710B590F8211000220229B0
:1021A00005D00421816380F82020012010BD016842
:1021B0000B6823F00E030B6001680B6823F001032A
:1021C0000B6090F84030C46B012101FA03F36360A7
:1021D00080F8211080F82020104610BD2DE9F05F16
:1021E00090F821100024022903D0042181630124E6
:1021F00085E001680A6822F00E020A6001680A6838
:1022000022F001020A603F4E3E4FB215DFF8F4C0E3
:10221000DFF8F090DFF8ECA0DFF8E8B0DFF8E4E0FA
:102220000168783F13011502ACF1640CA9F1500963
:10223000AAF13C0AABF1280BAEF1140E4FF4801852
:10224000B14227D9B9420ED0614512D049451DD0BF
:10225000514518D0594518D0714501D1424615E075
:10226000294EB14201D1012210E0274E1436B1426D
:1022700001D110220AE0244E2836B14206D0224A6B
:102280003C32914201D11A4600E02A461E49091FFC
:102290000A602BE0B94213D0614517D0494522D0DE
:1022A00051451DD059451DD0714501D142461AE016
:1022B000B14202D14FF0807215E0134EB14201D10C
:1022C000012210E0104E1436B14201D110220AE072
:1022D0000D4E2836B14206D00B4A3C32914201D114
:1022E0001A4600E02A46074980394A60012180F8F1
:1022F0002110002180F82010416B01B18847204651
:10230000BDE8F09F80000240080402402DE9F05F24
:10231000C16B0A6801680B68046C4FF0040808FA86
:1023200004F8844D844E854FDFF814C2DFF8149210
:10233000DFF814A2DFF814B2DFF814E218EA020F93
:1023400065D05FEA437862D50A68920603D40A68CA
:1023500022F004020A60DFF8F0814FF48062016825
:1023600008F1140813011402414524D9A9420DD0E3
:10237000B1420FD0B9421AD0614515D0494515D0A8
:10238000514501D1120312E0594501D104220EE05A
:10239000714501D140220AE06D4D1435A94206D0A5
:1023A0006B4A2832914201D11A4600E02246674921
:1023B000091F0A6029E0A94213D0B14215D0B942E1
:1023C00020D061451BD049451BD0514502D14FF467
:1023D000800217E0414502D14FF0806212E059457A
:1023E00001D104220EE0714501D140220AE0584D8E
:1023F0001435A94206D0564A2832914201D11A46D4
:1024000000E022464B4908394A60C16A71E04FF04A
:10241000020808FA04F818EA020F70D05FEA83781D
:102420006DD50A68920606D40A6822F00A020A608C
:10243000012180F82110DFF810814FF4007201684B
:1024400008F1140813011402414524D9A9420DD002
:10245000B1420FD0B9421AD0614515D0494515D0C7
:10246000514501D1120312E0594501D102220EE07B
:10247000714501D120220AE0354D1435A94206D01C
:10248000334A2832914201D11A4600E022462F49B0
:10249000091F0A6029E0A94213D0B14215D0B94200
:1024A00020D061451BD049451BD0514502D14FF486
:1024B000001217E0414502D14FF0007212E0594579
:1024C00001D102220EE0714501D120220AE0204D07
:1024D0001435A94206D01E4A2832914201D11A462B
:1024E00000E02246134908394A60002180F8201094
:1024F000816A00291CD0BDE8F05F0847FFE7082586
:10250000A540154214D01A0712D50A6822F00E020F
:102510000A6090F84020C36B012101FA02F25A6070
:10252000816380F82110002180F82010016BE0E722
:10253000BDE8F09F080002401C000240300002404D
:1025400044000240580002406C000240080402406F
:102550001C04024030B560B11A4B026814219A4243
:1025600009D2194B1344B3FBF1F1890001641749F7
:102570000AE0012030BD134B5B421344B3FBF1F181
:10258000890001640F490839C163022180F82110D4
:10259000136843F6F0718B43F0E901142143D0E94D
:1025A00002452C4321430469214344692143846942
:1025B00021431943116000214163012242770177D1
:1025C000084630BD08040240F8FFFDBF000002408D
:1025D00070B5044600F010F90546601C02D00448AE
:1025E0000078044400F008F9401BA042FAD370BD03
:1025F000180000202DE9F84FDFF8C891002409F1F8
:10260000040A0AF1040B23460F270BF1040ED1E054
:102610000125A54006EA0502AA4276D1DFF8A8C145
:102620004E68A6EB0C0866452BD00DDC032E34D08B
:1026300005DC36B3012E19D0022E2FD11BE0112E4E
:1026400016D0122E2AD119E0B8F5881F19D006DC51
:10265000B8F5803F15D0B8F5801F1FD111E0B8F54F
:10266000001F0ED0B8F5041F18D10AE0CB6815E0A2
:10267000CB681B1D12E0CB6808330FE0CB680C332E
:102680000CE08B682BB1012B4FF0080303D04561A0
:1026900004E0042302E0056100E00023FF2A01D8E2
:1026A000064601E000F104064FEA840501D9A5F1D0
:1026B0002005D6F8008007FA05FC28EA0C0803FA82
:1026C00005F548EA0508C6F800804D68ED0070D5AC
:1026D0003E4DAE6946F00106AE61AD6924F00306D9
:1026E00005F0010500953A4D06EB050CDCF80850A5
:1026F000A607360F07FA06F825EA0805DFF8D480A2
:10270000404503D14FF0000825E052E0DFF8C880D3
:10271000404502D14FF001081DE0DFF8C080404580
:1027200002D14FF0020816E0DFF8B480404502D134
:102730004FF003080FE0DFF8AC80404502D14FF0C6
:10274000040808E0DFF8A080404502D14FF00508FA
:1027500001E04FF0060808FA06F848EA0508CCF848
:1027600008804D68D9F80060ED034D4601D5164349
:1027700000E096432E604D68DAF80060AD035546E0
:1027800001D5164300E096432E604D68DBF80060EB
:10279000ED025D4601D5164300E096432E604D687C
:1027A000DEF80060AD02754601D5164300E09643A1
:1027B0002E60641C0A681646E2407FF429AFBDE82B
:1027C000F88F0000000401400000111000100240CA
:1027D0000000014000080140000C014000100140D1
:1027E0000014014000180140001C01400AB10161C1
:1027F00070470904FBE7000001488068704700004B
:1028000018000020024881680278114481607047F6
:1028100018000020074810B5016841F01001016060
:10282000032000F075F80F2000F006F800F024F8FF
:10283000002010BD0020024070B50D4D04464FF43D
:102840007A712878B1FBF0F00A490968B1FBF0F021
:1028500000F0ECFA48B9102C07D200222146501E95
:1028600000F036F800206C6070BD012070BD0000E3
:1028700018000020240000200C4808B5816941F0B0
:1028800001018161816901F001010091C16941F09B
:102890008051C161C06900F08050009004484168D7
:1028A00021F0E06141F00071416008BD001002407C
:1028B00000000140002809DB00F01F0201219140C7
:1028C0004009800000F1E020C0F8001170470000CE
:1028D000F0B40E4B1B680C46C3F30223C3F107058B
:1028E000042D00D90425191D072901D2002300E079
:1028F000DB1E012606FA05F1491E214099409E4043
:10290000761E16403143F0BC01F03DBE0CED00E0F8
:10291000064900F0070208684FF6FF03184040EA36
:102920000220034A10430860704700000CED00E0ED
:102930000000FA052DE9F0470F46050061D0434E2F
:10294000306800F00700B84209D2306820F0070074
:1029500038433060306800F00700B84251D1286831
:102960003B4C810712D5400703D5606840F4E06016
:1029700060602878000703D5606840F460506060AC
:102980006068A96820F0F000084360602878C007FC
:1029900028D06868012810D02168022810D0890743
:1029A00000292EDA616821F0030101436160FFF71D
:1029B00023FF804641F288390DE021688903EFE763
:1029C0008901EDE7FFF718FFA0EB0801494502D99F
:1029D0000320BDE8F0876068696800F00C00B0EB88
:1029E000810FEFD1306800F00700B8420BD9306892
:1029F00020F0070038433060306800F00700B8422C
:102A000001D00120E5E72878400705D56068E9682E
:102A100020F4E060084360602878000706D560680D
:102A2000296920F4605040EAC100606000F038F885
:102A30006168084AC1F30311515CC8400649086047
:102A400006480068FFF7F8FE0020C2E700200240B9
:102A500000100240125A0008240000201C00002030
:102A60000448054900684968044AC1F30221515CE1
:102A7000C84070472400002000100240225A00087D
:102A80000448054900684968044AC1F3C221515C01
:102A9000C84070472400002000100240225A00085D
:102AA00012A185B00FC98DE80F0014A0144A006868
:102AB00004905168134801F00C03042B10D0082B2C
:102AC0000ED1C1F38343C9031DF803000AD5516831
:102AD00004AAC1F34041515C0A4A5043B0FBF1F0F3
:102AE00005B0704708494843FAE7000002030405AF
:102AF000060708090A0B0C0D0E0F1010010200004A
:102B00000010024000127A0000093D002DE9F84F44
:102B1000040070D02078C04DC00749D06868C0F369
:102B20008100012807D06868C0F38100022809D11C
:102B30006868C00306D52868800339D56068002816
:102B4000E7D035E06068B0F5803F0BD010B1B0F54C
:102B5000A02F11D0286820F480302860286820F445
:102B6000802002E0286840F480302860606890B1DE
:102B7000FFF742FE06460AE0286840F480202860FD
:102B8000F0E700BFFFF738FE801B642873D8286881
:102B90008003F7D50CE0FFF72FFE064605E000BFE7
:102BA000FFF72AFE801B6428F0D828688003F7D43A
:102BB00020789A4E80074FF001094FF0000839D570
:102BC000686810F00C0F07D06868C0F38100022815
:102BD00009D16868C00306D42868800714D5206925
:102BE000012808D110E02069B0B1C6F80090FFF7C5
:102BF00003FE074605E00AE1FFF7FEFDC01B0228C1
:102C0000C4D828688007F7D52868616920F0F800E3
:102C100040EAC10028600DE0C6F80080FFF7ECFD37
:102C2000074604E0FFF7E8FDC01B022823D8286808
:102C30008007F7D4207800072CD57948A169D9B14D
:102C4000C0F80090FFF7D8FD074604E0FFF7D4FD79
:102C5000C01B02280FD8686A8007F7D571484FF467
:102C6000FA510068B0FBF1F0009000BF0098411EDF
:102C70000091FAD20EE080E0C0F80080FFF7BCFDC2
:102C8000074604E0FFF7B8FDC01B022875D8686A44
:102C90008007F7D42078400760D5E8690027C00096
:102CA00008D4E86940F08050E861E869012700F045
:102CB000805000905C480168C90513D401688346C0
:102CC00041F480710160FFF797FD824606E000BF86
:102CD000FFF792FDA0EB0A0064284ED8DBF8000055
:102CE000C005F5D5E06801280AD008B1052813D041
:102CF000286A20F001002862286A20F0040002E01F
:102D0000286A40F001002862E06841F2883B98B1EF
:102D1000FFF772FD82460BE0286A40F0040028624B
:102D2000EEE700BFFFF768FDA0EB0A0159455AD84E
:102D3000286A8007F6D50CE0FFF75EFD824605E0C5
:102D4000FFF75AFDA0EB0A0159454CD8286A8007C5
:102D5000F6D41FB1E86920F08050E861E06988B3DB
:102D60006968C1F38101022944D00228C6F8608055
:102D700004D0FFF741FD044638E034E0FFF73CFDA6
:102D8000074604E0FFF738FDC01B02282BD828684F
:102D90008001F7D4206AB0F5803F05D16868A1684A
:102DA00020F4003008436860D4E9080108436968EA
:102DB00021F4741108436860C6F86090FFF71CFDA9
:102DC000044606E025E000BFFFF716FD001B0228C1
:102DD00009D828688001F7D51BE000BFFFF70CFD7C
:102DE000001B022802D90320BDE8F88F2868800163
:102DF000F4D40EE00128F7D06868226A00F480312C
:102E0000914204D1616A00F47010884201D001201F
:102E1000EAE70020E8E7000000100240000042421C
:102E200080044242240000200070004010B5401E83
:102E3000B0F1807F01D3012010BD4FF0E02460612C
:102E40000F21601701F09FFB0020A0610720206187
:102E5000002010BD7047704710B590F83C20012A43
:102E600022D0012280F83C20CA688C6822F440728B
:102E700022434C6822F4806222430C6822F40062F0
:102E800022430C6922F4805222434C6922F40052FE
:102E90002243C969002322F480420A4301684A643C
:102EA00080F83C30002010BD022010BD70B590F8B5
:102EB0003C20012A2CD0012480F83C40022280F8DA
:102EC0003D2003685A689D6822F070060A68324304
:102ED0005A60104B02689A420ED00F4B9A420BD0A8
:102EE000B2F1804F08D00D4B9A4205D00C4B9A425C
:102EF00002D00C4B9A4204D1496825F08003194353
:102F0000916080F83D40002180F83C10084670BD7B
:102F1000022070BD002C014000340140000400403C
:102F200000080040000C004010B5040003D094F8E5
:102F30003D0010B107E0012010BD002084F83C00E6
:102F4000204600F01FF8022084F83D00211D206873
:102F500000F052FF012084F8460084F83E0084F817
:102F60003F0084F8400084F8410084F8420084F86F
:102F7000430084F8440084F8450084F83D000020B4
:102F800010BD000008B500680B49884212D10B48FB
:102F9000816941F4006181618069002200F4006070
:102FA000009011461820FFF793FCBDE80840182058
:102FB000FFF780BC08BD0000002C0140001002405B
:102FC00070B5044690F83C00012817D0012584F81C
:102FD0003C50022084F83D002068826822F077028D
:102FE00022F47F4282600868502830D00DDC20280F
:102FF0004DD005DC98B310283BD148E0022070BDCD
:10300000302844D0402834D139E0602828D07028B6
:1030100006D0B0F5805F2CD0B0F5005F29D10AE072
:10302000CB68D1E90121206800F039FF2068816870
:1030300041F0770109E0CB68D1E90121206800F077
:103040002EFF2068816841F48041816011E0CA68E8
:103050004968206800F0F8FF5021206807E016E07A
:10306000CA684968206801F000F86021206800F013
:1030700020FF84F83D50002084F83C0070BDCA68F1
:103080004968206800F0E0FF40212068EFE72268EF
:1030900001461046EBE7704770B5044600680169C9
:1030A0004FF00005C943890715D4C168C943890792
:1030B00011D4E91E01610120207720688069800712
:1030C000204602D0FFF7E7FF04E000F0BFF82046FB
:1030D00000F04EF9257720680169C943490717D4E4
:1030E000C168C943490713D46FF00401016102208C
:1030F00020772068806910F4407F204602D0FFF7D7
:10310000CAFF04E000F0A2F8204600F031F925776C
:1031100020680169C943090716D4C168C943090772
:1031200012D46FF008010161042020772068C06983
:103130008007204602D0FFF7AEFF04E000F086F8DB
:10314000204600F015F9257720680169C943C906B2
:1031500017D4C168C943C90613D46FF010010161C7
:10316000082020772068C06910F4407F204602D0F4
:10317000FFF791FF04E000F069F8204600F0F8F84E
:10318000257720680169C943C90708D1C168C943C7
:10319000C90704D1891E0161204600F045F9206865
:1031A0000169C943090609D4C168C943090605D4A0
:1031B0006FF0800101612046FFF74CFE2068016935
:1031C000C943490609D4C168C943490605D46FF00B
:1031D00040010161204600F028F920680169C943D7
:1031E00089060BD4C168C943890607D46FF0200152
:1031F00001612046BDE87040FFF72DBE70BD0000A4
:1032000000B585B000210091019102910391006801
:103210000B49884212D10B48816941F00401816158
:103220008069694600F0040004904FF440700090FB
:103230000220019003900448FFF7DCF905B000BDBF
:10324000002C01400010024000080140704770B59A
:10325000044690F83C000D4601280AD0012084F86D
:103260003C0042B1042A18D0082A2AD00C2A4DD199
:1032700039E0022070BD206800F024FE20688169DA
:1032800041F0080181612068816921F004018161B8
:10329000206881692A69114311E0206800F042FE2C
:1032A0002068816941F4006181612068816921F4AD
:1032B00080618161206881692A6941EA0221816116
:1032C00024E0206800F064FE2068C16941F0080134
:1032D000C1612068C16921F00401C1612068C16930
:1032E0002A69114311E0206800F086FE2068C16958
:1032F00041F40061C1612068C16921F48061C1614C
:103300002068C1692A6941EA0221C161002084F86C
:103310003C0070BD10B5040003D094F83D0010B11E
:1033200007E0012010BD002084F83C00204600F09A
:103330001EF8022084F83D00211D206800F05CFD8D
:10334000012084F8460084F83E0084F83F0084F8A9
:10335000400084F8410084F8420084F8430084F877
:10336000440084F8450084F83D00002010BD7047FB
:103370007047000010B50446022249B104290ED05E
:10338000082913D094F84100012816D0012010BD5F
:1033900094F83E000128F9D184F83E200FE094F81B
:1033A0003F000128F2D184F83F2008E094F8400063
:1033B0000128EBD184F8402001E084F8412001226B
:1033C000206800F05FFD13492068134A884201D04D
:1033D000904203D1436C43F4004343642068884225
:1033E0000DD090420BD0B0F1804F08D00B498842ED
:1033F00005D00B49884202D00A49884204D181682D
:1034000001F00701062903D0016841F001010160C4
:10341000002010BD002C0140003401400004004099
:1034200000080040000C004070477047704770472C
:10343000F8B5026804461068D168536910F00F0FA0
:103440004FF0000553D003F0010601F490773743A5
:103450005FD0C20705D0CA0503D5226C42F0010235
:103460002264420705D5DA0703D0226C42F002023B
:103470002264820705D5DA0703D0226C42F00402E9
:103480002264020707D501F02002324303D0226CE8
:1034900042F008022264226C002A34D0800604D54F
:1034A000880602D5204600F012FE20684069216C93
:1034B000C0F38010090700D430B3204600F0EFFDC0
:1034C0002068416949061BD5416921F040014161ED
:1034D000A06BA8B158494163A06BFEF77FFE00289E
:1034E00011D0A06B416B01B0BDE8F04008478306E6
:1034F0000FD58B060DD52046BDE8F84000F0E7BD9E
:103500002046FFF794FFF8BD2046FFF790FF2564A3
:10351000F8BD266B2023012E52D1C60650D5CE060B
:103520004ED5106850680090506940062AD5A16BAE
:10353000086840680004000CEAD0A68D8642E7D9EE
:10354000E0858869202818D0D06820F48070D06089
:103550002068416921F0010141612068416921F041
:103560004001416184F83E3025632068C16821F044
:103570001001C160A06BFEF70EFEA08DE18D401A18
:1035800081B219E0A08DE18D401A81B2E08D002852
:10359000BED00029BCD0D06820F49070D0602068E4
:1035A000426922F00102426184F83E3025632068BE
:1035B000C26822F01002C2602046FFF737FFF8BD54
:1035C00005062BD50D0629D594F83D002128F6D106
:1035D000A068B0F5805F01D12069B0B1206A411CBC
:1035E0002162216800784860E08C401E0004000CD5
:1035F000E084E4D12068C16821F08001C1602068C6
:10360000C16841F04001C160F8BD206A0088C0F384
:1036100008005060206A801C2062E5E74006F3D570
:103620004806F1D5D168204621F04001D16084F8E8
:103630003D3000F062F9F8BD8F40000870B504001D
:1036400004D094F83D00002510B106E0012070BDC3
:1036500084F83C50204600F023F8242084F83D00F4
:103660002068C16821F40051C160204600F08AFD45
:103670002068016921F4904101612068416921F0CD
:103680002A0141612068C16841F40051C16025648C
:10369000202084F83D0084F83E00002070BD00002A
:1036A000F0B585B000250646009501950295039575
:1036B00000682549884244D12448816941F4804109
:1036C0008161816901F480410491816941F00801BF
:1036D000816180691E4C00F0080004904020009039
:1036E000022001900320039069462046FEF782FFE6
:1036F0008027CDE90075694620460295FEF77AFFDE
:103700001448416841F0E06141F004014160134C0C
:103710001148C4E90005C4E9025725616561A56146
:103720002046E561FEF716FF08B1FEF732FDB463EF
:103730000022114625206662FFF7CAF82520FFF710
:10374000B9F805B0F0BD000000380140001002409B
:10375000000C014000000140580002401802002007
:1037600090F83E30202B0ED159B152B190F83C3038
:10377000012B08D0012380F83C300023036300F0C4
:103780005DBD01207047022070470000F8B5044677
:1037900022A0FCF75BFD2349206888423CD1224CE3
:1037A00022A02168FCF752FD2348244AE16811B1A8
:1037B000012904D006E013785E2B10D002E01378C4
:1037C000242B0CD021B1216812784254491C21606D
:1037D000BDE8F840012219491948FFF7C1BF00268A
:1037E000012911D121686A46465410F8015B15A1E0
:1037F000FCF7D2FD782D02D0792D03D004E000989B
:10380000606001E00098A060E06818B100202660C8
:10381000E060DDE70120FAE7F8BD0000656E746541
:10382000720D0A0000380140080000204C656E202F
:1038300025640D0A000000007C000020000000202C
:1038400090010020256400002DE9F843044690F81B
:103850003D001F4616460D4620284CD1C5B1BEB1CD
:1038600094F83C00012846D0012084F83C004FF039
:103870000008C4F84080212084F83D00FEF7BCFF1A
:10388000A6848146E684A068B0F5805F03D004E09A
:103890000120BDE8F883206928B12E465FF00005BD
:1038A00084F83C800EE00026FAE78021204600F0F4
:1038B000E0FCA0B9AEB116F8010B21684860E08CBD
:1038C000401EE084E08C4B464FF000020097002839
:1038D000EBD14FF04001204600F0CBFC30B103208B
:1038E000D7E735F8020BC0F30800E6E7202084F89C
:1038F0003D000020CDE70220CBE770477047000075
:1039000070B5026804461068D168536910F00F0F53
:1039100056D003F0010501F490762E436AD0C20719
:1039200005D0CA0503D5226C42F001022264420789
:1039300005D5DA0703D0226C42F002022264820726
:1039400005D5DA0703D0226C42F004022264020794
:1039500007D501F020022A4303D0226C42F008026E
:103960002264226C002A3ED0800608D5880606D53F
:1039700094F83D00222820462FD000F081FD2068D9
:103980004069216CC0F38010090700D460B3204661
:1039900000F0B6FC20684169490621D5416921F053
:1039A00040014161A06BD8B138494163A06BFEF77B
:1039B00015FC002817D0A06B416BBDE8704008478C
:1039C000830617D58B0615D594F83D00222819D10A
:1039D0002046BDE8704000F0A1BC00F09FFCCEE79F
:1039E0002046FFF78BFF70BD2046FFF787FF0020C2
:1039F000206470BD030634D50B0632D594F83D0023
:103A0000122804D02046BDE8704000F039BD94F87B
:103A10003D001228EDD1A068B0F5805F01D120698A
:103A2000B0B1606A411C6162216800784860608DB5
:103A3000401E0004000C6085DBD12068C16821F0C5
:103A40008001C1602068C16841F04001C16070BD63
:103A5000606A0088C0F308005060606A801C606281
:103A6000E5E74006F3D54806F1D5D168204621F0B8
:103A70004001D16021684A6922F001024A610121B6
:103A800084F83D1000F06FF870BD0000F1420008AE
:103A900070B5040004D094F83D00002510B106E094
:103AA000012070BD84F83C50204600F01BF8022035
:103AB00084F83D00204600F079FC2068016921F47B
:103AC000804101612068416921F02A01416120683B
:103AD000C16841F40051C1602564012084F83D00B3
:103AE000002070BD30B585B000240094019402948C
:103AF00003940068184988422BD11848C16941F4E1
:103B00000031C161C16901F400310491816941F062
:103B1000040181618069124D00F0040004901420BA
:103B20000090022001900320039069462846FEF78A
:103B300061FD0820CDE90004694628460294FEF79D
:103B400059FD002211462620FEF7C2FE2620FEF770
:103B5000B1FE05B030BD000000440040001002403E
:103B600000080140704770477047FEE7094808B5F4
:103B7000416941F0010141614069002200F001000A
:103B8000009011460F20FEF7A3FEBDE808400F206D
:103B9000FEF790BE0010024030B585B000241C48EE
:103BA0000094019402940394816941F010018161B1
:103BB000816901F010010491816941F02001816166
:103BC000816901F020010491816941F00401816162
:103BD000816901F004010491816941F0080181616A
:103BE00080690C4D00F0080004900022082128464E
:103BF000FEF7FCFD082000900120CDE90104022021
:103C0000039069462846FEF7F5FC05B030BD00007C
:103C100000100240000C014010B596B000240F9433
:103C200010941194129413941C2168461494FCF778
:103C300077FC202107A8FCF773FC2E482C49016073
:103C40003F21C0E9011444F62061C0E9031480213A
:103C5000C0E90541FFF768F908B1FEF79AFA4FF499
:103C600080500F900FA92348FFF7AAF908B1FEF77B
:103C700090FA2048FFF74EFB08B1FEF78AFA13943A
:103C800013A91C481494FFF711F908B1FEF781FA43
:103C90006020009040F2DC50CDE9010403940494CC
:103CA00005940022694613480694FFF7D0FA08B13C
:103CB000FEF76FFA042269460E48FFF7C8FA08B10A
:103CC000FEF767FA0794089409944FF400500A9499
:103CD000CDE90B4007A907480E94FFF7BDF808B1DE
:103CE000FEF757FA0348FFF78BFA16B010BD000035
:103CF000002C01403400002010B5104C0E480C215F
:103D000020604FF4E13060600020A060E060C4E912
:103D10000401A061E0612046FFF790FC08B1FEF7C6
:103D200038FA012206490548FFF71AFD2068C168E4
:103D300041F01001C16010BD003801409001002029
:103D4000900000200D4810B50B4901604FF4E1319F
:103D50004160002181600C22C160C0E904128161D0
:103D6000C1610162FFF794FE002803D0BDE8104056
:103D7000FEF70FBA10BD000000440040D40100203F
:103D8000FEE7FEE770477047FEF73CBD30B58FB0E9
:103D900028216846FCF7C4FB14210AA8FCF7C0FBE5
:103DA00002250120049000951020059000244FF476
:103DB0006010CDE9084007956846FEF7A7FE08B1F8
:103DC00072B6FEE70F20CDE90A054FF48060CDE919
:103DD0000C4002210AA80E94FEF7ACFD002801D089
:103DE00072B6FEE70FB030BD704700000148FFF724
:103DF00053B9000034000020F0B502681C4B1D4D83
:103E00001D4E1E4F1E4C4FF0804C984209D0A042D0
:103E100007D0604505D0A84203D0B04201D0B842D7
:103E200004D122F0700E4A6842EA0E02984209D08C
:103E3000A04207D0604505D0A84203D0B04201D0CF
:103E4000B84203D122F44075CA682A434D6922F072
:103E500080022A4302608A68C2620A6882629842CB
:103E600001D0A04201D10969016301214161F0BD86
:103E7000002C01400004004000080040000C0040FD
:103E80000034014010B501F01F030121046A99407C
:103E90008C430462016A9A401143016210BD10B55F
:103EA000846842EA032224F47F440A432243826066
:103EB00010BD826822F070020A4342F0070181605F
:103EC00070470000F0B5026A22F001020262036A44
:103ED00042688469124E24F073050C682C4323F069
:103EE00002058B682B430D4DA84201D0B04205D18D
:103EF00023F00807CB683B4323F00403A84201D01A
:103F0000B04205D14D6922F4407215438A692A43B3
:103F100042608461496841630362F0BD002C014046
:103F200000340140F0B5026A22F010020262026A17
:103F3000436884690D6824F4E64444EA05248D68E6
:103F400022F0200242EA05120F4D104EA84201D085
:103F5000B04206D1CF6822F0800242EA071222F076
:103F60004002A84201D0B04207D14D6923F440631A
:103F700043EA85038D6943EA8503436084614968A8
:103F800081630262F0BD0000002C0140003401405A
:103F9000F0B5026A22F480720262026A4368C46960
:103FA00022F4007224F073050C68124E2C438D68C5
:103FB00042EA05220E4DA84201D0B04206D1CF6898
:103FC00022F4006242EA072222F48062A84201D071
:103FD000B04207D14D6923F4405343EA05138D697C
:103FE00043EA05134360C4614968C1630262F0BDDE
:103FF000002C01400034014030B5026A22F48052A6
:104000000262046A4268C3690D6823F4E64343EA26
:1040100005238D6824F4005444EA0534084DA84271
:1040200002D0084DA84204D14D6922F4804242EAF0
:1040300085124260C36149680164046230BD0000BA
:10404000002C01400034014010B5036A046A24F0DA
:1040500001040462846924F0F00444EA021423F0A9
:104060000A020A438461026210BD10B5036A23F09C
:10407000100303628369046A23F4704343EA023243
:1040800024F0A00343EA01118261016210BD10B562
:10409000406A0021C185C184FFF7C9F910BD0168DC
:1040A000CA6822F49072CA6001684A6922F001026B
:1040B0004A61016B012904D10168CA6822F010022B
:1040C000CA60202180F83E1000210163704708B5C6
:1040D00090F83E10222901D0022008BD82684FF4DA
:1040E00080539A4201D1016921B1816A9A421BD061
:1040F0004AB10AE00268816A5268C2F308020A8083
:10410000816A891C08E0026972B10268526802F093
:104110007F020A70816A491C8162C18D491E0904AF
:10412000090CC18503D019E002685268F1E7016803
:10413000CA6822F02002CA600168CA6822F480724C
:10414000CA6001684A6922F001024A61202180F8B0
:104150003E10016B012903D0FFF718FB002008BDBA
:10416000002101630168CA6822F01002CA60016878
:104170000A68D20602D50A6849680091818DFFF766
:1041800055F9EBE770B5044600680169E26821F46F
:104190004051114301612169A068084361690843E6
:1041A0002168CA6841F20C639A430243CA602068DE
:1041B0004169A26921F44071114341611E4920689F
:1041C000884202D1FEF75CFC01E0FEF749FC00EBFF
:1041D000C00101EB0012606864218000B2FBF0F3C3
:1041E000B3FBF1F36FF018067343B2FBF0F5B2FBCB
:1041F000F0F605EB8305322303EB0515B5FBF1F56E
:10420000B6FBF1F605F0F00505EB0615B2FBF0F68E
:10421000B2FBF0F0B0FBF1F06FF01802504306EB88
:10422000800003EB0010B0FBF1F0216800F00F00FC
:104230002844886070BD000000380140816282859A
:10424000C28500210164222280F83E2080F83C10C3
:104250000168CA6842F48072CA6001684A6942F023
:1042600001024A610068C16841F02001C16000207C
:1042700070472DE9F041984617460E460446069DC4
:104280001DE0681C1BD02DB1FEF7B6FAA0EB0800AC
:10429000A84214D92068C16821F4D071C160206897
:1042A000416921F001014161202084F83D0084F83A
:1042B0003E00002084F83C000320BDE8F081206827
:1042C000006836EA000004D00020B842D9D00020AF
:1042D000F3E70120F9E700000148FFF7A9B8000063
:1042E000900100200148FFF70BBB0000D401002023
:1042F00010B5406A002141864185FFF7FFFA10BDE5
:104300000168CA6822F49072CA6001684A6922F0A2
:1043100001024A61012180F83D10704710B590F804
:104320003D10222901D0022010BD82684FF4805335
:104330009A4201D1016921B1C16A9A421ED04AB1A3
:104340000AE00268C16A5268C2F308020A80C16AC0
:10435000891C08E002698AB10268526802F07F0293
:104360000A70C16A491CC162418E491E4186418E54
:1043700039B10068FF214160002010BD0268526819
:10438000EEE70168CA6822F02002CA600168CA68C4
:1043900022F48072CA6001684A6922F001024A610F
:1043A000012180F83D10FFF7DDFBE5E72DE9F04145
:1043B00004460068C16821F00C01C16020680169F1
:1043C000D4E906231A43E568236A21F47C512B4380
:1043D0001A430A4342F4006101612268D16841F244
:1043E0000C6081432369A068184363690B43184339
:1043F000D0602068416921F4407141611F49206803
:1044000064253226884202D1FEF73AFB01E0FEF72E
:1044100027FB00EBC00101EB001160686FF0180C86
:104420008000B1FBF0F3B3FBF5F3B1FBF0F7B1FBA8
:10443000F0F203FB0CF307EB830306EB0313B2FB71
:10444000F5F2B3FBF5F3120103F0F00302EB4302C4
:10445000B1FBF0F3B1FBF0F0B0FBF5F000FB0CF0BA
:1044600003EB800006EB0010B0FBF5F0216800F0D4
:104470000F0010448860BDE8F08100000038014062
:1044800010B590F83D10322901D0022010BD418DA9
:104490004FF4805411B301680A68D24312061DD448
:1044A0008268A24201D1026952B1426A531C43623E
:1044B00012784A60418D491E4185418D49B10DE018
:1044C000426A1288C2F308024A60416A891C41624A
:1044D000F0E70168CA6822F08002CA60418E11B319
:1044E00001680A68D24392061DD48368A34201D1B1
:1044F000026922B1C26AA34218D043B109E0C26A7C
:104500004968C1F308011180C16A891C07E0036989
:1045100063B1496801F07F011170C16A491CC16231
:10452000418E491E4186418E11B115E04968F3E77D
:104530000168CA6822F02002CA600168CA6822F4D1
:104540008072CA6001684A6922F001024A61012151
:1045500080F83D10FFF708FB002010BDFEE7490082
:1045600050EAC12018BF04204A0D18BF40F00100D6
:1045700040F2FF72B2EB515F08BF40F00200012829
:1045800008BF052070470907090E002804DB00F169
:10459000E02080F80014704700F00F0000F1E020E8
:1045A00080F8141D70472DE9F0414F1E00EBC70144
:1045B0000446D1E9000115461E4637F006020DD02B
:1045C0002A46334600F080FD7F1E04EBC703D3E983
:1045D000002300F059FB37F00602F1D1022F25D05D
:1045E000042F13D0062F18BFBDE8F0812A463346AA
:1045F00000F06AFDD4E90A2300F046FB2A46334660
:1046000000F062FDD4E9082300F03EFB2A46334661
:1046100000F05AFDD4E9062300F036FB2A46334663
:1046200000F052FDD4E9042300F02EFB2A46334665
:1046300000F04AFDD4E9022300F026FB2A46334667
:1046400000F042FDD4E90023BDE8F04100F01CBBBE
:10465000012201F098B90000024A0020110701F080
:1046600092B9000001FDFFFF2DE9F84F04460D4609
:1046700021F0004000917349814211DC7249884267
:1046800001DC06D12CB120462946BDE8F84FFFF7E2
:10469000DFBF6E48002DCCBF6D496E49BDE8F88F75
:1046A0006D49814211DD6D498142D8BF4FF0FF361F
:1046B0006DDD20462946FFF752FF042808BFFFF7AB
:1046C000CBFF20462946BDE8F88F6549654F25F0A8
:1046D0000045814233DD6449814219DD00263246BE
:1046E0004FF080432046294600F0CEFA80468A46A5
:1046F00001222046294601F046F900223B4600F0FF
:10470000D3FE4246534600F06FFB04460D463EE0A2
:1047100001260022BA463B462046294600F0B4FA5C
:1047200080460F46002253462046294600F0BCFE34
:1047300042463B4600F058FB04460D4627E04B49F5
:1047400081421BDDDFF828A10226002253462046C5
:10475000294600F0B9FC00223B4600F095FA80465D
:104760000F46002253462046294600F09DFE424651
:104770003B4600F039FB04460D4608E0032622467E
:104780002B4600203B4900F02FFB04460D462246F5
:104790002B461046194600F097FC8B46824602468F
:1047A0000B4600F091FC07460246334888460B460C
:1047B00006217844FFF7F7FE52465B4600F084FC82
:1047C00082462E488B463A46434605217844FFF7F9
:1047D000EAFE3A46434600F077FC02460B46002EBE
:1047E000504659460CDA00F04FFA22462B4600F0AC
:1047F0006BFC01B022462B46BDE8F04F00F062BDD5
:1048000000F042FA22462B4600F05EFC1C4A7A4435
:1048100002EBC603D3E9002300F046FE22462B46F6
:1048200000F042FE174A7A4402EBC603D3E90023A4
:1048300000F048FD009A002AB8BF81F00041BDE8B1
:10484000F88F0000000010440000F07F182D445441
:10485000FB21F93FFB21F9BF0000DC3F0000203EB7
:104860000000F33F0000F03F0000E63F00800340FF
:104870000000F83F0000F0BFE2120000A0120000AC
:104880003E1200000612000038B504468DF8000004
:104890000223012269460248FEF7D6FF204638BDB2
:1048A00090010020FDF7B6FFFFF770FAFFF774F9EB
:1048B000FFF7B2F9FFF720FAFFF758F9FFF742FACE
:1048C00000211F48FEF756FD04211D48FEF752FD4A
:1048D000462000F065F85A2000F08EF819A0FBF78A
:1048E000B5FC82244FF487752946204600F0F2F883
:1048F00000F0C4FE02460B4614A0FBF7A7FC2946B5
:10490000204600F02FF900F0B9FE02460B4612A037
:10491000FBF79CFC134C144D144E4FF4FA77144AD9
:1049200014A02168FBF792FC15A02968FBF78EFC08
:1049300017A03168FBF78AFC3846FDF749FEEEE721
:104940003400002072656164790D0A00616E676C45
:1049500065613A25660D0A00616E676C65623A25ED
:10496000660D0A00040000200C000020100000204A
:104970007C00002025643A2025730D0A0000000009
:10498000726563656976655F783A25640D0A000093
:10499000726563656976655F793A25640D0A000082
:1049A00010B5C0F164004FF4FA614843B42190FBA4
:1049B000F1F1074801F516710068816305A0FBF766
:1049C00045FCBDE81040642107A0FBF73FBC000098
:1049D00034000020636F756E7465725F7472616E6F
:1049E000733A25640D0A00006572726F725F666922
:1049F000783A25640D0A000010B504464FF4FA60B9
:104A00006043B42190FBF1F10E4801F51671006886
:104A100041630DA0FBF71AFC642110A0FBF716FC04
:104A2000204600F039FB0022104B00F04DFB002225
:104A30000F4B00F0D9F90246BDE810400B460DA01F
:104A4000FBF704BC34000020636F756E7465725F01
:104A50007472616E733A25640D0A00006572726F9C
:104A6000725F6669783A25640D0A000000409F4035
:104A700000806640616E676C652A323030302F31BD
:104A800038303A25660D0A002DE9F04106460F46FA
:104A900000F024FC041E0D4618BF0120284320F01E
:104AA0000040C0F17F6000F1E040C00F0ED0301C2C
:104AB00018BF0120384320F00040C0F17F6000F1B2
:104AC000E040C00F04BF0120FBF759FD20462946F6
:104AD000BDE8F08170B50C4600F0DEFA0022164BFE
:104AE00000F0E2FC00F09EF80546204600F0B4FE1F
:104AF0000146284600F0EEFD00F0C0FD0C460546DC
:104B0000FFF7B2FD0D4A0E4B00F06EF900220D4B7F
:104B100000F0DAFA00F086F806462A4623460AA094
:104B2000FBF794FB304600F0A9FD02460B4609A0B6
:104B3000FBF78CFB304670BD00C062404AD8124D76
:104B4000FB2109400080664064782F793A20256671
:104B50000D0A0000616E676C65413A2025660D0AFA
:104B60000000000010B5C0F19600404301FB0100B9
:104B700000F092FAFFF788FF00220C4B00F034F9A6
:104B8000FFF772FD0A4A0B4B00F02EF900220A4B88
:104B900000F09AFA00F046F8044600F06FFD024675
:104BA0000B4606A0FBF752FB204610BD0000594003
:104BB0004AD8124DFB21094000806640616E676C47
:104BC00065423A2025660D0A0000000010B5002954
:104BD0000AD00878002807D005487844FCF780FC04
:104BE000002801D0002010BD0248784410BD00000C
:104BF000AE0F0000A60F000010B500290AD00878FB
:104C0000002807D005487844FCF76AFC002801D04A
:104C1000002010BD0248784410BD00009E0F000027
:104C2000960F000021F00042A2F16052B2F5801F01
:104C300001F0004328BFD2F17F6C0BD95FEA001C62
:104C400043EAC20242EB507018BF704728BF20F001
:104C500001007047B2F5801FBCBF184670474FEA8D
:104C6000410C1CF5001F02D2084600F053BE70B57F
:104C700000F0D4FA00000089FFF7F6BF4FF00040C3
:104C8000A0F580007047000010B591EA030F48BFFF
:104C900083F0004300F11084841A71EB030C05D2F9
:104CA000121943EB0C03001B61EB0C01DFF824E14C
:104CB0004FEA1154A4EB135C1EEA430F18BF9EEA9F
:104CC000445F73D023EA0E03DCF1200E21EA045185
:104CD00043F4801332D322FA0CFE10EB0E0023FAB9
:104CE0000CFE41EB0E01CCF1200E03FA0EFE10EB90
:104CF0000E0051F10001B1F5801FCCF1200E32D22F
:104D000001EB045112FA0EF2BDE8104058BF704793
:104D1000401C38BF5FEA420218BF7047002814BF2A
:104D200020F0010041F100014FEA410313F5001F9B
:104D300038BF7047A1F1C04100F0BEBA012A43EB71
:104D40000302ACF1200CDCF11F0E32BF4FF0000E5D
:104D500023FA0CF310EB030041EB0451B4EB115FA9
:104D6000D0D0A1EB045101F5801149085FEA300071
:104D700001EB04510ED350F1000038BF12FA0EFEC1
:104D800008D1BDE81040C9E7401C38BF5FEA4202C5
:104D9000CAD1C3E7BDE810404FEA410313F5001F35
:104DA00038BF7047A1F1C04100F086BA9EEA445F67
:104DB00008D011EA5E0FBDE8104004BF01F00041C9
:104DC00000207047BDE8104070B500F027FA00BF22
:104DD00064FBBE3E0000E0FF02494FF0000000F01F
:104DE000A0BD00BF0000F87F2DE9C04130B4DFF85E
:104DF000A0C23CEA111418BF3CEA131400F0EC8086
:104E000081EA03051CEA111444EAD57418BF1CEAB0
:104E1000131500F0C780A4EB05044FF0004545EAE8
:104E2000C12145EAC32341EA505143EA525304F1F8
:104E30007F74994204F500344FEAC0204FEAC22241
:104E400008BF904200F09C804FEA13650FF24016B5
:104E5000765D4FEA134506FB05F7C7F1807706FB41
:104E600007F74FEAD737A7FB03687642C8F58038C3
:104E7000A7FB06CE38BFA8F1010807FB08E64FF0F4
:104E8000000EA6FB028CE6FB03CEDCF1000CCEF19B
:104E9000004E38BFAEF1010EA6FB0C584FF00007D4
:104EA0004FF00005E6FB0E87A1FB08C6A0FB07CE6E
:104EB00016EB0E0645F10005E1FB076515F1E04E26
:104EC0007EBFA4F580345FEA46066D4116F1800787
:104ED00045F100054FEA17274FEA066647EA0567DE
:104EE000A6F1DE46B6F1805F4FEA15251FD9384698
:104EF00024F0010C05EBC471BCF1FE6F01EB0C1149
:104F000002D8F0BCBDE8008124425CBF01F5801EE0
:104F10009EEAC47F02D4F0BCBDE80081244238D4AC
:104F2000F0BCA1F1C041BDE8004100F0C5B94FEAB5
:104F3000D22242EA43524FEAD323A7FB02864FEA2A
:104F4000D02040EA415007FB03661EEA0E0F4FEAED
:104F5000D12105FB026658BFA6EB0056B6EB005602
:104F60004FEA520E4EEAC37E18EB0E0E56EB530E6E
:104F7000BDD518EB02085E417F1C55F10005B6E770
:104F80004FF480154FF000074FF000064FF0000877
:104F9000ADE7F0BC4FF0000001F1C04101F000416D
:104FA000BDE8008111EA0C1F0CEA131500D00CE0DB
:104FB00013EA0C1F00F025804FF00000F0BC81EADE
:104FC000030101F00041BDE80081F0BCBDE80041F3
:104FD00081EA030100F070B9F0BCBDE8004170B592
:104FE00000F01CF9097EFC3E00F007B881EA0301DD
:104FF0004FF0000001F00041704781EA030100F02A
:105000005BB9F0BCBDE800414FF00000214970479A
:10501000FFFDFBF9F7F5F4F2F0EEEDEBE9E8E6E47D
:10502000E3E1E0DEDDDBDAD8D7D5D4D3D1D0CFCD04
:10503000CCCBCAC8C7C6C5C4C2C1C0BFBEBDBCBB3D
:10504000BAB9B8B7B6B5B4B3B2B1B0AFAEADACAB38
:10505000AAA9A8A8A7A6A5A4A3A3A2A1A09F9F9E12
:105060009D9C9C9B9A9999989797969595949393C4
:10507000929191908F8F8E8E8D8C8C8B8B8A89895B
:1050800088888787868585848483838282818180DE
:105090000000FF070000F87F10F0004248BF4042C8
:1050A000B0FA80F310FA03F10AD0C3F11D0303F53F
:1050B00080634FEA415002EB035202EBD12170476B
:1050C0004FF0000070470000DFF848C170B51CEADF
:1050D000111E1EBF1CEA13159EEA0C0F95EA0C0F59
:1050E00000F06F8081EA030423EA4C134EEAD47E79
:1050F00021EA4C1141F4801143F48013AE44A1FB2A
:10510000024CA0FB0365AEF17F7E361955EB0C0512
:10511000A1FB034C4CF10003A0FB021C16EB0C0698
:10512000654153F10003094218BF46F0010613F42C
:10513000007F0BD14FEA03314FEA0530340341EAD7
:10514000155140EA16506FF003020AE04FEAC321FE
:105150004FEAC520F40241EA555140EA56506FF03B
:10516000020202EB2E4201EB025585EACE710AD013
:105170005FEA440C18BF24F0004450F1000041F1F4
:10518000000120EAD47040F2FE7C624500D270BD7E
:10519000A84214BF4FF080444FF04044002E08BF97
:1051A0000024BEF1806FA8BFA1F1C041BDE87040EE
:1051B00080F282804FF0000001F1C04101F0004117
:1051C00070479EEA0C0F0CEA131518BF95EA0C0FF6
:1051D00006D04FF0000081EA030E0EF0004170BDD2
:1051E00000F01CF88900013E00F007B800F009B893
:1051F0004FEA430C5FEA5C5C08D081EA030100F0EF
:105200005BB84FEA410C5FEA5C5CF6D14FF00000FE
:10521000014970470000FF070000F87F0EF1020E01
:105220002EF0030E5EF8046B364205D4012A43EBE0
:10523000030515F5001F12D8012841EB010C1CF5E0
:10524000001F0CD80ED14FEAD17C15F5001F0CEBD6
:105250004C0C0CF1020C08BF4CEBD37C04E04FF07B
:10526000080C01E04FEAD37C0CEB4C0526FA05F65E
:1052700006F00706B6F1040C06D20EEB860CBDE86C
:1052800070404CF0010C6047DFE80CF0090B0202A3
:105290004FF000414FF00000A1F5002170BD19460C
:1052A0001046012851EB010418BFD4F5001484BF47
:1052B000002001F0004170BD0808A0F500114FEA80
:1052C0003101704791EA030F10B581F000413FF5BD
:1052D000E3AC83F0004300F0EFB800002DE9F041AB
:1052E00001F5801CBCF5001FC0F2C3804FEA115CC1
:1052F00021EA0C510CF1FD0C41F480115FEA5C0CC9
:105300000CF5C07C01D3400049413DA4890241EA2B
:10531000905187028E0E0A0CA45D04FB04F602FB7A
:1053200006F6C6F14046A4FB0662F60D46EA4226A2
:1053300006FB06F4A4FB01235242C3F1404338BFED
:105340005B1EA6FB02420024E6FB0324D20B42EACA
:105350004446A6FB0623A1FB02E2A3FB07E4A41834
:105360004FF0000252F10002E3FB01426442C2F13D
:10537000404E38BFAEF1010EA6FB04234FF00002F1
:10538000E6FB0E32A2FB03464FF00004B61954F1BF
:105390000004E2FB0264A1FB06E6A4FB07E816EBAF
:1053A00008064FF0000858F10008E4FB0168764257
:1053B000C8F1405838BFA8F10108A2FB06E4A3FBDE
:1053C00008E52D194FF0000454F10004E2FB0854E5
:1053D000A1FB05E6A7FB04E818EB06084FF0000662
:1053E00056F10006E1FB048618F1200556F100068F
:1053F000A809A8F11B08B10908F03F08B8F10A0F85
:1054000040EA86601CD901EB0C51BDE8F08100BF79
:10541000FCF5EEE8E2DDD8D3CFCBC7C3C0BDB9B64B
:10542000B4B1AEACA9A7A5A3A19F9D9B9A98969550
:105430009392908F8D8C8B898887868584838281D7
:10544000A0FB006800FB01F208EB4208B8EB8728DC
:1054500007D5341858EB0104D5D5401C51F1000193
:10546000D1E7341A78EB0104CDD4401E71F100016C
:10547000C9E75FEA4C0C5FEA9C5C0DD105D34FF0A5
:10548000000001F00041BDE8F081BDE8F04170B5D9
:10549000FFF7C4FE6DDBFFBEBDE8F0414FF000003A
:1054A000004970470000F87F10B591EA030F48BF2C
:1054B00083F000433FF5F0AB841A71EB030C07D285
:1054C00012198CF0004C43EB0C03001B61EB0C0138
:1054D000DFF8A4E14FEA1154A4EB135C1EEA430F7A
:1054E00018BF9EEA445F00F0B08023EA6E03524288
:1054F00021EA0451C3EB6E0338BF5B1EDCF1200EC2
:1055000025D322FA0CFE10EB0E0043FA0CFE41EB01
:105510000E01CCF1200E03FA0EFE10EB0E0051F13D
:105520000001CCF1200E29D412FA0EF201EB045145
:10553000BDE8104058BF7047401C1CBFB2F1004F7F
:10554000704700280CBF491C20F00100704712EB87
:10555000020E43EB030218BF4FF0010E4EEA420267
:10556000ACF1200CDCF11E0E54D943FA0CFE10EB0A
:105570000E0051F1FF31CCF11E0ED5D50EF1010E0A
:1055800012FA0EFE404141EB010101EB445C5FEA7F
:105590005C5C10D910EBDE7001EB045138BFBEF13A
:1055A000004FBDE8104018BF704700280CBF491CD1
:1055B00020F00100704730D24FEAD42C11F50011D1
:1055C00024F400641BD0B1FA81F20B3AA41AA41E91
:1055D000D2F12003914030FA03F31943904001EBDC
:1055E000CC71002C01EB0451BDE81040A8BF7047FE
:1055F00001F1C0414FF0000001F000417047B0FAE6
:1056000080F310FA03F100D110BDE41A173C4805ED
:10561000C90AE4E701EB045110BD491001EB045144
:10562000BDE810404FEA300002E04FF00001704743
:105630004A0008BF0042F8D0B2F5001F28BF7047EB
:1056400001F000414FF0000070479EEA445F07D030
:1056500011EA5E0FBDE8104004BF00210020704732
:10566000BDE8104070B5FFF7D9FD00BF40DFF63E42
:1056700083F00041104670470000E0FF43004FEA0E
:10568000D30C4FEA3C0C43401FBF40070CF1605164
:1056900013F0FE4F70471CF0006F03D100200CF098
:1056A000004170470CF0004343EA507010B540EAE7
:1056B000CC0000F0E9F800BF000000924FEA0001C2
:1056C000FFF7FABD4FF000414FF00000A1F50021B7
:1056D000704700004FF47F0C1CEAD0121EBF1CEA7A
:1056E000D11392EA0C0F93EA0C0F00F0858090EA38
:1056F000010F48BF42F4807240F4000C41F40000F6
:105700002CF07F4120F07F4000B58142A2EB0302E4
:105710000FF2081CACEB504EC0F100009EF800E008
:105720004FEA4E0E00FB0EFC38BF49004FEA2C1C1E
:1057300002F5FA020CFB0EF34FEACE1E4FEA112CD3
:105740004FEAC1210EEB635E42EB22420EFB0CFCE2
:105750004FEA1C5300FB03114FEA112C4FEA0131B1
:105760000EFB0CFC4FEADC4C00FB0C11C14228BFC5
:1057700009184CEB03335DF804EB10EB410143EBEC
:10578000C250B2F57C0F38BF704729D512F0F00F28
:105790001CBF00F1C04000F00040704700818283D0
:1057A0008485868788898B8C8D8E8F919293959630
:1057B00097999A9C9D9FA0A2A3A5A7A8AAACAEB0BA
:1057C000B2B3B5B7B9BCBEC0C2C5C7C9CCCED1D4BF
:1057D000D7D9DCDFE2E6E9ECF0F3F7FAFE000000EF
:1057E0004FEA400C0CF1807CBCF17E4F28BF704723
:1057F000B0F1C04000F08EB890EA010F0CEAD1136E
:1058000048BF42F48072624538BF634507D213F443
:105810007F0F16D080EA010000F00040704710B5FD
:1058200000F032F8097EFC3E00F005B880EA010085
:1058300000F00040704780EA010000F0004000F0F6
:1058400069B812F47F0F04BF0248704780EA010074
:1058500000F060B80000C07F10F0004148BF404237
:10586000B0FA80F310FA03F2C3F19D030BD051EAB2
:10587000C35101EB1220530638BF704700F10100FD
:1058800008BF20F0010070470EF1020E2EF0030E4B
:105890005EF8044B244204D44FEA4102B2F17F4F38
:1058A00011D84FEA4003B3F17F4F0CD80ED14FEA25
:1058B000D07CB2F17F4F0CEB4C0C0CF1020C08BF0A
:1058C0004CEBD17C04E04FF0080C01E04FEAD17CB6
:1058D0000CEB4C0324FA03F404F00704B4F1040CB9
:1058E00006D20EEB840CBDE810404CF0010C604772
:1058F000DFE80CF0070802024FF00040A0F580003E
:1059000010BD0846420018BFD2F1807288BF00F077
:10591000004010BDFF2141EAD050C0057047FAF7A2
:1059200066BF0CF00F03092B08BF082000F0598058
:105930000A2B0BD0082B18BF704708BF1CF0400F74
:105940000AD04FF000004FF0000170471CF0400FEC
:1059500018BF4FF0004070471CF0100F08D020F027
:10596000704300F07F4242EAD3014FEA4370704730
:1059700000F0604021F07F4242EA000201F07F40E7
:1059800040EA727070474FF0FF0C4CF4E06C1CEA78
:1059900011531CBF9CEA030C9445C2BFDA4201EBD1
:1059A00002517047002B0DD0BCF1000F0FD0002A20
:1059B00001F00041A4BF41F0E04141F07F614FF0B0
:1059C0000000704701F000414FF00000704750EABE
:1059D00001334FF09B0C18BF4CF0806C7FF4FCA996
:1059E00070471CF4801F11D01CF4E02F03D06FEA25
:1059F000CC31490070474FF04050EFF3008222F065
:105A0000704242EA000282F3008870474FF00000C3
:105A100070470000000000000000010203040607B8
:105A2000080900000000010203040000000000005B
:105A30004FBB610567ACDD3F182D4454FB21E93FA6
:105A40009BF681D20B73EF3F182D4454FB21F93F95
:105A5000E2652F227F2B7A3C075C143326A6813C1B
:105A6000BDCBF07A8807703C075C143326A6913CC6
:105A7000C4EB98999999C9BF711623FEC671BCBF32
:105A80006D9A74AFF2B0B3BF9AFDDE522DDEADBF9A
:105A90002F6C6A2C44B4A2BF0D5555555555D53FB2
:105AA000FF8300922449C23F6E204CC5CD45B73FCD
:105AB000513DD0A0660DB13FEB0D76244B7BA93F45
:105AC00011DA22E33AAD903F02400000000000A04E
:105AD0000000000005400000000000C800000000B9
