:020000040800F2
:100000003006002045010008CF1B0008B519000884
:10001000CD1B0008DD0100080522000800000000DB
:10002000000000000000000000000000D31B0008DA
:10003000ED01000800000000D11B0008D51B0008DE
:100040005F0100085F0100085F0100085F01000810
:100050005F0100085F0100085F0100085F01000800
:100060005F0100085F0100085F0100085F010008F0
:100070005F0100085F0100085F010008E10100085E
:100080005F0100085F0100085F0100085F010008D0
:100090005F0100085F0100085F0100085F010008C0
:1000A000391C00085F0100085F0100085F010008BB
:1000B0005F0100085F0100085F0100085F010008A0
:1000C0005F0100085F0100085F0100085F01000890
:1000D0005F010008252100085F0100085F0100089A
:1000E0005F0100085F0100085F0100085F01000870
:1000F0005F0100085F0100085F0100085F01000860
:100100005F0100085F0100085F0100085F0100084F
:100110005F0100085F0100085F0100085F0100083F
:100120005F0100085F0100085F0100085F0100082F
:10013000DFF80CD000F040F8004800473D240008EC
:10014000300600200648804706480047FEE7FEE7E5
:10015000FEE7FEE7FEE7FEE7FEE7FEE7FEE7FEE777
:10016000351C000831010008D2B201E000F8012B73
:10017000491EFBD270470022F6E710B513460A4627
:1001800004461946FFF7F0FF204610BD30B50B4678
:10019000014600202022012409E021FA02F59D42B7
:1001A00005D303FA02F5491B04FA02F52844151E8B
:1001B000A2F10102F1DC30BD064C074D06E0E0681B
:1001C00040F0010394E8070098471034AC42F6D39E
:1001D000FFF7B2FFB0240008D0240008FEE70000BB
:1001E000014800F0C1B80000E8010020704772B675
:1001F000FEE710B590F821100022022905D0042155
:10020000816380F82020012010BD01680B6823F075
:100210000E030B6001680B6823F001030B6090F87C
:100220004030C46B012101FA03F3636080F82110B0
:1002300080F82020104610BD2DE9F05F90F82110C5
:100240000024022903D004218163012485E0016890
:100250000A6822F00E020A6001680A6822F00102B0
:100260000A603F4E3E4FB215DFF8F4C0DFF8F09061
:10027000DFF8ECA0DFF8E8B0DFF8E4E00168783FF1
:1002800013011502ACF1640CA9F15009AAF13C0A62
:10029000ABF1280BAEF1140E4FF48018B14227D900
:1002A000B9420ED0614512D049451DD0514518D0F4
:1002B000594518D0714501D1424615E0294EB14249
:1002C00001D1012210E0274E1436B14201D1102293
:1002D0000AE0244E2836B14206D0224A3C329142EE
:1002E00001D11A4600E02A461E49091F0A602BE088
:1002F000B94213D0614517D0494522D051451DD090
:1003000059451DD0714501D142461AE0B14202D192
:100310004FF0807215E0134EB14201D1012210E07E
:10032000104E1436B14201D110220AE00D4E28368B
:10033000B14206D00B4A3C32914201D11A4600E04C
:100340002A46074980394A60012180F8211000219E
:1003500080F82010416B01B188472046BDE8F09F2E
:1003600080000240080402402DE9F05FC16B0A687A
:1003700001680B68046C4FF0040808FA04F8844D17
:10038000844E854FDFF814C2DFF81492DFF814A210
:10039000DFF814B2DFF814E218EA020F65D05FEA62
:1003A000437862D50A68920603D40A6822F00402F0
:1003B0000A60DFF8F0814FF48062016808F11408E8
:1003C00013011402414524D9A9420DD0B1420FD0E6
:1003D000B9421AD0614515D0494515D0514501D1D2
:1003E000120312E0594501D104220EE0714501D1FA
:1003F00040220AE06D4D1435A94206D06B4A2832DE
:10040000914201D11A4600E022466749091F0A605D
:1004100029E0A94213D0B14215D0B94220D061459C
:100420001BD049451BD0514502D14FF4800217E043
:10043000414502D14FF0806212E0594501D10422BA
:100440000EE0714501D140220AE0584D1435A94211
:1004500006D0564A2832914201D11A4600E022467F
:100460004B4908394A60C16A71E04FF0020808FA46
:1004700004F818EA020F70D05FEA83786DD50A6835
:10048000920606D40A6822F00A020A60012180F866
:100490002110DFF810814FF40072016808F1140890
:1004A00013011402414524D9A9420DD0B1420FD005
:1004B000B9421AD0614515D0494515D0514501D1F1
:1004C000120312E0594501D102220EE0714501D11B
:1004D00020220AE0354D1435A94206D0334A28328D
:1004E000914201D11A4600E022462F49091F0A60B5
:1004F00029E0A94213D0B14215D0B94220D06145BC
:100500001BD049451BD0514502D14FF4001217E0D2
:10051000414502D14FF0007212E0594501D102224B
:100520000EE0714501D120220AE0204D1435A94288
:1005300006D01E4A2832914201D11A4600E02246D6
:10054000134908394A60002180F82010816A002987
:100550001CD0BDE8F05F0847FFE70825A54015421D
:1005600014D01A0712D50A6822F00E020A6090F819
:100570004020C36B012101FA02F25A60816380F8C6
:100580002110002180F82010016BE0E7BDE8F09F0A
:10059000080002401C0002403000024044000240BB
:1005A000580002406C000240080402401C04024053
:1005B00030B560B11A4B026814219A4209D2194B26
:1005C0001344B3FBF1F18900016417490AE00120EB
:1005D00030BD134B5B421344B3FBF1F1890001645E
:1005E0000F490839C163022180F82110136843F6CE
:1005F000F0718B43F0E901142143D0E902452C430B
:1006000021430469214344692143846921431943F7
:10061000116000214163012242770177084630BD15
:1006200008040240F8FFFDBF000002402DE9F84F2A
:10063000DFF8C891002409F1040A0AF1040B2346EB
:100640000F270BF1040ED1E00125A54006EA0502B3
:10065000AA4276D1DFF8A8C14E68A6EB0C08664521
:100660002BD00DDC032E34D005DC36B3012E19D08F
:10067000022E2FD11BE0112E16D0122E2AD119E0F6
:10068000B8F5881F19D006DCB8F5803F15D0B8F54D
:10069000801F1FD111E0B8F5001F0ED0B8F5041F60
:1006A00018D10AE0CB6815E0CB681B1D12E0CB68BF
:1006B00008330FE0CB680C330CE08B682BB1012BB7
:1006C0004FF0080303D0456104E0042302E0056114
:1006D00000E00023FF2A01D8064601E000F10406ED
:1006E0004FEA840501D9A5F12005D6F8008007FA64
:1006F00005FC28EA0C0803FA05F548EA0508C6F8DF
:1007000000804D68ED0070D53E4DAE6946F00106A3
:10071000AE61AD6924F0030605F0010500953A4D80
:1007200006EB050CDCF80850A607360F07FA06F8AA
:1007300025EA0805DFF8D480404503D14FF00008D2
:1007400025E052E0DFF8C880404502D14FF00108B3
:100750001DE0DFF8C080404502D14FF0020816E0EE
:10076000DFF8B480404502D14FF003080FE0DFF816
:10077000AC80404502D14FF0040808E0DFF8A080CB
:10078000404502D14FF0050801E04FF0060808FA95
:1007900006F848EA0508CCF808804D68D9F80060EA
:1007A000ED034D4601D5164300E096432E604D689B
:1007B000DAF80060AD03554601D5164300E09643D4
:1007C0002E604D68DBF80060ED025D4601D51643F2
:1007D00000E096432E604D68DEF80060AD0275467D
:1007E00001D5164300E096432E60641C0A68164645
:1007F000E2407FF429AFBDE8F88F0000000401401B
:1008000000001110001002400000014000080140EB
:10081000000C01400010014000140140001801408C
:10082000001C01400AB1016170470904FBE70000A8
:100830000148806870470000040000200248816879
:10084000027811448160704704000020074810B509
:10085000016841F010010160032000F075F80F20DD
:1008600000F006F800F024F8002010BD002002403F
:1008700070B50D4D04464FF47A712878B1FBF0F055
:100880000A490968B1FBF0F000F0ECFA48B9102C05
:1008900007D200222146501E00F036F800206C607E
:1008A00070BD012070BD0000040000201000002079
:1008B0000C4808B5816941F001018161816901F04D
:1008C00001010091C16941F08051C161C06900F02E
:1008D000805000900448416821F0E06141F00071CF
:1008E000416008BD0010024000000140002809DB03
:1008F00000F01F02012191404009800000F1E0203A
:10090000C0F8001170470000F0B40E4B1B680C4695
:10091000C3F30223C3F10705042D00D90425191DD3
:10092000072901D2002300E0DB1E012606FA05F1AB
:10093000491E214099409E40761E16403143F0BC2E
:1009400001F072BC0CED00E0064900F007020868F7
:100950004FF6FF03184040EA0220034A10430860A4
:10096000704700000CED00E00000FA052DE9F047AB
:100970000F46050061D0434E306800F00700B842D2
:1009800009D2306820F0070038433060306800F04A
:100990000700B84251D128683B4C810712D5400767
:1009A00003D5606840F4E06060602878000703D5F4
:1009B000606840F4605060606068A96820F0F000F2
:1009C000084360602878C00728D06868012810D0E4
:1009D0002168022810D0890700292EDA616821F0E9
:1009E000030101436160FFF723FF804641F288392C
:1009F0000DE021688903EFE78901EDE7FFF718FFB4
:100A0000A0EB0801494502D90320BDE8F0876068E2
:100A1000696800F00C00B0EB810FEFD1306800F096
:100A20000700B8420BD9306820F007003843306027
:100A3000306800F00700B84201D00120E5E72878CF
:100A4000400705D56068E96820F4E060084360600D
:100A50002878000706D56068296920F4605040EACC
:100A6000C100606000F038F86168084AC1F3031102
:100A7000515CC8400649086006480068FFF7F8FE68
:100A80000020C2E700200240001002409824000825
:100A9000100000200800002004480549006849684B
:100AA000044AC1F30221515CC84070471000002085
:100AB00000100240A824000804480549006849685D
:100AC000044AC1F3C221515CC840704710000020A5
:100AD00000100240A824000812A185B00FC98DE8BB
:100AE0000F0014A0144A006804905168134801F0E4
:100AF0000C03042B10D0082B0ED1C1F38343C90380
:100B00001DF803000AD5516804AAC1F34041515CA5
:100B10000A4A5043B0FBF1F005B07047084948431A
:100B2000FAE7000002030405060708090A0B0C0D8A
:100B30000E0F1010010200000010024000127A0097
:100B400000093D002DE9F84F040070D02078C04D19
:100B5000C00749D06868C0F38100012807D06868E1
:100B6000C0F38100022809D16868C00306D528684F
:100B7000800339D560680028E7D035E06068B0F5BB
:100B8000803F0BD010B1B0F5A02F11D0286820F411
:100B900080302860286820F4802002E0286840F433
:100BA00080302860606890B1FFF742FE06460AE098
:100BB000286840F480202860F0E700BFFFF738FE87
:100BC000801B642873D828688003F7D50CE0FFF7F2
:100BD0002FFE064605E000BFFFF72AFE801B6428B3
:100BE000F0D828688003F7D420789A4E80074FF019
:100BF00001094FF0000839D5686810F00C0F07D0D4
:100C00006868C0F38100022809D16868C00306D46F
:100C10002868800714D52069012808D110E02069D0
:100C2000B0B1C6F80090FFF703FE074605E00AE101
:100C3000FFF7FEFDC01B0228C4D828688007F7D53F
:100C40002868616920F0F80040EAC10028600DE0E2
:100C5000C6F80080FFF7ECFD074604E0FFF7E8FD6B
:100C6000C01B022823D828688007F7D42078000703
:100C70002CD57948A169D9B1C0F80090FFF7D8FD0B
:100C8000074604E0FFF7D4FDC01B02280FD8686AAE
:100C90008007F7D571484FF4FA510068B0FBF1F0C6
:100CA000009000BF0098411E0091FAD20EE080E053
:100CB000C0F80080FFF7BCFD074604E0FFF7B8FD71
:100CC000C01B022875D8686A8007F7D420784007CF
:100CD00060D5E8690027C00008D4E86940F080507A
:100CE000E861E869012700F0805000905C480168E5
:100CF000C90513D40168834641F480710160FFF790
:100D000097FD824606E000BFFFF792FDA0EB0A00C8
:100D100064284ED8DBF80000C005F5D5E06801284E
:100D20000AD008B1052813D0286A20F001002862F3
:100D3000286A20F0040002E0286A40F001002862DE
:100D4000E06841F2883B98B1FFF772FD82460BE004
:100D5000286A40F004002862EEE700BFFFF768FD54
:100D6000A0EB0A0159455AD8286A8007F6D50CE04D
:100D7000FFF75EFD824605E0FFF75AFDA0EB0A0192
:100D800059454CD8286A8007F6D41FB1E86920F08D
:100D90008050E861E06988B36968C1F38101022984
:100DA00044D00228C6F8608004D0FFF741FD044615
:100DB00038E034E0FFF73CFD074604E0FFF738FD7C
:100DC000C01B02282BD828688001F7D4206AB0F510
:100DD000803F05D16868A16820F40030084368604E
:100DE000D4E908010843696821F474110843686074
:100DF000C6F86090FFF71CFD044606E025E000BF42
:100E0000FFF716FD001B022809D828688001F7D5D6
:100E10001BE000BFFFF70CFD001B022802D90320D6
:100E2000BDE8F88F28688001F4D40EE00128F7D0DF
:100E30006868226A00F48031914204D1616A00F44A
:100E40007010884201D00120EAE70020E8E70000A6
:100E50000010024000004242800442421000002084
:100E60000070004010B5401EB0F1807F01D301201A
:100E700010BD4FF0E02460610F21601701F0D4F93C
:100E80000020A06107202061002010BD704770473E
:100E900010B590F83C20012A22D0012280F83C2095
:100EA000CA688C6822F4407222434C6822F4806243
:100EB00022430C6822F4006222430C6922F480521F
:100EC00022434C6922F400522243C969002322F4D0
:100ED00080420A4301684A6480F83C30002010BD1B
:100EE000022010BD70B590F83C20012A2CD00124BE
:100EF00080F83C40022280F83D2003685A689D68D3
:100F000022F070060A6832435A60104B02689A4217
:100F10000ED00F4B9A420BD0B2F1804F08D00D4B40
:100F20009A4205D00C4B9A4202D00C4B9A4204D103
:100F3000496825F080031943916080F83D40002105
:100F400080F83C10084670BD022070BD002C0140A6
:100F5000003401400004004000080040000C004044
:100F600010B5040003D094F83D0010B107E0012053
:100F700010BD002084F83C00204600F01FF802203D
:100F800084F83D00211D206800F05CFE012084F8FB
:100F9000460084F83E0084F83F0084F8400084F85E
:100FA000410084F8420084F8430084F8440084F847
:100FB000450084F83D00002010BD000008B5006821
:100FC0000B49884212D10B48816941F4006181616B
:100FD0008069002200F40060009011461820FFF79D
:100FE00093FCBDE808401820FFF780BC08BD000056
:100FF000002C01400010024070B5044690F83C00FF
:10100000012817D0012584F83C50022084F83D00C7
:101010002068826822F0770222F47F4282600868AA
:10102000502830D00DDC20284DD005DC98B3102896
:101030003BD148E0022070BD302844D0402834D154
:1010400039E0602828D0702806D0B0F5805F2CD019
:10105000B0F5005F29D10AE0CB68D1E90121206811
:1010600000F043FE2068816841F0770109E0CB6819
:10107000D1E90121206800F038FE2068816841F440
:101080008041816011E0CA684968206800F002FF71
:101090005021206807E016E0CA684968206800F01F
:1010A0000AFF6021206800F02AFE84F83D500020ED
:1010B00084F83C0070BDCA684968206800F0EAFE08
:1010C00040212068EFE7226801461046EBE77047B1
:1010D00070B50446006801694FF00005C9438907EF
:1010E00015D4C168C943890711D4E91E01610120E3
:1010F0002077206880698007204602D0FFF7E7FF4D
:1011000004E000F0BFF8204600F04EF92577206893
:101110000169C943490717D4C168C943490713D4B2
:101120006FF004010161022020772068806910F4CB
:10113000407F204602D0FFF7CAFF04E000F0A2F88B
:10114000204600F031F9257720680169C943090775
:1011500016D4C168C943090712D46FF008010161B0
:10116000042020772068C0698007204602D0FFF75E
:10117000AEFF04E000F086F8204600F015F9257770
:1011800020680169C943C90617D4C168C943C906A3
:1011900013D46FF010010161082020772068C06926
:1011A00010F4407F204602D0FFF791FF04E000F0EA
:1011B00069F8204600F0F8F8257720680169C943EE
:1011C000C90708D1C168C943C90704D1891E016193
:1011D000204600F045F920680169C943090609D491
:1011E000C168C943090605D46FF08001016120463A
:1011F000FFF74CFE20680169C943490609D4C1685C
:10120000C943490605D46FF040010161204600F052
:1012100028F920680169C94389060BD4C168C9430C
:10122000890607D46FF0200101612046BDE87040B7
:10123000FFF72DBE70BD000000B585B00021009104
:1012400001910291039100680B49884212D10B4829
:10125000816941F0040181618069694600F0040000
:1012600004904FF4407000900220019003900448D5
:10127000FFF7DCF905B000BD002C01400010024072
:1012800000080140704770B5044690F83C000D46D8
:1012900001280AD0012084F83C0042B1042A18D069
:1012A000082A2AD00C2A4DD139E0022070BD2068CE
:1012B00000F02EFD2068816941F0080181612068FD
:1012C000816921F004018161206881692A691143E3
:1012D00011E0206800F04CFD2068816941F4006154
:1012E00081612068816921F4806181612068816960
:1012F0002A6941EA0221816124E0206800F06EFD44
:101300002068C16941F00801C1612068C16921F00C
:101310000401C1612068C1692A69114311E0206894
:1013200000F090FD2068C16941F40061C16120684E
:10133000C16921F48061C1612068C1692A6941EAFB
:101340000221C161002084F83C0070BD10B504008A
:1013500003D094F83D0010B107E0012010BD00203B
:1013600084F83C00204600F01EF8022084F83D007E
:10137000211D206800F066FC012084F8460084F8F6
:101380003E0084F83F0084F8400084F8410084F86F
:10139000420084F8430084F8440084F8450084F84F
:1013A0003D00002010BD70477047000010B5044696
:1013B000022249B104290ED0082913D094F8410023
:1013C000012816D0012010BD94F83E000128F9D163
:1013D00084F83E200FE094F83F000128F2D184F811
:1013E0003F2008E094F840000128EBD184F8402029
:1013F00001E084F841200122206800F069FC1349D3
:101400002068134A884201D0904203D1436C43F4D0
:1014100000434364206888420DD090420BD0B0F165
:10142000804F08D00B49884205D00B49884202D032
:101430000A49884204D1816801F00701062903D0D6
:10144000016841F001010160002010BD002C014045
:10145000003401400004004000080040000C00403F
:101460007047704770477047F8B5026804461068C7
:10147000D168536910F00F0F4FF0000553D003F0FF
:10148000010601F4907737435FD0C20705D0CA0543
:1014900003D5226C42F001022264420705D5DA0727
:1014A00003D0226C42F002022264820705D5DA07DB
:1014B00003D0226C42F004022264020707D501F037
:1014C0002002324303D0226C42F008022264226CD4
:1014D000002A34D0800604D5880602D5204600F0C4
:1014E0001CFD20684069216CC0F38010090700D4FE
:1014F00030B3204600F0F9FC2068416949061BD54D
:10150000416921F040014161A06BA8B15849416394
:10151000A06BFEF791FE002811D0A06B416B01B0CB
:10152000BDE8F040084783060FD58B060DD5204651
:10153000BDE8F84000F0F1BC2046FFF794FFF8BD8D
:101540002046FFF790FF2564F8BD266B2023012E6F
:1015500052D1C60650D5CE064ED5106850680090C0
:10156000506940062AD5A16B086840680004000C49
:10157000EAD0A68D8642E7D9E0858869202818D070
:10158000D06820F48070D0602068416921F00101AA
:1015900041612068416921F04001416184F83E3099
:1015A00025632068C16821F01001C160A06BFEF7BF
:1015B00020FEA08DE18D401A81B219E0A08DE18D51
:1015C000401A81B2E08D0028BED00029BCD0D0687E
:1015D00020F49070D0602068426922F001024261DC
:1015E00084F83E3025632068C26822F01002C26091
:1015F0002046FFF737FFF8BD05062BD50D0629D588
:1016000094F83D002128F6D1A068B0F5805F01D1A3
:101610002069B0B1206A411C2162216800784860CD
:10162000E08C401E0004000CE084E4D12068C16816
:1016300021F08001C1602068C16841F04001C160B3
:10164000F8BD206A0088C0F308005060206A801C42
:101650002062E5E74006F3D54806F1D5D16820467B
:1016600021F04001D16084F83D3000F040F9F8BD30
:10167000DB1E000870B5040004D094F83D0000257E
:1016800010B106E0012070BD84F83C50204600F007
:1016900023F8242084F83D002068C16821F400511B
:1016A000C160204600F094FC2068016921F490415B
:1016B00001612068416921F02A0141612068C16807
:1016C00041F40051C1602564202084F83D0084F875
:1016D0003E00002070BD0000F0B585B00025064634
:1016E000009501950295039500682549884244D1EB
:1016F0002448816941F480418161816901F480411C
:101700000491816941F00801816180691E4C00F0FB
:1017100008000490402000900220019003200390D4
:1017200069462046FEF782FF8027CDE900756946AD
:1017300020460295FEF77AFF1448416841F0E061C7
:1017400041F004014160134C1148C4E90005C4E9AB
:10175000025725616561A5612046E561FEF728FF16
:1017600008B1FEF744FDB4630022114625206662ED
:10177000FFF7CAF82520FFF7B9F805B0F0BD000063
:101780000038014000100240000C01400000014000
:1017900058000240E801002090F83E30202B0ED186
:1017A00059B152B190F83C30012B08D0012380F898
:1017B0003C300023036300F067BC01207047022027
:1017C0007047000010B5044610A000F01DFD11493F
:1017D00020680968884217D10F4C10A0217800F0CA
:1017E00013FD617811A000F00FFDA1780BA000F0AF
:1017F0000BFDE1780DA000F007FD2146BDE810408B
:1018000004220448FFF7C8BF10BD0000656E746570
:10181000720D0A00600100200000002075627566EC
:10182000666572303A2025640D0A0000756275669F
:10183000666572313A2025640D0A00002DE9F843EF
:10184000044690F83D001F4616460D4620284CD110
:10185000C5B1BEB194F83C00012846D0012084F8FF
:101860003C004FF00008C4F84080212084F83D007F
:10187000FEF7DEFFA6848146E684A068B0F5805FAF
:1018800003D004E00120BDE8F883206928B12E468A
:101890005FF0000584F83C800EE00026FAE7802126
:1018A000204600F00CFCA0B9AEB116F8010B21687F
:1018B0004860E08C401EE084E08C4B464FF0000214
:1018C00000970028EBD14FF04001204600F0F7FBD5
:1018D00030B10320D7E735F8020BC0F30800E6E784
:1018E000202084F83D000020CDE70220CBE77047A0
:1018F00070B5040004D094F83D00002510B106E056
:10190000012070BD84F83C50204600F01BF80220F6
:1019100084F83D00204600F00BFC2068016921F4AA
:10192000804101612068416921F02A0141612068FC
:10193000C16841F40051C1602564012084F83D0074
:10194000002070BD30B585B000240094019402944D
:10195000039400681449884223D11448C16941F4B2
:101960000031C161C16901F400310491816941F024
:101970000401816180690E4D00F004000490142080
:101980000090022001900320039069462846FEF74C
:101990004DFE0820CDE90004694628460294FEF772
:1019A00045FE05B030BD000000440040001002407C
:1019B00000080140FEE70000094808B5416941F010
:1019C000010141614069002200F0010000901146D0
:1019D0000F20FEF799FFBDE808400F20FEF786BFF5
:1019E0000010024030B585B000241C4800940194DA
:1019F00002940394816941F010018161816901F0D1
:101A000010010491816941F020018161816901F037
:101A100020010491816941F004018161816901F033
:101A200004010491816941F00801816180690C4DD4
:101A300000F008000490002208212846FEF7F2FE7C
:101A4000082000900120CDE901040220039069469E
:101A50002846FEF7EBFD05B030BD00000010024047
:101A6000000C014010B596B000240F94109411940E
:101A7000129413941C2168461494FEF77CFB2021D9
:101A800007A8FEF778FB2E482C4901603F21C0E9EA
:101A9000011444F62061C0E903148021C0E9054126
:101AA000FFF75EFA08B1FEF7A2FB4FF480500F90EB
:101AB0000FA92348FFF7A0FA08B1FEF798FB2048CA
:101AC000FFF744FC08B1FEF792FB139413A91C48DE
:101AD0001494FFF707FA08B1FEF789FB6020009025
:101AE00040F2DC50CDE901040394049405940022F3
:101AF000694613480694FFF7C6FB08B1FEF777FB6B
:101B0000042269460E48FFF7BEFB08B1FEF76FFBE3
:101B10000794089409944FF400500A94CDE90B40BF
:101B200007A907480E94FFF7B3F908B1FEF75FFB6A
:101B30000348FFF781FB16B010BD0000002C0140E8
:101B40001800002010B5104C0E480C2120604FF4F6
:101B5000E13060600020A060E060C4E90401A061A1
:101B6000E0612046FFF786FD08B1FEF740FB012249
:101B700006490548FFF710FE2068C16841F01001D2
:101B8000C16010BD003801406001002060000020ED
:101B90000D4810B50B4901604FF4E131416000215F
:101BA00081600C22C160C0E904128161C1610162DF
:101BB000FFF79EFE002803D0BDE81040FEF717BBDC
:101BC00010BD000000440040A4010020FEE7FEE735
:101BD00070477047FEF732BE30B58FB02821684697
:101BE000FEF7C9FA14210AA8FEF7C5FA022501205A
:101BF000049000951020059000244FF46010CDE96A
:101C0000084007956846FEF79DFF08B172B6FEE7EB
:101C10000F20CDE90A054FF48060CDE90C40022188
:101C20000AA80E94FEF7A2FE002801D072B6FEE7C5
:101C30000FB030BD704700000148FFF749BA0000FF
:101C400018000020F0B502681C4B1D4D1D4E1E4FA4
:101C50001E4C4FF0804C984209D0A04207D06045FE
:101C600005D0A84203D0B04201D0B84204D122F03E
:101C7000700E4A6842EA0E02984209D0A04207D08C
:101C8000604505D0A84203D0B04201D0B84203D18C
:101C900022F44075CA682A434D6922F080022A4323
:101CA00002608A68C2620A688262984201D0A042D9
:101CB00001D10969016301214161F0BD002C01409E
:101CC0000004004000080040000C004000340140C7
:101CD00010B501F01F030121046A99408C4304628E
:101CE000016A9A401143016210BD10B5846842EA4E
:101CF000032224F47F440A432243826010BD826899
:101D000022F070020A4342F0070181607047000030
:101D1000F0B5026A22F001020262036A4268846935
:101D2000124E24F073050C682C4323F002058B68D7
:101D30002B430D4DA84201D0B04205D123F0080736
:101D4000CB683B4323F00403A84201D0B04205D145
:101D50004D6922F4407215438A692A4342608461C6
:101D6000496841630362F0BD002C0140003401402A
:101D7000F0B5026A22F010020262026A43688469C6
:101D80000D6824F4E64444EA05248D6822F020021C
:101D900042EA05120F4D104EA84201D0B04206D1C2
:101DA000CF6822F0800242EA071222F04002A842E5
:101DB00001D0B04207D14D6923F4406343EA850363
:101DC0008D6943EA850343608461496881630262E7
:101DD000F0BD0000002C014000340140F0B5026A63
:101DE00022F480720262026A4368C46922F40072BB
:101DF00024F073050C68124E2C438D6842EA0522CC
:101E00000E4DA84201D0B04206D1CF6822F4006244
:101E100042EA072222F48062A84201D0B04207D1F0
:101E20004D6923F4405343EA05138D6943EA0513D2
:101E30004360C4614968C1630262F0BD002C014087
:101E40000034014030B5026A22F480520262046A12
:101E50004268C3690D6823F4E64343EA05238D68AD
:101E600024F4005444EA0534084DA84202D0084D39
:101E7000A84204D14D6922F4804242EA85124260B0
:101E8000C36149680164046230BD0000002C014058
:101E90000034014010B5036A046A24F001040462AE
:101EA000846924F0F00444EA021423F00A020A438D
:101EB0008461026210BD10B5036A23F0100303624F
:101EC0008369046A23F4704343EA023224F0A003D6
:101ED00043EA01118261016210BD10B5406A002120
:101EE000C185C184FFF7BFFA10BD0168CA6822F43A
:101EF0009072CA6001684A6922F001024A61016B6E
:101F0000012904D10168CA6822F01002CA602021A8
:101F100080F83E1000210163704708B590F83E102C
:101F2000222901D0022008BD82684FF480539A42D2
:101F300001D1016921B1816A9A421BD04AB10AE0FC
:101F40000268816A5268C2F308020A80816A891CA9
:101F500008E0026972B10268526802F07F020A70FA
:101F6000816A491C8162C18D491E0904090CC18521
:101F700003D019E002685268F1E70168CA6822F0EC
:101F80002002CA600168CA6822F48072CA600168CF
:101F90004A6922F001024A61202180F83E10016B5B
:101FA000012903D0FFF70EFC002008BD00210163CA
:101FB0000168CA6822F01002CA6001680A68D20685
:101FC00002D50A6849680091818DFFF74BFAEBE76B
:101FD00070B5044600680169E26821F4405111437C
:101FE00001612169A0680843616908432168CA68E2
:101FF00041F20C639A430243CA6020684169A269B6
:1020000021F44071114341611E492068884202D188
:10201000FEF752FD01E0FEF73FFD00EBC00101EBD2
:102020000012606864218000B2FBF0F3B3FBF1F3AF
:102030006FF018067343B2FBF0F5B2FBF0F605EB58
:102040008305322303EB0515B5FBF1F5B6FBF1F67D
:1020500005F0F00505EB0615B2FBF0F6B2FBF0F06B
:10206000B0FBF1F06FF01802504306EB800003EB79
:102070000010B0FBF1F0216800F00F0028448860E8
:1020800070BD00000038014081628285C285002158
:102090000164222280F83E2080F83C100168CA6862
:1020A00042F48072CA6001684A6942F001024A61E2
:1020B0000068C16841F02001C160002070472DE92F
:1020C000F041984617460E460446069D1DE0681CE2
:1020D0001BD02DB1FEF7ACFBA0EB0800A84214D931
:1020E0002068C16821F4D071C1602068416921F085
:1020F00001014161202084F83D0084F83E00002069
:1021000084F83C000320BDE8F0812068006836EACE
:10211000000004D00020B842D9D00020F3E701200D
:10212000F9E700000148FFF79FB9000060010020B7
:102130002DE9F04104460068C16821F00C01C1603E
:1021400020680169D4E906231A43E568236A21F46B
:102150007C512B431A430A4342F400610161226817
:10216000D16841F20C6081432369A0681843636918
:102170000B431843D0602068416921F440714161EC
:102180001F49206864253226884202D1FEF794FC5C
:1021900001E0FEF781FC00EBC00101EB001160687B
:1021A0006FF0180C8000B1FBF0F3B3FBF5F3B1FB5B
:1021B000F0F7B1FBF0F203FB0CF307EB830306EB44
:1021C0000313B2FBF5F2B3FBF5F3120103F0F003D6
:1021D00002EB4302B1FBF0F3B1FBF0F0B0FBF5F022
:1021E00000FB0CF003EB800006EB0010B0FBF5F0F9
:1021F000216800F00F0010448860BDE8F081000005
:1022000000380140FEE700000FB4054B10B503A9EC
:10221000044A029800F028F810BC5DF814FB000096
:1022200021240008140000200907090E002804DBFF
:1022300000F1E02080F80014704700F00F0000F17A
:10224000E02080F8141D704702E008C8121F08C182
:10225000002AFAD170477047002001E001C1121F27
:10226000002AFBD1704700002DE9FF4F8BB09A4642
:102270000F460546002606E025280BD052460D994C
:1022800090476D1C761C28780028F5D10FB0304699
:10229000BDE8F08F0024A0460122604900E004431D
:1022A00015F8013F203B02FA03F00842F7D12878E5
:1022B0002E2817D115F8010F44F004042A280ED057
:1022C0006FF02F022878A0F1300109290AD808EB15
:1022D000880102EB410100EB01086D1CF2E757F8A1
:1022E000048B6D1C287869283ED006DC0028CDD0F0
:1022F00063280BD0642804D136E0732810D07528E9
:102300004BD052460D999047761C85E017F8040B88
:102310008DF8000000208DF80100E946012003E05F
:1023200057F8049B4FF0FF3061074FF0000401D4D1
:102330000AE0641C44450DDA8442FADB19F8041003
:102340000029F6D106E0641C8442FCDB19F8041075
:102350000029F8D1264404E019F8010B52460D99E2
:102360009047641EF8D257E001CF4FF00A0B0028C7
:1023700002DA40422D2102E0210504D52B218DF8FF
:102380002410012103E0E10705D02021F7E70DF13A
:10239000200908910CE00021F9E701CF4FF00A0B6A
:1023A000F9E75946FDF7F2FE01F1300209F8012D77
:1023B0000028F6D1ADEB090000F1200B600701D435
:1023C0004FF00108D84502DDA8EB0B0000E000202B
:1023D0008046002406E009A85246005D0D9990470A
:1023E000641C761C08988442F5DB04E030205246D9
:1023F0000D999047761CB8F10001A8F10108F5DCB1
:1024000005E019F8010B52460D999047761CBBF177
:102410000001ABF1010BF4DC6D1C34E7092801006D
:1024200038B504468DF800000223012269460248AF
:10243000FFF704FA204638BD60010020FEF706FAD7
:10244000FFF7CAFBFFF7CEFAFFF70CFBFFF77AFBAB
:10245000FFF7B2FAFFF79CFB04220A490A48FFF78C
:102460009BF900210948FEF7A1FF04210748FEF768
:102470009DFF06494FF4FA700968486304A0FFF70E
:10248000C3FEFEE7000000206001002018000020CD
:1024900072656164790D0A00000000000000000010
:1024A00001020304060708090000000001020304FA
:1024B000D024000800000020180000004822000876
:1024C000E824000818000020180600005822000820
:1024D00000000000010000001000000000000000EB
:0824E0000024F40000000000DC
:0400000508000131BD
:00000001FF
