:020000040800F2
:100000004006002045010008F7280008DD2600080A
:10001000F5280008810E00082D2F000800000000C0
:10002000000000000000000000000000FB280008A5
:10003000910E000800000000F9280008FD280008C3
:100040005F0100085F0100085F0100085F01000810
:100050005F0100085F0100085F0100085F01000800
:100060005F0100085F0100085F0100085F010008F0
:100070005F0100085F0100085F010008850E0008AD
:100080005F0100085F0100085F0100085F010008D0
:100090005F0100085F0100085F0100085F010008C0
:1000A000612900085F0100085F0100085F01000886
:1000B0005F0100085F0100085F0100085F010008A0
:1000C0005F0100085F0100085F0100085F01000890
:1000D0005F0100084D2E00085F0100085F01000865
:1000E0005F0100085F0100085F0100085F01000870
:1000F0005F0100085F0100085F0100085F01000860
:100100005F0100085F0100085F0100085F0100084F
:100110005F0100085F0100085F0100085F0100083F
:100120005F0100085F0100085F0100085F0100082F
:10013000DFF80CD000F0E2FC00480047753B0008F7
:10014000400600200648804706480047FEE7FEE7D5
:10015000FEE7FEE7FEE7FEE7FEE7FEE7FEE7FEE777
:100160005D29000831010008202A04DB203A21FA29
:1001700002F00021704721FA02F3D040C2F12002C0
:100180009140084319467047D2B201E000F8012BB4
:10019000491EFBD270470022F6E710B513460A4607
:1001A00004461946FFF7F0FF204610BD0FB400B516
:1001B0008DB010A909900B9000914FF0FF300A907C
:1001C00000200C9005480690054807906A4609A84B
:1001D0000F9900F039FB0DB05DF814FB65080008BD
:1001E000830800082DE9FF5F1D464FF0FF3BD5E96E
:1001F000014691465F464FF00008A9697F1C0198AF
:100200008847296A824688470028F6D1BAF1FF3F1D
:100210000CD024F4C064002E19DD600614D5BAF1A8
:100220002B0F09D0BAF12D0F0ED103E0584604B0C0
:10023000BDE8F09F44F48064A9697F1C0198884759
:10024000761E8246002E02DDBAF1300F03D0B9F1DE
:10025000000F26D032E0A969761E44F400747F1C9A
:10026000019888478246002E05DDBAF1780F06D046
:10027000BAF1580F03D0B9F1000F10D01EE0B9F158
:10028000000F02D0B9F1100F18D1A969761E24F41D
:1002900000747F1C019888478246102002E00820E5
:1002A00000E00A20814609E008FB0908A969761EDA
:1002B00044F400747F1C019888478246002E05DDB7
:1002C0004946504600F0ABFA0028EDDAE96901989A
:1002D0008847A00502D46FF00100A8E7E00725D108
:1002E000600613D5600502D5C8F1000000E0404665
:1002F00029680A1D2A600968220501D5087015E0E1
:10030000220701D5088011E008600FE02868011D70
:1003100029600068210502D580F8008006E02107E9
:1003200002D5A0F8008001E0C0F8008038467EE7E2
:1003300030B480EA010202F0004530F0004221F0C2
:10034000004013D090B1C30DD40DC2F31601C0F319
:100350001600E41A41F4000140F400027D34914299
:1003600001D3641C00E04900002C02DA30BC0020FC
:1003700070474FF400000023914201D3891A0343D0
:1003800040084FEA4101F7D151B1914202D14FF0FB
:10039000004105E002D24FF0010101E06FF00101E0
:1003A00003EBC450284430BC00F07CBA2DE9FE4F6A
:1003B000804681EA0300C00F0C46009021F0004106
:1003C00023F00045B8EB0200A94105D24046214682
:1003D00090461C460B46024623F00040104347D08F
:1003E000270DC7F30A00C3F30A510290401A019087
:1003F00040286BDAC3F3130040F4801B0098924648
:1004000020B10023D2EB030A63EB0B0B0198594692
:10041000C0F14002504600F0E1F906460D46504654
:100420005946019A00F0E9F910EB080061410024F7
:1004300087EA115284EAE7731A4340D0009A62B304
:10044000019A012A4FEA075215DC001B61EB0201F9
:100450004FF0004202EA0752CDE90042001C41F58C
:10046000801132462B4600F063FA03B0BDE8F08FEE
:1004700040462146F9E7001B61EB0201001C41F5F3
:10048000801300185B412018A2F5001747EB030109
:1004900040EAD570B6196D4111E06D084FEA360695
:1004A00045EAC0754FEA0752001B61EB0201001CD0
:1004B00041F5801149084FEA300000195141324698
:1004C0002B4603B0BDE8F04F00F023BA009801229C
:1004D00040000023D0EB020263EBE073009821465A
:1004E0004FEAE074B8EB000061EB0401E9E783F048
:1004F00000435BE781F0004158E72DE9FE4F81EAB8
:10050000030404F0004421F0004100944FF0000B7C
:1005100023F0004350EA01045ED052EA03045BD0AA
:10052000C3F30A54C1F30A552C44A4F2F3340194E2
:10053000A0FB0254C1F3130141F48011C3F3130370
:1005400043F4801301FB024400FB034E840A970A24
:1005500044EA815447EA8357A4FB076802958D0A51
:1005600005FB07854FEA932C04FB0C542705029DDD
:100570004FEA065847EA1637B5EB08056EEB070C4D
:10058000870E920E47EA811742EA8312A7FB020107
:10059000B6EB0B0164EB00042B0D43EA0C335E1841
:1005A00044EB1C50DA465146E7FB0201C5F3130445
:1005B0004FEA0B3343EA14534FEA0432019C43EAF7
:1005C0000603A4F10C040294009CCDE900B400F0F1
:1005D000AFF903B0BDE8F08F00200146F9E72DE93F
:1005E000F04D81EA030404F0004B21F0004514466D
:1005F0004FF0000A23F0004150EA050220D054EAEF
:1006000001021DD0C5F30A570246C5F31303C1F317
:100610001300C1F30A5640F4801543F48013A7EB8E
:100620000608101BD64608F2FD3873EB050002D30E
:1006300008F1010801E092185B41B8F1000F03DAFC
:1006400000200146BDE8F08D00204FF480110646E1
:1006500084460EE0171B73EB050705D3121B63EBF3
:10066000050306434CEA010C49084FEA3000921892
:100670005B4150EA0107EDD152EA030012D082EA51
:10068000040083EA0501084305D0101BAB4106D2E4
:100690000122002306E000224FF0004302E06FF049
:1006A000010253101AEB06004CEB085110EB0A0044
:1006B00041EB0B01BDE8F04D00F02BB9C10F80EA12
:1006C000E0700844CA079623002100F0F4B80EB584
:1006D000C10F80EAE0700844CA07002140F23343AA
:1006E0008DE80E000A460B4600F022F903B000BD6B
:1006F00000F0004230F000400AD0C10D01F56071F9
:10070000C0F3160042EA0151C20840071143704786
:1007100000200146704701F0004330B421F0004151
:1007200050EA010206D00A0DA2F56072C1F313016E
:10073000002A02DC30BC00207047440F44EAC104A8
:10074000C100E01830BC00EBC25000F0ABB830B5CF
:100750000B46014600202022012409E021FA02F57F
:100760009D4205D303FA02F5491B04FA02F5284419
:10077000151EA2F10102F1DC30BD2DE9F05F054646
:10078000002092469B4688460646814640241BE050
:100790002846414647462246FFF7E6FC53465A465E
:1007A000C01A914110D311461846224600F016F89F
:1007B0002D1A67EB01084F4622460120002100F068
:1007C0000DF817EB00094E41201EA4F10104DFDCF7
:1007D000484631462A464346BDE8F09F202A04DBBE
:1007E000203A00FA02F1002070479140C2F1200344
:1007F00020FA03F3194390407047202A06DBCB17F9
:10080000203A41FA02F043EAE07306E041FA02F3CB
:10081000D040C2F1200291400843194670473A285F
:1008200000D2303820F02002412A01D3A2F1370053
:10083000884201D34FF0FF30704700000268114436
:100840001378016018467047D1600449516104492A
:10085000116200211161114600F068B93D080008DD
:10086000210B0008426842B1016811F8013B23B135
:10087000521EC0E90012184670470121C160881E4F
:10088000704742685AB1C368016843B983688B42B4
:1008900005D0491E521CC0E90012002070474FF0DD
:1008A000FF3070470029A8BF7047401C490008BFAF
:1008B00020F00100704710B4B0FA80FC00FA0CF090
:1008C00050EA010404BF10BC704749B1CCF12004C8
:1008D00021FA04F411FA0CF118BF01212143084355
:1008E000A3EB0C01CB1D4FEA00614FEA102042BF81
:1008F000002010BC704700EBC35010440029A4BF77
:1009000010BC7047401C490008BF20F0010010BC1B
:10091000704710B5141E73F1000408DA401C41F151
:10092000000192185B411A4301D120F0010010BD73
:100930002DE9F04D92469B4611B1B1FA81F202E0E9
:10094000B0FA80F220329046FFF748FF04460F4687
:1009500040EA0A0041EA0B0153465A46084313D0C5
:10096000114653EA010019D0C8F140025046FFF782
:10097000FBFB05460E46504659464246FFF72EFF02
:10098000084305D0012004E020463946BDE8F08D3B
:100990000020054346EAE0762C4337430A98630576
:1009A000E40AA0EB08000022FD0A44EA47540A309A
:1009B00002D500200146E9E7010510196941DDE98A
:1009C000084500196941BDE8F04DA2E770B521F076
:1009D000004303430CD0C1F30A550024D5EB0405B2
:1009E00064EB0403D617AD1AB34102DB00200146C5
:1009F00070BD201841EB025170BD2DE9F04D002370
:100A00001A461B1A8A4103DB00200146BDE8F08D1F
:100A1000C1F30A52C1F3130141F480154FF0000BEA
:100A2000D10702D100186D41521E0027044640F242
:100A3000FF11384601EB620A3E468046024600201E
:100A40004FF48011FFF790FBC2197141BB1846EBC0
:100A50000100B4EB030C75EB000C04D3E41A65EB56
:100A6000000517460E46241908F101006D41804625
:100A70003428E3DDF91946EB0600091BA84103D22F
:100A80004FF0FF32134601E0002213461BEB070034
:100A900046EB0A51BDE8F04DFFF73BBFC1F30A52E8
:100AA000C1F3130140F2FF3341F480119A4202DA9C
:100AB00000200146704740F233439A42A2F233428B
:100AC00002DC5242FFF750BBFFF788BE30B5041E70
:100AD00071F1000404DB4FF00044404264EB01017B
:100AE000141E73F1000405DB1C464FF00043524214
:100AF00063EB0403994208BF904230BD064C074D9A
:100B000006E0E06840F0010394E8070098471034DD
:100B1000AC42F6D3FFF710FB803F0008A03F00086F
:100B2000C0B24FF4F05100F097B900002DE9F34F37
:100B30008BB04FF0000801F10C000C464FF0010B98
:100B400046460DF1080A019062690121019890471B
:100B5000051E2DD0252D2CD0216A8847C0B1626991
:100B6000012101989047216A88470028F7D1411E4A
:100B700062690198904700E0761CA1690B9888474C
:100B8000216A88470028F7D1E1690B988847DBE79D
:100B9000A1690B9888470746A84201D1761CD3E784
:100BA000E1690B9888477F1C02D1B8F1000F6FD024
:100BB00046E1002762693D463946019890472A2858
:100BC00004D162690121019890470125DFF88492E0
:100BD0006269012101989047A0F130010A290AD2E7
:100BE0004F45E5DC07EB870100EB4107303FDFD4E1
:100BF00045F01005ECE7E90601D46FF000476C28DA
:100C00000AD04C2814D0682815D06A280DD0742832
:100C10001CD07A281AD01DE0626901210198904702
:100C20006C2802D045F0040514E045F002050DE003
:100C300045F020050AE06269012101989047682883
:100C400002D045F0080505E045F400656269012120
:100C500001989047C4E9015765283DD019DC582810
:100C60007AD00CDC452837D004DC252826D0412852
:100C700031D131E046282FD047282CD12CE05B28F9
:100C800077D0612828D063287CD0642823D15AE00B
:100C9000D0E06F2848D008DC66281DD067281BD01C
:100CA000692821D06E2816D127E0702845D07328F6
:100CB00068D0752847D078280DD14DE0A1690B98F0
:100CC0008847054625283FF469AFE1690B988847B6
:100CD0006D1C3FF46AAFB3E023466A466FF0010033
:100CE0000B99AFF300809EE045F040006060A807DC
:100CF00023464FF0000236D43EE0E8077FF447AFCA
:100D00002068011D21600068290501D506701BE7D8
:100D1000290701D5068017E7A90703D5F117C0E910
:100D2000006111E706600FE745F040006060A8072A
:100D300023464FF0080216D41EE040F60E0125EAC5
:100D40000100606016E045F040006060A80723469F
:100D50004FF00A0207D40FE045F040006060A8079A
:100D600008D5234610226FF001000B99AFF30080E5
:100D700059E007E0234610226FF001000B99FFF7BE
:100D800031FA50E04FF000094F464B46632802D03D
:100D90005B2806D040E0E80601D40120A0600127CE
:100DA0003AE062690121019890475E2805D14FF031
:100DB00001096269494601989047216939B90021C2
:100DC0000A46534643F82120491C0829FADBB0B3F0
:100DD000216969B9C11700EBD16253110AEB830194
:100DE00022F01F02821A01200B68904003430B601F
:100DF00062690121019890475D28E8D1B9F1000F9F
:100E000009D00020514651F82020D24341F820203B
:100E1000401C0828F7DB02AB224600976FF0010068
:100E20000B99AFF3008000280CDA401C08D1BBF10D
:100E3000000F05D04FF0FF300DB0BDE8F08FFFE799
:100E40004046F9E7E90701D108F1010806444FF0EF
:100E5000000B79E6CCCCCC0C7F2801D9002208E02D
:100E6000064A02EB5002C007127800D1120902F0C4
:100E70000F0201209040084070470000403F0008EA
:100E8000FEE70000014800F0C1B80000FC010020AE
:100E9000704772B6FEE710B590F8211000220229C3
:100EA00005D00421816380F82020012010BD016855
:100EB0000B6823F00E030B6001680B6823F001033D
:100EC0000B6090F84030C46B012101FA03F36360BA
:100ED00080F8211080F82020104610BD2DE9F05F29
:100EE00090F821100024022903D0042181630124F9
:100EF00085E001680A6822F00E020A6001680A684B
:100F000022F001020A603F4E3E4FB215DFF8F4C0F6
:100F1000DFF8F090DFF8ECA0DFF8E8B0DFF8E4E00D
:100F20000168783F13011502ACF1640CA9F1500976
:100F3000AAF13C0AABF1280BAEF1140E4FF4801865
:100F4000B14227D9B9420ED0614512D049451DD0D2
:100F5000514518D0594518D0714501D1424615E088
:100F6000294EB14201D1012210E0274E1436B14280
:100F700001D110220AE0244E2836B14206D0224A7E
:100F80003C32914201D11A4600E02A461E49091F0F
:100F90000A602BE0B94213D0614517D0494522D0F1
:100FA00051451DD059451DD0714501D142461AE029
:100FB000B14202D14FF0807215E0134EB14201D11F
:100FC000012210E0104E1436B14201D110220AE085
:100FD0000D4E2836B14206D00B4A3C32914201D127
:100FE0001A4600E02A46074980394A60012180F804
:100FF0002110002180F82010416B01B18847204664
:10100000BDE8F09F80000240080402402DE9F05F37
:10101000C16B0A6801680B68046C4FF0040808FA99
:1010200004F8844D844E854FDFF814C2DFF8149223
:10103000DFF814A2DFF814B2DFF814E218EA020FA6
:1010400065D05FEA437862D50A68920603D40A68DD
:1010500022F004020A60DFF8F0814FF48062016838
:1010600008F1140813011402414524D9A9420DD0F6
:10107000B1420FD0B9421AD0614515D0494515D0BB
:10108000514501D1120312E0594501D104220EE06D
:10109000714501D140220AE06D4D1435A94206D0B8
:1010A0006B4A2832914201D11A4600E02246674934
:1010B000091F0A6029E0A94213D0B14215D0B942F4
:1010C00020D061451BD049451BD0514502D14FF47A
:1010D000800217E0414502D14FF0806212E059458D
:1010E00001D104220EE0714501D140220AE0584DA1
:1010F0001435A94206D0564A2832914201D11A46E7
:1011000000E022464B4908394A60C16A71E04FF05D
:10111000020808FA04F818EA020F70D05FEA837830
:101120006DD50A68920606D40A6822F00A020A609F
:10113000012180F82110DFF810814FF4007201685E
:1011400008F1140813011402414524D9A9420DD015
:10115000B1420FD0B9421AD0614515D0494515D0DA
:10116000514501D1120312E0594501D102220EE08E
:10117000714501D120220AE0354D1435A94206D02F
:10118000334A2832914201D11A4600E022462F49C3
:10119000091F0A6029E0A94213D0B14215D0B94213
:1011A00020D061451BD049451BD0514502D14FF499
:1011B000001217E0414502D14FF0007212E059458C
:1011C00001D102220EE0714501D120220AE0204D1A
:1011D0001435A94206D01E4A2832914201D11A463E
:1011E00000E02246134908394A60002180F82010A7
:1011F000816A00291CD0BDE8F05F0847FFE7082599
:10120000A540154214D01A0712D50A6822F00E0222
:101210000A6090F84020C36B012101FA02F25A6083
:10122000816380F82110002180F82010016BE0E735
:10123000BDE8F09F080002401C0002403000024060
:1012400044000240580002406C0002400804024082
:101250001C04024030B560B11A4B026814219A4256
:1012600009D2194B1344B3FBF1F18900016417490A
:101270000AE0012030BD134B5B421344B3FBF1F194
:10128000890001640F490839C163022180F82110E7
:10129000136843F6F0718B43F0E901142143D0E960
:1012A00002452C4321430469214344692143846955
:1012B00021431943116000214163012242770177E4
:1012C000084630BD08040240F8FFFDBF00000240A0
:1012D00070B5044600F010F90546601C02D00448C1
:1012E0000078044400F008F9401BA042FAD370BD16
:1012F000140000202DE9F84FDFF8C891002409F10F
:10130000040A0AF1040B23460F270BF1040ED1E067
:101310000125A54006EA0502AA4276D1DFF8A8C158
:101320004E68A6EB0C0866452BD00DDC032E34D09E
:1013300005DC36B3012E19D0022E2FD11BE0112E61
:1013400016D0122E2AD119E0B8F5881F19D006DC64
:10135000B8F5803F15D0B8F5801F1FD111E0B8F562
:10136000001F0ED0B8F5041F18D10AE0CB6815E0B5
:10137000CB681B1D12E0CB6808330FE0CB680C3341
:101380000CE08B682BB1012B4FF0080303D04561B3
:1013900004E0042302E0056100E00023FF2A01D8F5
:1013A000064601E000F104064FEA840501D9A5F1E3
:1013B0002005D6F8008007FA05FC28EA0C0803FA95
:1013C00005F548EA0508C6F800804D68ED0070D5BF
:1013D0003E4DAE6946F00106AE61AD6924F00306EC
:1013E00005F0010500953A4D06EB050CDCF80850B8
:1013F000A607360F07FA06F825EA0805DFF8D480B5
:10140000404503D14FF0000825E052E0DFF8C880E6
:10141000404502D14FF001081DE0DFF8C080404593
:1014200002D14FF0020816E0DFF8B480404502D147
:101430004FF003080FE0DFF8AC80404502D14FF0D9
:10144000040808E0DFF8A080404502D14FF005080D
:1014500001E04FF0060808FA06F848EA0508CCF85B
:1014600008804D68D9F80060ED034D4601D516435C
:1014700000E096432E604D68DAF80060AD035546F3
:1014800001D5164300E096432E604D68DBF80060FE
:10149000ED025D4601D5164300E096432E604D688F
:1014A000DEF80060AD02754601D5164300E09643B4
:1014B0002E60641C0A681646E2407FF429AFBDE83E
:1014C000F88F0000000401400000111000100240DD
:1014D0000000014000080140000C014000100140E4
:1014E0000014014000180140001C01400AB10161D4
:1014F00070470904FBE7000001488068704700005E
:10150000140000200248816802781144816070470D
:1015100014000020074810B5016841F01001016077
:10152000032000F075F80F2000F006F800F024F812
:10153000002010BD0020024070B50D4D04464FF450
:101540007A712878B1FBF0F00A490968B1FBF0F034
:1015500000F0ECFA48B9102C07D200222146501EA8
:1015600000F036F800206C6070BD012070BD0000F6
:1015700014000020200000200C4808B5816941F0CB
:1015800001018161816901F001010091C16941F0AE
:101590008051C161C06900F08050009004484168EA
:1015A00021F0E06141F00071416008BD001002408F
:1015B00000000140002809DB00F01F0201219140DA
:1015C0004009800000F1E020C0F8001170470000E1
:1015D000F0B40E4B1B680C46C3F30223C3F107059E
:1015E000042D00D90425191D072901D2002300E08C
:1015F000DB1E012606FA05F1491E214099409E4056
:10160000761E16403143F0BC01F0B6BC0CED00E094
:10161000064900F0070208684FF6FF03184040EA49
:101620000220034A10430860704700000CED00E000
:101630000000FA052DE9F0470F46050061D0434E42
:10164000306800F00700B84209D2306820F0070087
:1016500038433060306800F00700B84251D1286844
:101660003B4C810712D5400703D5606840F4E06029
:1016700060602878000703D5606840F460506060BF
:101680006068A96820F0F000084360602878C0070F
:1016900028D06868012810D02168022810D0890756
:1016A00000292EDA616821F0030101436160FFF730
:1016B00023FF804641F288390DE021688903EFE776
:1016C0008901EDE7FFF718FFA0EB0801494502D9B2
:1016D0000320BDE8F0876068696800F00C00B0EB9B
:1016E000810FEFD1306800F00700B8420BD93068A5
:1016F00020F0070038433060306800F00700B8423F
:1017000001D00120E5E72878400705D56068E96841
:1017100020F4E060084360602878000706D5606820
:10172000296920F4605040EAC100606000F038F898
:101730006168084AC1F30311515CC840064908605A
:1017400006480068FFF7F8FE0020C2E700200240CC
:1017500000100240903E00082000002018000020E9
:101760000448054900684968044AC1F30221515CF4
:10177000C84070472000002000100240A03E000832
:101780000448054900684968044AC1F3C221515C14
:10179000C84070472000002000100240A03E000812
:1017A00012A185B00FC98DE80F0014A0144A00687B
:1017B00004905168134801F00C03042B10D0082B3F
:1017C0000ED1C1F38343C9031DF803000AD5516844
:1017D00004AAC1F34041515C0A4A5043B0FBF1F006
:1017E00005B0704708494843FAE7000002030405C2
:1017F000060708090A0B0C0D0E0F1010010200005D
:101800000010024000127A0000093D002DE9F84F57
:10181000040070D02078C04DC00749D06868C0F37C
:101820008100012807D06868C0F38100022809D12F
:101830006868C00306D52868800339D56068002829
:10184000E7D035E06068B0F5803F0BD010B1B0F55F
:10185000A02F11D0286820F480302860286820F458
:10186000802002E0286840F480302860606890B1F1
:10187000FFF742FE06460AE0286840F48020286010
:10188000F0E700BFFFF738FE801B642873D8286894
:101890008003F7D50CE0FFF72FFE064605E000BFFA
:1018A000FFF72AFE801B6428F0D828688003F7D44D
:1018B00020789A4E80074FF001094FF0000839D583
:1018C000686810F00C0F07D06868C0F38100022828
:1018D00009D16868C00306D42868800714D5206938
:1018E000012808D110E02069B0B1C6F80090FFF7D8
:1018F00003FE074605E00AE1FFF7FEFDC01B0228D4
:10190000C4D828688007F7D52868616920F0F800F6
:1019100040EAC10028600DE0C6F80080FFF7ECFD4A
:10192000074604E0FFF7E8FDC01B022823D828681B
:101930008007F7D4207800072CD57948A169D9B160
:10194000C0F80090FFF7D8FD074604E0FFF7D4FD8C
:10195000C01B02280FD8686A8007F7D571484FF47A
:10196000FA510068B0FBF1F0009000BF0098411EF2
:101970000091FAD20EE080E0C0F80080FFF7BCFDD5
:10198000074604E0FFF7B8FDC01B022875D8686A57
:101990008007F7D42078400760D5E8690027C000A9
:1019A00008D4E86940F08050E861E869012700F058
:1019B000805000905C480168C90513D401688346D3
:1019C00041F480710160FFF797FD824606E000BF99
:1019D000FFF792FDA0EB0A0064284ED8DBF8000068
:1019E000C005F5D5E06801280AD008B1052813D054
:1019F000286A20F001002862286A20F0040002E032
:101A0000286A40F001002862E06841F2883B98B102
:101A1000FFF772FD82460BE0286A40F0040028625E
:101A2000EEE700BFFFF768FDA0EB0A0159455AD861
:101A3000286A8007F6D50CE0FFF75EFD824605E0D8
:101A4000FFF75AFDA0EB0A0159454CD8286A8007D8
:101A5000F6D41FB1E86920F08050E861E06988B3EE
:101A60006968C1F38101022944D00228C6F8608068
:101A700004D0FFF741FD044638E034E0FFF73CFDB9
:101A8000074604E0FFF738FDC01B02282BD8286862
:101A90008001F7D4206AB0F5803F05D16868A1685D
:101AA00020F4003008436860D4E9080108436968FD
:101AB00021F4741108436860C6F86090FFF71CFDBC
:101AC000044606E025E000BFFFF716FD001B0228D4
:101AD00009D828688001F7D51BE000BFFFF70CFD8F
:101AE000001B022802D90320BDE8F88F2868800176
:101AF000F4D40EE00128F7D06868226A00F480313F
:101B0000914204D1616A00F47010884201D0012032
:101B1000EAE70020E8E7000000100240000042422F
:101B200080044242200000200070004010B5401E9A
:101B3000B0F1807F01D3012010BD4FF0E02460613F
:101B40000F21601701F018FA0020A0610720206122
:101B5000002010BD7047704710B590F83C20012A56
:101B600022D0012280F83C20CA688C6822F440729E
:101B700022434C6822F4806222430C6822F4006203
:101B800022430C6922F4805222434C6922F4005211
:101B90002243C969002322F480420A4301684A644F
:101BA00080F83C30002010BD022010BD70B590F8C8
:101BB0003C20012A2CD0012480F83C40022280F8ED
:101BC0003D2003685A689D6822F070060A68324317
:101BD0005A60104B02689A420ED00F4B9A420BD0BB
:101BE000B2F1804F08D00D4B9A4205D00C4B9A426F
:101BF00002D00C4B9A4204D1496825F08003194366
:101C0000916080F83D40002180F83C10084670BD8E
:101C1000022070BD002C014000340140000400404F
:101C200000080040000C004010B5040003D094F8F8
:101C30003D0010B107E0012010BD002084F83C00F9
:101C4000204600F01FF8022084F83D00211D206886
:101C500000F08CFE012084F8460084F83E0084F8F1
:101C60003F0084F8400084F8410084F8420084F882
:101C7000430084F8440084F8450084F83D000020C7
:101C800010BD000008B500680B49884212D10B480E
:101C9000816941F4006181618069002200F4006083
:101CA000009011461820FFF793FCBDE8084018206B
:101CB000FFF780BC08BD0000002C0140001002406E
:101CC00070B5044690F83C00012817D0012584F82F
:101CD0003C50022084F83D002068826822F07702A0
:101CE00022F47F4282600868502830D00DDC202822
:101CF0004DD005DC98B310283BD148E0022070BDE0
:101D0000302844D0402834D139E0602828D07028C9
:101D100006D0B0F5805F2CD0B0F5005F29D10AE085
:101D2000CB68D1E90121206800F073FE206881684A
:101D300041F0770109E0CB68D1E90121206800F08A
:101D400068FE2068816841F48041816011E0CA68C2
:101D50004968206800F032FF5021206807E016E053
:101D6000CA684968206800F03AFF6021206800F0E6
:101D70005AFE84F83D50002084F83C0070BDCA68CB
:101D80004968206800F01AFF40212068EFE72268C8
:101D900001461046EBE7704770B5044600680169DC
:101DA0004FF00005C943890715D4C168C9438907A5
:101DB00011D4E91E01610120207720688069800725
:101DC000204602D0FFF7E7FF04E000F0BFF820460E
:101DD00000F04EF9257720680169C943490717D4F7
:101DE000C168C943490713D46FF00401016102209F
:101DF00020772068806910F4407F204602D0FFF7EA
:101E0000CAFF04E000F0A2F8204600F031F925777F
:101E100020680169C943090716D4C168C943090785
:101E200012D46FF008010161042020772068C06996
:101E30008007204602D0FFF7AEFF04E000F086F8EE
:101E4000204600F015F9257720680169C943C906C5
:101E500017D4C168C943C90613D46FF010010161DA
:101E6000082020772068C06910F4407F204602D007
:101E7000FFF791FF04E000F069F8204600F0F8F861
:101E8000257720680169C943C90708D1C168C943DA
:101E9000C90704D1891E0161204600F045F9206878
:101EA0000169C943090609D4C168C943090605D4B3
:101EB0006FF0800101612046FFF74CFE2068016948
:101EC000C943490609D4C168C943490605D46FF01E
:101ED00040010161204600F028F920680169C943EA
:101EE00089060BD4C168C943890607D46FF0200165
:101EF00001612046BDE87040FFF72DBE70BD0000B7
:101F000000B585B000210091019102910391006814
:101F10000B49884212D10B48816941F0040181616B
:101F20008069694600F0040004904FF4407000900E
:101F30000220019003900448FFF7DCF905B000BDD2
:101F4000002C01400010024000080140704770B5AD
:101F5000044690F83C000D4601280AD0012084F880
:101F60003C0042B1042A18D0082A2AD00C2A4DD1AC
:101F700039E0022070BD206800F05EFD20688169B4
:101F800041F0080181612068816921F004018161CB
:101F9000206881692A69114311E0206800F07CFD06
:101FA0002068816941F4006181612068816921F4C0
:101FB00080618161206881692A6941EA0221816129
:101FC00024E0206800F09EFD2068C16941F008010E
:101FD000C1612068C16921F00401C1612068C16943
:101FE0002A69114311E0206800F0C0FD2068C16932
:101FF00041F40061C1612068C16921F48061C1615F
:102000002068C1692A6941EA0221C161002084F87F
:102010003C0070BD10B5040003D094F83D0010B131
:1020200007E0012010BD002084F83C00204600F0AD
:102030001EF8022084F83D00211D206800F096FC67
:10204000012084F8460084F83E0084F83F0084F8BC
:10205000400084F8410084F8420084F8430084F88A
:10206000440084F8450084F83D00002010BD70470E
:102070007047000010B50446022249B104290ED071
:10208000082913D094F84100012816D0012010BD72
:1020900094F83E000128F9D184F83E200FE094F82E
:1020A0003F000128F2D184F83F2008E094F8400076
:1020B0000128EBD184F8402001E084F8412001227E
:1020C000206800F099FC13492068134A884201D027
:1020D000904203D1436C43F4004343642068884238
:1020E0000DD090420BD0B0F1804F08D00B49884200
:1020F00005D00B49884202D00A49884204D1816840
:1021000001F00701062903D0016841F001010160D7
:10211000002010BD002C01400034014000040040AC
:1021200000080040000C004070477047704770473F
:10213000F8B5026804461068D168536910F00F0FB3
:102140004FF0000553D003F0010601F490773743B8
:102150005FD0C20705D0CA0503D5226C42F0010248
:102160002264420705D5DA0703D0226C42F002024E
:102170002264820705D5DA0703D0226C42F00402FC
:102180002264020707D501F02002324303D0226CFB
:1021900042F008022264226C002A34D0800604D562
:1021A000880602D5204600F04CFD20684069216C6D
:1021B000C0F38010090700D430B3204600F029FD99
:1021C0002068416949061BD5416921F04001416100
:1021D000A06BA8B158494163A06BFEF77FFE0028B1
:1021E00011D0A06B416B01B0BDE8F04008478306F9
:1021F0000FD58B060DD52046BDE8F84000F021BD77
:102200002046FFF794FFF8BD2046FFF790FF2564B6
:10221000F8BD266B2023012E52D1C60650D5CE061E
:102220004ED5106850680090506940062AD5A16BC1
:10223000086840680004000CEAD0A68D8642E7D901
:10224000E0858869202818D0D06820F48070D0609C
:102250002068416921F0010141612068416921F054
:102260004001416184F83E3025632068C16821F057
:102270001001C160A06BFEF70EFEA08DE18D401A2B
:1022800081B219E0A08DE18D401A81B2E08D002865
:10229000BED00029BCD0D06820F49070D0602068F7
:1022A000426922F00102426184F83E3025632068D1
:1022B000C26822F01002C2602046FFF737FFF8BD67
:1022C00005062BD50D0629D594F83D002128F6D119
:1022D000A068B0F5805F01D12069B0B1206A411CCF
:1022E0002162216800784860E08C401E0004000CE8
:1022F000E084E4D12068C16821F08001C1602068D9
:10230000C16841F04001C160F8BD206A0088C0F397
:1023100008005060206A801C2062E5E74006F3D583
:102320004806F1D5D168204621F04001D16084F8FB
:102330003D3000F070F9F8BD032C000870B50400C2
:1023400004D094F83D00002510B106E0012070BDD6
:1023500084F83C50204600F023F8242084F83D0007
:102360002068C16821F40051C160204600F0C4FC1F
:102370002068016921F4904101612068416921F0E0
:102380002A0141612068C16841F40051C16025649F
:10239000202084F83D0084F83E00002070BD00003D
:1023A000F0B585B000250646009501950295039588
:1023B00000682549884244D12448816941F480411C
:1023C0008161816901F480410491816941F00801D2
:1023D000816180691E4C00F008000490402000904C
:1023E000022001900320039069462046FEF782FFF9
:1023F0008027CDE90075694620460295FEF77AFFF1
:102400001448416841F0E06141F004014160134C1F
:102410001148C4E90005C4E9025725616561A56159
:102420002046E561FEF716FF08B1FEF732FDB46302
:102430000022114625206662FFF7CAF82520FFF723
:10244000B9F805B0F0BD00000038014000100240AE
:10245000000C01400000014058000240FC01002037
:1024600090F83E30202B0ED159B152B190F83C304B
:10247000012B08D0012380F83C300023036300F0D7
:1024800097BC0120704702207047000070B52849B2
:1024900000680968884249D1264C2078401CC0B2A7
:1024A0002070042831D104F10C01002508780A1DA0
:1024B000782802D0792813D027E0012016180B5C69
:1024C000401C06F8013C0428F8DBD570194A1AA113
:1024D000121D02F10C00FDF769FE18A0616811E001
:1024E000012016180B5C401C06F8013C0428F8DBA0
:1024F000D570104A10A1121D02F10C00FDF756FE16
:1025000011A0A16800F014FD257012A000F010FDCC
:10251000084904220C310648FFF7A2FF207804285E
:1025200004D3BDE870400DA000F002BD70BD0000F6
:10253000740100200000002025640000783A20206B
:10254000202025640D0A0000793A202020202564EF
:102550000D0A00006F757469740D0A0070616E6970
:10256000630D0A002DE9F843044690F83D001F462C
:1025700016460D4620284CD1C5B1BEB194F83C009A
:10258000012846D0012084F83C004FF00008C4F830
:102590004080212084F83D00FEF7AEFFA6848146EE
:1025A000E684A068B0F5805F03D004E00120BDE8B8
:1025B000F883206928B12E465FF0000584F83C803E
:1025C0000EE00026FAE78021204600F00CFCA0B9BE
:1025D000AEB116F8010B21684860E08C401EE08423
:1025E000E08C4B464FF0000200970028EBD14FF0F3
:1025F0004001204600F0F7FB30B10320D7E735F863
:10260000020BC0F30800E6E7202084F83D0000201C
:10261000CDE70220CBE7704770B5040004D094F8F2
:102620003D00002510B106E0012070BD84F83C504B
:10263000204600F01BF8022084F83D00204600F000
:102640000BFC2068016921F4804101612068416927
:1026500021F02A0141612068C16841F40051C16044
:102660002564012084F83D00002070BD30B585B0A0
:102670000024009401940294039400681449884251
:1026800023D11448C16941F40031C161C16901F429
:1026900000310491816941F00401816180690E4D2E
:1026A00000F0040004901420009002200190032008
:1026B000039069462846FEF71DFE0820CDE9000478
:1026C000694628460294FEF715FE05B030BD0000AD
:1026D000004400400010024000080140FEE70000F6
:1026E000094808B5416941F0010141614069002292
:1026F00000F00100009011460F20FEF769FFBDE8D1
:1027000008400F20FEF756BF0010024030B585B0DC
:1027100000241C480094019402940394816941F0C0
:1027200010018161816901F010010491816941F01A
:1027300020018161816901F020010491816941F0EA
:1027400004018161816901F004010491816941F012
:102750000801816180690C4D00F00800049000229E
:1027600008212846FEF7C2FE082000900120CDE98E
:1027700001040220039069462846FEF7BBFD05B020
:1027800030BD000000100240000C014010B596B0B2
:1027900000240F9410941194129413941C216846F1
:1027A0001494FDF7F8FC202107A8FDF7F4FC2E484F
:1027B0002C4901603F21C0E9011444F62061C0E9C1
:1027C00003148021C0E90541FFF72EFA08B1FEF796
:1027D00060FB4FF480500F900FA92348FFF770FA69
:1027E00008B1FEF756FB2048FFF714FC08B1FEF7CE
:1027F00050FB139413A91C481494FFF7D7F908B1A0
:10280000FEF747FB6020009040F2DC50CDE9010468
:102810000394049405940022694613480694FFF734
:1028200096FB08B1FEF735FB042269460E48FFF718
:102830008EFB08B1FEF72DFB0794089409944FF422
:1028400000500A94CDE90B4007A907480E94FFF702
:1028500083F908B1FEF71DFB0348FFF751FB16B0E3
:1028600010BD0000002C01402C00002010B5104CC1
:102870000E480C2120604FF4E13060600020A06021
:10288000E060C4E90401A061E0612046FFF756FD65
:1028900008B1FEF7FEFA012206490548FFF7E0FD00
:1028A0002068C16841F01001C16010BD00380140CE
:1028B00074010020740000200D4810B50B49016020
:1028C0004FF4E1314160002181600C22C160C0E918
:1028D00004128161C1610162FFF79EFE002803D0EE
:1028E000BDE81040FEF7D5BA10BD0000004400401E
:1028F000B8010020FEE7FEE770477047FEF702BE12
:1029000030B58FB028216846FDF745FC14210AA890
:10291000FDF741FC02250120049000951020059050
:1029200000244FF46010CDE9084007956846FEF793
:102930006DFF08B172B6FEE70F20CDE90A054FF42E
:102940008060CDE90C4002210AA80E94FEF772FEC9
:10295000002801D072B6FEE70FB030BD704700000E
:102960000148FFF719BA00002C000020F0B50268FA
:102970001C4B1D4D1D4E1E4F1E4C4FF0804C98425F
:1029800009D0A04207D0604505D0A84203D0B0428C
:1029900001D0B84204D122F0700E4A6842EA0E0219
:1029A000984209D0A04207D0604505D0A84203D084
:1029B000B04201D0B84203D122F44075CA682A431C
:1029C0004D6922F080022A4302608A68C2620A6866
:1029D0008262984201D0A04201D1096901630121BC
:1029E0004161F0BD002C014000040040000800409F
:1029F000000C00400034014010B501F01F0301211C
:102A0000046A99408C430462016A9A40114301624E
:102A100010BD10B5846842EA032224F47F440A43BF
:102A20002243826010BD826822F070020A4342F0A5
:102A30000701816070470000F0B5026A22F00102D0
:102A40000262036A42688469124E24F073050C68BE
:102A50002C4323F002058B682B430D4DA84201D077
:102A6000B04205D123F00807CB683B4323F00403B1
:102A7000A84201D0B04205D14D6922F440721543FD
:102A80008A692A4342608461496841630362F0BDF8
:102A9000002C014000340140F0B5026A22F010021F
:102AA0000262026A436884690D6824F4E64444EAD9
:102AB00005248D6822F0200242EA05120F4D104EC7
:102AC000A84201D0B04206D1CF6822F0800242EA8B
:102AD000071222F04002A84201D0B04207D14D694E
:102AE00023F4406343EA85038D6943EA8503436029
:102AF0008461496881630262F0BD0000002C0140DE
:102B000000340140F0B5026A22F480720262026A67
:102B10004368C46922F4007224F073050C68124EF5
:102B20002C438D6842EA05220E4DA84201D0B042E6
:102B300006D1CF6822F4006242EA072222F48062C2
:102B4000A84201D0B04207D14D6923F4405343EA73
:102B500005138D6943EA05134360C4614968C16385
:102B60000262F0BD002C01400034014030B5026A21
:102B700022F480520262046A4268C3690D6823F439
:102B8000E64343EA05238D6824F4005444EA0534FF
:102B9000084DA84202D0084DA84204D14D6922F444
:102BA000804242EA85124260C3614968016404625E
:102BB00030BD0000002C01400034014010B5036A14
:102BC000046A24F001040462846924F0F00444EAF5
:102BD000021423F00A020A438461026210BD10B598
:102BE000036A23F0100303628369046A23F47043C9
:102BF00043EA023224F0A00343EA01118261016238
:102C000010BD10B5406A0021C185C184FFF78FFA5D
:102C100010BD0168CA6822F49072CA6001684A69EE
:102C200022F001024A61016B012904D10168CA68DE
:102C300022F01002CA60202180F83E1000210163BA
:102C4000704708B590F83E10222901D0022008BD37
:102C500082684FF480539A4201D1016921B1816A9F
:102C60009A421BD04AB10AE00268816A5268C2F3F4
:102C700008020A80816A891C08E0026972B1026850
:102C8000526802F07F020A70816A491C8162C18D1C
:102C9000491E0904090CC18503D019E00268526875
:102CA000F1E70168CA6822F02002CA600168CA68B8
:102CB00022F48072CA6001684A6922F001024A6106
:102CC000202180F83E10016B012903D0FFF7DEFBC5
:102CD000002008BD002101630168CA6822F01002CB
:102CE000CA6001680A68D20602D50A68496800917C
:102CF000818DFFF71BFAEBE770B5044600680169A8
:102D0000E26821F44051114301612169A068084340
:102D1000616908432168CA6841F20C639A4302431F
:102D2000CA6020684169A26921F440711143416180
:102D30001E492068884202D1FEF722FD01E0FEF71D
:102D40000FFD00EBC00101EB001260686421800000
:102D5000B2FBF0F3B3FBF1F36FF018067343B2FB71
:102D6000F0F5B2FBF0F605EB8305322303EB051516
:102D7000B5FBF1F5B6FBF1F605F0F00505EB061530
:102D8000B2FBF0F6B2FBF0F0B0FBF1F06FF018021E
:102D9000504306EB800003EB0010B0FBF1F021681C
:102DA00000F00F002844886070BD0000003801402A
:102DB00081628285C28500210164222280F83E2042
:102DC00080F83C100168CA6842F48072CA600168E9
:102DD0004A6942F001024A610068C16841F020017D
:102DE000C160002070472DE9F041984617460E4615
:102DF0000446069D1DE0681C1BD02DB1FEF77CFB30
:102E0000A0EB0800A84214D92068C16821F4D07151
:102E1000C1602068416921F001014161202084F8EE
:102E20003D0084F83E00002084F83C000320BDE80B
:102E3000F0812068006836EA000004D00020B84223
:102E4000D9D00020F3E70120F9E700000148FFF79F
:102E50006FB90000740100202DE9F04104460068BC
:102E6000C16821F00C01C16020680169D4E9062322
:102E70001A43E568236A21F47C512B431A430A4321
:102E800042F4006101612268D16841F20C60814323
:102E90002369A068184363690B431843D060206816
:102EA000416921F4407141611F492068642532263F
:102EB000884202D1FEF764FC01E0FEF751FC00EB12
:102EC000C00101EB001160686FF0180C8000B1FBCD
:102ED000F0F3B3FBF5F3B1FBF0F7B1FBF0F203FB5A
:102EE0000CF307EB830306EB0313B2FBF5F2B3FB22
:102EF000F5F3120103F0F00302EB4302B1FBF0F330
:102F0000B1FBF0F0B0FBF5F000FB0CF003EB800040
:102F100006EB0010B0FBF5F0216800F00F00104444
:102F20008860BDE8F081000000380140FEE7000045
:102F30000FB4054B10B503A9044A029800F064F9D8
:102F400010BC5DF814FB0000593B00082400002071
:102F5000490050EAC12018BF04204A0D18BF40F0B4
:102F6000010040F2FF72B2EB515F08BF40F0020077
:102F7000012808BF052070470907090E002804DB57
:102F800000F1E02080F80014704700F00F0000F11D
:102F9000E02080F8141D70472DE9F0414F1E00EB32
:102FA000C7010446D1E9000115461E4637F0060266
:102FB0000DD02A463346FDF7A0FA7F1E04EBC70367
:102FC000D3E90023FDF7F2F937F00602F1D1022F21
:102FD00025D0042F13D0062F18BFBDE8F0812A4654
:102FE0003346FDF78AFAD4E90A23FDF7DFF92A46CA
:102FF0003346FDF782FAD4E90823FDF7D7F92A46CC
:103000003346FDF77AFAD4E90623FDF7CFF92A46CD
:103010003346FDF772FAD4E90423FDF7C7F92A46CF
:103020003346FDF76AFAD4E90223FDF7BFF92A46D1
:103030003346FDF762FAD4E90023BDE8F041FDF71D
:10304000B5B90122FDF7C2BC024A00201107FDF705
:10305000BDBC000001FDFFFF02E008C8121F08C14F
:10306000002AFAD170477047002001E001C1121F09
:10307000002AFBD17047000001490860704700003A
:10308000280000202DE9FF5F82B00021DDE9043037
:10309000020DDDF840B0034318D044F61050A2F200
:1030A000FF3242431514119801281FD0A5EB0B00E5
:1030B000401C5FEA000A4FF000064E4FDFF83891DF
:1030C000B046504615D5CAF1000413E0119801240A
:1030D0004AA3012801D16FEA0B010298119AC0E9B5
:1030E0000031C0E9024206B0BDE8F09FCBF100001C
:1030F000DFE704460021404A491842EB0450CDE97D
:10310000001012E0E00707D032463B4640464946F1
:10311000FDF7F3F98046894632463B46104619468C
:10312000FDF7EBF906460F466410002CEAD1DDE905
:103130000401DDE90023BAF1000F06DAFDF7DDF93D
:1031400042464B46FDF7D9F905E0FDF748FA4246FD
:103150004B46FDF744FA04460E460022284BFDF785
:10316000B5FC03D84FF0FF30014607E00022254BA5
:1031700020463146FDF71AF9FDF790FC102409E0CE
:10318000002C0ADB0A220023FDF7F7FA039B3032FA
:103190001A55641E50EA0102F2D1641C039AC4F16C
:1031A00011031444119A012A03D0012208430DD1BE
:1031B0000AE0084304D000204FF0110B119072E791
:1031C000A3EB0B056D1E0DE05B4504DD4FF0000227
:1031D00005F1010504E003DA4FF00002A5F1010555
:1031E000002AECD002981199C0E90231C0E90045EB
:1031F00079E70000000014400000F03F30000000BC
:103200000000F0430000E03F2DE9FF4F95B09B46E2
:103210008946064600250FE2252877D10024274657
:10322000F84A0121059400E0044316F8013F203BD1
:1032300001FA03F01042F7D130782A2811D06FF04C
:103240002F033078A0F13002092A16D8059A44F0ED
:10325000020402EB820203EB42021044761C05904A
:10326000EFE759F8042B0592002A03DA504244F4A0
:103270000054059044F00204761C30782E2816D1B4
:1032800016F8010F44F004042A280DD06FF02F0225
:103290003078A0F13003092B09D807EB870302EB44
:1032A0004303C718761CF3E759F8047B761C307883
:1032B0006C280FD006DC4C2817D068280DD06A285F
:1032C00014D104E0742810D07A280FD10DE044F412
:1032D00000140AE044F4801401E044F440147278CD
:1032E000824202D104F58014761C761C3078662860
:1032F0000BD013DC582877D009DC002875D045287E
:10330000F6D04628F4D047281AD19DE118E063286A
:1033100035D0642879D0652812D195E1702873D012
:1033200008DC6728F1D069286FD06E280DD06F288F
:1033300006D1B5E073282CD0752875D0782874D0C4
:103340005A46179990476D1C75E1C4F30250022844
:1033500009D003280DD0D9F8001004280DD00D6035
:1033600009F1040967E1D9F80010EA17C1E9005230
:10337000F6E7D9F800100D80F2E70D70F0E719F8C4
:10338000041B8DF8001000208DF80100EA46012092
:1033900003E059F804AB4FF0FF3061074FF0000134
:1033A00002D40DE008F101018846B9420FDA8045E8
:1033B000F8DB1AF808100029F4D108E008F101013F
:1033C00088468142FADB1AF808100029F6D10598E0
:1033D0005B46A0EB080721463846179A00F094FA9E
:1033E000284400EB080507E04DE029E10DE01AF85C
:1033F000010B5A4617999047B8F10108F7D25B467E
:1034000021463846179A13E142E00A220092C4F39B
:1034100002524FF0000A022A08D059F804CB032ABE
:103420004FEAEC710AD00DE029E02AE009F107012A
:1034300021F00702F2E802C1914609E00FFA8CFC84
:103440004FEAEC71042A03D14FFA8CFC4FEAEC717D
:10345000002907DA0A460021DCF1000C61EB0201C9
:103460002D2202E0220504D52B228DF80420012212
:1034700003E0E20701D02022F7E7904659E00A2155
:1034800002E010220DE010214FF0000A00910BE045
:1034900010224FF0000A44F004040827009203E0D1
:1034A00008224FF0000A0092C4F30252022A05D00B
:1034B00059F804CB0021032A08D009E009F10701DB
:1034C00021F00702F2E802C1914605E01FFA8CFCE8
:1034D000042A01D10CF0FF0C4FF00008220728D578
:1034E000702806D0009B83F0100353EA0A0305D02E
:1034F0000EE040228DF80420012208E05CEA01027F
:1035000006D030228DF804208DF805000222904666
:10351000009B83F0080353EA0A030AD15CEA010224
:1035200001D1620705D530228DF804204FF0010843
:103530007F1E582804D034A003900EA802900DE0FE
:1035400036A0F9E753466046009AFDF716F984461F
:103550000398825C0298401E029002705CEA0100AF
:10356000F0D1029806A9081A00F1200A600702D5D6
:1035700024F4803400E00127574502DDA7EB0A0060
:1035800000E0002000EB0A01009005984144401A39
:103590000590E00306D45B462146179A059800F093
:1035A000B3F90544002706E001A85A46C05D179903
:1035B00090476D1C7F1C4745F6DBE0030CD55B464E
:1035C0002146179A059800F09FF9054404E0302041
:1035D0005A46179990476D1C0099481E0090002983
:1035E000F5DC08E0029802995A460078491C0291DD
:1035F000179990476D1CBAF10001AAF1010AF1DC9C
:1036000065E10000092801003031323334353637A6
:10361000383961626364656600000000303132331E
:1036200034353637383941424344454600000000BE
:1036300000F058F90544761C307800287FF4ECAD92
:1036400019B02846BDE8F08F620700D4062709F1BB
:10365000070222F0070CFCE80223E14603F00048D1
:103660005FEA080C02D00FF2702C0DE05FEA045CF8
:1036700002D50FF2682C07E05FEAC47C02D00FF29B
:10368000602C01E0AFF2700C4FF0FF3823F00043E4
:10369000CDF850C065280CD006DC452809D0462856
:1036A0001DD047283DD13DE0662818D067287ED13F
:1036B00038E00021112F01DB112000E0781CCDE95A
:1036C000000106A90EA8FFF7DDFCDDE90F010E9A47
:1036D00003910021009207F1010A04914DE04FF09F
:1036E00000400097CDE9011006A90EA8FFF7CAFC1B
:1036F000DDE90F0203920E9B11990022DDF80CA068
:103700000093049211B9791C00EB010AB7EB0A008F
:1037100004D4C0F1FF3007F1010A0490AAEB0700BE
:10372000019044E0012F00DA01270021112F01DD73
:10373000112000E03846CDE9000106A90EA8FFF7E8
:10374000A1FCDDE90F010E9A039100210491009282
:10375000BA4621070CD40399514500DA8A46BAF1DA
:10376000010F05DD009AAAF10101515C302908D052
:10377000B84202DA10F1040F06DA0121CDE9011096
:1037800015E0AAF10101E9E7002805DC04990144EC
:103790000491AAEB000102E0411C514500DD8A467C
:1037A0000499401A401C01904FF0004002902007FD
:1037B00004D40198504501DBCDF8048000208DF839
:1037C0004F0002980DF14F07B0F1004F25D02B208C
:1037D0000E9002984FF0020800280CDA4042029046
:1037E0002D200E9007E00A210298FCF7B0FF30313F
:1037F000029007F8011DB8F10001A8F10108F2DC00
:1038000002980028EFD1791E0E980870307800F0E9
:10381000200040F0450007F8020D12A8C01B00F17F
:1038200007081498007800B1012000EB0A01019804
:1038300001EBE07105984144401A401E0590E003F9
:1038400006D45B462146179A059800F05DF80544BA
:103850001498007818B15A46179990476D1CE003E8
:1038600024D55B462146179A059800F04DF805448B
:103870001CE00498002807DBDDE90301884203DD32
:103880000098405C179901E0179930205A469047FC
:10389000049805F10105401C04900198401E019018
:1038A00004D12E205A46179990476D1CBAF1000199
:1038B000AAF1010ADDDC05E017F8010B5A46179959
:1038C00090476D1CB8F10001A8F10108F4DC5B46DB
:1038D0002146179A0598ABE62D0000002B0000004A
:1038E000200000002DE9F041044600251E46174641
:1038F000880404D405E039462020B0476D1C641EBE
:10390000F9D52846BDE8F0812DE9F04104460025AF
:103910001E469046C80301D5302700E020278804C2
:1039200004D505E041463846B0476D1C641EF9D504
:103930002846BDE8F08100002DE9F84F04460D4609
:1039400021F0004000917349814211DC72498842A4
:1039500001DC06D12CB120462946BDE8F84FFFF71F
:1039600070BB6E48002DCCBF6D496E49BDE8F88F25
:103970006D49814211DD6D498142D8BF4FF0FF365C
:103980006DDD20462946FFF7E3FA042808BFFFF75C
:103990005BFB20462946BDE8F88F6549654F25F059
:1039A0000045814233DD6449814219DD00263246FB
:1039B0004FF0804320462946FCF7F8FC80468A46B3
:1039C000012220462946FDF701F800223B46FCF77C
:1039D0008EFD42465346FCF702FE04460D463EE08D
:1039E00001260022BA463B4620462946FCF7DEFC6B
:1039F00080460F460022534620462946FCF777FDB5
:103A000042463B46FCF7EBFD04460D4627E04B499A
:103A100081421BDDDFF828A1022600225346204602
:103A20002946FCF76AFD00223B46FCF7BFFC8046B6
:103A30000F460022534620462946FCF758FD4246D1
:103A40003B46FCF7CCFD04460D4608E00326224623
:103A50002B4600203B49FCF7C2FD04460D4622469A
:103A60002B4610461946FCF748FD8B468246024617
:103A70000B46FCF742FD07460246334888460B4694
:103A800006217844FFF788FA52465B46FCF735FD7D
:103A900082462E488B463A46434605217844FFF736
:103AA0007BFA3A464346FCF728FD02460B46002EB9
:103AB000504659460CDAFCF779FC22462B46FCF7B7
:103AC0001CFD01B022462B46BDE8F04FFCF712BDAD
:103AD000FCF76CFC22462B46FCF70FFD1C4A7A448F
:103AE00002EBC603D3E90023FCF701FD22462B4677
:103AF000FCF7FDFC174A7A4402EBC603D3E9002326
:103B0000FCF7F8FC009A002AB8BF81F00041BDE83C
:103B1000F88F0000000010440000F07F182D44547E
:103B2000FB21F93FFB21F9BF0000DC3F0000203EF4
:103B30000000F33F0000F03F0000E63F008003403C
:103B40000000F83F0000F0BF8A04000048040000B5
:103B5000E6030000AE03000038B504468DF800000F
:103B60000223012269460248FEF7FCFC204638BDCC
:103B700074010020FDF7CEFCFEF7C2FEFEF7C6FD85
:103B8000FEF704FEFEF772FEFEF7AAFDFEF794FEB6
:103B900004221F491F48FEF763FC00211E48FEF760
:103BA00069FA04211C48FEF765FA462000F05AF82D
:103BB0005A2000F083F819A0FFF7BAF982244FF4D5
:103BC00087752946204600F0E7F8FCF791FD02468C
:103BD0000B4614A0FFF7ACF92946204600F024F963
:103BE000FCF786FD02460B4611A0FFF7A1F9134C26
:103BF000134D40F6B83613A02168FFF799F915A0C8
:103C00002968FFF795F93046FDF762FBF3E70000FE
:103C10000C000020740100202C00002072656164FB
:103C2000790D0A00616E676C65613A25660D0A00C0
:103C3000616E676C65623A25660D0A00040000201B
:103C400008000020726563656976655F783A2564CF
:103C50000D0A0000726563656976655F793A2564CF
:103C60000D0A000010B5C0F164004FF4FA6148433A
:103C7000B42190FBF1F1074801F5167100688163EA
:103C800005A0FFF755F9BDE81040642107A0FFF734
:103C90004FB900002C000020636F756E7465725F71
:103CA0007472616E733A25640D0A00006572726F5A
:103CB000725F6669783A25640D0A000010B5044603
:103CC0004FF4FA606043B42190FBF1F10E4801F526
:103CD0001671006841630DA0FFF72AF9642110A056
:103CE000FFF726F92046FCF7F2FC0022104BFCF708
:103CF00004FC00220F4BFCF772FC0246BDE81040AA
:103D00000B460DA0FFF714B92C000020636F756EF1
:103D10007465725F7472616E733A25640D0A0000F7
:103D20006572726F725F6669783A25640D0A0000E9
:103D300000409F4000806640616E676C652A3230AB
:103D400030302F3138303A25660D0A002DE9F04128
:103D500006460F46FCF751FE041E0D4618BF012013
:103D6000284320F00040C0F17F6000F1E040C00F28
:103D70000ED0301C18BF0120384320F00040C0F1A5
:103D80007F6000F1E040C00F04BF0120FFF774F92D
:103D900020462946BDE8F08170B50C46FCF797FC3B
:103DA0000022164BFCF7A3FBFCF7B5FC05462046AA
:103DB000FCF784FC01462846FCF7BAFAFCF798FCAD
:103DC0000C460546FFF7B8FD0D4A0E4BFCF707FC05
:103DD00000220D4BFCF791FBFCF79DFC06462A46A2
:103DE00023460AA0FFF7A4F83046FCF781FC024600
:103DF0000B4609A0FFF79CF8304670BD00C062403A
:103E00004AD8124DFB2109400080664064782F7922
:103E10003A2025660D0A0000616E676C65413A2004
:103E200025660D0A0000000010B5C0F19600404361
:103E300001FB0100FCF74BFCFFF788FF00220C4B55
:103E4000FCF7CDFBFFF778FD0A4A0B4BFCF7C7FBED
:103E500000220A4BFCF751FBFCF75DFC0446FCF723
:103E600047FC02460B4606A0FFF762F8204610BD4D
:103E7000000059404AD8124DFB210940008066409D
:103E8000616E676C65423A2025660D0A00000000ED
:103E900000000000000000000102030406070809FA
:103EA00000000000010203044FBB610567ACDD3F69
:103EB000182D4454FB21E93F9BF681D20B73EF3F51
:103EC000182D4454FB21F93FE2652F227F2B7A3CC9
:103ED000075C143326A6813CBDCBF07A8807703C82
:103EE000075C143326A6913CC4EB98999999C9BFF5
:103EF000711623FEC671BCBF6D9A74AFF2B0B3BF2A
:103F00009AFDDE522DDEADBF2F6C6A2C44B4A2BFE9
:103F10000D5555555555D53FFF8300922449C23F55
:103F20006E204CC5CD45B73F513DD0A0660DB13F89
:103F3000EB0D76244B7BA93F11DA22E33AAD903F9B
:103F4000DDDDDDDDDCBBBBDDDDDDDDDDDDDDDDDDE6
:103F50009888888888888888777777777788888826
:103F600085555556666666666666666666688888BE
:103F70008333333222222222222222222228888DB7
:103F8000A03F0008000000202C000000583000086E
:103F9000CC3F00082C000020140600006830000808
:103FA0000000000000000000000000000000000011
:103FB00000000000010000001000000000000000F0
:0C3FC0000024F4000000000000000000DD
:0400000508000131BD
:00000001FF
