:020000040800F2
:10000000600E0020A1010008972400086922000862
:1000100095240008A10C0008912D000800000000A4
:100020000000000000000000000000009B24000809
:100030006D0D000800000000992400089D240008B0
:10004000BB010008BB010008BB010008BB010008A0
:10005000BB010008BB010008BB010008BB01000890
:10006000BB010008BB010008BB010008BB01000880
:10007000A50C0008BB010008BB010008BB0100087B
:10008000B10C0008BB010008BB010008BB0100085F
:10009000BB010008BB010008BB010008BB01000850
:1000A000BB010008BB010008BB010008BB01000840
:1000B000BB010008BB010008BB010008BB01000830
:1000C000BB010008BB010008BB010008BB01000820
:1000D000BB010008C52B0008E92B00080D2C000807
:1000E000BB010008BB010008BB010008BB01000800
:1000F000BB010008BB010008BB010008BB010008F0
:10010000BB010008BB010008BB010008BB010008DF
:10011000BB010008BB010008BB010008BB010008CF
:10012000BB010008BB010008BD0C0008BB010008B2
:10013000BB010008BB010008BB010008BB010008AF
:10014000BB010008BB010008BB010008BB0100089F
:10015000BB010008BB010008BB010008BB0100088F
:10016000BB010008BB010008BB010008BB0100087F
:10017000BB010008BB010008BB0100080000000033
:10018000BB010008BB010008DFF810D000F080FBC5
:10019000004800475D380008AFF30080600E002083
:1001A0000648804706480047FEE7FEE7FEE7FEE711
:1001B000FEE7FEE7FEE7FEE7FEE7FEE7352500087F
:1001C000890100082DE9F05F0546002092469B4614
:1001D00088460646814640241BE02846414647465D
:1001E000224600F020FA53465A46C01A914110D3D5
:1001F00011461846224600F007FA2D1A67EB01084F
:100200004F4622460120002100F0FEF917EB0009BD
:100210004E41201EA4F10104DFDC484631462A4647
:100220004346BDE8F09F40EA01039B0703D009E085
:1002300008C9121F08C0042AFAD203E011F8013BD2
:1002400000F8013B521EF9D27047D2B201E000F82B
:10025000012B491EFBD270470022F6E710B513466A
:100260000A4604461946FFF7F0FF204610BD2DE967
:10027000FE4F804681EA0300C00F0C46009021F03B
:10028000004123F00045B8EB0200A94105D24046E9
:10029000214690461C460B46024623F00040104380
:1002A00047D0270DC7F30A00C3F30A510290401A42
:1002B000019040286BDAC3F3130040F4801B0098D0
:1002C000924620B10023D2EB030A63EB0B0B01989B
:1002D0005946C0F14002504600F096F906460D46D8
:1002E00050465946019A00F0AEF910EB0800614102
:1002F000002487EA115284EAE7731A4340D0009A37
:1003000062B3019A012A4FEA075215DC001B61EB28
:1003100002014FF0004202EA0752CDE90042001C00
:1003200041F5801132462B4600F034FA03B0BDE8A7
:10033000F08F40462146F9E7001B61EB0201001CEB
:1003400041F5801300185B412018A2F5001747EB18
:10035000030140EAD570B6196D4111E06D084FEA0E
:10036000360645EAC0754FEA0752001B61EB0201F1
:10037000001C41F5801149084FEA30000019514135
:1003800032462B4603B0BDE8F04F00F0F4B90098B8
:10039000012240000023D0EB020263EBE0730098DF
:1003A00021464FEAE074B8EB000061EB0401E9E795
:1003B00083F000435BE781F0004158E72DE9FE4FF1
:1003C00081EA030404F0004421F0004100944FF05E
:1003D000000B23F0004350EA01045ED052EA03040C
:1003E0005BD0C3F30A54C1F30A552C44A4F2F3348E
:1003F0000194A0FB0254C1F3130141F48011C3F333
:10040000130343F4801301FB024400FB034E840AF0
:10041000970A44EA815447EA8357A4FB0768029588
:100420008D0A05FB07854FEA932C04FB0C54270526
:10043000029D4FEA065847EA1637B5EB08056EEB02
:10044000070C870E920E47EA811742EA8312A7FB38
:100450000201B6EB0B0164EB00042B0D43EA0C33F5
:100460005E1844EB1C50DA465146E7FB0201C5F327
:1004700013044FEA0B3343EA14534FEA0432019C4E
:1004800043EA0603A4F10C040294009CCDE900B4F5
:1004900000F080F903B0BDE8F08F00200146F9E7D5
:1004A0002DE9F04D81EA030404F0004B21F00045F2
:1004B00014464FF0000A23F0004150EA050220D014
:1004C00054EA01021DD0C5F30A570246C5F31303CF
:1004D000C1F31300C1F30A5640F4801543F48013AE
:1004E000A7EB0608101BD64608F2FD3873EB050093
:1004F00002D308F1010801E092185B41B8F1000F46
:1005000003DA00200146BDE8F08D00204FF4801191
:10051000064684460EE0171B73EB050705D3121B36
:1005200063EB050306434CEA010C49084FEA30002F
:1005300092185B4150EA0107EDD152EA030012D054
:1005400082EA040083EA0501084305D0101BAB4191
:1005500006D20122002306E000224FF0004302E011
:100560006FF0010253101AEB06004CEB085110EB30
:100570000A0041EB0B01BDE8F04D00F0FCB800F0C3
:10058000004230F000400AD0C10D01F56071C0F3A7
:10059000160042EA0151C20840071143704700208B
:1005A0000146704701F0004330B421F0004150EAA9
:1005B000010206D00A0DA2F56072C1F31301002AF0
:1005C00002DC30BC00207047440F44EAC104C10083
:1005D000E01830BC00EBC25000F096B830B50B46C6
:1005E000014600202022012409E021FA02F59D4263
:1005F00005D303FA02F5491B04FA02F52844151E37
:10060000A2F10102F1DC30BD202A04DB203A00FA1D
:1006100002F1002070479140C2F1200320FA03F359
:10062000194390407047202A04DB203A21FA02F057
:100630000021704721FA02F3D040C2F1200291401C
:10064000084319467047202A06DBCB17203A41FAA7
:1006500002F043EAE07306E041FA02F3D040C2F14F
:100660002002914008431946704700000FB4002350
:1006700000B589B00CA900910B996FF00042CB60D6
:100680001E4B06931E4B07930423CDE901321D4AEE
:10069000089202466B46002000F0A6F909B05DF80A
:1006A00014FB70B586B006464FF0FF300091CDE9DF
:1006B0000101002015460C4604903246694604A804
:1006C000FFF7D4FF02460498211825B108B1084667
:1006D00000E020462860049800280DD0002A02DDA2
:1006E0000098884208D0081B0094CDE901043246E6
:1006F000694604A8FFF7BAFF06B070BD210C0008D8
:100700003F0C0008B50800080029A8BF7047401C2E
:10071000490008BF20F00100704710B4B0FA80FC17
:1007200000FA0CF050EA010404BF10BC704749B154
:10073000CCF1200421FA04F411FA0CF118BF0121C4
:1007400021430843A3EB0C01CB1D4FEA00614FEAA4
:10075000102042BF002010BC704700EBC350104473
:100760000029A4BF10BC7047401C490008BF20F0FE
:10077000010010BC704710B5141E73F1000408DAB4
:10078000401C41F1000192185B411A4301D120F055
:10079000010010BD2DE9F04D92469B4611B1B1FA12
:1007A00081F202E0B0FA80F220329046FFF72CFF8F
:1007B00004460F4640EA0A0041EA0B0153465A46F6
:1007C000084313D0114653EA010019D0C8F1400282
:1007D0005046FFF728FF05460E465046594642460A
:1007E000FFF712FF084305D0012004E020463946F8
:1007F000BDE8F08D0020054346EAE0762C43374300
:100800000A986305E40AA0EB08000022FD0A44EA06
:1008100047540A3002D500200146E9E701051019C6
:100820006941DDE9084500196941BDE8F04DA2E7DD
:10083000C1F30A52C1F3130140F2FF3341F48011B6
:100840009A4202DA00200146704740F233439A424E
:10085000A2F2334202DC5242FFF7E5BEFFF7D4BEFC
:1008600030B5041E71F1000404DB4FF00044404237
:1008700064EB0101141E73F1000405DB1C464FF00C
:100880000043524263EB0403994208BF904230BDDB
:10089000064C074D06E0E06840F0010394E80700CD
:1008A00098471034AC42F6D3FFF772FC5839000871
:1008B00078390008C0B24FF4F05100F0D1B900000F
:1008C0002DE9FF4F087883B09946FF2805D0491CD1
:1008D0002D2804D00024002008E000200BE0012493
:1008E000F9E700EB800003EB4000491C0B78FF2B7D
:1008F000F7D104B1404200230293147819461D46F3
:100900002D2C01D02B2C04D1521C2D2C13D00024C3
:100910000294AA461478FF2C0FD00A25A3FB057871
:1009200001FB05814FF0000C03FB0C11521CE31975
:100930004AEB0101EEE70124EAE7814453EA0100B2
:1009400002D019F5C87F06DA03980021C0E900112A
:1009500007B0BDE8F08F0025AE4E2F46DFF8B88215
:10096000184600F091F9CDE90001B9F1000002DA72
:10097000C9F1000400E004460023A74A1AEB030B68
:1009800042EB045A12E0E00707D02A4633463846C5
:100990004146FFF713FD074688462A463346104670
:1009A0001946FFF70BFD05460E466410002CEAD1F0
:1009B000DDE90001B9F1000F5A46534606DAFFF7A8
:1009C0006FFD3A464346FFF76BFD05E0FFF7F6FC87
:1009D0003A464346FFF7F2FC029A0AB181F0004121
:1009E000039AC2E90001B3E72DE9FF4F1F468DB01E
:1009F000D7E901464FF0FF382E2045464FF0000959
:100A00000B90B9696D1C0E988847396A82468847F1
:100A10000028F6D1BAF1FF3F0AD024F4D064002EAA
:100A200011DDBAF12B0F08D0BAF12D0F0BD102E076
:100A3000404611B08DE744F48064B9696D1C0E988E
:100A400088478246761E6946600501D52D2000E064
:100A50002B208DF8000001F1010B0DF1200809E0B9
:100A6000B9696D1C0E98884782460F9844F400744B
:100A7000761E0560002E02DDBAF1300FF0D00B9922
:100A80008A453ED144F0800406E00F99681CA9F124
:100A9000010944F400740860B9696D1C761E0E9853
:100AA000884782463028F0D02BE00B998A4505D143
:100AB000200603D444F08004761E18E0504602F06D
:100AC00085FA08B30DF11301761E44F400748B45CA
:100AD00008D2AAF130000BF8010B200607D5A9F1C6
:100AE000010003E0200602D409F101008146A005BF
:100AF00002D50F99681C0860B9696D1C0E9888476B
:100B00008246002ED1DC53E0002E51DDBAF1650F94
:100B100002D0BAF1450F4BD1A00549D5B9696D1C7A
:100B200024F44074761E0E9888478246002E0CDD11
:100B30002B2804D0BAF12D0F07D144F48074B96981
:100B40006D1C0E9888478246761EE00501D52D2142
:100B500000E02B2108F8011BCDF82C8021E00DF1DD
:100B60002901761E44F4007488450CD2AAF13000A5
:100B700010F0FF0088F8000002D10B99884509D9D0
:100B800008F1010806E0E00501D5244801E042F241
:100B90000F708146B9696D1C0E98884782460F9880
:100BA0000560002E04DD504602F010FA0028D6D170
:100BB000F9690E988847FF208BF8000088F800003C
:100BC0000020069007904B466A4608A906A8FFF742
:100BD00077FEA00502D46FF001002AE714F0240F7D
:100BE0000AD0E00714D1DDE906123868031D3B6026
:100BF0000068C0E900120BE0DDE90601FFF7D2FC56
:100C00000146E00704D13868021D3A6000680160BF
:100C100028460EE7000014400000F03FF1D8FFFF27
:100C2000426842B1016811F8013B23B1521EC0E98C
:100C30000012184670470121C160881E7047426843
:100C40005AB1C368016843B983688B4205D0491E15
:100C5000521CC0E90012002070474FF0FF3070476F
:100C60007F2801D9002208E0064A02EB5002C007A3
:100C7000127800D1120902F00F02012090400840C2
:100C800070470000183900080EB540F23342029256
:100C90000022CDE900221346FFF77CFD03B000BD22
:100CA000FEE70000014800F0BFB80000FC0700208C
:100CB000014800F0B9B800009C070020014800F08E
:100CC000B3B800003C07002001681823CAB2103AEC
:100CD000B2FBF3F2054B6FF30901032A9B5CC3657A
:100CE00000D9091D8165084670470000F8380008E2
:100CF00010B5014600208B698A6A4FF0C07453B169
:100D0000B3F5005F15D072B1012A0CD0022A0AD0C7
:100D1000032A09D104E01AB1012A06D0022A03D11C
:100D2000C96AC90100D5012010BDC96AA142FAD023
:100D300010BD002AF7D0012AF2D0022AF3D0032AEC
:100D4000F3D010BD30B50468256825F480252560F2
:100D5000046863608368402B036803D0996000686F
:100D6000C26030BD9A600068C16030BD704772B625
:100D7000FEE72DE9F0410446876D00F0BFFA064614
:100D800094F835000025022806D08020606584F89C
:100D900034500120BDE8F0812068016821F016017F
:100DA00001602068416921F080014161206C08B92F
:100DB000A06C20B12068016821F008010160206862
:100DC000016821F0010101600CE000F097FA801B3E
:100DD000052807D920206065032084F8350084F8B1
:100DE0003450D7E720680068C007EED194F85C1053
:100DF0003F208840B860012084F8350084F83450E2
:100E00000020C7E790F83510022903D08021416502
:100E100001207047052180F835100068016821F035
:100E200001010160002070472DE9F84304464FF0AE
:100E30000009CDF8009063484FF41651A56D006885
:100E4000B0FBF1F72E6894F85C10082000FA01F16D
:100E500031420FD021680A6852070BD50A6822F088
:100E600004020A6094F85C108840A860606D40F04D
:100E70000100606594F85C104FF0010808FA01F079
:100E8000304208D021684969090604D5A860606D20
:100E900040F00200606594F85C1004208840304205
:100EA00008D021680968890704D5A860606D40F002
:100EB0000400606594F85C1010208840304218D01F
:100EC00021680968090714D5A860206801684903EA
:100ED00004D50068000308D5A16C07E00168C905C6
:100EE00003D4016821F008010160216C09B120469A
:100EF000884794F85C1020208840304231D0216827
:100F00000968C9062DD5A86094F835000528206821
:100F1000016806D0490347D5006800031DD4616C01
:100F20001CE021F0160101602068416921F0800178
:100F30004161206C08B9A06C20B12068016821F0E3
:100F40000801016094F85C103F208840A86084F894
:100F5000358084F83490216D1FE0E16B09B12046A3
:100F60008847606D00282BD0606DC00714D0052025
:100F700084F835002068016821F0010101600098C3
:100F8000401C0090B84203D820680068C007F6D122
:100F900084F8358084F83490E16C002910D001B0D9
:100FA0002046BDE8F04308470168C905D5D401686B
:100FB00021F01001016084F8358084F83490CCE78A
:100FC000BDE8F883140000202DE9F041044600F04C
:100FD00095F906465CB1022084F83500002584F8B6
:100FE00034502068016821F0010101600DE001200A
:100FF000BDE8F08100F082F9801B052805D920208A
:101000006065032084F83500F2E720680068C007B7
:10101000F0D12268116820480140D4E90103184347
:10102000D4E903363343184363691843A36918436B
:10103000E3691843236A18430843616A042903D10A
:10104000D4E90B1319430843106020684069666AAD
:1010500020F0070130460E43012704280CD1A06A76
:101060000643E06A40B12046FFF742FE20B140202F
:10107000606584F83570BAE7206846612046FFF75E
:1010800023FE94F85C203F2191408160656584F8DF
:1010900035700020ACE700003F8010F02DE9F041F2
:1010A0000446866D90F83400002501280DD00120FB
:1010B00084F8340094F835700020012F07D084F8AC
:1010C000340002252846BDE8F0810220FBE7022714
:1010D00084F8357060652046FFF734FE94F85C10A4
:1010E0003F208840B0602068016841F0160101602F
:1010F000206C20B12068016841F00801016020687F
:10110000016841F001010160DCE700002DE9F84FC2
:10111000DFF8BCA1002201250AF1040B03264FF0E1
:101120000F090BF1040E00BF0B6805FA02F423400F
:10113000A34270D10F7907F00307012F01D0022FCE
:1011400016D187684FEA420806FA08FC27EA0C071E
:10115000D1F80CC00CFA08FC4CEA070CC0F808C027
:101160004768A7430C79C4F3001494403C4344609F
:101170000C79E443A4070AD0C4684FEA420C06FA8B
:101180000CF7BC438F6807FA0CF72743C7600C794C
:1011900004F00304022C12D1D40800EB840CDCF818
:1011A00020405707FF0E09FA07F824EA0804D1F88F
:1011B000108008FA07F848EA0408CCF82080046890
:1011C0004FEA420C06FA0CF7BC430F7907F003070D
:1011D00007FA0CF7274307604C6814F4403F70D0BF
:1011E0003C4C276847F480472760246822F00307B7
:1011F00004F480440094384C07EB040CDCF80848F5
:1012000097074FEA177809FA08F7BC43334FB842FB
:1012100002D1002724E054E0314FB84201D1012728
:101220001EE0304FB84201D1022719E02E4FB842DC
:1012300001D1032714E02D4FB84201D104270FE05C
:101240002B4FB84201D105270AE02A4FB84201D1FD
:10125000062705E0284FB84201D1072700E00827FC
:1012600007FA08F72743CCF80878DAF80040574621
:10127000D1F804C09C435FEACC3C00D51C433C60E1
:10128000DBF800405F46D1F804C09C435FEA8C3C29
:1012900000D51C433C60DEF800407746D1F804C01E
:1012A0009C435FEACC2C00D51C433C60084F0C37B4
:1012B0003C68D1F804C09C435FEA8C2C00D51C43E9
:1012C0003C60521C102AFFF42FAFBDE8F88F0000DD
:1012D000003C014044380240003001400000024020
:1012E0000004024000080240000C024000100240CE
:1012F0000014024000180240001C024001488068AF
:1013000070470000080000200248816802781144FC
:1013100081607047080000200B4810B5016841F457
:1013200000710160016841F480610160016841F46D
:1013300080710160032000F06FF8002000F006F8D3
:1013400000F024F8002010BD003C024070B50D4DA7
:1013500004464FF47A712878B1FBF0F00A49096825
:10136000B1FBF0F000F00AFB48B9102C07D20022C4
:101370002146501E00F030F800206C6070BD012046
:1013800070BD000008000020140000200A4808B5C5
:10139000016841F480410160006800F480400090E1
:1013A0000548001F016841F080510160006800F0AD
:1013B0008050009008BD000044380240002809DB3E
:1013C00000F01F02012191404009800000F1E0205F
:1013D000C0F8001170470000F0B40E4B1B680C46BB
:1013E000C3F30223C3F10705042D00D90425191DF9
:1013F000072901D2002300E0DB1E012606FA05F1D1
:10140000491E214099409E40761E16403143F0BC53
:1014100001F0D0BC0CED00E0064900F007020868BE
:101420004FF6FF03184040EA0220034A10430860C9
:10143000704700000CED00E00000FA052DE9F047D0
:101440000E46050065D0DFF81481D8F80000F7B229
:1014500000F00700B04207D288F80070D8F800000A
:1014600000F00700B04254D128683D4C810712D5E6
:10147000400703D5206840F4E0502060287800073A
:1014800003D5206840F4604020602068A96820F0FF
:10149000F000084320602878C0072DD030496868E4
:1014A0000839012812D0022813D0032811D0096866
:1014B000890700292DDA216821F003010143216009
:1014C000FFF71CFF814641F2883A0EE00968890364
:1014D000EFE709688901ECE7FFF710FFA0EB0901CE
:1014E000514502D90320BDE8F0872068696800F003
:1014F0000C00B0EB810FEFD1D8F80010404601F09E
:101500000701B14207D90770006800F00700B04238
:1015100001D00120E7E72878400705D52068E96871
:1015200020F4E050084320602878000706D52068A2
:10153000296920F4604040EAC100206000F038F8DA
:101540002168084AC1F30311515CC840064908608C
:1015500006480068FFF7FAFE0020C4E7003C02409E
:101560000838024000390008140000200C00002058
:101570000448054900680968044AC1F38221515CA6
:10158000C840704714000020083802401039000895
:101590000448054900680968044AC1F34231515CB6
:1015A000C840704714000020083802401039000875
:1015B000154810B5006810F00C02144813D0411003
:1015C000042A0FD0082A0ED10F4C241F226823684A
:1015D00002F03F025B0207D52068C0F38810A0FB31
:1015E000010106E0084610BD2168C1F38811A1FB86
:1015F00000010023FEF7E6FD2168C1F30141491C0B
:101600004900B0FBF1F010BD083802400024F4009E
:101610002DE9F84F04006ED02078DFF84C93C00716
:10162000A9F104054AD009F104000168C1F3810160
:10163000012908D00068C0F3810002280AD1D9F836
:101640000000400206D52868800337D5606800286E
:10165000E1D033E06068B0F5803F10D0B0F5A02F46
:10166000286810D020F480302860286820F480207A
:1016700028606068A8B1FFF741FE06460DE02868C3
:1016800040F48030F4E740F480202860F7E700BFA2
:10169000FFF734FE801B642873D828688003F7D5D1
:1016A0000CE0FFF72BFE064605E000BFFFF726FE25
:1016B000801B6428F0D828688003F7D42078DFF8EE
:1016C000AC8280074FF0000A3ED5A748001D016894
:1016D00011F00C0F08D00068C0F3810002280BD174
:1016E000D9F80000400207D42868800716D5E068C2
:1016F000012800D112E033E1E068B8B10120C8F858
:101700000000FFF7FBFD064605E000BFFFF7F6FD12
:10171000801B0228C0D828688007F7D5286821696F
:1017200020F0F80040EAC10028600DE0C8F800A0F1
:10173000FFF7E4FD064604E0FFF7E0FD801B02280A
:101740001FD828688007F7D42078000722D5864F55
:1017500087486169703771B101210160FFF7CEFDE3
:10176000064604E0FFF7CAFD801B022809D8386846
:101770008007F7D50EE0C0F800A0FFF7BFFD0646D2
:1017800005E082E0FFF7BAFD801B02287DD83868AB
:101790008007F7D42078400768D5DFF8CCB1002760
:1017A0000BF13C0BDBF80000C0000BD4DBF80010A1
:1017B00041F08051CBF80010DBF80000012700F069
:1017C000805000906B4E3068C00510D4306840F4F3
:1017D00080703060FFF792FD009005E0FFF78EFD0E
:1017E0000099401A022850D83068C005F6D55E4EE0
:1017F000A0686C3601280FD00528306810D020F082
:1018000001003060306820F004003060A068B8B19A
:10181000FFF774FD00900FE0306840F00100F4E73E
:1018200040F004003060F7E7FFF768FD0099411AC7
:1018300041F28830814266D830688007F4D50EE0E6
:10184000FFF75CFD009007E0FFF758FD0099411A93
:1018500041F28830814256D830688007F4D42FB1E5
:10186000DBF8001021F08051CBF80010A069C8B35C
:101870003D49091D0968C1F3810102294AD00228A6
:10188000504607D0C8F8600000E03CE0FFF736FDA6
:1018900004463BE04746C8F86000FFF72FFD0646C8
:1018A00005E000BFFFF72AFD801B02282BD828681F
:1018B0008001F7D4D4E907010843A16A2E4A4908F8
:1018C00002EB0141626A41EA8211084394F82C104C
:1018D00040EA0161C9F8001001203866FFF70EFDEB
:1018E000044606E03EE000BFFFF708FD001B0228AB
:1018F00009D828688001F7D534E000BFFFF7FEFC67
:10190000001B022802D90320BDE8F88F2868800157
:10191000F4D427E00128F7D0D9F80000E26900F4F8
:10192000800191421CD1226A00F03F01914217D1FF
:1019300047F6C071626A0140B1EB821F10D1A26A02
:101940004FF0FF3300F4403103EB5202B1EB024F92
:1019500006D194F82C1000F07060B0EB016F01D04C
:101960000120D1E70020CFE70438024000004742C1
:10197000800E4742007000400000FFFF10B5401E7F
:10198000B0F1807F01D3012010BD4FF0E0246061F1
:101990000F21601701F00EFA0020A06107202061DE
:1019A000002010BD10B590F83C20012A22D0012261
:1019B00080F83C20CA688C6822F4407222434C684C
:1019C00022F4806222430C6822F4006222430C69F4
:1019D00022F4805222434C6922F400522243C96906
:1019E000002322F480420A4301684A6480F83C30B4
:1019F000002010BD022010BD70B590F83C20012AD7
:101A000032D0012480F83C40022280F83D20036857
:101A10005A689D6822F070060A6832435A60134B78
:101A200002689A4214D0B2F1804F11D0104B9A4202
:101A30000ED0104B9A420BD00F4B9A4208D00F4B4E
:101A40009A4205D00E4B9A4202D00E4B9A4204D1D4
:101A5000496825F080031943916080F83D400021DA
:101A600080F83C10084670BD022070BD00000140A7
:101A70000004004000080040000C00400004014049
:101A8000004001400018004010B586B00446142103
:101A90006846FEF7E1FB0E492068884216D10D48E2
:101AA0000021026842F010020260006800F010009D
:101AB00005904FF4206000900220CDE90101012043
:101AC000CDE9031069460448FFF720FB06B010BDBE
:101AD00000000140303802400010024070B504465A
:101AE00090F83C0000260D4601280FD0012084F814
:101AF0003C006AB1042A1DD0082A2FD00C2A3FD0FE
:101B00000126002084F83C00304670BD022070BDE4
:101B1000206800F07BFD2068816941F00801816147
:101B20002068816921F004018161206881692A6946
:101B3000114311E0206800F099FD2068816941F4AB
:101B4000006181612068816921F480618161206880
:101B500081692A6941EA02218161D2E7206800F0A7
:101B6000BBFD2068C16941F00801C1612068C169FD
:101B700021F00401C1612068C1692A69114311E0A3
:101B8000206800F0DDFD2068C16941F40061C16199
:101B90002068C16921F48061C1612068C1692A6936
:101BA00041EA0221C161ACE710B5040003D094F80A
:101BB0003D0010B107E0012010BD002084F83C007A
:101BC000204600F01FF8022084F83D00211D206807
:101BD00000F0B8FC012084F8460084F83E0084F848
:101BE0003F0084F8400084F8410084F8420084F803
:101BF000430084F8440084F8450084F83D00002048
:101C000010BD000008B500680649884208D10648A2
:101C1000016841F001010160006800F001000090DE
:101C200008BD00000000014044380240704710B574
:101C300004460068406994F83D10C0F3C0102129A3
:101C400011D180B12068143050E8001F21F08001CC
:101C500040E80012002AF5D1606B08B1FFF789F85F
:101C6000204600F037FE2068406994F83E10C0F32B
:101C70008010222911D180B12068143050E8001F53
:101C800021F0400140E80012002AF5D1A06B08B114
:101C9000FFF76FF8204600F0F6FD002010BD7047FA
:101CA000F8B5016804460868CA684B6910F00F0F60
:101CB0004FF0000559D003F0010602F49077374346
:101CC00065D0C10705D0D10503D5216C41F00101D4
:101CD0002164410705D5D90703D0216C41F00201E9
:101CE0002164810705D5D90703D0216C41F0040197
:101CF0002164010707D502F02001314303D0216C94
:101D000041F008012164216C00293AD0800604D5F5
:101D1000900602D5204600F0EBFD20684069216C5A
:101D2000C0F38010090700D460B3204600F0ABFD7B
:101D300020684069400621D52068143050E8001F13
:101D400021F0400140E80012002AF5D1A06BA8B1B3
:101D50006C490165A06BFFF755F8002811D0A06B06
:101D6000016D01B0BDE8F040084783060FD593062A
:101D70000DD52046BDE8F84000F0BABD2046FFF77B
:101D80008EFFF8BD2046FFF78AFF2564F8BD266B5D
:101D90002023012E79D1C60677D5D60675D50868D9
:101DA000486800904869400640D5A16B08684068C3
:101DB0000004000CEAD0A28D8242E7D9E085C86910
:101DC000B0F5807F2DD020680C3050E8001F21F442
:101DD000807140E80012002AF5D12068143050E8E4
:101DE000001F21F0010140E80012002AF5D120680F
:101DF000143050E8001F21F0400140E80012002A92
:101E0000F5D184F83E30256320680C3050E8001F7F
:101E100021F0100140E80012002AF5D1A06BFEF776
:101E2000A8FFA08DE18D401A81B229E0A08DE18D3F
:101E3000401A81B2E08D0028A8D00029A6D02068E1
:101E40000C3050E8002F22F4907240E80026002E5B
:101E5000F5D12068143050E8002F22F0010240E84C
:101E60000026002EF5D184F83E30256320680C3022
:101E700050E8002F22F0100240E80023002BF5D19B
:101E80002046FFF7D3FEF8BDFFE705062BD5150664
:101E900029D594F83D002128F5D1A068B0F5805FE0
:101EA00001D12069B0B1206A411C2162216800780B
:101EB0004860E08C401E0004000CE084E3D1206800
:101EC000C16821F08001C1602068C16841F0400113
:101ED000C160D8E7206A0088C0F308004860206A23
:101EE000801C2062E5E74006CDD55006CBD5CA68F8
:101EF000204622F04002CA6084F83D3000F0B3F979
:101F0000C1E700009127000870B5040004D094F8E0
:101F10003D00002510B106E0012070BD84F83C5062
:101F2000204600F023F8242084F83D002068C16892
:101F300021F40051C160204600F03AFD206801699B
:101F400021F4904101612068416921F02A01416139
:101F50002068C16841F40051C1602564202084F8E4
:101F60003D0084F83E00002070BD00002DE9F047E0
:101F700086B0054614216846FEF76EF97948DFF809
:101F8000E0810221D5F800C0002403220723DFF8F6
:101F9000D8A18E060715C44546D1DFF8C8C10CF19B
:101FA000140CDCF8008048F01008CCF80080DCF855
:101FB00000C00CF0100CCDF814C0D0F800C04CF0EC
:101FC000010CC0F800C0006800F00100059050024C
:101FD0008DE8130069465046CDE90323FFF796F8D4
:101FE000DFF88C8161494046C8F80010C0E90164FF
:101FF000C0E90347C8F81440C8F81840C8F81C40A6
:10200000C8F82040C8F82440FEF7DEFF08B1FEF70C
:10201000AEFEC5F83880002211462520C8F8385099
:10202000FFF7DAF925204BE0DFF84881DFF834913B
:10203000C44509F1100948D1D9F8008048F40038A6
:10204000C9F80080D9F800C00CF4003CCDF814C0E9
:10205000D0F800C04CF0010CC0F800C0006800F0DF
:10206000010005900C208DE8130069465046CDE92B
:102070000323FFF74BF8DFF8F8803F4908F16008C9
:102080004046C8F80010C0E90164C0E90347C8F839
:102090001440C8F81840C8F81C40C8F82040C8F8D8
:1020A0002440FEF791FF08B1FEF761FEC5F83880C5
:1020B000002211462620C8F83850FFF78DF9262057
:1020C000FFF77CF906B0BDE8F087DFF8B080C445C3
:1020D000F8D1D9F8008048F48028C9F80080D9F8F0
:1020E00000C00CF4802CCDF814C0D0F800C04CF027
:1020F000020CC0F800C0006800F0020005904FF428
:1021000040608DE8130069461D48CDE90323FEF7C2
:10211000FDFFDFF85C80184908F1C00860394046CF
:10212000C8F80010C0E90164C0E90347C8F81440CA
:10213000C8F81840C8F81C40C8F82040C8F8244027
:10214000FEF742FF08B1FEF712FEC5F83880002204
:1021500011462720C8F83850FFF73EF92720AFE78F
:10216000001001403038024000000240406402404C
:102170003C070020004400408860024000480040C6
:102180000004024090F83E30202B0ED159B152B1DC
:1021900090F83C30012B08D0012380F83C3000231C
:1021A000036300F08BBC012070470220704770472A
:1021B000704700002DE9F843044690F83D001F46A3
:1021C00016460D4620284CD1C5B1BEB194F83C004E
:1021D000012846D0012084F83C004FF00008C4F8E4
:1021E0004080212084F83D00FFF788F8A6848146CE
:1021F000E684A068B0F5805F03D004E00120BDE86C
:10220000F883206928B12E465FF0000584F83C80F1
:102210000EE00026FAE78021204600F097FCA0B9E6
:10222000AEB116F8010B21684860E08C401EE084D6
:10223000E08C4B464FF0000200970028EBD14FF0A6
:102240004001204600F082FC30B10320D7E735F88A
:10225000020BC0F30800E6E7202084F83D000020D0
:10226000CDE70220CBE77047FEE70000154808B530
:10227000016841F400110160016801F4001100914E
:10228000016841F4800101600068002200F48000D0
:10229000009011460C20FFF79FF80C20FFF78EF8F6
:1022A000002211461020FFF797F81020FFF786F85C
:1022B000002211463A20FFF78FF8BDE808403A2087
:1022C000FFF77CB830380240154808B5016841F086
:1022D00004010160016801F004010091016841F00E
:1022E00080010160016801F080010091016841F006
:1022F00001010160016801F001010091016841F0F4
:1023000010010160016801F010010091016841F0C5
:1023100002010160006800F00200009008BD0000AA
:102320003038024010B592B000240F941C2168464A
:102330001094FDF791FF202107A8FDF78DFF244899
:1023400022490160A721C0E9011444F62061C0E9D7
:10235000031444618461FFF727FC08B1FEF707FD11
:102360000F940FA91A481094FFF746FB08B1FEF727
:10237000FEFC6020CDE900040294039404940594CB
:102380000022694612480694FFF7A8FB08B1FEF741
:10239000EEFC042269460E48FFF7A0FB08B1FEF7E9
:1023A000E6FC0794089409944FF400500A94CDE990
:1023B0000B4007A906480E94FFF7F4FA08B1FEF7A0
:1023C000D6FC0348FFF760FB12B010BD00000140CF
:1023D000280000200C4810B50A4901604FF4E13193
:1023E0004160002181600C22C160C0E9041281615A
:1023F000C161FFF789FD002803D0BDE81040FEF75A
:10240000B6BC10BD00100140700600200C4810B58D
:102410000A4901604FF4E1314160002181600C22E2
:10242000C160C0E904128161C161FFF76DFD002840
:1024300003D0BDE81040FEF79ABC10BD0044004038
:10244000B406002010B5114C0F480C2120604FF449
:10245000E13060600020A060E060C4E90401A06198
:10246000E0612046FFF750FD08B1FEF780FC2068D0
:10247000C16841F01001C160BDE810404FF4007226
:1024800003490248FFF77EBE00480040F8060020DE
:1024900070040020FEE7FEE770477047FEF734BF88
:1024A00030B593B030216846FDF7D6FE14210CA854
:1024B000FDF7D2FE1D480025016841F08051016002
:1024C000006800F0805011901948016841F4804183
:1024D00001600068022400F4804011900120009007
:1024E000000401908001CDE9064008200890A82052
:1024F000CDE9090404200B906846FFF789F808B17C
:1025000072B6FEE70CA90F2081E831004FF4A0500D
:102510000F904FF48050109002210CA8FEF78EFF10
:10252000002801D072B6FEE713B030BD403802403B
:10253000007000400248016841F47001016070477A
:1025400088ED00E0F0B50268254C264D264E274F59
:10255000274B4FF0804CA04209D0604507D0A842DD
:1025600005D0B04203D0B84201D0984204D122F045
:10257000700E4A6842EA0E02A0421BD0604519D094
:10258000A84217D0B04215D0B84213D0984211D00B
:10259000184DA8420ED0184DA8420BD0174DA84296
:1025A00008D0174DA84205D0164DA84202D0164DAE
:1025B000A84203D122F44075CA682A434D6922F02B
:1025C00080022A4302608A68C2620A688262A0426C
:1025D00001D0984201D10969016301214161F0BD37
:1025E000000001400004004000080040000C0040D2
:1025F0000004014000400140004401400048014007
:1026000000180040001C004000200040F0B5026AA5
:1026100022F001020262036A42688469124E24F0C9
:1026200073050C682C4323F002058B682B430D4D7A
:10263000A84201D0B04205D123F00807CB683B4344
:1026400023F00403A84201D0B04205D14D6922F421
:10265000407215438A692A43426084614968416334
:102660000362F0BD0000014000040140F0B5026AC1
:1026700022F010020262026A436884690D6824F441
:10268000E64444EA05248D6822F0200242EA05125D
:102690000F4D104EA84201D0B04206D1CF6822F0B3
:1026A000800242EA071222F04002A84201D0B04262
:1026B00007D14D6923F4406343EA85038D6943EAFA
:1026C000850343608461496881630262F0BD000054
:1026D0000000014000040140F0B5026A22F480725B
:1026E0000262026A4368C46922F4007224F073052E
:1026F0000C68124E2C438D6842EA05220E4DA8420A
:1027000001D0B04206D1CF6822F4006242EA07222B
:1027100022F48062A84201D0B04207D14D6923F46F
:10272000405343EA05138D6943EA05134360C461CE
:102730004968C1630262F0BD00000140000401402D
:1027400030B5026A22F480520262046A4268C369A8
:102750000D6823F4E64343EA05238D6824F400540E
:1027600044EA0534084DA84202D0084DA84204D1DD
:102770004D6922F4804242EA85124260C361496891
:102780000164046230BD000000000140000401400B
:1027900010B5806B0021C185C184FFF780FA10BDA0
:1027A00070B5846B2068406994F83D10C0F3C01088
:1027B0000025212904D118B1E584204600F08AF8CB
:1027C0002068406994F83E10C0F38010222904D19B
:1027D00018B1E585204600F056F8206C40F0100056
:1027E00020642046FFF75BFA70BD10B50146806B90
:1027F00009680968C9052FD40021C18501680C3119
:1028000051E8002F22F4807241E80023002BF5D11B
:102810000168143151E8002F22F0010241E8002341
:10282000002BF5D10168143151E8002F22F040024D
:1028300041E80023002BF5D1202180F83E10016BE8
:10284000012909D101680C3151E8002F22F0100252
:1028500041E80023002BF5D1016B012902D0FFF7DD
:10286000A6FC10BD818DFFF7E1F910BD10B5806B9E
:10287000016B012902D0FFF79BFC10BD818D490837
:10288000FFF7D4F910BD01680C3151E8002F22F494
:10289000907241E80023002BF5D10168143151E812
:1028A000002F22F0010241E80023002BF5D1016B3B
:1028B000012909D101680C3151E8002F22F01002E2
:1028C00041E80023002BF5D1202180F83E100021A3
:1028D0000163704701680C3151E8002F22F0C002FB
:1028E00041E80023002BF5D1202180F83D107047EE
:1028F00008B590F83E10222901D0022008BD826858
:102900004FF480539A4201D1016921B1816A9A4200
:102910001BD04AB10AE00268816A5268C2F3080219
:102920000A80816A891C08E0026972B102685268F3
:1029300002F07F020A70816A491C8162C18D491EC2
:102940000904090CC18503D019E002685268F1E757
:102950000168CA6822F02002CA600168CA6822F4CD
:102960008072CA6001684A6922F001024A6120212E
:1029700080F83E10016B012903D0FFF718FC0020FE
:1029800008BD0021016301680C3151E8002F22F0DD
:10299000100241E80023002BF5D101680A68D20635
:1029A00002D50A6849680091818DFFF73FF9E6E793
:1029B00070B5044600680169E26821F44051114392
:1029C00001612169A068E269084361691143084314
:1029D0002168CA6849F20C639A430243CA602068BE
:1029E0004169A26921F44071114341613149206874
:1029F000884202D03049884202D1FEF7C9FD01E089
:102A0000FEF7B6FDE2690023192164253226B2F5EE
:102A1000004F626828D0A0FB0101930F9200FDF7E0
:102A2000D1FB0146B0FBF5F06FF01802504301EB0B
:102A3000800006EB0010B0FBF5F000F0F002B1FBF7
:102A4000F5F002EB0012B1FBF5F06FF018035843FC
:102A500001EB800006EB0010B0FBF5F000F00F007A
:102A600021681044886070BDA0FB010192185B4191
:102A7000FDF7A8FB0146B0FBF5F00201B1FBF5F054
:102A80006FF01803584301EB800006EBC000B0FB69
:102A9000F5F000F0F80002EB4002B1FBF5F058430E
:102AA00001EB800006EBC000B0FBF5F000F0070082
:102AB000D6E70000001001400014014038B58162E3
:102AC00082850025134604460564222084F83E00D2
:102AD000A26B1B48D063A26B1A481064A26B1A4801
:102AE000D064A06B0A4605652168A06B091DFEF73E
:102AF000D5FA206801684068009084F83C5020684E
:102B00000C3050E8001F41F4807140E80012002AA8
:102B1000F5D12068143050E8001F41F0010140E871
:102B20000012002AF5D12068143050E8001F41F04F
:102B3000400140E80012002AF5D1002038BD000015
:102B4000EB2700086D280008A12700082DE9F041B7
:102B5000984617460E460446069D27E0681C25D079
:102B60002DB1FEF7CBFBA0EB0800A8421ED92068D0
:102B70000C3050E8001F21F4D07140E80012002A08
:102B8000F5D12068143050E8001F21F0010140E821
:102B90000012002AF5D1202084F83D0084F83E0080
:102BA000002084F83C000320BDE8F0812068006824
:102BB00036EA000004D00020B842CFD00020F3E76E
:102BC0000120F9E710B50748FFF76AF805480068E3
:102BD0000068C043C00604D4BDE81040014800F0BE
:102BE00027B810BD7006002010B50748FFF758F849
:102BF000054800680068C043C00604D4BDE8104022
:102C0000014800F015B810BDB406002010B5074803
:102C1000FFF746F8054800680068C043C00604D4C2
:102C2000BDE81040014800F003B810BDF8060020D0
:102C30002DE9F84F8346FEF7FAFF282000F026FE24
:102C40003F4980460026DBF800000968B14688420B
:102C50000BD13B48E830006840683A4DC0F500743D
:102C6000294639A000F096F81FE03549443109683B
:102C700088420AD13948006840683949C0F5007473
:102C800038A000F087F8364D0FE02D494439096827
:102C900088420AD12A488830006840683649C0F521
:102CA000007436A000F076F8334D20200027285518
:102CB000641C61202855641C1DE0E85D202802D0BA
:102CC000601E874216D1A7EB090A0AF1010000F045
:102CD000DDFD48F82600524605EB0901FDF7A3FA91
:102CE00058F826200021761C02F80A1007F1010985
:102CF0000A2E02DA7F1CA742DFDB4146304600F095
:102D0000F1FC21462846FDF7A7FA002405E000BFA4
:102D100058F8240000F06AFD641CB442F8DB404619
:102D200000F064FD4FF4007229465846FFF72AFA76
:102D3000DBF80000016840680090BDE8F88F0000F3
:102D4000B4060020700200207573617274325F62F5
:102D500075666665723A25730A000000FC0700205C
:102D6000700400207573617274335F627566666506
:102D7000723A25730A0000007000002075736172BA
:102D800074315F6275666665723A25730A000000E9
:102D9000FEE700000FB4054B10B503A9044A0298E2
:102DA00000F01CF910BC5DF814FB0000D5370008DA
:102DB000180000200907090E002804DB00F1E020BC
:102DC00080F80014704700F00F0000F1E02080F858
:102DD000141D70470000000030B583B0044600F0B9
:102DE00017F89FED090B05468DED000B00222146DB
:102DF0006846FDF756FC284600F020F89DED000BD4
:102E000003B030BD00000000000000000000000022
:102E100001480068704700002400002002E008C854
:102E2000121F08C1002AFAD170477047002001E044
:102E300001C1121F002AFBD1704700000149086040
:102E400070470000240000202DE9FF5F82B00021C0
:102E5000DDE90430020DDDF840B0034318D044F63C
:102E60001050A2F2FF3242431514119801281FD0CE
:102E7000A5EB0B00401C5FEA000A4FF000064E4F26
:102E8000DFF83891B046504615D5CAF1000413E07A
:102E9000119801244AA3012801D16FEA0B0102987D
:102EA000119AC0E90031C0E9024206B0BDE8F09FC6
:102EB000CBF10000DFE704460021404A491842EB0D
:102EC0000450CDE9001012E0E00707D032463B463F
:102ED00040464946FDF772FA8046894632463B46EF
:102EE00010461946FDF76AFA06460F466410002C94
:102EF000EAD1DDE90401DDE90023BAF1000F06DAC9
:102F0000FDF75CFA42464B46FDF758FA05E0FDF73F
:102F1000C7FA42464B46FDF7C3FA04460E46002266
:102F2000284BFDF79DFC03D84FF0FF30014607E02A
:102F30000022254B20463146FDF799F9FDF778FC34
:102F4000102409E0002C0ADB0A220023FDF73AF9DD
:102F5000039B30321A55641E50EA0102F2D1641C00
:102F6000039AC4F111031444119A012A03D00122D7
:102F700008430DD10AE0084304D000204FF0110BA4
:102F8000119072E7A3EB0B056D1E0DE05B4504DDB0
:102F90004FF0000205F1010504E003DA4FF00002F2
:102FA000A5F10105002AECD002981199C0E902317F
:102FB000C0E9004579E70000000014400000F03F40
:102FC000300000000000F0430000E03F30380A28E5
:102FD00001D2012070470020704700002DE9FF4F0B
:102FE00095B09A46884606460025EEE1252877D119
:102FF00000242746F94A0121039400E0044316F80F
:10300000013F203B01FA03F01042F7D130782A2823
:1030100011D06FF02F033078A0F13002092A16D8B2
:10302000039A44F0020402EB820203EB42021044D2
:10303000761C0390EFE758F8042B0392002A03DA7A
:10304000504244F40054039044F00204761C30785B
:103050002E2816D116F8010F44F004042A280DD0AA
:103060006FF02F023078A0F13003092B09D807EB5D
:10307000870302EB4303C718761CF3E758F8047B79
:10308000761C30786C280FD006DC4C2817D06828C6
:103090000DD06A2814D104E0742810D07A280FD1FA
:1030A0000DE044F400140AE044F4801401E044F418
:1030B00040147278824202D104F58014761C761C8A
:1030C000307866280BD013DC582877D009DC00282C
:1030D00075D04528F6D04628F4D047281AD193E178
:1030E00018E0632835D0642879D0652812D18BE1A7
:1030F000702873D008DC6728F1D069286FD06E285B
:103100000DD06F2806D1ACE073282CD0752874D070
:10311000782853D05246179990476D1C54E1C4F358
:103120000250022809D003280DD0D8F80010042836
:103130000DD00D6008F1040846E1D8F80010EA1738
:10314000C1E90052F6E7D8F800100D80F2E70D70E3
:10315000F0E718F8041B8DF8001000208DF801002E
:10316000EB46012003E058F804BB4FF0FF30610745
:103170004FF0000102D40DE009F101018946B94286
:103180000FDA8145F8DB1BF809100029F4D108E0BB
:1031900009F1010189468142FADB1BF80910002977
:1031A000F6D103985346A0EB090721463846179AF3
:1031B00000F080FA284400EB090507E044E008E14C
:1031C0000DE01BF8010B524617999047B9F1010920
:1031D000F7D2534621463846179AF2E039E00A21E1
:1031E000C4F302524FF0000B0091022A06D058F8A7
:1031F000040BC117032A09D00AE023E008F10700F5
:1032000020F00702F2E80201904605E000B2C11783
:10321000042A01D140B2C117002906DA0A4600216A
:10322000404261EB02012D2202E0220504D52B224F
:103230008DF80420012203E0E20701D02022F7E705
:10324000914657E00A2100E010214FF0000B009159
:103250000BE010214FF0000B44F00404082700910C
:1032600003E008204FF0000B0090C4F30252022A42
:1032700005D058F8040B0021032A08D008E008F113
:10328000070020F00702F2E80201904603E080B256
:10329000042A00D1C0B24FF0000922072AD53278A3
:1032A000702A07D0DDF800C08CF0100C5CEA0B0C23
:1032B00005D00EE040228DF80420012208E050EAFB
:1032C000010306D030238DF804308DF8052002224A
:1032D0009146009B83F0080353EA0B030AD150EA9E
:1032E000010201D1620705D530228DF804204FF08C
:1032F00001097F1E3278582A04D039A20C920CAAF8
:1033000002920BE03BA2F9E75B46009AFCF75AFFFA
:103310000C9B9B5C029A521E0292137050EA0102AF
:10332000F2D1029804A9081A00F1200B600702D517
:1033300024F4803400E001275F4502DDA7EB0B0099
:1033400000E0002000EB0B01009003984944401A74
:103350000390E00306D453462146179A039800F0E1
:10336000A9F90544002706E001A85246C05D179957
:1033700090476D1C7F1C4F45F6DBE0030CD5534690
:103380002146179A039800F095F9054404E030208F
:103390005246179990476D1C0099481E00900029CD
:1033A000F5DC08E00298029952460078491C029127
:1033B000179990476D1CBBF10001ABF1010BF1DCDB
:1033C0005BE100F065F90544761C307800287FF455
:1033D0000DAE19B02846BDE8F08F000009280100A5
:1033E000303132333435363738396162636465667B
:1033F000000000003031323334353637383941423D
:103400004344454600000000600700D4062708F149
:10341000070020F00700F0E80223804603F0004C8C
:103420005FEA0C0001D097A009E0200501D596A025
:1034300005E0E00701D095A001E0AFF24C00139049
:10344000307823F0004365280CD006DC452809D0ED
:1034500046281DD047287FD13BE0662818D0672832
:103460007AD136E00021112F01DB112000E0781C19
:10347000CDE9000104A90CA8FFF7E6FCDDE90D0188
:103480000C9A4FF0000B07F10109109200914EE0E9
:103490004FF000400097CDE9011004A90CA8FFF7F8
:1034A000D3FCDDE90D020C9B0F994FF0000B914608
:1034B0001093009211B9791C00EB0109B7EB0900D8
:1034C00003D4C0F1FF3B07F10109A9EB070001900C
:1034D00042E0012F00DA01270021112F01DD112028
:1034E00000E03846CDE9000104A90CA8FFF7ACFCC8
:1034F000DDE90D010C9A00914FF0000BB9461092D6
:1035000021070FD4009A4A4503DA914601E0A9F158
:103510000109B9F1010F05DD109AA9F10101515C12
:103520003029F4D0B84202DA10F1040F03DA012195
:10353000CDE9011010E0002803DC8344A9EB000171
:1035400002E0411C494500DD8946A0EB0B00401C10
:1035500001904FF000400290200705D401984845A3
:1035600002DB4FF0FF30019000208DF84B000298F5
:103570000DF14B07B0F1004F25D002200C902B200D
:103580000D90029800280CDA404202902D200D90F8
:1035900007E00A210298FDF721F83031029007F880
:1035A000011D0C99481E0C900029F2DC029800289D
:1035B000EFD1791E0D980870307800F0200040F0AF
:1035C000450007F8020D11A8C01BC01D02901398FA
:1035D000007800B1012000EB0901019801EBE071D6
:1035E000029801440398401A401E0390E00306D459
:1035F00053462146179A039800F05CF80544139847
:10360000007818B15246179990476D1CE00323D5F6
:1036100053462146179A039800F04CF805441BE0E6
:10362000BBF1000F07DB0098584504DD109817998F
:1036300010F80B0001E0179930205246904701988E
:103640000BF1010B401E05F10105019004D12E2064
:103650005246179990476D1CB9F10001A9F1010973
:10366000DEDC05E017F8010B5246179990476D1CF8
:103670000299481E02900029F4DC53462146179A0D
:1036800003989EE62D0000002B00000020000000A3
:103690002DE9F041044600251E461746880404D44F
:1036A00005E039462020B0476D1C641EF9D5284638
:1036B000BDE8F0812DE9F041044600251E46904604
:1036C000C80301D5302700E02027880404D505E091
:1036D00041463846B0476D1C641EF9D52846BDE802
:1036E000F08100002DE9FC410D4607460024DFF87B
:1036F000B4802D4E41E000BF55F824102BA0FFF7F9
:1037000049FB55F82420042129A000F097F8B0B116
:10371000641C55F82400FFF75FFB51EC100BFCF71D
:1037200041FF00EE100AB5EEC00AF1EE10FA23DDFB
:1037300010EE100A40451FDA86ED000A1CE055F82D
:10374000242004211CA000F079F8A8B1641C55F8CD
:103750002400FFF741FB51EC100BFCF723FF00EEB8
:10376000100AB5EEC00AF1EE10FA05DD10EE100AEF
:10377000404501DA86ED010A641CBC42BCDB70687E
:10378000FCF7FDFE04460D463068FCF7F8FE41EC00
:10379000100B0BA053EC102BCDE90045FFF7FAFA04
:1037A000BDE8FC8100009643000000202573200046
:1037B000706F737800000000706F73790000000074
:1037C000706F735F783A25662C706F735F793A2556
:1037D000660A000013B54FF6FF73012269460248DE
:1037E000FEF7E8FC00981CBDF806002010B5002884
:1037F00021D0114B0022001F196803E0814203D839
:103800000A4649680029F9D152B11368841A9C42CA
:1038100004D1006818441060104602E0506000E0D7
:10382000186039B102680B1A934203D10B681A442D
:1038300002604968416010BD1C00002030B529B10C
:10384000002306E0C45CD55CAC4201D0002030BD52
:103850005B1C8B42F6DB012030BD0000FDF75CFDF8
:10386000FEF71EFEFEF730FDFEF700FDFEF75AFDE7
:10387000FEF7B0FDFEF7CAFDFEF7E4FD01A0FFF77D
:1038800089FAFEE7496E69740A000000F0B50B3052
:10389000154D20F007010024144A0FE003688B4205
:1038A0000BD38B4205D95E1A43184768C3E90067FA
:1038B00000E04368136002C004E0021D10680028A5
:1038C000ECD12046002802D1286808B10020F0BDC4
:1038D000064A07481060074A121A22F00702C0E998
:1038E000002401202860D7E7200000201C000020D1
:1038F00064080020600A002000061016000610165A
:10390000000000000000000001020304060708098F
:103910000000000001020304DDDDDDDDDCBBBBDDFA
:10392000DDDDDDDDDDDDDDDD98888888888888885F
:10393000777777777788888885555556666666667F
:10394000666666666668888883333332222222225E
:10395000222222222228888D7839000800000020A7
:10396000280000001C2E0008A039000828000020B4
:10397000380E00002C2E000800000000000000009F
:103980000100000010000000000000000024F4000E
:103990000000000000000000000000000000000027
:040000050800018965
:00000001FF
