:020000040800F2
:10000000680E00209D010008CF280008792600080E
:10001000CD2800088F0E00085132000800000000B3
:10002000000000000000000000000000D3280008CD
:10003000590F000800000000D1280008D52800084A
:10004000B7010008B7010008B7010008B7010008B0
:10005000B7010008B7010008B7010008B7010008A0
:10006000B7010008B7010008B7010008B701000890
:10007000910E0008B7010008B7010008B701000899
:100080009D0E0008B7010008B7010008B70100087D
:10009000B7010008B7010008B7010008B701000860
:1000A000B7010008B7010008B7010008B701000850
:1000B000B7010008B7010008B7010008B701000840
:1000C000B7010008B7010008B7010008B701000830
:1000D000B701000885300008A9300008CD300008BD
:1000E000B7010008B7010008B7010008B701000810
:1000F000B7010008B7010008B7010008B701000800
:10010000B7010008B7010008B7010008B7010008EF
:10011000B7010008B7010008B7010008B7010008DF
:10012000B7010008B7010008A90E0008B7010008D0
:10013000B7010008B7010008B7010008B7010008BF
:10014000B7010008B7010008B7010008B7010008AF
:10015000B7010008B7010008B7010008B70100089F
:10016000B7010008B7010008B7010008B70100088F
:10017000B7010008B7010008B7010008000000003F
:10018000B7010008B7010008DFF80CD000F026FC2A
:10019000004800473D430008680E0020064880479D
:1001A00006480047FEE7FEE7FEE7FEE7FEE7FEE75C
:1001B000FEE7FEE7FEE7FEE76D290008890100087B
:1001C0002DE9F05F0546002092469B46884606468C
:1001D000814640241BE0284641464746224600F01F
:1001E0003EFA53465A46C01A914110D3114618465A
:1001F000224600F025FA2D1A67EB01084F462246E9
:100200000120002100F01CFA17EB00094E41201ECE
:10021000A4F10104DFDC484631462A464346BDE8E6
:10022000F09F40EA01039B0703D009E008C9121FB1
:1002300008C0042AFAD203E011F8013B00F8013BA0
:10024000521EF9D27047D2B201E000F8012B491ECC
:10025000FBD270470022F6E710B513460A46044663
:100260001946FFF7F0FF204610BD70B5064603F0B3
:1002700029F8046805460A220021304600F060FA99
:100280002C6070BD2DE9FE4F804681EA0300C00F4F
:100290000C46009021F0004123F00045B8EB02002D
:1002A000A94105D24046214690461C460B460246CF
:1002B00023F00040104347D0270DC7F30A00C3F3D3
:1002C0000A510290401A019040286BDAC3F31300E0
:1002D00040F4801B0098924620B10023D2EB030A21
:1002E00063EB0B0B01985946C0F14002504600F0F9
:1002F000A7F906460D4650465946019A00F0BFF947
:1003000010EB08006141002487EA115284EAE77388
:100310001A4340D0009A62B3019A012A4FEA075269
:1003200015DC001B61EB02014FF0004202EA0752AC
:10033000CDE90042001C41F5801132462B4600F009
:100340007DFA03B0BDE8F08F40462146F9E7001B77
:1003500061EB0201001C41F5801300185B4120187D
:10036000A2F5001747EB030140EAD570B6196D41BD
:1003700011E06D084FEA360645EAC0754FEA0752AC
:10038000001B61EB0201001C41F5801149084FEA96
:1003900030000019514132462B4603B0BDE8F04F02
:1003A00000F03DBA0098012240000023D0EB020289
:1003B00063EBE073009821464FEAE074B8EB00006D
:1003C00061EB0401E9E783F000435BE781F0004162
:1003D00058E72DE9FE4F81EA030404F0004421F0C0
:1003E000004100944FF0000B23F0004350EA010459
:1003F0005ED052EA03045BD0C3F30A54C1F30A553A
:100400002C44A4F2F3340194A0FB0254C1F3130171
:1004100041F48011C3F3130343F4801301FB02443E
:1004200000FB034E840A970A44EA815447EA835743
:10043000A4FB076802958D0A05FB07854FEA932CFC
:1004400004FB0C542705029D4FEA065847EA16376D
:10045000B5EB08056EEB070C870E920E47EA811785
:1004600042EA8312A7FB0201B6EB0B0164EB000426
:100470002B0D43EA0C335E1844EB1C50DA46514610
:10048000E7FB0201C5F313044FEA0B3343EA1453AD
:100490004FEA0432019C43EA0603A4F10C040294DF
:1004A000009CCDE900B400F0C9F903B0BDE8F08FBD
:1004B00000200146F9E72DE9F04D81EA030404F03C
:1004C000004B21F0004514464FF0000A23F0004194
:1004D00050EA050220D054EA01021DD0C5F30A57A4
:1004E0000246C5F31303C1F31300C1F30A5640F4E7
:1004F000801543F48013A7EB0608101BD64608F2BC
:10050000FD3873EB050002D308F1010801E09218F1
:100510005B41B8F1000F03DA00200146BDE8F08D21
:1005200000204FF48011064684460EE0171B73EB43
:10053000050705D3121B63EB050306434CEA010CC8
:1005400049084FEA300092185B4150EA0107EDD1AB
:1005500052EA030012D082EA040083EA050108434C
:1005600005D0101BAB4106D20122002306E0002279
:100570004FF0004302E06FF0010253101AEB060047
:100580004CEB085110EB0A0041EB0B01BDE8F04DBC
:1005900000F045B90EB5C10F80EAE0700844CA0703
:1005A000002140F233438DE80E000A460B4600F06E
:1005B00045F903B000BD00F0004230F000400AD021
:1005C000C10D01F56071C0F3160042EA0151C20885
:1005D00040071143704700200146704701F0004377
:1005E00030B421F0004150EA010206D00A0DA2F514
:1005F0006072C1F31301002A02DC30BC0020704796
:10060000440F44EAC104C100E01830BC00EBC25002
:1006100000F0CEB830B50B46014600202022012460
:1006200009E021FA02F59D4205D303FA02F5491BC0
:1006300004FA02F52844151EA2F10102F1DC30BDD6
:10064000202A04DB203A00FA02F100207047914092
:10065000C2F1200320FA03F3194390407047202A87
:1006600004DB203A21FA02F00021704721FA02F35C
:10067000D040C2F120029140084319467047202A19
:1006800006DBCB17203A41FA02F043EAE07306E0BA
:1006900041FA02F3D040C2F12002914008431946CA
:1006A000704700000FB4002300B589B00CA9009179
:1006B0000B996FF00042CB601E4B06931E4B0793C5
:1006C0000423CDE901321D4A089202466B46002000
:1006D00000F038FA09B05DF814FB70B586B0064634
:1006E0004FF0FF300091CDE90101002015460C4686
:1006F00004903246694604A8FFF7D4FF02460498E6
:10070000211825B108B1084600E020462860049869
:1007100000280DD0002A02DD0098884208D0081B6E
:100720000094CDE901043246694604A8FFF7BAFFF8
:1007300006B070BD7D0D00089B0D0008090A000879
:100740002DE9F04791460F4680460446002614F8EE
:10075000015B2DB100F054F90068405DC007F6D18F
:100760002B2D02D02D2D18D0641E4A463946204626
:1007700000F024FB27B13968A14201D1C7F80080FD
:1007800071054FF002040BD54042002803DD02F052
:1007900099FD0460A007BDE8F08746F48066E4E7B1
:1007A0000028F8DA02F08EFD04606FF00040F2E7F6
:1007B0000029A8BF7047401C490008BF20F0010075
:1007C000704710B4B0FA80FC00FA0CF050EA010453
:1007D00004BF10BC704749B1CCF1200421FA04F4E5
:1007E00011FA0CF118BF012121430843A3EB0C01BE
:1007F000CB1D4FEA00614FEA102042BF002010BC21
:10080000704700EBC35010440029A4BF10BC7047D0
:10081000401C490008BF20F0010010BC704710B513
:10082000141E73F1000408DA401C41F10001921813
:100830005B411A4301D120F0010010BD2DE9F04DBC
:1008400092469B4611B1B1FA81F202E0B0FA80F211
:1008500020329046FFF7F4FE04460F4640EA0A00B5
:1008600041EA0B0153465A46084313D0114653EA56
:10087000010019D0C8F140025046FFF7F0FE0546CE
:100880000E46504659464246FFF7DAFE084305D069
:10089000012004E020463946BDE8F08D00200543E4
:1008A00046EAE0762C4337430A986305E40AA0EB56
:1008B00008000022FD0A44EA47540A3002D500200D
:1008C0000146E9E7010510196941DDE9084500190C
:1008D0006941BDE8F04DA2E72DE9F04D00231A462D
:1008E0001B1A8A4103DB00200146BDE8F08DC1F3ED
:1008F0000A52C1F3130141F480154FF0000BD107E8
:1009000002D100186D41521E0027044640F2FF112B
:10091000384601EB620A3E468046024600204FF40C
:100920008011FFF79CFEC2197141BB1846EB010014
:10093000B4EB030C75EB000C04D3E41A65EB000573
:1009400017460E46241908F101006D4180463428EF
:10095000E3DDF91946EB0600091BA84103D24FF06D
:10096000FF32134601E0002213461BEB070046EB63
:100970000A51BDE8F04DFFF752BFC1F30A52C1F36F
:10098000130140F2FF3341F480119A4202DA002051
:100990000146704740F233439A42A2F2334202DCEE
:1009A0005242FFF75CBEFFF74BBE000030B5041E9D
:1009B00071F1000404DB4FF00044404264EB01019C
:1009C000141E73F1000405DB1C464FF00043524235
:1009D00063EB0403994208BF904230BD064C074DBB
:1009E00006E0E06840F0010394E8070098471034FF
:1009F000AC42F6D3FFF7CCFB80470008A0470008C5
:100A0000004870477C47000810B50446FFF7F8FF20
:100A10000068005D00F0010010BD00002DE9FF4FEF
:100A2000087883B09946FF2805D0491C2D2804D0AA
:100A30000024002008E000200BE00124F9E700EB8F
:100A4000800003EB4000491C0B78FF2BF7D104B169
:100A5000404200230293147819461D462D2C01D0E4
:100A60002B2C04D1521C2D2C13D000240294AA4606
:100A70001478FF2C0FD00A25A3FB057801FB058114
:100A80004FF0000C03FB0C11521CE3194AEB01015F
:100A9000EEE70124EAE7814453EA010002D019F5A8
:100AA000C87F06DA03980021C0E9001107B0BDE84D
:100AB000F08F0025AE4E2F46DFF8B882184600F0C2
:100AC000DAF9CDE90001B9F1000002DAC9F1000458
:100AD00000E004460023A74A1AEB030B42EB045A3A
:100AE00012E0E00707D02A46334638464146FFF772
:100AF00070FC074688462A46334610461946FFF7DB
:100B000068FC05460E466410002CEAD1DDE90001C0
:100B1000B9F1000F5A46534606DAFFF7CCFC3A46C5
:100B20004346FFF7C8FC05E0FFF753FC3A4643464F
:100B3000FFF74FFC029A0AB181F00041039AC2E923
:100B40000001B3E72DE9FF4F1F468DB0D7E90146FD
:100B50004FF0FF382E2045464FF000090B90B96941
:100B60006D1C0E988847396A824688470028F6D15E
:100B7000BAF1FF3F0AD024F4D064002E11DDBAF19F
:100B80002B0F08D0BAF12D0F0BD102E0404611B067
:100B90008DE744F48064B9696D1C0E9888478246DD
:100BA000761E6946600501D52D2000E02B208DF8CA
:100BB000000001F1010B0DF1200809E0B9696D1C7D
:100BC0000E98884782460F9844F40074761E05609C
:100BD000002E02DDBAF1300FF0D00B998A453ED1DC
:100BE00044F0800406E00F99681CA9F1010944F45F
:100BF00000740860B9696D1C761E0E98884782469D
:100C00003028F0D02BE00B998A4505D1200603D47B
:100C100044F08004761E18E0504602F093FE08B3BC
:100C20000DF11301761E44F400748B4508D2AAF12D
:100C300030000BF8010B200607D5A9F1010003E0F5
:100C4000200602D409F101008146A00502D50F99C2
:100C5000681C0860B9696D1C0E9888478246002E92
:100C6000D1DC53E0002E51DDBAF1650F02D0BAF1AC
:100C7000450F4BD1A00549D5B9696D1C24F44074CA
:100C8000761E0E9888478246002E0CDD2B2804D055
:100C9000BAF12D0F07D144F48074B9696D1C0E9818
:100CA00088478246761EE00501D52D2100E02B21E4
:100CB00008F8011BCDF82C8021E00DF12901761EEA
:100CC00044F4007488450CD2AAF1300010F0FF0003
:100CD00088F8000002D10B99884509D908F101086C
:100CE00006E0E00501D5244801E042F20F7081469C
:100CF000B9696D1C0E98884782460F980560002ED2
:100D000004DD504602F01EFE0028D6D1F9690E9887
:100D10008847FF208BF8000088F80000002006902C
:100D200007904B466A4608A906A8FFF777FEA0057C
:100D300002D46FF001002AE714F0240F0AD0E00774
:100D400014D1DDE906123868031D3B600068C0E974
:100D500000120BE0DDE90601FFF740FC0146E00769
:100D600004D13868021D3A600068016028460EE729
:100D7000000014400000F03FF1D8FFFF426842B18C
:100D8000016811F8013B23B1521EC0E90012184658
:100D900070470121C160881E704742685AB1C3681C
:100DA000016843B983688B4205D0491E521CC0E9D3
:100DB0000012002070474FF0FF3070472DE9F05FC0
:100DC00082460078002715468B460AF10104B94691
:100DD000302801D09DB113E014F8010B01277828C9
:100DE00003D0582801D045B10AE00DB1102D07D12C
:100DF0000027102514F8010B02E0082500E00A2561
:100E00000026B0460EE005FB080005FB06F10127B1
:100E100001EB10461FFA80F8B6F5803F00D3B946C3
:100E200014F8010B294600F018F80028EBDABBF1A2
:100E3000000F05D00FB1641E00E05446CBF800400F
:100E4000B9F1000F06D002F03DFA02210160C81E80
:100E5000BDE8F09F48EA0640FAE73A2800D2303869
:100E600020F02002412A01D3A2F13700884201D3A9
:100E70004FF0FF3070470EB540F23342029200222D
:100E8000CDE900221346FFF7D9FC03B000BDFEE711
:100E9000014800F0BFB8000004080020014800F03D
:100EA000B9B80000A4070020014800F0B3B8000062
:100EB0004407002001681823CAB2103AB2FBF3F2CB
:100EC000054B6FF30901032A9B5CC36500D9091D1B
:100ED00081650846704700003C46000810B5014691
:100EE00000208B698A6A4FF0C07453B1B3F5005F7C
:100EF00015D072B1012A0CD0022A0AD0032A09D1D6
:100F000004E01AB1012A06D0022A03D1C96AC90134
:100F100000D5012010BDC96AA142FAD010BD002A37
:100F2000F7D0012AF2D0022AF3D0032AF3D010BD61
:100F300030B50468256825F4802525600468636061
:100F40008368402B036803D099600068C26030BD9D
:100F50009A600068C16030BD704772B6FEE72DE947
:100F6000F0410446876D00F0D1FA064694F835004A
:100F70000025022806D08020606584F834500120C6
:100F8000BDE8F0812068016821F016010160206849
:100F9000416921F080014161206C08B9A06C20B149
:100FA0002068016821F0080101602068016821F0D3
:100FB000010101600CE000F0A9FA801B052807D9A7
:100FC00020206065032084F8350084F83450D7E78A
:100FD00020680068C007EED194F85C103F2088407C
:100FE000B860012084F8350084F834500020C7E749
:100FF00090F83510022903D0802141650120704707
:10100000052180F835100068016821F001010160B8
:10101000002070472DE9F84304464FF00009CDF851
:10102000009063484FF41651A56D0068B0FBF1F7CE
:101030002E6894F85C10082000FA01F131420FD0BC
:1010400021680A6852070BD50A6822F004020A6078
:1010500094F85C108840A860606D40F00100606505
:1010600094F85C104FF0010808FA01F0304208D003
:1010700021684969090604D5A860606D40F0020046
:10108000606594F85C1004208840304208D02168E4
:101090000968890704D5A860606D40F004006065A8
:1010A00094F85C1010208840304218D021680968FC
:1010B000090714D5A86020680168490304D50068B1
:1010C000000308D5A16C07E00168C90503D40168D5
:1010D00021F008010160216C09B12046884794F88D
:1010E0005C1020208840304231D021680968C90650
:1010F0002DD5A86094F8350005282068016806D031
:10110000490347D5006800031DD4616C1CE021F041
:10111000160101602068416921F080014161206C65
:1011200008B9A06C20B12068016821F008010160B5
:1011300094F85C103F208840A86084F8358084F8DB
:101140003490216D1FE0E16B09B120468847606D46
:1011500000282BD0606DC00714D0052084F835001E
:101160002068016821F0010101600098401C009096
:10117000B84203D820680068C007F6D184F83580EB
:1011800084F83490E16C002910D001B02046BDE80D
:10119000F04308470168C905D5D4016821F0100162
:1011A000016084F8358084F83490CCE7BDE8F8839A
:1011B0001C0000202DE9F041044600F0A7F9064686
:1011C0005CB1022084F83500002584F83450206892
:1011D000016821F0010101600DE00120BDE8F0810E
:1011E00000F094F9801B052805D9202060650320B4
:1011F00084F83500F2E720680068C007F0D1226863
:10120000116820480140D4E901031843D4E90336AA
:101210003343184363691843A3691843E3691843C8
:10122000236A18430843616A042903D1D4E90B13E4
:1012300019430843106020684069666A20F007017E
:1012400030460E43012704280CD1A06A0643E06A09
:1012500040B12046FFF742FE20B14020606584F88F
:101260003570BAE7206846612046FFF723FE94F800
:101270005C203F2191408160656584F835700020D5
:10128000ACE700003F8010F02DE9F0410446866D88
:1012900090F83400002501280DD0012084F8340096
:1012A00094F835700020012F07D084F8340002250F
:1012B0002846BDE8F0810220FBE7022784F835705C
:1012C00060652046FFF734FE94F85C103F208840AC
:1012D000B0602068016841F016010160206C20B107
:1012E0002068016841F0080101602068016841F050
:1012F00001010160DCE7000070B5044600F006F96A
:101300000546601C02D004480078044400F0FEF852
:10131000401BA042FAD370BD100000202DE9F84F09
:10132000DFF8BCA1002201250AF1040B03264FF0CF
:101330000F090BF1040E00BF0B6805FA02F42340FD
:10134000A34270D10F7907F00307012F01D0022FBC
:1013500016D187684FEA420806FA08FC27EA0C070C
:10136000D1F80CC00CFA08FC4CEA070CC0F808C015
:101370004768A7430C79C4F3001494403C4344608D
:101380000C79E443A4070AD0C4684FEA420C06FA79
:101390000CF7BC438F6807FA0CF72743C7600C793A
:1013A00004F00304022C12D1D40800EB840CDCF806
:1013B00020405707FF0E09FA07F824EA0804D1F87D
:1013C000108008FA07F848EA0408CCF8208004687E
:1013D0004FEA420C06FA0CF7BC430F7907F00307FB
:1013E00007FA0CF7274307604C6814F4403F70D0AD
:1013F0003C4C276847F480472760246822F00307A5
:1014000004F480440094384C07EB040CDCF80848E2
:1014100097074FEA177809FA08F7BC43334FB842E9
:1014200002D1002724E054E0314FB84201D1012716
:101430001EE0304FB84201D1022719E02E4FB842CA
:1014400001D1032714E02D4FB84201D104270FE04A
:101450002B4FB84201D105270AE02A4FB84201D1EB
:10146000062705E0284FB84201D1072700E00827EA
:1014700007FA08F72743CCF80878DAF8004057460F
:10148000D1F804C09C435FEACC3C00D51C433C60CF
:10149000DBF800405F46D1F804C09C435FEA8C3C17
:1014A00000D51C433C60DEF800407746D1F804C00C
:1014B0009C435FEACC2C00D51C433C60084F0C37A2
:1014C0003C68D1F804C09C435FEA8C2C00D51C43D7
:1014D0003C60521C102AFFF42FAFBDE8F88F0000CB
:1014E000003C01404438024000300140000002400E
:1014F0000004024000080240000C024000100240BC
:101500000014024000180240001C0240014880689C
:1015100070470000100000200248816802781144E2
:1015200081607047100000200B4810B5016841F43D
:1015300000710160016841F480610160016841F45B
:1015400080710160032000F06FF8002000F006F8C1
:1015500000F024F8002010BD003C024070B50D4D95
:1015600004464FF47A712878B1FBF0F00A49096813
:10157000B1FBF0F000F00AFB48B9102C07D20022B2
:101580002146501E00F030F800206C6070BD012034
:1015900070BD0000100000201C0000200A4808B5A3
:1015A000016841F480410160006800F480400090CF
:1015B0000548001F016841F080510160006800F09B
:1015C0008050009008BD000044380240002809DB2C
:1015D00000F01F02012191404009800000F1E0204D
:1015E000C0F8001170470000F0B40E4B1B680C46A9
:1015F000C3F30223C3F10705042D00D90425191DE7
:10160000072901D2002300E0DB1E012606FA05F1BE
:10161000491E214099409E40761E16403143F0BC41
:1016200001F040BE0CED00E0064900F0070208683A
:101630004FF6FF03184040EA0220034A10430860B7
:10164000704700000CED00E00000FA052DE9F047BE
:101650000E46050065D0DFF81481D8F80000F7B217
:1016600000F00700B04207D288F80070D8F80000F8
:1016700000F00700B04254D128683D4C810712D5D4
:10168000400703D5206840F4E05020602878000728
:1016900003D5206840F4604020602068A96820F0ED
:1016A000F000084320602878C0072DD030496868D2
:1016B0000839012812D0022813D0032811D0096854
:1016C000890700292DDA216821F0030101432160F7
:1016D000FFF71CFF814641F2883A0EE00968890352
:1016E000EFE709688901ECE7FFF710FFA0EB0901BC
:1016F000514502D90320BDE8F0872068696800F0F1
:101700000C00B0EB810FEFD1D8F80010404601F08B
:101710000701B14207D90770006800F00700B04226
:1017200001D00120E7E72878400705D52068E9685F
:1017300020F4E050084320602878000706D5206890
:10174000296920F4604040EAC100206000F038F8C8
:101750002168084AC1F30311515CC840064908607A
:1017600006480068FFF7FAFE0020C4E7003C02408C
:1017700008380240444600081C00002014000020E5
:101780000448054900680968044AC1F38221515C94
:10179000C84070471C00002008380240544600082A
:1017A0000448054900680968044AC1F34231515CA4
:1017B000C84070471C00002008380240544600080A
:1017C000154810B5006810F00C02144813D04110F1
:1017D000042A0FD0082A0ED10F4C241F2268236838
:1017E00002F03F025B0207D52068C0F38810A0FB1F
:1017F000010106E0084610BD2168C1F38811A1FB74
:1018000000010023FEF7DCFC2168C1F30141491C03
:101810004900B0FBF1F010BD083802400024F4008C
:101820002DE9F84F04006ED02078DFF84C93C00704
:10183000A9F104054AD009F104000168C1F381014E
:10184000012908D00068C0F3810002280AD1D9F824
:101850000000400206D52868800337D5606800285C
:10186000E1D033E06068B0F5803F10D0B0F5A02F34
:10187000286810D020F480302860286820F4802068
:1018800028606068A8B1FFF741FE06460DE02868B1
:1018900040F48030F4E740F480202860F7E700BF90
:1018A000FFF734FE801B642873D828688003F7D5BF
:1018B0000CE0FFF72BFE064605E000BFFFF726FE13
:1018C000801B6428F0D828688003F7D42078DFF8DC
:1018D000AC8280074FF0000A3ED5A748001D016882
:1018E00011F00C0F08D00068C0F3810002280BD162
:1018F000D9F80000400207D42868800716D5E068B0
:10190000012800D112E033E1E068B8B10120C8F845
:101910000000FFF7FBFD064605E000BFFFF7F6FD00
:10192000801B0228C0D828688007F7D5286821695D
:1019300020F0F80040EAC10028600DE0C8F800A0DF
:10194000FFF7E4FD064604E0FFF7E0FD801B0228F8
:101950001FD828688007F7D42078000722D5864F43
:1019600087486169703771B101210160FFF7CEFDD1
:10197000064604E0FFF7CAFD801B022809D8386834
:101980008007F7D50EE0C0F800A0FFF7BFFD0646C0
:1019900005E082E0FFF7BAFD801B02287DD8386899
:1019A0008007F7D42078400768D5DFF8CCB100274E
:1019B0000BF13C0BDBF80000C0000BD4DBF800108F
:1019C00041F08051CBF80010DBF80000012700F057
:1019D000805000906B4E3068C00510D4306840F4E1
:1019E00080703060FFF792FD009005E0FFF78EFDFC
:1019F0000099401A022850D83068C005F6D55E4ECE
:101A0000A0686C3601280FD00528306810D020F06F
:101A100001003060306820F004003060A068B8B188
:101A2000FFF774FD00900FE0306840F00100F4E72C
:101A300040F004003060F7E7FFF768FD0099411AB5
:101A400041F28830814266D830688007F4D50EE0D4
:101A5000FFF75CFD009007E0FFF758FD0099411A81
:101A600041F28830814256D830688007F4D42FB1D3
:101A7000DBF8001021F08051CBF80010A069C8B34A
:101A80003D49091D0968C1F3810102294AD0022894
:101A9000504607D0C8F8600000E03CE0FFF736FD94
:101AA00004463BE04746C8F86000FFF72FFD0646B6
:101AB00005E000BFFFF72AFD801B02282BD828680D
:101AC0008001F7D4D4E907010843A16A2E4A4908E6
:101AD00002EB0141626A41EA8211084394F82C103A
:101AE00040EA0161C9F8001001203866FFF70EFDD9
:101AF000044606E03EE000BFFFF708FD001B022899
:101B000009D828688001F7D534E000BFFFF7FEFC54
:101B1000001B022802D90320BDE8F88F2868800145
:101B2000F4D427E00128F7D0D9F80000E26900F4E6
:101B3000800191421CD1226A00F03F01914217D1ED
:101B400047F6C071626A0140B1EB821F10D1A26AF0
:101B50004FF0FF3300F4403103EB5202B1EB024F80
:101B600006D194F82C1000F07060B0EB016F01D03A
:101B70000120D1E70020CFE70438024000004742AF
:101B8000800E4742007000400000FFFF10B5401E6D
:101B9000B0F1807F01D3012010BD4FF0E0246061DF
:101BA0000F21601701F07EFB0020A061072020615B
:101BB000002010BD10B590F83C20012A22D001224F
:101BC00080F83C20CA688C6822F4407222434C683A
:101BD00022F4806222430C6822F4006222430C69E2
:101BE00022F4805222434C6922F400522243C969F4
:101BF000002322F480420A4301684A6480F83C30A2
:101C0000002010BD022010BD70B590F83C20012AC4
:101C100032D0012480F83C40022280F83D20036845
:101C20005A689D6822F070060A6832435A60134B66
:101C300002689A4214D0B2F1804F11D0104B9A42F0
:101C40000ED0104B9A420BD00F4B9A4208D00F4B3C
:101C50009A4205D00E4B9A4202D00E4B9A4204D1C2
:101C6000496825F080031943916080F83D400021C8
:101C700080F83C10084670BD022070BD0000014095
:101C80000004004000080040000C00400004014037
:101C9000004001400018004010B5040003D094F843
:101CA0003D0010B107E0012010BD002084F83C0089
:101CB000204600F01FF8022084F83D00211D206816
:101CC00000F05CFE012084F8460084F83E0084F8B1
:101CD0003F0084F8400084F8410084F8420084F812
:101CE000430084F8440084F8450084F83D00002057
:101CF00010BD000008B500680649884208D10648B2
:101D0000016841F001010160006800F001000090ED
:101D100008BD0000000001404438024070B5044690
:101D200090F83C000025012817D0012684F83C607B
:101D3000022084F83D002068826822F0770222F4B5
:101D40007F4282600868502838D00DDC20284FD0B0
:101D500005DC90B3102811D14AE0022070BD302874
:101D600046D040280AD13BE060282FD070280DD003
:101D7000B0F5805F03D0B0F5005F12D0012584F884
:101D80003D60002084F83C00284670BDCB68D1E956
:101D90000121206800F063FE2068816841F077012E
:101DA00009E0CB68D1E90121206800F058FE2068E5
:101DB000816841F480418160E1E719E0CA684968BF
:101DC000206800F021FF5021206806E0CA684968B9
:101DD000206800F02AFF6021206800F04AFECEE76C
:101DE000CA684968206800F00FFF40212068F4E7C6
:101DF000226801461046F0E710B586B0044614216B
:101E00006846FEF727FA0E492068884216D10D4829
:101E10000021026842F010020260006800F0100029
:101E200005904FF4206000900220CDE901010120CF
:101E3000CDE9031069460448FFF770FA06B010BDFB
:101E400000000140303802400010024070B50446E6
:101E500090F83C0000260D4601280FD0012084F8A0
:101E60003C006AB1042A1DD0082A2FD00C2A3FD08A
:101E70000126002084F83C00304670BD022070BD71
:101E8000206800F0FFFD2068816941F00801816150
:101E90002068816921F004018161206881692A69D3
:101EA000114311E0206800F01DFE2068816941F4B3
:101EB000006181612068816921F48061816120680D
:101EC00081692A6941EA02218161D2E7206800F034
:101ED0003FFE2068C16941F00801C1612068C16905
:101EE00021F00401C1612068C1692A69114311E030
:101EF000206800F061FE2068C16941F40061C161A1
:101F00002068C16921F48061C1612068C1692A69C2
:101F100041EA0221C161ACE710B5040003D094F896
:101F20003D0010B107E0012010BD002084F83C0006
:101F3000204600F01EF8022084F83D00211D206894
:101F400000F01CFD012084F8460084F83E0084F86F
:101F50003F0084F8400084F8410084F8420084F88F
:101F6000430084F8440084F8450084F83D000020D4
:101F700010BD704710B50446022249B104290ED0A5
:101F8000082913D094F84100012816D0012010BD73
:101F900094F83E000128F9D184F83E200FE094F82F
:101FA0003F000128F2D184F83F2008E094F8400077
:101FB0000128EBD184F8402001E084F8412001227F
:101FC000206800F03FFD16492068164A884201D07B
:101FD000904203D1436C43F4004343642068884239
:101FE00013D0B0F1804F10D00F4988420DD00F4967
:101FF00088420AD00E49884207D0904205D00D4948
:10200000884202D00C49884204D1816801F007015E
:10201000062903D0016841F001010160002010BDD4
:10202000000001400004014000040040000800409E
:10203000000C00400040014000180040704710B5FF
:1020400004460068406994F83D10C0F3C01021298F
:1020500011D180B12068143050E8001F21F08001B8
:1020600040E80012002AF5D1606B08B1FEF777FF57
:10207000204600F08EFE2068406994F83E10C0F3C0
:102080008010222911D180B12068143050E8001F3F
:1020900021F0400140E80012002AF5D1A06B08B100
:1020A000FEF75DFF204600F04DFE002010BD70479A
:1020B000F8B5016804460868CA684B6910F00F0F4C
:1020C0004FF0000559D003F0010602F49077374332
:1020D00065D0C10705D0D10503D5216C41F00101C0
:1020E0002164410705D5D90703D0216C41F00201D5
:1020F0002164810705D5D90703D0216C41F0040183
:102100002164010707D502F02001314303D0216C7F
:1021100041F008012164216C00293AD0800604D5E1
:10212000900602D5204600F042FE20684069216CEE
:10213000C0F38010090700D460B3204600F002FE0F
:1021400020684069400621D52068143050E8001FFF
:1021500021F0400140E80012002AF5D1A06BA8B19F
:102160006C490165A06BFEF743FF002811D0A06BFE
:10217000016D01B0BDE8F040084783060FD5930616
:102180000DD52046BDE8F84000F011BE2046FFF70F
:102190008EFFF8BD2046FFF78AFF2564F8BD266B49
:1021A0002023012E79D1C60677D5D60675D50868C5
:1021B000486800904869400640D5A16B08684068AF
:1021C0000004000CEAD0A28D8242E7D9E085C869FC
:1021D000B0F5807F2DD020680C3050E8001F21F42E
:1021E000807140E80012002AF5D12068143050E8D0
:1021F000001F21F0010140E80012002AF5D12068FB
:10220000143050E8001F21F0400140E80012002A7D
:10221000F5D184F83E30256320680C3050E8001F6B
:1022200021F0100140E80012002AF5D1A06BFEF762
:1022300096FEA08DE18D401A81B229E0A08DE18D3E
:10224000401A81B2E08D0028A8D00029A6D02068CD
:102250000C3050E8002F22F4907240E80026002E47
:10226000F5D12068143050E8002F22F0010240E838
:102270000026002EF5D184F83E30256320680C300E
:1022800050E8002F22F0100240E80023002BF5D187
:102290002046FFF7D3FEF8BDFFE705062BD5150650
:1022A00029D594F83D002128F5D1A068B0F5805FCC
:1022B00001D12069B0B1206A411C216221680078F7
:1022C0004860E08C401E0004000CE084E3D12068EC
:1022D000C16821F08001C1602068C16841F04001FF
:1022E000C160D8E7206A0088C0F308004860206A0F
:1022F000801C2062E5E74006CDD55006CBD5CA68E4
:10230000204622F04002CA6084F83D3000F0B3F964
:10231000C1E700004F2C000870B5040004D094F809
:102320003D00002510B106E0012070BD84F83C504E
:10233000204600F023F8242084F83D002068C1687E
:1023400021F40051C160204600F092FD206801692F
:1023500021F4904101612068416921F02A01416125
:102360002068C16841F40051C1602564202084F8D0
:102370003D0084F83E00002070BD00002DE9F047CC
:1023800086B0054614216846FDF764FF7948DFF8FA
:10239000E0810221D5F800C0002403220723DFF8E2
:1023A000D8A18E060715C44546D1DFF8C8C10CF187
:1023B000140CDCF8008048F01008CCF80080DCF841
:1023C00000C00CF0100CCDF814C0D0F800C04CF0D8
:1023D000010CC0F800C0006800F001000590500238
:1023E0008DE8130069465046CDE90323FEF796FFBA
:1023F000DFF88C8161494046C8F80010C0E90164EB
:10240000C0E90347C8F81440C8F81840C8F81C4091
:10241000C8F82040C8F82440FEF7CCFE08B1FEF70B
:102420009CFDC5F83880002211462520C8F8385098
:10243000FFF7DAF825204BE0DFF84881DFF8349128
:10244000C44509F1100948D1D9F8008048F4003892
:10245000C9F80080D9F800C00CF4003CCDF814C0D5
:10246000D0F800C04CF0010CC0F800C0006800F0CB
:10247000010005900C208DE8130069465046CDE917
:102480000323FEF74BFFDFF8F8803F4908F16008AF
:102490004046C8F80010C0E90164C0E90347C8F825
:1024A0001440C8F81840C8F81C40C8F82040C8F8C4
:1024B0002440FEF77FFE08B1FEF74FFDC5F83880D7
:1024C000002211462620C8F83850FFF78DF8262044
:1024D000FFF77CF806B0BDE8F087DFF8B080C445B0
:1024E000F8D1D9F8008048F48028C9F80080D9F8DC
:1024F00000C00CF4802CCDF814C0D0F800C04CF013
:10250000020CC0F800C0006800F0020005904FF413
:1025100040608DE8130069461D48CDE90323FEF7AE
:10252000FDFEDFF85C80184908F1C00860394046BC
:10253000C8F80010C0E90164C0E90347C8F81440B6
:10254000C8F81840C8F81C40C8F82040C8F8244013
:10255000FEF730FE08B1FEF700FDC5F83880002216
:1025600011462720C8F83850FFF73EF82720AFE77C
:102570000010014030380240000002404064024038
:1025800044070020004400408860024000480040AA
:102590000004024090F83E30202B0ED159B152B1C8
:1025A00090F83C30012B08D0012380F83C30002308
:1025B000036300F0E3BC01207047022070477047BE
:1025C000704700002DE9F843044690F83D001F468F
:1025D00016460D4620284CD1C5B1BEB194F83C003A
:1025E000012846D0012084F83C004FF00008C4F8D0
:1025F0004080212084F83D00FEF788FFA6848146B4
:10260000E684A068B0F5805F03D004E00120BDE857
:10261000F883206928B12E465FF0000584F83C80DD
:102620000EE00026FAE78021204600F0EFFCA0B97A
:10263000AEB116F8010B21684860E08C401EE084C2
:10264000E08C4B464FF0000200970028EBD14FF092
:102650004001204600F0DAFC30B10320D7E735F81E
:10266000020BC0F30800E6E7202084F83D000020BC
:10267000CDE70220CBE77047FEE70000154808B51C
:10268000016841F400110160016801F4001100913A
:10269000016841F4800101600068002200F48000BC
:1026A000009011460C20FEF79FFF0C20FEF78EFFD6
:1026B000002211461020FEF797FF1020FEF786FF3C
:1026C000002211463A20FEF78FFFBDE808403A206D
:1026D000FEF77CBF30380240154808B5016841F06C
:1026E00004010160016801F004010091016841F0FA
:1026F00080010160016801F080010091016841F0F2
:1027000001010160016801F001010091016841F0DF
:1027100010010160016801F010010091016841F0B1
:1027200002010160006800F00200009008BD000096
:102730003038024010B596B000240F9410941194D4
:10274000129413941C2168461494FDF783FD2021F4
:1027500007A8FDF77FFD2C482A490160A721C0E9A1
:10276000011444F62061C0E9031444618461FFF759
:1027700093FA08B1FEF7F1FB4FF480500F900FA9C8
:102780002148FFF7CBFA08B1FEF7E7FB1E48FFF739
:10279000C3FB08B1FEF7E1FB139413A91A48149484
:1027A000FFF732FA08B1FEF7D8FB6020CDE900044C
:1027B00002940394049405940022694612480694F6
:1027C000FFF744FB08B1FEF7C8FB042269460E4838
:1027D000FFF73CFB08B1FEF7C0FB0794089409948F
:1027E0004FF400500A94CDE90B4007A906480E9417
:1027F000FFF7E0F908B1FEF7B0FB0348FFF7FCFA7A
:1028000016B010BD00000140300000200C4810B58B
:102810000A4901604FF4E1314160002181600C22DE
:10282000C160C0E904128161C161FFF775FD002834
:1028300003D0BDE81040FEF790BB10BD0010014072
:10284000780600200C4810B50A4901604FF4E131C8
:102850004160002181600C22C160C0E904128161E5
:10286000C161FFF759FD002803D0BDE81040FEF715
:1028700074BB10BD00440040BC06002010B5114CD4
:102880000F480C2120604FF4E13060600020A06010
:10289000E060C4E90401A061E0612046FFF73CFD6F
:1028A00008B1FEF75AFB2068C16841F01001C16011
:1028B000BDE810404FF4007203490248FFF76ABEBA
:1028C000004800400007002078040020FEE7FEE7F3
:1028D00070477047FEF720BE30B593B03021684690
:1028E000FDF7B8FC14210CA8FDF7B4FC1D48002529
:1028F000016841F080510160006800F08050119043
:102900001948016841F4804101600068022400F424
:102910008040119001200090000401908001CDE9D9
:10292000064008200890A820CDE9090404200B9057
:102930006846FEF775FF08B172B6FEE70CA90F20D6
:1029400081E831004FF4A0500F904FF48050109068
:1029500002210CA8FEF77AFE002801D072B6FEE72D
:1029600013B030BD4038024000700040024801689A
:1029700041F470010160704788ED00E0F0B5026835
:10298000254C264D264E274F274B4FF0804CA0421A
:1029900009D0604507D0A84205D0B04203D0B84264
:1029A00001D0984204D122F0700E4A6842EA0E0229
:1029B000A0421BD0604519D0A84217D0B04215D014
:1029C000B84213D0984211D0184DA8420ED0184DDD
:1029D000A8420BD0174DA84208D0174DA84205D0E9
:1029E000164DA84202D0164DA84203D122F44075DC
:1029F000CA682A434D6922F080022A4302608A682D
:102A0000C2620A688262A04201D0984201D109697B
:102A1000016301214161F0BD00000140000400405C
:102A200000080040000C004000040140004001404C
:102A3000004401400048014000180040001C0040D4
:102A40000020004010B501F01F030121046A9940E5
:102A50008C430462016A9A401143016210BD10B5B3
:102A6000846842EA032224F47F440A4322438260BA
:102A700010BD826822F070020A4342F007018160B3
:102A800070470000F0B5026A22F001020262036A98
:102A900042688469124E24F073050C682C4323F0BD
:102AA00002058B682B430D4DA84201D0B04205D1E1
:102AB00023F00807CB683B4323F00403A84201D06E
:102AC000B04205D14D6922F4407215438A692A4308
:102AD00042608461496841630362F0BD00000140C7
:102AE00000040140F0B5026A22F010020262026A9C
:102AF000436884690D6824F4E64444EA05248D683B
:102B000022F0200242EA05120F4D104EA84201D0D9
:102B1000B04206D1CF6822F0800242EA071222F0CA
:102B20004002A84201D0B04207D14D6923F440636E
:102B300043EA85038D6943EA8503436084614968FC
:102B400081630262F0BD000000000140000401400A
:102B5000F0B5026A22F480720262026A4368C469B4
:102B600022F4007224F073050C68124E2C438D6819
:102B700042EA05220E4DA84201D0B04206D1CF68EC
:102B800022F4006242EA072222F48062A84201D0C5
:102B9000B04207D14D6923F4405343EA05138D69D0
:102BA00043EA05134360C4614968C1630262F0BD32
:102BB000000001400004014030B5026A22F4805256
:102BC0000262046A4268C3690D6823F4E64343EA7B
:102BD00005238D6824F4005444EA0534084DA842C6
:102BE00002D0084DA84204D14D6922F4804242EA45
:102BF00085124260C36149680164046230BD00000F
:102C0000000001400004014010B5036A046A24F08A
:102C100001040462846924F0F00444EA021423F0FD
:102C20000A020A438461026210BD10B5036A23F0F0
:102C3000100303628369046A23F4704343EA023297
:102C400024F0A00343EA01118261016210BD10B5B6
:102C5000806B0021C185C184FFF729FA10BD70B5D2
:102C6000846B2068406994F83D10C0F3C0100025C3
:102C7000212904D118B1E584204600F08AF82068A3
:102C8000406994F83E10C0F38010222904D118B195
:102C9000E585204600F056F8206C40F010002064D6
:102CA0002046FFF704FA70BD10B50146806B096835
:102CB0000968C9052FD40021C18501680C3151E88C
:102CC000002F22F4807241E80023002BF5D1016827
:102CD000143151E8002F22F0010241E80023002BBB
:102CE000F5D10168143151E8002F22F0400241E88B
:102CF0000023002BF5D1202180F83E10016B012923
:102D000009D101680C3151E8002F22F0100241E88E
:102D10000023002BF5D1016B012902D0FFF74FFCF6
:102D200010BD818DFFF78AF910BD10B5806B016B66
:102D3000012902D0FFF744FC10BD818D4908FFF73F
:102D40007DF910BD01680C3151E8002F22F490721A
:102D500041E80023002BF5D10168143151E8002F20
:102D600022F0010241E80023002BF5D1016B01297B
:102D700009D101680C3151E8002F22F0100241E81E
:102D80000023002BF5D1202180F83E1000210163A3
:102D9000704701680C3151E8002F22F0C00241E871
:102DA0000023002BF5D1202180F83D10704708B595
:102DB00090F83E10222901D0022008BD82684FF40D
:102DC00080539A4201D1016921B1816A9A421BD094
:102DD0004AB10AE00268816A5268C2F308020A80B6
:102DE000816A891C08E0026972B10268526802F0C7
:102DF0007F020A70816A491C8162C18D491E0904E3
:102E0000090CC18503D019E002685268F1E7016836
:102E1000CA6822F02002CA600168CA6822F480727F
:102E2000CA6001684A6922F001024A61202180F8E3
:102E30003E10016B012903D0FFF7C1FB002008BD44
:102E40000021016301680C3151E8002F22F01002CB
:102E500041E80023002BF5D101680A68D20602D5AB
:102E60000A6849680091818DFFF7E8F8E6E70000FD
:102E700070B5044600680169E26821F440511143CD
:102E800001612169A068E26908436169114308434F
:102E90002168CA6849F20C639A430243CA602068F9
:102EA0004169A26921F440711143416131492068AF
:102EB000884202D03049884202D1FEF771FC01E01D
:102EC000FEF75EFCE2690023192164253226B2F583
:102ED000004F626828D0A0FB0101930F9200FDF71C
:102EE0006FF90146B0FBF5F06FF01802504301EBAB
:102EF000800006EB0010B0FBF5F000F0F002B1FB33
:102F0000F5F002EB0012B1FBF5F06FF01803584337
:102F100001EB800006EB0010B0FBF5F000F00F00B5
:102F200021681044886070BDA0FB010192185B41CC
:102F3000FDF746F90146B0FBF5F00201B1FBF5F0F3
:102F40006FF01803584301EB800006EBC000B0FBA4
:102F5000F5F000F0F80002EB4002B1FBF5F0584349
:102F600001EB800006EBC000B0FBF5F000F00700BD
:102F7000D6E70000001001400014014038B581621E
:102F800082850025134604460564222084F83E000D
:102F9000A26B1B48D063A26B1A481064A26B1A483C
:102FA000D064A06B0A4605652168A06B091DFEF779
:102FB0006BF9206801684068009084F83C502068F4
:102FC0000C3050E8001F41F4807140E80012002AE4
:102FD000F5D12068143050E8001F41F0010140E8AD
:102FE0000012002AF5D12068143050E8001F41F08B
:102FF000400140E80012002AF5D1002038BD000051
:10300000A92C00082B2D00085F2C00082DE9F041A9
:10301000984617460E460446069D27E0681C25D0B4
:103020002DB1FEF773FAA0EB0800A8421ED9206864
:103030000C3050E8001F21F4D07140E80012002A43
:10304000F5D12068143050E8001F21F0010140E85C
:103050000012002AF5D1202084F83D0084F83E00BB
:10306000002084F83C000320BDE8F081206800685F
:1030700036EA000004D00020B842CFD00020F3E7A9
:103080000120F9E710B50748FFF712F80548006876
:103090000068C043C00604D4BDE81040014800F0F9
:1030A00027B810BD7806002010B50748FFF700F8D4
:1030B000054800680068C043C00604D4BDE810405D
:1030C000014800F015B810BDBC06002010B5074837
:1030D000FEF7EEFF054800680068C043C00604D450
:1030E000BDE81040014800F003B810BD0007002003
:1030F0002DE9F84F8346FEF7A2FF282001F06EF974
:103100003F4980460026DBF800000968B146884246
:103110000BD13B48E830006840683A4DC0F5007478
:10312000294639A000F096F81FE035494431096876
:1031300088420AD13948006840683949C0F50074AE
:1031400038A000F087F8364D0FE02D494439096862
:1031500088420AD12A488830006840683649C0F55C
:10316000007436A000F076F8334D20200027285553
:10317000641C61202855641C1DE0E85D202802D0F5
:10318000601E874216D1A7EB090A0AF1010001F07F
:1031900025F948F82600524605EB0901FDF741F8EC
:1031A00058F826200021761C02F80A1007F10109C0
:1031B0000A2E02DA7F1CA742DFDB4146304600F0D0
:1031C00061FF21462846FDF745F8002405E000BFD1
:1031D00058F8240001F07AF8641CB442F8DB404649
:1031E00001F074F84FF4007229465846FFF7D2F9FF
:1031F000DBF80000016840680090BDE8F88F00002F
:10320000BC060020780200207573617274325F6220
:1032100075666665723A25730A000000040800208E
:10322000780400207573617274335F627566666539
:10323000723A25730A0000007800002075736172ED
:1032400074315F6275666665723A25730A00000024
:10325000FEE700000FB4054B10B503A9044A02981D
:1032600000F078FB10BC5DF814FB0000B5420008CC
:103270002000002003B401984100009850EAC120CA
:1032800018BF04204A0D18BF40F0010040F2FF7241
:10329000B2EB515F08BF40F00200012808BF0520D3
:1032A00002B070470907090E002804DB00F1E02096
:1032B00080F80014704700F00F0000F1E02080F863
:1032C000141D7047004870472C00002000000000CB
:1032D00070B59B482DED020B2DED068B079D25F05B
:1032E0000044A04218DC9748844202DC0AD10698C8
:1032F00040B19DED060BBDEC068B02B0BDE8704001
:1033000000F027BA002DCCBF9FED8F0B9FED900BE7
:10331000BDEC068B02B070BD8F48A04215DD8F4812
:10332000A042D8BF4FF0FF3458DD9DED060B51ECA5
:10333000100BFFF79FFF042808BF00F015FA9DED62
:10334000060BBDEC068B02B070BD9DED060B51EC7B
:10335000100B00F0A3FFCDE9060181489FED828BA1
:10336000A0423CDD8248A0421FDD00249FED82ABDD
:103370009DED060B53EC1A2B51EC100BFCF782FF62
:103380009DED060B41EC190B53EC1A2B51EC100B75
:10339000FDF71FF853EC182BFDF715F853EC192B1C
:1033A000FDF789F8CDE9060149E09DED060B012402
:1033B00053EC182B51EC100BFCF764FF9DED060B42
:1033C00041EC190B53EC182B51EC100BFCF7FBFFE5
:1033D00053EC192BFDF76FF8CDE906012FE0684893
:1033E000A0421FDD02249FED689B9DED060B53EC70
:1033F000192B51EC100BFCF7ECFF53EC182BFCF7DE
:1034000041FF9DED060B41EC180B53EC192B51ECD1
:10341000100BFCF7D8FF53EC182BFDF74CF8CDE957
:1034200006010CE09DED060B032453EC102B9FEDE1
:10343000580B51EC100BFDF73EF8CDE906019DED60
:10344000060B53EC102B51EC100BFCF7C2FF41ECB8
:10345000180B53EC182BFCF7BCFF41EC190B4E4832
:103460000621B0EE490AF0EE690A784400F0F5F85A
:1034700053EC182B51EC100BFCF7ABFF41EC180B85
:103480004648B0EE490AF0EE690A0521784400F09A
:10349000E4F853EC192B51EC100BFCF79AFF41ECBC
:1034A000100B51EC180B53EC102B002C0EDAFCF720
:1034B000E9FE9DED061B53EC112BFCF78AFF9DEDF9
:1034C000061B53EC112BFCF781FF35E0FCF7DAFE0D
:1034D0009DED061B53EC112BFCF77BFF41EC100B11
:1034E0002F48784400EBC40090ED001B51EC100B0A
:1034F00053EC112BFCF767FF9DED061B53EC112BD2
:10350000FCF761FF41EC100B2648784400EBC40047
:1035100090ED001B51EC100B53EC112BFCF756FFF8
:1035200041EC100B002DA2BFBDEC068B02B070BDAC
:1035300051EC100B81F0004141EC100B01E7000051
:10354000000010440000F07F182D4454FB21F93F87
:10355000182D4454FB21F9BF0000DC3F0000203E41
:103560000000F33F00000000000000000000F03FFA
:103570000000E63F000000000000000000000040E6
:103580000080034000000000000000000000F83F41
:10359000000000000000F0BF5A12000010120000EE
:1035A0009A1100005211000030B583B0044600F0BB
:1035B000EBF89FED090B05468DED000B002221462F
:1035C0006846FDF78AF8284600F0F4F89DED000BF8
:1035D00003B030BD0000000000000000000000004B
:1035E00000B52DED048BB0EE409AF0EE609A83B0FA
:1035F00051EC190BFDF770F941EC180B18EE100A9D
:1036000018EE901A8DED008B002818BF012008439A
:1036100020F00040C0F17F6000F1E040C00F14D006
:1036200019EE101A19EE900A8DED009B002918BFB3
:103630000121084320F00040C0F17F6000F1E0402C
:10364000C00F04BF012000F0B5F8B0EE480A03B087
:10365000F0EE680ABDEC048B00BD70B504462DED9C
:10366000028B4D1E00EBC500B0EE408AF0EE608A82
:1036700090ED000B35F0060017D053EC182B51ECF1
:10368000100BFCF7A6FE41EC100B6D1E04EBC50001
:1036900090ED001B51EC100B53EC112BFCF7F2FDDD
:1036A00041EC100B35F00600E7D1022D36D0042D89
:1036B0001CD0062D1CBFBDEC028B70BD53EC182B2B
:1036C00051EC100BFCF785FE94ED0A1B53EC112B0B
:1036D000FCF7D8FD53EC182BFCF77BFE94ED081B90
:1036E00053EC112BFCF7CEFD41EC100B53EC182BD7
:1036F00051EC100BFCF76DFE94ED061B53EC112BF7
:10370000FCF7C0FD53EC182BFCF763FE94ED040BA3
:1037100053EC102BFCF7B6FD41EC100B53EC182BBF
:1037200051EC100BFCF755FE94ED021B53EC112BE2
:10373000FCF7A8FD53EC182BFCF74BFE94ED001B97
:1037400053EC112BFCF79EFDBDEC028B41EC100BF2
:1037500070BD10B553EC102B51EC100BFCF792FD23
:1037600041EC100B10BD00009FED050B10B553ECA4
:10377000102B51EC100BFCF72CFE41EC100B10BD84
:1037800000000000000000100148006870470000C1
:103790002C00002002E008C8121F08C1002AFAD13C
:1037A00070477047002001E001C1121F002AFBD1C1
:1037B0007047000001490860704700002C0000209D
:1037C0002DE9FF5F82B00021DDE90430020DDDF854
:1037D00040B0034318D044F61050A2F2FF324243E7
:1037E0001514119801281FD0A5EB0B00401C5FEAAF
:1037F000000A4FF000064E4FDFF83891B0465046B1
:1038000015D5CAF1000413E0119801244AA3012838
:1038100001D16FEA0B010298119AC0E90031C0E9A9
:10382000024206B0BDE8F09FCBF10000DFE704469E
:103830000021404A491842EB0450CDE9001012E043
:10384000E00707D032463B4640464946FCF7C1FDFB
:103850008046894632463B4610461946FCF7B9FD7C
:1038600006460F466410002CEAD1DDE90401DDE9CB
:103870000023BAF1000F06DAFCF7ABFD42464B46D7
:10388000FCF7A7FD05E0FCF716FE42464B46FCF7A9
:1038900012FE04460E460022284BFDF787F803D897
:1038A0004FF0FF30014607E00022254B204631460D
:1038B000FCF7E8FCFDF761F8102409E0002C0ADBB6
:1038C0000A220023FCF77CFC039B30321A55641E4D
:1038D00050EA0102F2D1641C039AC4F111031444AA
:1038E000119A012A03D0012208430DD10AE00843AE
:1038F00004D000204FF0110B119072E7A3EB0B05E1
:103900006D1E0DE05B4504DD4FF0000205F1010581
:1039100004E003DA4FF00002A5F10105002AECD023
:1039200002981199C0E90231C0E9004579E7000029
:10393000000014400000F03F300000000000F043A1
:103940000000E03F30380A2801D2012070470020F3
:10395000704700002DE9FF4F95B09B46894606460B
:1039600000250FE2252877D100242746F84A0121B7
:10397000059400E0044316F8013F203B01FA03F0F0
:103980001042F7D130782A2811D06FF02F03307809
:10399000A0F13002092A16D8059A44F0020402EB7D
:1039A000820203EB42021044761C0590EFE759F8BF
:1039B000042B0592002A03DA504244F40054059087
:1039C00044F00204761C30782E2816D116F8010F28
:1039D00044F004042A280DD06FF02F023078A0F1B3
:1039E0003003092B09D807EB870302EB4303C71801
:1039F000761CF3E759F8047B761C30786C280FD0DE
:103A000006DC4C2817D068280DD06A2814D104E0B1
:103A1000742810D07A280FD10DE044F400140AE085
:103A200044F4801401E044F440147278824202D1DC
:103A300004F58014761C761C307866280BD013DCD5
:103A4000582877D009DC002875D04528F6D04628BC
:103A5000F4D047281AD19DE118E0632835D06428B6
:103A600079D0652812D195E1702873D008DC6728D9
:103A7000F1D069286FD06E280DD06F2806D1B5E03F
:103A800073282CD0752875D0782874D05A46179989
:103A900090476D1C75E1C4F30250022809D0032839
:103AA0000DD0D9F8001004280DD00D6009F10409DB
:103AB00067E1D9F80010EA17C1E90052F6E7D9F832
:103AC00000100D80F2E70D70F0E719F8041B8DF877
:103AD000001000208DF80100EA46012003E059F8AB
:103AE00004AB4FF0FF3061074FF0000102D40DE04E
:103AF00008F101018846B9420FDA8045F8DB1AF86F
:103B000008100029F4D108E008F10101884681423B
:103B1000FADB1AF808100029F6D105985B46A0EBED
:103B2000080721463846179A00F094FA284400EB1B
:103B3000080507E04DE029E10DE01AF8010B5A46AF
:103B400017999047B8F10108F7D25B4621463846ED
:103B5000179A13E142E00A220092C4F302524FF096
:103B6000000A022A08D059F804CB032A4FEAEC7164
:103B70000AD00DE029E02AE009F1070121F007024F
:103B8000F2E802C1914609E00FFA8CFC4FEAEC71B1
:103B9000042A03D14FFA8CFC4FEAEC71002907DAB2
:103BA0000A460021DCF1000C61EB02012D2202E04B
:103BB000220504D52B228DF80420012203E0E20720
:103BC00001D02022F7E7904659E00A2102E01022B6
:103BD0000DE010214FF0000A00910BE010224FF091
:103BE000000A44F004040827009203E008224FF082
:103BF000000A0092C4F30252022A05D059F804CBFD
:103C00000021032A08D009E009F1070121F0070289
:103C1000F2E802C1914605E01FFA8CFC042A01D1AA
:103C20000CF0FF0C4FF00008220728D5702806D0B2
:103C3000009B83F0100353EA0A0305D00EE04022F4
:103C40008DF80420012208E05CEA010206D030224F
:103C50008DF804208DF8050002229046009B83F029
:103C6000080353EA0A030AD15CEA010201D16207A0
:103C700005D530228DF804204FF001087F1E58280A
:103C800004D034A003900EA802900DE036A0F9E70E
:103C900053466046009AFCF793FA84460398825C88
:103CA0000298401E029002705CEA0100F0D1029876
:103CB00006A9081A00F1200A600702D524F480340E
:103CC00000E00127574502DDA7EB0A0000E00020D5
:103CD00000EB0A01009005984144401A0590E0036A
:103CE00006D45B462146179A059800F0B3F90544BF
:103CF000002706E001A85A46C05D179990476D1C41
:103D00007F1C4745F6DBE0030CD55B462146179A3E
:103D1000059800F09FF9054404E030205A461799B1
:103D200090476D1C0099481E00900029F5DC08E0C2
:103D3000029802995A460078491C029117999047B7
:103D40006D1CBAF10001AAF1010AF1DC65E1000085
:103D50000928010030313233343536373839616261
:103D60006364656600000000303132333435363725
:103D700038394142434445460000000000F058F9FC
:103D80000544761C307800287FF4ECAD19B0284645
:103D9000BDE8F08F620700D4062709F1070222F080
:103DA000070CFCE80223E14603F000485FEA080C38
:103DB00002D00FF2702C0DE05FEA045C02D50FF226
:103DC000682C07E05FEAC47C02D00FF2602C01E0AF
:103DD000AFF2700C4FF0FF3823F00043CDF850C025
:103DE00065280CD006DC452809D046281DD0472878
:103DF0003DD13DE0662818D067287ED138E000210B
:103E0000112F01DB112000E0781CCDE9000106A98B
:103E10000EA8FFF7D5FCDDE90F010E9A03910021F2
:103E2000009207F1010A04914DE04FF00040009725
:103E3000CDE9011006A90EA8FFF7C2FCDDE90F02CB
:103E400003920E9B11990022DDF80CA000930492BE
:103E500011B9791C00EB010AB7EB0A0004D4C0F1D8
:103E6000FF3007F1010A0490AAEB0700019044E03B
:103E7000012F00DA01270021112F01DD112000E0C0
:103E80003846CDE9000106A90EA8FFF799FCDDE947
:103E90000F010E9A0391002104910092BA46210766
:103EA0000CD40399514500DA8A46BAF1010F05DDB9
:103EB000009AAAF10101515C302908D0B84202DA17
:103EC00010F1040F06DA0121CDE9011015E0AAF185
:103ED0000101E9E7002805DC049901440491AAEBFB
:103EE000000102E0411C514500DD8A460499401A58
:103EF000401C01904FF000400290200704D401982C
:103F0000504501DBCDF8048000208DF84F00029869
:103F10000DF14F07B0F1004F25D02B200E900298E5
:103F20004FF0020800280CDA404202902D200E903B
:103F300007E00A210298FCF76DFB3031029007F888
:103F4000011DB8F10001A8F10108F2DC0298002877
:103F5000EFD1791E0E980870307800F0200040F004
:103F6000450007F8020D12A8C01B00F107081498BD
:103F7000007800B1012000EB0A01019801EBE0712B
:103F800005984144401A401E0590E00306D45B4664
:103F90002146179A059800F05DF8054414980078BA
:103FA00018B15A46179990476D1CE00324D55B461B
:103FB0002146179A059800F04DF805441CE0049836
:103FC000002807DBDDE90301884203DD0098405C3F
:103FD000179901E0179930205A469047049805F147
:103FE0000105401C04900198401E019004D12E2030
:103FF0005A46179990476D1CBAF10001AAF1010ABF
:10400000DDDC05E017F8010B5A46179990476D1C47
:10401000B8F10001A8F10108F4DC5B462146179ACB
:104020000598ABE62D0000002B00000020000000EA
:104030002DE9F041044600251E461746880404D4A5
:1040400005E039462020B0476D1C641EF9D528468E
:10405000BDE8F0812DE9F041044600251E4690465A
:10406000C80301D5302700E02027880404D505E0E7
:1040700041463846B0476D1C641EF9D52846BDE858
:10408000F08100002DE9FC410E46074600254FF463
:10409000E178634C7DE000BF56F8251061A0FFF782
:1040A000D9F856F8252004215FA000F037F9002840
:1040B00050D06D1C56F82500FCF7D7F8B0F57A7F84
:1040C00066D200EE100A5A49B8EEC00A10EE100A85
:1040D00084ED000A884209D1404600F0B5F941203C
:1040E00000F0D0F953A0FFF7B5F851E010EE100A38
:1040F0005449884204D1404600F0A6F94B2008E01C
:1041000010EE100A5049884206D1404600F09CF952
:10411000552000F0B7F93BE010EE100A4B498842F9
:1041200004D1404600F090F95F20F2E710EE100A4B
:104130004749884204D1404600F086F96920E8E703
:1041400010EE100A4349884222D1404600F07CF923
:104150007320DEE756F8252004213FA000F0DEF8AA
:10416000B0B16D1C56F82500FFF71EFA51EC100B8C
:10417000FCF734FA00EE100AB5EEC00AF1EE10FAC0
:1041800006DB10EE100A3649884201DC84ED010A94
:104190006D1CBD4280DB6068FCF70DFA05460E46DB
:1041A0002068FCF708FA41EC100BCDE9005653ECFF
:1041B000102B2CA0FFF74EF894ED010ABDEEC00ABB
:1041C00010EE101A94ED000ABDEEC00A10EE100AAF
:1041D00000F078F984ED020A94ED010ABDEEC00A00
:1041E00010EE101A94ED000ABDEEC00A10EE100A8F
:1041F00000F0D4F984ED030A10EE100AFCF7DBF9A5
:1042000005460E46A068FCF7D6F941EC100BCDE947
:10421000005653EC102B1AA0FFF71CF8BDE8FC81E8
:104220000000002025732000706F737800000000EC
:104230000000444274342E7478743D2261726561CA
:10424000203122000000484200004C420000504251
:104250000000544200005842706F73790000000063
:1042600000C079440D0A706F735F783A2025662C80
:1042700020706F735F793A2025660D0A00000000F8
:10428000616E676C655F613A2025662C20616E6700
:104290006C655F623A2025660D0A000082B0CDE9A8
:1042A000000121F0004001909DED000B02B051ECA7
:1042B000100B704713B54FF6FF7301226946024891
:1042C000FEF780F900981CBD0007002010B50028FB
:1042D00021D0114B0022001F196803E0814203D84E
:1042E0000A4649680029F9D152B11368841A9C42E0
:1042F00004D1006818441060104602E0506000E0ED
:10430000186039B102680B1A934203D10B681A4442
:1043100002604968416010BD2400002030B529B119
:10432000002306E0C45CD55CAC4201D0002030BD67
:104330005B1C8B42F6DB012030BD0000FDF7F4F87A
:10434000FEF7CAFAFEF7C8F9FEF798F9FEF7F2F998
:10435000FEF75CFAFEF776FAFEF790FA15A0FEF784
:1043600079FF00211548FDF705FE04211348FDF7EC
:1043700001FE4FF4FA7000F067F85A2000F082F85E
:1043800040F6B830FCF7B8FF4FF4F07000F05CF87E
:10439000412000F077F80B489FED090A4FF496741E
:1043A00080ED000A08A0FEF755FF2046FCF7A4FFA9
:1043B000F8E70000496E69740D0A00003000002023
:1043C0000000B4420000002074342E7478743D2242
:1043D00061726561203122FFFFFF0000F0B50B30F4
:1043E000154D20F007010024144A0FE003688B42AA
:1043F0000BD38B4205D95E1A43184768C3E900679F
:1044000000E04368136002C004E0021D1068002849
:10441000ECD12046002802D1286808B10020F0BD68
:10442000064A07481060074A121A22F00702C0E93C
:10443000002401202860D7E7280000202400002065
:104440006C080020680A002010B504464FF4FA609A
:104450006043B42190FBF1F103A03231FEF7FAFE84
:1044600007480068846310BD636F756E7465725F82
:104470007472616E735F683A25640D0A0000000073
:104480003000002010B54FF47A714843B42190FBFE
:10449000F1F404F59674214603A0FEF7DBFE08480C
:1044A0000068446310BD0000636F756E7465725FD1
:1044B0007472616E735F6C3A3A25640D0A000000F5
:1044C0003000002010B52DED028B0C46FCF762F891
:1044D0009FED251B53EC112BFBF775FFFCF77EF8C6
:1044E00000EE104A08EE900AF8EEC00A88EEA00A24
:1044F00010EE100AFCF75FF841EC100BFEF7E8FE37
:104500009FED1B1B51EC100B53EC112BFBF7D3FF52
:104510009FED191B53EC112BFBF75BFFFCF75EF8CB
:1045200000EE104A08EE100AF8EEC00A88EEA00A63
:1045300010EE100AFCF73FF841EC100B10A053EC02
:10454000102BFEF787FE18EE100AFCF734F841EC4A
:10455000100B0EA053EC102BFEF77CFEB0EE480AB9
:10456000BDEC028B10BD00000000000000C06240E6
:104570004AD8124DFB21094000000000008066402F
:1045800064782F793A2025660D0A0000616E676C09
:1045900065413A2025660D0A0000000010B5C0F103
:1045A0009600404301FB01002DED028BFBF7F2FF6B
:1045B00041EC100BFFF714F89FED161B51EC100B9C
:1045C00053EC112BFBF777FF41EC100BFEF780FE4D
:1045D0009FED121B51EC100B53EC112BFBF76BFFF3
:1045E0009FED101B53EC112BFBF7F3FEFBF7F6FFCF
:1045F00008EE100A18EE100AFBF7DDFF41EC100B75
:104600000AA053EC102BFEF725FEB0EE480ABDECD5
:10461000028B10BD00000000000059404AD8124D26
:10462000FB2109400000000000806640616E676C5D
:1046300065423A2025660D0A0000000000061016AB
:104640000006101600000000000000000102030434
:104650000607080900000000010203040000000032
:104660004FBB610567ACDD3F182D4454FB21E93F8A
:104670009BF681D20B73EF3F182D4454FB21F93F79
:10468000E2652F227F2B7A3C075C143326A6813CFF
:10469000BDCBF07A8807703C075C143326A6913CAA
:1046A000C4EB98999999C9BF711623FEC671BCBF16
:1046B0006D9A74AFF2B0B3BF9AFDDE522DDEADBF7E
:1046C0002F6C6A2C44B4A2BF0D5555555555D53F96
:1046D000FF8300922449C23F6E204CC5CD45B73FB1
:1046E000513DD0A0660DB13FEB0D76244B7BA93F29
:1046F00011DA22E33AAD903F004040404040404054
:1047000040404141414141404040404040404040A4
:104710004040404040404040400502020202020248
:104720000202020202020202022020202020202097
:1047300020202002020202020202909090909090AB
:104740001010101010101010101010101010101069
:1047500010101010020202020202888888888888DD
:1047600008080808080808080808080808080808C9
:10477000080808080202020240000000F94600088A
:10478000A047000800000020300000009437000817
:10479000D047000830000020380E0000A437000881
:1047A0000000000000000000000000000000000009
:1047B0000100000010000000000000000024F400D0
:1047C00000000000000000000000000000000000E9
:040000050800018965
:00000001FF
