:020000040800F2
:1000000000000220AD280008590A00085B0A000819
:100010005D0A00085F0A0008610A0008000000008D
:10002000000000000000000000000000630A00085B
:10003000650A000800000000670A0008690A000855
:10004000FD280008FD280008FD280008FD280008FC
:10005000FD280008FD280008FD280008FD280008EC
:10006000FD280008FD280008FD280008FD280008DC
:10007000710A0008FD280008FD280008FD28000876
:10008000810A0008FD280008FD280008FD28000856
:10009000FD280008FD280008FD280008FD280008AC
:1000A000FD280008910A0008FD280008FD28000826
:1000B000FD280008FD280008FD280008FD2800088C
:1000C000FD280008FD280008FD280008FD2800087C
:1000D000FD280008A90A0008B90A0008C90A000892
:1000E000FD280008FD280008FD280008FD2800085C
:1000F000FD280008FD280008FD280008FD2800084C
:10010000FD280008FD280008FD280008FD2800083B
:10011000FD280008FD280008FD280008FD2800082B
:10012000FD280008FD280008ED0A0008FD28000849
:10013000FD280008FD280008FD280008FD2800080B
:10014000FD280008FD280008FD280008FD280008FB
:10015000FD280008FD280008FD280008FD280008EB
:10016000FD280008FD280008FD280008FD280008DB
:10017000FD280008FD280008FD28000800000000F8
:08018000FD280008FD2800081D
:1001900001F0FF01102A2BDB10F0070F08D010F838
:1001A000013B013A8B422DD010F0070F42B3F6D13C
:1001B000F0B441EA012141EA014122F007047FF055
:1001C00000070023F0E80256083C85EA010586EAAC
:1001D000010685FA47F5A3FA87F586FA47F6A5FAE8
:1001E00087F68EB9EED1F0BC01F0FF0102F00702F4
:1001F00032B110F8013B013A83EA010313B1F8D19F
:100200000020704701387047002D06BF354603387F
:10021000073815F0010F07D1013015F4807F02BFB8
:10022000013015F4C03F0130F0BC0138704700BF09
:1002300053B94AB9002908BF00281CBF4FF0FF314D
:100240004FF0FF3000F00CB8ADF1080C6DE904CEB2
:1002500003F03AFCDDF804E0DDE9022304B0704766
:10026000704700BF10B5054C237833B9044B13B168
:100270000448AFF300800123237010BD70000020FC
:1002800000000000683D000808B5034B1BB103499E
:100290000348AFF3008008BD000000007400002098
:1002A000683D0008037D5A1C0275C1547047437DA8
:1002B000027D934203D05A1C4275C05C7047FF20F8
:1002C00070470000037D427D981A1430054A82FB76
:1002D0000032C317C3EBE20303EB8303A0EB8300FD
:1002E000C0B2704767666666704772B6FEE7000088
:1002F00000B595B03022002108A802F043FB00238E
:10030000039304930593069307930193204A116C7A
:1003100041F080511164126C02F080520192019AF6
:1003200002931C4B1A6842F480421A601B6803F463
:1003300080430293029B012308934FF48033099377
:1003400002220E924FF480030F9304231093A821EE
:1003500011911292139308A800F00EFF98B90F2381
:10036000039302230493002305934FF4A0530693B1
:100370004FF480530793052103A801F067F920B9D2
:1003800015B05DF804FBFFF7B0FFFFF7AEFF00BF4D
:10039000003802400070004008B501F02FFEFFF762
:1003A000A7FF00F015F800F05BF800F05FF900F02F
:1003B00077F900F08FF900F087F800F0BDF800F051
:1003C000F1F8024802F0AAFCFBE700BF803D0008FC
:1003D00000B58BB00022059206920792089209920E
:1003E00000921D4B196B41F004011963196B01F068
:1003F0000401009100990192196B41F08001196389
:10040000196B01F08001019101990292196B41F081
:1004100001011963196B01F0010102910299039224
:10042000196B41F002011963196B01F0020103918C
:10043000039904921A6B42F008021A631B6B03F0D3
:1004400008030493049B0F23059305A9034801F0B7
:10045000D3F90BB05DF804FB00380240000C0240F9
:1004600010B582B000240094164B1A6B42F40012AF
:100470001A631A6B02F400120092009A01941A6B2C
:1004800042F480021A631B6B03F480030193019B07
:10049000224601210C2001F059FD0C2001F066FDDF
:1004A00022460121102001F051FD102001F05EFDD7
:1004B000224601213A2001F049FD3A2001F056FD83
:1004C00002B010BD0038024000B587B0002302938F
:1004D000039304930593009301931548154A026012
:1004E000A7224260836049F64042C26003614361D3
:1004F000836100F041FD90B94FF48053029302A94B
:100500000B4800F072FD68B900230093019369461F
:10051000074800F0E9FD40B907B05DF804FBFFF7BC
:10052000E4FEE9E7FFF7E1FEEEE7FFF7DEFEF3E7C3
:100530001C0100200000014000B587B00023029399
:100540000393049305930093019315484FF0804261
:100550000260436083604FF0FF32C260036180231A
:10056000836100F009FD90B94FF48053029302A912
:100570000B4800F03AFD68B90023009301936946E7
:10058000074800F0B1FD40B907B05DF804FBFFF784
:10059000ACFEE9E7FFF7A9FEEEE7FFF7A6FEF3E7FB
:1005A000D400002008B50A480A4B03605323436077
:1005B000002383604FF6FF72C26003618023836172
:1005C00000F0DAFC00B908BDFFF78FFEFBE700BFC3
:1005D0008C0000200044014000B585B00368204A2B
:1005E000934208D0B3F1804F19D01E4A934223D0D2
:1005F00005B05DF804FB002101911B4B5A6C42F0E1
:1006000001025A645B6C03F001030193019B0A46EB
:10061000192001F09BFC192001F0A8FCE8E7002359
:100620000293114B1A6C42F001021A641B6C03F026
:1006300001030293029BDBE7002103910A4B5A6CF2
:1006400042F400325A645B6C03F400330393039B5F
:100650000A46192001F07AFC192001F087FCC7E74F
:1006600000000140004401400038024008B50A483B
:100670000A4B03604FF4E133436000238360C3609F
:1006800003610C2242618361C36101F0D9FD00B9AD
:1006900008BDFFF72AFEFBE70C0300200010014015
:1006A00008B50A480A4B03604FF4E1334360002366
:1006B0008360C36003610C2242618361C36101F006
:1006C000BFFD00B908BDFFF710FEFBE7C802002020
:1006D0000044004008B50F480F4B03604FF4E1336E
:1006E000436000238360C36003610C224261836125
:1006F000C36101F0A5FD50B906480268D36843F014
:100700001003D3608022054902F0AAF808BDFFF764
:10071000ECFDF1E784020020004800405003002077
:1007200030B58DB0044600230793089309930A93CC
:100730000B9303686C4A934208D06C4A93424AD0A8
:100740006B4A934200F08B800DB030BD00250195BF
:10075000684B5A6C42F010025A645A6C02F0100254
:100760000192019A02951A6B42F001021A631B6B07
:1007700003F001030293029B4FF4C063079302232B
:10078000089303230A9307230B9307A95A4801F000
:1007900033F85A485A4B03604FF00063436085605A
:1007A000C5604FF48063036145618561C561056281
:1007B000456201F09FF958B9504BA3639C63002236
:1007C0000221252001F0C2FB252001F0CFFBBBE771
:1007D000FFF78BFDF0E700250395464B1A6C42F4BA
:1007E00000321A641A6C02F400320392039A0495E0
:1007F0001A6B42F001021A631B6B03F001030493AE
:10080000049B0C2307930223089303230A930723D3
:100810000B9307A9384800F0EFFF3A483A4B0360C2
:100820004FF0006343608560C5604FF480630361EF
:1008300045618561C5610562456201F05BF958B9A2
:10084000304BA3639C6300220221262001F07EFB33
:10085000262001F08BFB77E7FFF747FDF0E7002547
:100860000595244B1A6C42F480221A641A6C02F427
:1008700080220592059A06951A6B42F002021A63CD
:100880001B6B03F002030693069B4FF44063079330
:100890000223089303230A9307230B9307A91B48FA
:1008A00000F0AAFF1A481B4B03604FF0006343603F
:1008B0008560C5604FF48063036145618561C561F2
:1008C0000562456201F016F958B9114BA3639C63A8
:1008D00000220221272001F039FB272001F046FBEE
:1008E00032E7FFF702FDF0E700100140004400404E
:1008F000004800400038024000000240240200206E
:1009000040640240C40100208860024000040240AC
:1009100064010020286002402DE9F04F83B0814639
:1009200001F0BDFC282002F00FF80646D9F800308F
:100930003D4A126893420BD03C4A1268934213D04E
:100940003B4A126893421BD00024A24625463BE056
:10095000384B1B685F68C7F18007374C2146374822
:1009600002F0F8F8A046EFE7354B1B685F68C7F167
:100970008007344C2146344802F0ECF8A046E3E707
:10098000324B1B685F68C7F18007314C2146314804
:1009900002F0E0F8A046D7E7A4EB0A0B0BF1010048
:1009A00001F0D2FF46F825005A4608EB0A0101F093
:1009B000DBFF56F82530002203F80B2004F1010A72
:1009C0000135092D0ADC0134A74207DD18F804308F
:1009D000202BE1D07B1EA342F5D1DDE7314628462E
:1009E000FFF782FC3A460021404601F0CBFF00248D
:1009F00004E056F8240001F0AFFF0134A542F8DC12
:100A0000304601F0A9FF80224146484601F028FF08
:100A100000230193D9F800301A6801925B680193B2
:100A2000019B03B0BDE8F08FC802002084020020C3
:100A30000C030020C4010020D00300208C3D0008DE
:100A40006401002050030020A03D00082402002083
:100A500050040020B43D0008FEE7FEE7FEE7FEE795
:100A6000FEE770477047704708B501F0E1FA08BD2E
:100A700008B5024801F036F908BD00BF6401002046
:100A800008B5024801F02EF908BD00BFC4010020DE
:100A900008B5034800F04FF9024800F04CF908BDD2
:100AA0001C0100208C00002008B5024801F0F0FC79
:100AB00008BD00BF0C03002008B5024801F0E8FCA7
:100AC00008BD00BFC802002008B5074B1B681B68A3
:100AD00013F0100F03D1044801F0DAFC08BD0248FE
:100AE000FFF71AFFF7E700BF8402002008B50248AD
:100AF00001F0F8F808BD00BF2402002070B5002600
:100B00000FE02846FFF7DEFB421FD2B203E0284683
:100B1000FFF7CDFB2246531EDCB2002AF7D1013687
:100B2000F6B2032E0AD816231B4D03FB06552846A2
:100B3000FFF7C8FB0428E4D80022ECE74FF0000CD4
:100B40001EE0154A162101FB0022D25C14405A1CFB
:100B5000124981FB0231D317C3EBE10303EB83039B
:100B6000A2EB8303DBB20C4A162101FB0022127DAB
:100B70009A42E6D10A4B1C540CF1010C5FFA8CFC32
:100B8000BCF1030F07D86046034B162202FB0C335F
:100B90005B7D0124E7E770BDEC04002067666666B4
:100BA000E804002010B5002301E00133DBB2032B81
:100BB0000DD8124AD25C012AF7D1114AD25C002A20
:100BC000F3D1104A506A104A42F82300EDE70F4B68
:100BD00019684A1C1A600E4801F0BCFF002407E0A7
:100BE000094B53F8242021460A4801F0B3FF013491
:100BF000032CF5DD0A2001F0C5FF10BDE404002040
:100C0000E804002000440140D4040020D004002067
:100C1000C83D0008D83D000838B50268184B9A4214
:100C200000D038BD174D0121284600F0DBFE164CE0
:100C300020700221284600F0D5FE6070042128466D
:100C400000F0D0FEA0700821284600F0CBFEE07036
:100C5000002409E00C4B195D16200C4B00FB0430FE
:100C6000FFF720FB0134E4B2032CF3D9084B1A68D8
:100C7000084B1A60FFF742FFFFF794FFD1E700BF70
:100C800000440140000C024044050020EC04002018
:100C9000E8040020E404002082B0002100910B4B06
:100CA0005A6C42F480425A645A6C02F480420092B8
:100CB000009A01911A6C42F080521A641B6C03F086
:100CC00080530193019B02B0704700BF003802407F
:100CD00010B4036A046A24F001040462846924F0F5
:100CE000F00C4CEA021223F00A030B438261036208
:100CF0005DF8044B704710B4036A23F010030362DD
:100D00008469036A24F4704C4CEA023223F0A00395
:100D100043EA0113826103625DF8044B7047836804
:100D200023F070030B4343F0070383607047704761
:100D300070477047704710B5044603681A6912F08F
:100D4000020F11D0DA6812F0020F0DD06FF002021C
:100D50001A610123037703689B6913F0030F70D0B6
:100D6000FFF7E6FF0023237723681A6912F0040FC8
:100D700012D0DA6812F0040F0ED06FF004021A617C
:100D80000223237723689B6913F4407F5FD02046BA
:100D9000FFF7CEFF0023237723681A6912F0080FAC
:100DA00012D0DA6812F0080F0ED06FF008021A6144
:100DB000042323772368DB6913F0030F4ED020460A
:100DC000FFF7B6FF0023237723681A6912F0100F8C
:100DD00012D0DA6812F0100F0ED06FF010021A6104
:100DE000082323772368DB6913F4407F3DD0204636
:100DF000FFF79EFF0023237723681A6912F0010F83
:100E000003D0DA6812F0010F36D123681A6912F0A4
:100E1000800F03D0DA6812F0800F34D123681A698A
:100E200012F0400F03D0DA6812F0400F32D123687D
:100E30001A6912F0200F03D0DA6812F0200F30D1B7
:100E400010BDFFF774FF2046FFF773FF8AE72046C7
:100E5000FFF76DFF2046FFF76CFF9BE72046FFF78B
:100E600066FF2046FFF765FFACE72046FFF75FFF10
:100E70002046FFF75EFFBDE76FF001021A612046D2
:100E8000FFF7CAFEC1E76FF080021A61204600F04A
:100E900072F9C3E76FF040021A612046FFF74AFF7C
:100EA000C5E76FF020021A61204600F063F9C7E73A
:100EB0000368304A904212D0B0F1804F0FD0A2F5B3
:100EC0007C4290420BD002F58062904207D002F53E
:100ED0008062904203D002F57842904203D123F021
:100EE00070034A681343234A90422AD0B0F1804FDE
:100EF00027D0A2F57C42904223D002F58062904236
:100F00001FD002F5806290421BD002F578429042D9
:100F100017D002F57052904213D002F580629042D1
:100F20000FD002F5806290420BD0A2F59832904229
:100F300007D002F58062904203D002F580629042B1
:100F400003D123F44073CA68134323F080034A6932
:100F5000134303608B68C3620B688362054B98423E
:100F600003D003F58063984201D10B690363012329
:100F7000436170470000014040B310B5044690F84B
:100F80003D30F3B1022384F83D30214651F8040B83
:100F9000FFF78EFF012384F8463084F83E3084F852
:100FA0003F3084F8403084F8413084F8423084F88F
:100FB000433084F8443084F8453084F83D300020D4
:100FC00010BD80F83C30FFF707FBDBE701207047DE
:100FD00010B4846824F47F4C42EA03220A4342EAB4
:100FE0000C0282605DF8044B704790F83C30012B96
:100FF00078D010B50446012380F83C30022380F8F5
:101000003D300268936823F47F4323F077039360B5
:101010000B68602B4CD029D8402B54D00CD9502BC6
:1010200022D1CA6849680068FFF752FE5021206843
:10103000FFF775FE002005E0202B0DD009D9302BDD
:101040000AD00120012384F83D30002384F83C308D
:1010500010BD0BB1102B05D119462068FFF75FFEBC
:101060000020EFE70120EDE70120EBE7B3F5805F1B
:1010700034D0B3F5005F0CD1CB684A68896800684A
:10108000FFF7A6FF2268936843F480439360002033
:10109000D8E7702B24D1CB684A6889680068FFF7CD
:1010A00097FF2268936843F0770393600020C9E7B5
:1010B000CA6849680068FFF71EFE60212068FFF7D4
:1010C0002EFE0020BEE7CA6849680068FFF700FEF0
:1010D00040212068FFF723FE0020B3E70020B1E79E
:1010E0000120AFE70220704790F83C20012A3DD054
:1010F00010B40346012280F83C20022280F83D20F3
:1011000002685068946820F0700C086840EA0C008F
:1011100050601A68164882421AD0B2F1804F17D038
:10112000A0F57C40824213D000F5806082420FD04F
:1011300000F5806082420BD000F57840824207D0F3
:1011400000F57050824203D0A0F59430824204D161
:1011500024F08004496821439160012283F83D20F6
:10116000002083F83C005DF8044B70470220704774
:101170000000014070477047002800F0E08170B522
:1011800082B00446036813F0010F3BD09F4B9B686D
:1011900003F00C03042B2CD09C4B9B6803F00C0336
:1011A000082B21D06368B3F5803F4FD0B3F5A02F53
:1011B00052D0964B1A6822F480321A601A6822F4D0
:1011C00080221A606368002B50D000F03DFF054676
:1011D0008E4B1B6813F4003F14D100F035FF401B09
:1011E0006428F5D90320B1E1884B5B6813F4800FC4
:1011F000D8D0864B1B6813F4003F03D06368002BE4
:1012000000F09F81236813F0020F54D07F4B9B683E
:1012100013F00C0F3ED07D4B9B6803F00C03082BA2
:1012200033D0E368002B68D0794B01221A6000F0BC
:101230000BFF0546754B1B6813F0020F54D100F0ED
:1012400003FF401B0228F5D903207FE16F4A136892
:1012500043F480331360B5E76C4B1A6842F4802284
:101260001A601A6842F480321A60ABE700F0ECFEB4
:101270000546664B1B6813F4003FC3D000F0E4FE44
:10128000401B6428F5D9032060E1604B5B6813F4D0
:10129000800FC6D15D4B1B6813F0020F03D0E368CB
:1012A000012B40F05081594A136823F0F80321695B
:1012B00043EAC1031360236813F0080F42D0636947
:1012C0006BB3534B0122C3F8802E00F0BDFE0546E0
:1012D0004E4B5B6F13F0020F34D100F0B5FE401B94
:1012E0000228F5D9032031E1484A136823F0F803B6
:1012F000216943EAC1031360DDE7454B00221A6010
:1013000000F0A2FE0546414B1B6813F0020FD2D03D
:1013100000F09AFE401B0228F5D9032016E13C4B51
:101320000022C3F8802E00F08FFE0546374B5B6F1E
:1013300013F0020F06D000F087FE401B0228F5D9FB
:10134000032003E1236813F0040F77D02F4B1B6CAD
:1013500013F0805F33D1002301932C4B1A6C42F0C1
:1013600080521A641B6C03F080530193019B01258A
:10137000284B1B6813F4807F23D0A368012B34D043
:10138000052B38D0214B1A6F22F001021A671A6F11
:1013900022F004021A67A368002B3DD000F054FE2F
:1013A00006461A4B1B6F13F0020F46D100F04CFE9D
:1013B000801B41F288339842F3D90320C6E0002510
:1013C000D6E7144A136843F48073136000F03CFEC0
:1013D0000646104B1B6813F4807FCED100F034FE1C
:1013E000801B0228F5D90320B0E0084A136F43F0B0
:1013F00001031367CFE7054B1A6F42F004021A6727
:101400001A6F42F001021A67C5E700BF00380240B8
:10141000000047420070004000F016FE0646524BA6
:101420001B6F13F0020F08D000F00EFE801B41F27C
:1014300088339842F3D9032088E0EDB9A369002BE3
:1014400000F08380484A926802F00C02082A51D0CA
:10145000022B17D0454B00221A6600F0F5FD04461A
:10146000414B1B6813F0007F42D000F0EDFD001BE4
:101470000228F5D9032069E03B4A136C23F080531E
:101480001364DBE7394B00221A6600F0DDFD0546E8
:10149000354B1B6813F0007F06D000F0D5FD401BD4
:1014A0000228F5D9032051E0E369226A1343626AF6
:1014B00043EA8213A26A5208013A43EA0243E26A0B
:1014C00043EA0263284A5360284B01221A6600F05F
:1014D000BBFD0446244B1B6813F0007F06D100F0CF
:1014E000B3FD001B0228F5D903202FE000202DE0DA
:1014F00000202BE0012B2BD01B4B5B6803F48001F9
:10150000E269914226D103F03F02216A8A4223D147
:10151000616A47F6C0721A40B2EB811F1ED103F414
:101520004031A26A5208013AB1EB024F18D103F0E0
:101530007063E26AB3EB026F14D1002006E0012071
:101540007047012002E0012000E0002002B070BDE1
:101550000120FBE70120F9E70120F7E70120F5E78B
:101560000120F3E70120F1E7003802400000474284
:1015700008B5334B9B6803F00C03042B5BD0082B9E
:101580005BD12F4B5A6802F03F025B6813F4800F67
:101590002CD02B4B5868C0F388104FEA401CBCEB92
:1015A000000C6EEB0E0E4FEA8E1343EA9C634FEA7B
:1015B0008C11B1EB0C0163EB0E03DB0043EA5173BA
:1015C000C90011EB000C43F10003590200234FEA5C
:1015D0004C2041EADC51FEF72BFE194B5B68C3F34C
:1015E000014301335B00B0FBF3F027E0144B586874
:1015F000C0F388104FEA401CBCEB000C6EEB0E0EE3
:101600004FEA8E1343EA9C634FEA8C11B1EB0C0155
:1016100063EB0E03DB0043EA5173C90011EB000CCE
:1016200043F10003990200234FEA8C2041EA9C51C8
:10163000FEF7FEFDD1E7034800E0034808BD00BF08
:101640000038024000127A000024F400002800F064
:101650009B8070B50D4604464F4B1B6803F0070393
:101660008B4208D2CBB24C4A1370136803F00703C5
:101670008B4240F08B80236813F0020F17D013F0D9
:10168000040F04D0454A936843F4E0539360236801
:1016900013F0080F04D0414A936843F46043936009
:1016A0003E4A936823F0F003A1680B4393602368DC
:1016B00013F0010F32D06368012B21D09A1E012A4A
:1016C00025D9364A126812F0020F61D033498A6870
:1016D00022F0030213438B6000F0B6FC06462F4B4A
:1016E0009B6803F00C036268B3EB820F16D000F026
:1016F000ABFC801B41F288339842F0D9032042E0D2
:10170000264A126812F4003FE0D101203BE0234A50
:10171000126812F0007FD9D1012034E01E4B1B6803
:1017200003F00703AB4207D9EAB21B4B1A701B68E0
:1017300003F00703AB422DD1236813F0040F06D04A
:10174000164A936823F4E053E1680B4393602368DF
:1017500013F0080F07D0114A936823F460432169FE
:1017600043EAC1039360FFF703FF0C4B9B68C3F38D
:1017700003130B4AD35CD8400A4B18600A4B186815
:1017800000F016FC002070BD012070470120FAE730
:101790000120F8E70120F6E7003C02400038024053
:1017A000FC3D00080800002004000020014B1868E0
:1017B000704700BF0800002008B5FFF7F7FF044B93
:1017C0009B68C3F38223034AD35CD84008BD00BFA3
:1017D00000380240F43D000808B5FFF7E7FF044B6E
:1017E0009B68C3F34233034AD35CD84008BD00BFB3
:1017F00000380240F43D000800230F2B00F2E9807E
:1018000070B582B065E085684FEA430E032404FAA0
:101810000EF425EA0405CC6804FA0EF42C43846027
:10182000446824EA02044A68C2F300129A40224340
:1018300042605CE0DC08083450F8242003F007051F
:10184000AD004FF00F0E0EFA05FE22EA0E0E0A69E9
:10185000AA4042EA0E0240F824205CE0072200E0A1
:10186000002202FA0EF22A4302345A4D45F824208F
:10187000594A14686FEA0C0224EA0C054E6816F403
:10188000803F01D04CEA0405534C2560646802EAAD
:1018900004054E6816F4003F01D04CEA04054E4C96
:1018A0006560A46802EA04054E6816F4801F01D042
:1018B0004CEA0405484CA560E46822404D6815F4E4
:1018C000001F01D04CEA0402434CE26001330F2BAD
:1018D0007DD801229A400C6804EA020C32EA040422
:1018E000F4D14C6804F00304013C012C8BD94A6804
:1018F00002F00302032A09D0C4685D000322AA4053
:1019000024EA02048A68AA402243C2604A6802F0BC
:101910000302022A8ED004684FEA430E032202FA21
:101920000EF224EA02044A6802F0030202FA0EF2FE
:10193000224302604A6812F4403FC7D0002201925D
:10194000264A546C44F480445464526C02F480423D
:101950000192019A9C08A51C1E4A52F8255003F0DA
:10196000030E4FEA8E0E0F2202FA0EF225EA02054E
:101970001B4A90423FF474AF02F5806290421AD045
:1019800002F58062904218D002F58062904216D033
:1019900002F58062904214D002F58062904212D02B
:1019A00002F58062904210D002F5806290423FF4CE
:1019B00055AF082255E7012253E7022251E70322DF
:1019C0004FE704224DE705224BE7062249E702B024
:1019D00070BD704700380140003C014000380240B3
:1019E000000002400369194201D001207047002025
:1019F000704730B405682C6824F480242C60046897
:101A000063608368402B05D0036899600368DA60DF
:101A100030BC704703689A600368D960F8E700003B
:101A200010B40368D9B210390C4AA2FB0142120962
:101A30000B4CA25CC2655F2909D923F47F7323F0A4
:101A4000030304338365806D5DF8044B704723F412
:101A50007F7323F003038365F5E700BFABAAAAAA4F
:101A6000EC3D0008836A826992B9012B0AD0022BEF
:101A700002D00BB100207047C36A13F0807F28D1D9
:101A800000207047C36AB3F1C07F24D000207047A4
:101A9000B2F5005F09D0022B25D9032B25D1C36AEB
:101AA00013F0807F23D100207047032B03D8DFE899
:101AB00003F01404140A00207047C36A13F0807FF7
:101AC0000DD100207047C36AB3F1C07F09D0002058
:101AD00070470120704701207047012070470120A6
:101AE0007047012070470120704700207047012097
:101AF0007047000070B5044600F0A6FA002C5BD0D9
:101B00000546022384F83530002384F834302268F7
:101B1000136823F00103136023681A6812F0010FA1
:101B20000AD000F091FA431B052BF5D920236365F9
:101B3000032084F8350070BD1A682049114062689E
:101B4000A0680243E06802432069024360690243DF
:101B5000A0690243E0690243206A02430A43616AC2
:101B600004291ED01A602668756925F00705636A86
:101B70001D43042B07D1A36A1D43E36A1BB1204612
:101B8000FFF770FF90B975612046FFF749FFE26DDE
:101B90003F239340836000206065012384F8353043
:101BA000C9E7E16A206B01430A43DBE74023636531
:101BB000012084F83500BEE70120BCE73F8010F02B
:101BC00038B50446856D90F8340001282BD00120EB
:101BD00084F8340094F83500C0B2012804D0002302
:101BE00084F83430022038BD022084F8350000200B
:101BF00060652046FFF7FDFEE26D3F239340AB603A
:101C00002268136843F016031360236C23B1226823
:101C1000136843F0080313602268136843F001035C
:101C200013600020DFE70220DDE770B50446866D13
:101C300000F00AFA94F83530DBB2022B06D080238C
:101C40006365002384F83430012070BD05462268A6
:101C5000136823F0160313602268536923F080038E
:101C60005361236CE3B12268136823F00803136007
:101C70002268136823F00103136023681B6813F0C4
:101C8000010F11D000F0E0F9431B052BF5D92023FB
:101C90006365032084F83500002384F83430D4E7EA
:101CA000A36C002BDFD1E3E7E26D3F239340B360E9
:101CB000012384F83530002084F83400C5E790F81B
:101CC0003530DBB2022B03D08023436501207047FF
:101CD000052380F835300268136823F00103136090
:101CE00000207047F0B583B0044600230193724B87
:101CF0001D68724BA3FB0535AD0A876D3E68C26D4A
:101D000008239340334210D003681A6812F0040F7E
:101D10000BD01A6822F004021A60C26D08239340A7
:101D2000BB60436D43F001034365E26D01239340C3
:101D3000334209D02268526912F0800F04D0BB6090
:101D4000636D43F002036365E26D04239340334205
:101D500009D02268126812F0020F04D0BB60636DD4
:101D600043F004036365E26D10239340334224D0B3
:101D70002268126812F0080F1FD0BB6023681A682F
:101D800012F4802F0DD01B6813F4002F04D1236CA4
:101D90009BB12046984710E0A36C73B1204698474A
:101DA0000BE01A6812F4807F03D11A6822F008024F
:101DB0001A60236C0BB120469847E26D20239340B4
:101DC000334255D02268126812F0100F50D0BB6019
:101DD00094F83530DBB2052B0ED023681A6812F464
:101DE000802F33D01B6813F4002F2AD1636C002B93
:101DF0003ED0204698473BE02268136823F0160344
:101E000013602268536923F080035361236CA3B1EC
:101E10002268136823F008031360E26D3F239340A8
:101E2000BB60012384F83530002384F83430236DFF
:101E3000002B3FD0204698473CE0A36C002BE7D115
:101E4000EBE7E36BA3B12046984711E01A6812F460
:101E5000807F09D11A6822F010021A60012384F8E9
:101E60003530002384F83430E36B0BB120469847BB
:101E7000636DFBB1636D13F0010F17D0052384F878
:101E800035302268136823F001031360019B01338E
:101E90000193AB4204D823681B6813F0010FF5D1FE
:101EA000012384F83530002384F83430E36C0BB11F
:101EB0002046984703B0F0BD08000020B5814E1BB6
:101EC000002808DB0901C9B200F1604000F561405B
:101ED00080F80013704700F00F000901C9B2014BF0
:101EE0001954704714ED00E000B500F00700C0F190
:101EF000070CBCF1040F28BF4FF0040C031D062B88
:101F00000FD9C31E4FF0FF3E0EFA0CF021EA00017C
:101F100099400EFA03FE22EA0E0241EA02005DF841
:101F200004FB0023EEE70000074AD36823F4E063D4
:101F30001B041B0C000200F4E060034343F0BF638A
:101F400043F40033D360704700ED00E010B5044661
:101F5000054BD868C0F30220FFF7C6FF01462046B4
:101F6000FFF7AEFF10BD00BF00ED00E0002807DB6B
:101F700000F01F02400901239340024A42F820303A
:101F8000704700BF00E100E00138B0F1807F0BD264
:101F90004FF0E0235861054AF02182F82310002019
:101FA000986107221A6170470120704700ED00E038
:101FB00010B504460E4B1A784FF47A73B3FBF2F364
:101FC0000C4A1068B0FBF3F0FFF7DEFF68B90F2C86
:101FD00001D901200AE0002221464FF0FF30FFF72F
:101FE000B5FF054B1C60002000E0012010BD00BFC4
:101FF00000000020080000200400002008B50B4B62
:102000001A6842F400721A601A6842F480621A6018
:102010001A6842F480721A600320FFF785FF0020DF
:10202000FFF7C6FFFEF738FE002008BD003C024067
:10203000034A1168034B1B780B441360704700BFC1
:102040004805002000000020014B1868704700BFC1
:1020500048050020026802F10C0353E8003F23F01A
:10206000C0030C3242E800310029F3D1202380F86C
:102070003D307047026802F10C0353E8003F23F43F
:1020800090730C3242E800310029F3D1026802F16A
:10209000140353E8003F23F00103143242E80031F7
:1020A0000029F3D1036B012B05D0202380F83E30AB
:1020B000002303637047026802F10C0353E8003FFA
:1020C00023F010030C3242E800310029F3D1ECE791
:1020D00090F83D30DBB2212B01D00220704783689D
:1020E000B3F5805F17D0036A5A1C02621A7803683E
:1020F0005A60C38C9BB2013B9BB2C3844BB902684C
:10210000D36823F08003D3600268D36843F04003B0
:10211000D360002070470369002BE4D1036A1B8859
:102120000268C3F308035360036A02330362E0E703
:1021300010B504460268136923F44053C1680B4389
:102140001361836802691A4343691A43C3691A43D6
:102150000168CB6823F4164323F00C031343CB60D0
:102160000268536923F4407381690B435361036828
:10217000314A934206D002F58062934202D0FFF7C3
:102180001BFB01E0FFF728FBE369B3F5004F29D003
:102190000021031849411B1841F10001C90041EA1F
:1021A0005371DB00181863684FEA83024FEA937398
:1021B00041F10001FEF73CF8204AA2FB0031490939
:1021C000642303FB11031B013233A2FB03235B09CE
:1021D00003F0F00202EB011203F00F032168134435
:1021E0008B6010BD0023021843EB0301121841F16C
:1021F0000001C90041EA5271D200101841F10001FA
:10220000626892185B41FEF713F80C4AA2FB00319A
:102210004909642303FB1103DB003233A2FB0323D0
:102220005B095A0002F4F87202EB011203F0070393
:10223000216813448B60D4E7001001401F85EB51E7
:1022400058B310B5044690F83D300BB3242384F8FE
:102250003D302268D36823F40053D3602046FFF753
:1022600067FF2268136923F490431361226853695E
:1022700023F02A0353612268D36843F40053D360E8
:1022800000202064202384F83D3084F83E3010BDC7
:1022900080F83C30FEF744FAD8E70120704710B5CB
:1022A000044603685A6990F83D30DBB2212B0AD00E
:1022B00023685A6902F0400294F83E30DBB2222BC8
:1022C00019D0002010BD02F08002002AF0D0226850
:1022D00002F1140353E8003F23F08003143242E874
:1022E00000310029F3D1606B08B1FFF79EFC204656
:1022F000FFF7B0FEDCE7002AE3D0226802F1140306
:1023000053E8003F23F04003143242E80031002933
:10231000F3D1A06B08B1FFF788FC2046FFF7AAFEB7
:10232000CFE7704708B50168CA6822F04002CA606A
:10233000202280F83D20FFF7F4FF002008BD704701
:102340007047704710B5846B23685A6994F83D3024
:10235000DBB2212B10D023685A6902F0400294F8B6
:102360003E30DBB2222B11D0236C43F010032364E8
:102370002046FFF7E6FF10BD02F08002002AEAD0F7
:102380000023E3842046FFF765FEE4E7002AEBD054
:102390000023E3852046FFF76DFEE5E708B5806B77
:1023A0000023C385C384FFF7CCFF08BD704790F8B6
:1023B0003E30DBB2222B67D18368B3F5805F4DD00E
:1023C000826AB3F5805F04D0002B54D10369002BDF
:1023D00051D103685B681370836A01338362C38DD4
:1023E0009BB2013B9BB2C385002B4FD100B583B09C
:1023F0000268D36823F02003D3600268D36823F413
:102400008073D3600268536923F001035361202372
:1024100080F83E30036B012B33D100230363026845
:1024200002F10C0353E8003F23F010030C3242E8A2
:1024300000310029F3D103681A6812F0100F06D09A
:10244000002201921A6801925B680193019B818DC1
:10245000FFF7ACFF002003B05DF804FB0269002A1F
:10246000AED1826A03685B68C3F308031380836A92
:1024700002338362B3E703685B6803F07F03137082
:10248000AAE7FFF75CFFE5E70220704700207047EE
:1024900010B582B0044602681368D068516913F021
:1024A0000F0F09D113F0200F0CD010F0200F09D01E
:1024B0002046FFF77CFF16E011F0010115D110F462
:1024C000907F12D1216B012979D013F0800F03D0B6
:1024D00010F0800F40F0108113F0400F03D010F087
:1024E000400F40F00D8102B010BD13F0010F06D077
:1024F00010F4807F03D0226C42F00102226413F0BA
:10250000040F04D019B1226C42F00202226413F0CD
:10251000020F04D019B1226C42F00402226413F0BD
:10252000080F07D010F0200F00D119B1226C42F033
:1025300008022264226C002AD5D013F0200F02D0AA
:1025400010F0200F29D123685B6903F04003226C4F
:1025500012F0080F00D163B32046FFF78BFD23680C
:102560005B6913F0400F20D0226802F1140353E896
:10257000003F23F04003143242E800310029F3D138
:10258000A36B73B1604A1A65A06BFFF798FB002834
:10259000A9D0A06B036D9847A5E72046FFF707FF7A
:1025A000D1E72046FFF7CDFE9DE72046FFF7C9FEA5
:1025B00099E72046FFF7C5FE0023236493E713F055
:1025C000100F82D010F0100F3FF47FAF0023019363
:1025D0001368019353680193019B536913F0400FF3
:1025E00050D0A26B13685B689BB2002B3FF47BAFAB
:1025F000A18D99427FF677AFE385D369B3F5807FEC
:1026000037D0226802F10C0353E8003F23F48073B3
:102610000C3242E800310029F3D1226802F11403A0
:1026200053E8003F23F00103143242E8003100294F
:10263000F3D1226802F1140353E8003F23F0400372
:10264000143242E800310029F3D1202384F83E30CF
:1026500000232363226802F10C0353E8003F23F0B8
:1026600010030C3242E800310029F3D1A06BFFF7D0
:10267000DCFAA18DE38D9BB2C91A89B22046FFF71F
:1026800095FE30E7A18DE38D9BB2C91A89B2E38D27
:102690009BB2002B3FF427AF00293FF424AF226800
:1026A00002F10C0353E8003F23F490730C3242E82C
:1026B00000300028F3D1226802F1140353E8003FF0
:1026C00023F00103143242E800300028F3D1202324
:1026D00084F83E3000232363226802F10C0353E8A0
:1026E000003F23F010030C3242E800300028F3D101
:1026F0002046FFF75BFEF6E62046FFF7E9FCF2E630
:102700002046FFF70FFEEEE69D23000808B5806B1C
:10271000036B012B02D0FFF713FE08BD818D490822
:10272000FFF744FEF9E708B50346806B1B681B689A
:1027300013F4807F2BD10023C385026802F10C03C0
:1027400053E8003F23F480730C3242E80031002943
:10275000F3D1026802F1140353E8003F23F00103B0
:10276000143242E800310029F3D1026802F1140367
:1027700053E8003F23F04003143242E800310029BF
:10278000F3D1202380F83E30036B012B05D0036B7F
:10279000012B0FD0FFF7D3FD08BD026802F10C0337
:1027A00053E8003F23F010030C3242E800310029C7
:1027B000F3D1ECE7818DFFF7F9FDEDE730B583B09C
:1027C000044613468162828500250564222280F832
:1027D0003E20826B1F48D063A26B1F481064A26B1F
:1027E0001E48D064A26B156520680A46011DA06BC7
:1027F000FFF7E6F9019523681A6801925B68019377
:10280000019B84F83C50226802F10C0353E8003F1E
:1028100043F480730C3242E800310029F3D122687E
:1028200002F1140353E8003F43F00103143242E87D
:1028300000310029F3D1226802F1140353E8003F6C
:1028400043F04003143242E800310029F3D1002064
:1028500003B030BD272700080D27000845230008D6
:1028600008B590F83E30DBB2202B0DD171B17AB1B2
:1028700090F83C30012B0DD0012380F83C30002330
:102880000363FFF79BFF00E0022008BD0120FCE787
:102890000120FAE70220F8E7034AD2F8883043F42F
:1028A0007003C2F88830704700ED00E0DFF834D0E4
:1028B0000D480E490E4A002302E0D458C450043398
:1028C000C4188C42F9D30B4A0B4C002301E013606F
:1028D0000432A242FBD3FFF7DFFF00F011F8FDF74F
:1028E0005BFD704700000220000000207000002007
:1028F000B43E00087000002060050020FEE70000E4
:1029000070B50D4D0D4C641BA4100026A64209D1D4
:102910000B4D0C4C01F028FA641BA4100026A642B3
:1029200005D170BD55F8043B98470136EEE755F8E0
:10293000043B98470136F2E7AC3E0008AC3E000885
:10294000AC3E0008B03E0008024B0146186800F09B
:102950008DB800BF0C000020024B0146186800F043
:1029600019B800BF0C0000200A44914200F1FF3367
:1029700000D1704710B511F8014B03F8014F914297
:10298000F9D110BD02440346934200D1704703F8C9
:10299000011BF9E737B5002944D051F8043C0190F8
:1029A000002BA1F10404B8BFE41800F0AFFC1E4AEC
:1029B0000198136833B96360146003B0BDE8304018
:1029C00000F0AABCA34208D9256861198B4201BF57
:1029D00019685B6849192160EDE71A465B680BB11D
:1029E000A342FAD911685518A5420BD12468214495
:1029F0005418A3421160E0D11C685B6853600C441A
:102A00001460DAE702D90C230360D6E72568611960
:102A10008B4204BF19685B68636004BF4919216079
:102A20005460CAE703B030BD4C05002070B50E4EAF
:102A30000C463168054611B900F078F9306021463E
:102A4000284600F073F9431C0AD0C41C24F0030488
:102A5000A04207D0211A284600F068F9013001D1C0
:102A60004FF0FF34204670BD500500202DE9F041A5
:102A7000CD1C25F0030508350C2D38BF0C25002D85
:102A8000074601DBA94205D90C233B6000263046EE
:102A9000BDE8F0812E4E00F039FC33681C4634BB93
:102AA00029463846FFF7C2FF431C04464DD134681F
:102AB0002646002E40D123683146384604EB0308F1
:102AC00000F034F980453AD123680335ED1A25F03A
:102AD000030508350C2D38BF0C2529463846FFF76D
:102AE000A5FF01302BD023682B4423600EE0226821
:102AF000521B1ED40B2A16D96119A342256018BF98
:102B00005960636808BF316062514B60384604F118
:102B10000B0600F001FC26F00706231DF21AB6D0C2
:102B20009B1BA350B3E76268A3420CBF32605A609C
:102B3000ECE723466468B2E734467668B9E70C23CD
:102B40003B60384600F0E8FBA1E72560DEE700BF08
:102B50004C0500200FB40A4B13B51C6824B1A369BF
:102B600013B9204600F0CCFA05AB049AA168019392
:102B7000204600F001FC02B0BDE8104004B07047F0
:102B80000C000020094B13B51C68014634B1A36941
:102B900023B90190204600F0B3FA0199A2682046BB
:102BA00002B0BDE8104000F003B800BF0C000020E8
:102BB00070B50D461446064618B183690BB900F08E
:102BC0009FFA1C4B9C4224D17468636ED80705D4CD
:102BD000A389990502D4A06D00F030FBA368013BE6
:102BE000002BA36005DAA26993421CDBEBB20A2B2F
:102BF00019D023685A1C22601D70EDB2636EDA078B
:102C000005D4A3899B0502D4A06D00F018FB2846CB
:102C100070BD094B9C4201D1B468D6E7074B9C427A
:102C200008BFF468D1E729462246304600F08EF806
:102C30000546E3E7303E0008503E0008103E00081D
:102C400070B50E46054618B183690BB900F058FA05
:102C5000AB69AC6813B9284600F052FA2C4B9C4281
:102C600020D16C68636EDB0705D4A389980502D474
:102C7000A06D00F0E3FAA38919071DD52369DBB124
:102C8000013EA36816F8011F013BA36039BB002B6E
:102C900038DA22460A21284600F058F8013011D0CF
:102CA0000A2511E01B4B9C4201D1AC68DAE71A4BB4
:102CB0009C4208BFEC68D5E72146284600F098F80A
:102CC0000028DDD04FF0FF35636EDA0705D4A38905
:102CD0009B0502D4A06D00F0B2FA284670BD002B0F
:102CE00004DAA2699A4206DC0A2904D023685A1C35
:102CF00022601970C5E72246284600F027F8013007
:102D0000BFD1DFE723680A255A1C22601D70DBE76C
:102D1000303E0008503E0008103E0008024B0146BD
:102D20001868FFF78DBF00BF0C00002038B5064DB6
:102D30000023044608462B6000F0B0FE431C02D17D
:102D40002B6803B1236038BD58050020F8B50E4646
:102D50001446054618B183690BB900F0D1F9214B2F
:102D60009C422BD16C68A369A360A3891A072FD555
:102D700023696BB323692068C01A6369F6B2834282
:102D8000374604DC2146284600F026F930BBA3680C
:102D9000013BA36023685A1C22601E7063690130E6
:102DA000834204D0A389DB0706D50A2E04D121462D
:102DB000284600F011F988B93846F8BD0A4B9C4204
:102DC00001D1AC68CFE7094B9C4208BFEC68CAE769
:102DD0002146284600F00CF80028CBD04FF0FF37F2
:102DE000EAE700BF303E0008503E0008103E0008F1
:102DF000324B70B51D6806460C4625B1AB6913B958
:102E0000284600F07DF92E4B9C420FD16C68A389B7
:102E1000B4F90C2019072CD4DD0611D40923336032
:102E200042F04003A3814FF0FF303EE0254B9C422F
:102E300001D1AC68EBE7244B9C4208BFEC68E6E7A5
:102E4000580712D5616B41B104F14403994202D095
:102E50003046FFF79FFD00236363A38923F024031B
:102E6000A3810023636023692360A38943F00803DF
:102E7000A38123694BB9A38903F42073B3F5007FC1
:102E800003D02146304600F001FAA089B4F90C20A5
:102E900010F001030AD00023A36063695B42A361C1
:102EA000236943B910F08000BAD170BD810758BFC3
:102EB0006369A360F4E70020F7E700BF0C0000207F
:102EC000303E0008503E0008103E00088A892DE977
:102ED000F041054610070C4658D44B68002B05DC22
:102EE0000B6C002B02DC0020BDE8F081E66A002EAE
:102EF000F9D0002312F480522F68216A2B6032D05F
:102F0000606DA3895A0705D56368C01A636B0BB15E
:102F1000236CC01A00230246E66A216A2846B0479D
:102F2000431CA38906D129681D292BD8294A0A41A7
:102F3000D60727D400226260D9042269226004D512
:102F4000421C01D12B6803B96065616B2F600029B9
:102F5000C9D004F14403994202D02846FFF71AFD74
:102F600000206063C0E701232846B047411CC8D158
:102F70002B68002BC5D01D2B01D0162B01D12F6043
:102F8000B1E7A38943F04003A381ADE70F69002FA8
:102F9000A9D093070E6808BF4B690F6018BF0023C4
:102FA000A6EB07088B60B8F1000F9CDD216AA66ACA
:102FB00043463A462846B047002806DCA38943F03A
:102FC0004003A3814FF0FF308EE70744A8EB0008D1
:102FD000E9E700BFFEFFBFDF38B50B6905460C46C9
:102FE00013B90025284638BD18B183690BB900F024
:102FF00087F8144B9C421BD16C68B4F90C30002B41
:10300000EFD0626ED00704D4990502D4A06D00F011
:1030100015F928462146FFF759FF636EDA07054682
:10302000E0D4A3899B05DDD4A06D00F008F9D9E7B1
:10303000054B9C4201D1AC68DFE7044B9C4208BFC2
:10304000EC68DAE7303E0008503E0008103E000809
:10305000002310B50446C0E90033C0E9043383609F
:1030600081814366C2818361194608225C30FFF783
:1030700089FC054B6362054BA362054BE362054B7C
:103080002462236310BD00BFD5350008F735000862
:103090002F36000853360008014900F0AFB800BFD2
:1030A000D92F000870B568234D1E5D430E4605F10B
:1030B0007401FFF7DBFC044640B10021C0E90016B3
:1030C0000C30A06005F16802FFF75CFC204670BD83
:1030D000014800F0B3B800BF55050020014800F0DA
:1030E000AEB800BF55050020014800F0A7B800BFEA
:1030F00056050020014800F0A2B800BF5605002088
:1031000010B50446FFF7F0FFA3691BB1BDE81040FE
:10311000FFF7F0BFC4E912332365134B134A1B6852
:10312000A262A34204BF0123A361204600F020F85D
:103130006060204600F01CF8A060204600F018F8FF
:103140000022E06004216068FFF782FFA06801228E
:103150000921FFF77DFFE06802221221FFF778FFC7
:103160000123A361D2E700BF0C3E0008993000089C
:10317000F8B50746FFF7ACFF1E4B1E68B36913B9DD
:103180003046FFF7BDFF4836D6E90134013B03D591
:1031900033680BB33668F7E7B4F90C50D5B9164B62
:1031A000E36004F15800656600F047F8FFF796FF0A
:1031B000C4E90155C4E904552560A56108222946E2
:1031C00004F15C00FFF7DEFBC4E90D55C4E91255BC
:1031D0002046F8BD6834D9E704213846FFF762FF7E
:1031E000044630600028D5D1FFF778FF0C233B6000
:1031F000EEE700BF0C3E00080100FFFF2DE9F84399
:103200000646884600F148040027D4E90195B9F143
:10321000010905D52468002CF7D13846BDE8F883AC
:10322000AB89012B07D9B5F90E30013303D02946FC
:103230003046C04707436835E9E770477047704735
:1032400070B50C46B1F90E10002996B015461E4611
:103250000DDAA38913F0800F4FF000010CBF4FF47B
:1032600080634023002031602B6016B070BD6A4639
:1032700000F016FA0028ECDB019901F47041A1F589
:103280000053594259414FF48063EBE78B8973B582
:103290009D0706460C4607D504F1470323602361CA
:1032A0000123636102B070BD01AB6A46FFF7C8FF3E
:1032B000009905463046FFF7D9FB48B9B4F90C3000
:1032C0009A05EFD423F0030343F00203A381E3E75D
:1032D0000D4BB362A389206043F08003A381009B60
:1032E0006361019B20615BB1B4F90E10304600F0C0
:1032F000E9F928B1A38923F0030343F00103A38173
:10330000A3891D43A581CDE7993000080148FFF747
:1033100095BF00BF540500200148FFF790BF00BFD4
:10332000540500209368013B002B10B4936008DA29
:103330009469A34201DB0A2903D15DF8044BFFF72E
:1033400005BD1368581C1060197008465DF8044BE1
:103350007047F8B506460F461446D518AC4201D161
:10336000002007E014F8011B3A463046FFF7DAFF69
:10337000431CF3D1F8BD00002DE9F04F0D469DB080
:1033800014469846064618B183690BB9FFF7B8FE94
:10339000884B9D421BD175686B6ED90705D4AB89EC
:1033A0009A0502D4A86DFFF749FFAB891B0701D529
:1033B0002B69EBB929463046FFF71AFDC0B16B6E99
:1033C000DC070ED54FF0FF301DB0BDE8F08F7A4B13
:1033D0009D4201D1B568DFE7784B9D4208BFF56893
:1033E000DAE7AB899805EDD4A86DFFF728FFE9E788
:1033F0000023099320238DF82930CDF80C80302349
:10340000DFF8BC818DF82A304FF0010923469A4637
:1034100013F8012B0AB1252AF9D1BAEB040B0BD012
:103420005B46224629463046FFF793FF013000F005
:10343000A980099A5A4409929AF80030002B00F0AA
:10344000A18000234FF0FF32CDE905230AF1010AE4
:10345000049307938DF853301A935446052214F8B9
:10346000011B5748FCF794FE049AD8B9D10644BF13
:1034700020238DF85330130744BF2B238DF853308E
:103480009AF800302A2B15D0079A544600204FF0A6
:103490000A0C214611F8013B303B092B4DD9B0B144
:1034A000079214E0A0EB080309FA03F31343049313
:1034B000A246D2E7039B191D1B680391002BBBBFDB
:1034C0005B4242F0020207930793B8BF049223784D
:1034D0002E2B0CD163782A2B34D1039B1A1D1B6829
:1034E0000392002BB8BF4FF0FF3302340593DFF88F
:1034F000E0A0217803225046FCF74AFE38B1049B35
:10350000A0EB0A004022824013430134049314F8D4
:10351000011B2C488DF828100622FCF739FE0028E4
:103520003FD0294B1BBB039B073323F00703083312
:103530000393099B3B44099368E70CFB02320C465A
:103540000120A6E700230134059319464FF00A0C29
:10355000204610F8012B303A092A03D9002BC6D097
:103560000591C4E70CFB012104460123F0E703ABFE
:1035700000932A46154B04A93046AFF30080074656
:10358000781CD6D16B6ED90705D4AB899A0502D4C5
:10359000A86DFFF754FEAB895B063FF513AF0998A2
:1035A00012E703AB00932A46084B04A9304600F00B
:1035B00019F9E4E7303E0008503E0008103E0008CC
:1035C000703E00087A3E00080000000053330008F7
:1035D000763E000810B50C46B1F90E1000F024FA42
:1035E0000028ABBF636DA3891B1823F48053ACBFC5
:1035F0006365A38110BD2DE9F0411F468B89DB0572
:1036000005460C46164605D5B1F90E1002230022D8
:1036100000F068F8A389B4F90E1023F48053A38155
:1036200032463B462846BDE8F04100F017B810B5D9
:103630000C46B1F90E1000F055F8431CA38915BFD4
:10364000606523F4805343F48053A38118BFA381A2
:1036500010BDB1F90E1000F013B8000038B5074DD9
:1036600004460846114600222A601A4600F024FA51
:10367000431C02D12B6803B1236038BD58050020DC
:1036800038B5064D0023044608462B6000F0DEF9ED
:10369000431C02D12B6803B1236038BD58050020BC
:1036A00038B5074D00230446084611462B6000F04C
:1036B000D5F9431C02D12B6803B1236038BD00BF8C
:1036C0005805002038B5064D0023044608462B60F7
:1036D00000F0CCF9431C02D12B6803B1236038BD44
:1036E0005805002038B5074D04460846114600220B
:1036F0002A601A4600F0C2F9431C02D12B6803B1BC
:10370000236038BD580500202DE9F047164699463C
:103710008A680B69DDF820809342B8BF1346336096
:1037200091F8432007460C460AB101333360236801
:10373000990642BF336802333360256815F00605E9
:1037400006D104F1190AE36832689B1AAB4226DC01
:1037500094F84320131E226818BF012392062BD42D
:1037600004F1430249463846C04701301ED0236861
:10377000226903F00603042B02BFE5683368ED1AE3
:10378000A3680CBF25EAE57500259342C4BF9B1AC8
:10379000ED1800261A34B5421AD1002008E00123A2
:1037A000524649463846C047013003D14FF0FF30FA
:1037B000BDE8F0870135C6E7E1185A1C302081F8D2
:1037C0004300224494F8451082F843100233C7E7BF
:1037D0000123224649463846C0470130E6D001362B
:1037E000D9E700002DE9FF470F7E0C9D782F914609
:1037F00080460C469A4601F1430207D8622F0AD848
:10380000002F00F0D480582F00F0C08004F1420552
:1038100084F842703AE0A7F16303152BF6D801A1B2
:1038200051F823F07D380008913800080D38000861
:103830000D3800080D3800080D38000891380008D0
:103840000D3800080D3800080D3800080D38000844
:1038500095390008BD3800084F3900080D380008B8
:103860000D380008B73900080D380008BD380008C9
:103870000D3800080D380008573900082B681A1D4C
:103880001B682A6004F1420584F8423001239FE05E
:1038900020682B68070603F10401296001D51E6822
:1038A00003E04606FBD5B3F90060002E03DA2D23B2
:1038B000764284F843305A480A2312E02B68206885
:1038C000191D2960050601D51E6802E04106FBD5D9
:1038D0001E8853486F2F0CBF08230A23002184F849
:1038E00043106568A560002DA2BF216821F0040186
:1038F00021600EB9002D4BD01546B6FBF3F103FB4A
:103900001167C75D05F8017D3746BB420E46F4D905
:10391000082B0BD12368DE0708D52369616899421B
:10392000DEBF302305F8013C05F1FF35521B226153
:10393000CDF800A04B4603AA21464046FFF7E4FE1F
:1039400001304AD14FF0FF3004B0BDE8F087236862
:1039500043F0200323603348782784F845702368B8
:1039600029681F0651F8046B02D45F0648BFB6B23F
:10397000DF0748BF43F02003296048BF23601EB91A
:10398000236823F0200323601023A7E72448E4E7FB
:103990001546BDE72B6826686169181D2860350645
:1039A0001B6801D5196002E07006FBD51980002361
:1039B00023611546BCE72B681A1D2A601D686268E2
:1039C00000212846FCF7E4FB08B1401B60606368F7
:1039D0002361002384F84330AAE723692A46494635
:1039E0004046D0470130ADD023689B0713D4E06830
:1039F000039B9842B8BF1846A6E7012332464946C2
:103A00004046D04701309DD00135E36803995B1AE9
:103A1000AB42F2DCEBE7002504F11906F5E700BF45
:103A2000813E0008923E000838B5074D044608461E
:103A3000114600222A601A4600F028F8431C02D1E1
:103A40002B6803B1236038BD58050020024B582273
:103A50001A604FF0FF30704758050020024B582283
:103A60001A604FF0FF30704758050020024B582273
:103A70001A600020704700BF58050020024B5822F2
:103A80001A604FF0FF30704758050020024B582253
:103A90001A604FF0FF30704758050020044A05496E
:103AA0001368002B08BF0B46184410601846704777
:103AB0005C05002060050020024B58221A604FF080
:103AC000FF307047580500202DE9F04786468C46A8
:103AD0000846089E154674461946002B40F0C280E1
:103AE0008542B2FA82F245D94AB1C2F1200300FA06
:103AF00002FC2EFA03F3954043EA0C0C94404FEA83
:103B0000154EA8B2BCFBFEF8230C0EFB18CC08FB2C
:103B100000F943EA0C43994528D9EB1808F1FF371F
:103B200004D2994502D9A8F102072B44A3EB09035B
:103B3000A4B2B3FBFEFC0EFB1C330CFB00F044EA0A
:103B40000344A04214D92C190CF1FF3304D2A04233
:103B500002D9ACF102032C44241A43EA07401EB1F7
:103B6000D440002334607360BDE8F0874746DDE74A
:103B70006346F1E792BB431B01214FEA154EAFB2FA
:103B8000B3FBFEFC200C0EFB1C330CFB07F840EAD9
:103B90000343984562D9EB180CF1FF3004D29845E5
:103BA00002D9ACF102002B44A3EB0803A4B2B3FB8F
:103BB000FEFC0EFB1C330CFB07F744EA0344A74250
:103BC0004ED92C190CF1FF3304D2A74202D9ACF123
:103BD00002032C44E41B43EA0040C0E7C2F1200387
:103BE00020FA03F1954090402EFA03F303434FEA85
:103BF000154EAFB2B1FBFEFC0EFB1C10190C0CFBFA
:103C000007F841EA0041884504FA02F422D969180C
:103C10000CF1FF3004D2884502D9ACF102002944EE
:103C2000A1EB08019BB2B1FBFEFC0EFB1C110CFBCF
:103C300007F743EA01439F420ED9EB180CF1FF311D
:103C400004D29F4202D9ACF102012B44DB1B41EAB2
:103C5000004192E76046E3E76146F7E76046A3E785
:103C60006346B7E7834206D916B9002108467BE7C9
:103C7000C6E900E0F9E7B3FA83F78FB9834201D3CD
:103C8000724508D8BEEB020460EB030301209C469A
:103C90001EB9002168E73846FAE7C6E9004CF8E7A4
:103CA000C7F1200CBB4022FA0CF41C432EFA0CF195
:103CB00020FA0CF3B84001434FEA14490EFA07F515
:103CC000B3FBF9F81FFA84FE09FB18300B0C08FB54
:103CD0000EFA43EA00439A4502FA07F240D9E31884
:103CE00008F1FF3004D29A4502D9A8F1020023441A
:103CF000A3EB0A0389B2B3FBF9F809FB183308FBFD
:103D00000EFE41EA03418E452CD9611808F1FF33BC
:103D100004D28E4502D9A8F10203214443EA0040AF
:103D2000A0FB0298A1EB0E014145CE46434602D3CB
:103D300006D14D4504D2B9EB020E68EB04030138FD
:103D4000002EA6D0B5EB0E0261EB030101FA0CFCCC
:103D500022FA07F34CEA0303F940C6E9003198E779
:103D60004046C5E74346D9E7F8B500BFF8BC08BCF4
:103D70009E467047F8B500BFF8BC08BC9E46704729
:103D800049276D20616C697665000000757361726A
:103D900074325F6275666665723A25730A000000C8
:103DA0007573617274335F6275666665723A257306
:103DB0000A0000007573617274315F627566666532
:103DC000723A25730A0000006C6F67207469636B98
:103DD0002025640A000000006D69635F7469636BED
:103DE0005B25645D203D2025640A00000006101656
:103DF000000610160000000001020304000000008D
:103E0000000000000102030406070809100000205A
:103E100000000000000000000000000000000000A2
:103E20000000000000000000000000000000000092
:103E30000000000000000000000000000000000082
:103E40000000000000000000000000000000000072
:103E50000000000000000000000000000000000062
:103E60000000000000000000000000000000000052
:103E7000232D302B2000686C4C0065666745464753
:103E800000303132333435363738394142434445D6
:103E90004600303132333435363738396162636445
:043EA0006566000053
:083EA40024FCFF7F0100000077
:043EAC00890200087F
:043EB000650200089F
:103EB40001000000100000000024F40010000020A5
:103EC40000000000303E0008503E0008103E00088C
:103ED40000000000000000000000000000000000DE
:103EE40000000000000000000000000000000000CE
:103EF40000000000000000000000000000000000BE
:103F040000000000000000000000000000000000AD
:103F1400000000000000000000000000000000009D
:04000005080028AD1A
:00000001FF
